:020000040800F2
:10000000000003205D060008F5230008F723000820
:10001000F9230008FB230008FD230008000000006E
:10002000000000000000000000000000616C0008FB
:10003000FF23000800000000F16C00088165000843
:10004000AD060008AD060008AD060008AD060008C4
:10005000AD060008AD060008AD060008AD060008B4
:10006000AD060008AD060008AD060008AD060008A4
:10007000AD060008AD060008AD060008AD06000894
:10008000AD060008AD060008AD060008AD06000884
:10009000AD060008AD060008AD060008AD06000874
:1000A000AD060008AD060008AD060008AD06000864
:1000B000AD060008AD060008AD060008AD06000854
:1000C000AD060008AD060008AD060008AD06000844
:1000D000AD060008AD060008AD060008AD06000834
:1000E000AD060008AD060008AD060008AD06000824
:1000F000AD060008AD060008AD060008AD06000814
:10010000AD060008AD060008AD060008AD06000803
:10011000AD060008AD06000801240008AD06000881
:10012000AD060008AD060008AD060008AD060008E3
:10013000AD060008AD060008AD060008AD060008D3
:10014000AD060008AD060008AD060008AD060008C3
:10015000AD060008AD060008AD060008AD060008B3
:10016000AD060008AD060008AD060008AD060008A3
:10017000AD060008AD060008AD060008000000004E
:10018000AD060008AD060008AD060008AD06000883
:10019000AD060008AD060008AD060008AD06000873
:0C01A0000D240008AD060008192400081A
:1001B00010B5054C237833B9044B13B10448AFF3A1
:1001C00000800123237010BD800300200000000088
:1001D0002441020808B5034B1BB103490348AFF3A0
:1001E000008008BD000000008403002024410208B4
:1001F00001F0FF01102A2BDB10F0070F08D010F8D8
:10020000013B013A8B422DD010F0070F42B3F6D1DB
:10021000F0B441EA012141EA014122F007047FF0F4
:1002200000070023F0E80256083C85EA010586EA4B
:10023000010685FA47F5A3FA87F586FA47F6A5FA87
:1002400087F68EB9EED1F0BC01F0FF0102F0070293
:1002500032B110F8013B013A83EA010313B1F8D13E
:100260000020704701387047002D06BF354603381F
:10027000073815F0010F07D1013015F4807F02BF58
:10028000013015F4C03F0130F0BC0138704700BFA9
:100290007BB972B90029BEBF00204FF0004106E0D3
:1002A00008BF00281CBF6FF000414FF0FF3000F086
:1002B000D3B9ADF1080C6DE904CE002909DB002BA0
:1002C0001ADB00F04DF8DDF804E0DDE9022304B0AC
:1002D0007047404261EB4101002B1BDB00F040F80E
:1002E000DDF804E0DDE9022304B0404261EB4101A6
:1002F000524263EB43037047524263EB430300F007
:100300002FF8DDF804E0DDE9022304B0404261EBA0
:1003100041017047524263EB430300F021F8DDF8DE
:1003200004E0DDE9022304B0524263EB430370476B
:1003300053B94AB9002908BF00281CBF4FF0FF314C
:100340004FF0FF3000F088B9ADF1080C6DE904CE34
:1003500000F006F8DDF804E0DDE9022304B07047A0
:100360002DE9F047089D8E4604468846002B4AD169
:100370008A42174662D9B2FA82F64EB1C6F120031C
:1003800001FA06F820FA03F3B74043EA0808B4403C
:100390004FEA174E1FFA87FCB8FBFEF1230C0EFB49
:1003A000118843EA084301FB0CF29A4209D9FB1871
:1003B00001F1FF3080F0EA809A4240F2E780023992
:1003C0003B449A1AA3B2B2FBFEF00EFB102243EAA2
:1003D000024300FB0CFC9C4509D9FB1800F1FF32DD
:1003E00080F0D6809C4540F2D3803B44023840EAFE
:1003F0000140A3EB0C0300211DB1F3400022C5E92D
:100400000032BDE8F0878B4205D90DB1C5E9000186
:1004100000210846F5E7B3FA83F1002946D1734578
:1004200002D3824200F20581841A6EEB030201209E
:100430009046002DE5D0C5E90048E2E7002A00F02B
:100440009080B2FA82F6002E40F0A4808A1A030C43
:100450004FEA174E80B2BCB20121B2FBFEFC0EFB8C
:100460001C2243EA024304FB0CF29A4207D9FB1810
:100470000CF1FF3802D29A4200F2E080C4469B1A87
:10048000B3FBFEF20EFB123340EA034302FB04F41B
:100490009C4207D9FB1802F1FF3002D29C4200F2C5
:1004A000CA8002461B1B42EA0C40A5E7C1F12006A8
:1004B0008B4022FA06F71F430EFA01F420FA06F3E6
:1004C0002EFA06FE4FEA1749234300FA01F81FFAF5
:1004D00087FCBEFBF9F01C0C09FB10EE44EA0E444D
:1004E00000FB0CFEA64502FA01F209D93C1900F105
:1004F000FF3A80F09C80A64540F2998002383C4447
:10050000A4EB0E041FFA83FEB4FBF9F309FB1344BA
:100510004EEA044403FB0CFCA44508D93C1903F142
:10052000FF3E80F08280A4457FD9023B3C4443EAF1
:100530000040A4EB0C04A0FB02EC64457346E146CA
:1005400062D35FD05DB1B8EB030264EB090404FA37
:1005500006F622FA01F31E43CC40C5E900640021EF
:100560004FE7B1FBF2FC010C41EA0E4180B240EAD8
:1005700001423B4638463C46B846BE462026B1FBC3
:10058000F7F1A2EB080241EA0C4166E7014618E7E1
:1005900010462CE7C6F120022EFA02F3B740B14014
:1005A00020FA02F24FEA174E0A43B3FBFEF8BCB240
:1005B0000EFB1833110C41EA034108FB04F9B0406B
:1005C00089454FEA104380B23ED9791808F1FF3CC3
:1005D00001D289451FD8A1EB0901B1FBFEF909FB46
:1005E00004F80EFB191192B242EA0142424529D2A7
:1005F000BA1809F1FF31C4D24245C2D2A9F10201B1
:100600003A44BEE7F0459DD2BEEB02036CEB070C0B
:100610000138E14696E7A7EB09094944A8F1020C25
:10062000B1FBFEF909FB04F8DBE773467FE75046B0
:1006300066E70846FDE63B44023A33E7ACF1020CBC
:100640003B441CE749469CE7A1EB0901C446B1FBCA
:10065000FEF909FB04F8C4E7704700BFDFF834D0A7
:10066000002103E00C4B5B58435004310B480C4B0A
:1006700042189A42F6D30B4A02E0002342F8043BA8
:10068000094B9A42F9D303F0EFFA22F0DDFF01F0B3
:1006900099F8704700000320206302080000002042
:1006A000640100208003002050440120FEE77047D1
:1006B00008B500F0BFFDBDE8084000F041BD00F006
:1006C000BBBD704710B50421044621F0D0FD204683
:1006D00010BD000038B50C4B0C4C18800C4B822020
:1006E00019806368984740F6110398420AD1094D72
:1006F00023682C60822098472B688220DB6898470B
:10070000002038BD0120FCE7A60300204C0000209B
:10071000A4030020A80300204FF4A071F020FFF7ED
:10072000D9BF0000F7B5394D2B6804461B698220FC
:100730009847208000284ED02B680DF106025B6997
:1007400001A982209847324B1B78002B4BD0BDF873
:10075000062040F674639A423FD9ADF80630BDF8E2
:1007600006209B1A9BB20A2B42D90B22B3FBF2F351
:10077000284A1288934201D9013A93B2BDF8042065
:10078000254840F6B8318A4234D8C2F571620E323B
:10079000016892B20F25B2FBF5F2204D2D88AA42D6
:1007A00084BF05F1FF35AAB28A4215468EB22AD916
:1007B000921B91B21A4E3768BB42BAB28CBF9A1ADA
:1007C000D21A92B211440529C4BF05603360036890
:1007D00063803368A38003B0F0BDB32A9CBFB4220A
:1007E000ADF80620BBE7BDF80630A3F5B473B9E752
:1007F0000023C3E7C2F56D62083292B20E2A016887
:10080000C8D800252A46891A89B2D3E7A803002050
:1008100040260020A4030020A0030020A6030020FF
:100820009C03002037B568460D461446FFF77AFF53
:10083000BDF8000030B1BDF802302B60BDF80430C7
:100840002360012003B030BD032821D8DFE800F089
:10085000020B12190F4B1A68B2FA82F252090421E4
:100860000D4803F0C7BE0B4B5A68B2FA82F2520928
:100870000821F5E7074B9A68B2FA82F25209102173
:10088000EEE7044BDA68B2FA82F252092021E7E778
:10089000704700BFAC03002000100240032821D89D
:1008A000DFE800F0020B12190F4B1A68003A18BF6C
:1008B000012204210D4803F09DBE0B4B5A68003AFB
:1008C00018BF01220821F5E7074B9A68003A18BFC4
:1008D00001221021EEE7044BDA68003A18BF01222A
:1008E0002021E7E7704700BFAC0300200010024062
:1008F00003280DD8DFE800F00206080A04210548A5
:1009000003F07DBE0821FAE71021F8E72021F6E781
:10091000704700BF0010024008B5032811D8DFE877
:1009200000F0020A0C0E0421074803F05DFE431E8E
:100930005842584108BD0821F6E71021F4E720216C
:10094000F2E70020F3E700BF0010024070B5084D49
:1009500000240126E0B2FFF7DFFF18B12B68012B5E
:1009600018BF2E600134052C05F10405F2D170BDCD
:10097000AC030020012380F8781080F879307047AC
:100980007047002070470000034B4164003918BFD6
:1009900001211970704700BF0F37012070470020F8
:1009A0007047836B0BB10846184770474FF6FF70CE
:1009B0007047406803689B691847704770477047E5
:1009C0007047704710B5044600F04CFD236803499A
:1009D000D3F890302046BDE810401847000000D002
:1009E00008B503680446D3F8843098472368204646
:1009F000DB6F984700F0ECF8236820465B6F984760
:100A0000292001F0BFF900F0E3F8236820465B6F6E
:100A10009847F8E710B5044608F01AFF2368204607
:100A2000D3F8BC30BDE81040184700F0FFBC00F020
:100A300003BD00F035BD00F0D5BC00F045BD00F0B1
:100A40004DBD00F0D9BC08F031B910B58421044681
:100A500021F00DFC204610BD10B590F8341090F830
:100A600078400C4B8C421A7809D03AB90A4A0B49A3
:100A70001488088810800C8001221A7010BD002A8A
:100A8000FCD0054A05491488088810800C80002293
:100A9000F3E700BF083701200437012006370120A3
:100AA00070B50D46194635B9094B0A4A0A4840F255
:100AB000FF2122F019FBC0E90F52084B003A18BF82
:100AC00001221A700368BDE87040D3F890301847CF
:100AD00094410208CC4102081A4202080E37012054
:100AE00008B5094B1B888B4203D8084B1B889342DF
:100AF00005D9074B074A0848A32122F0F5FA074B0E
:100B00001980074B1A8008BD0437012006370120E1
:100B10005F420208C24202081A4202080A37012054
:100B20000C370120034690F87A0018B15868036822
:100B30001B68184770470000012108B500220846CD
:100B400005F0A8FD0A4B186028B90A4B0A4A28216B
:100B50000A4822F0C9FA00220421012005F039FEDA
:100B6000074B186018B9074B034A2C21F0E708BD62
:100B7000C0030020054302084E4302087D430208DB
:100B8000BC030020C4430208024B4FF0FF31186839
:100B900005F0CABDC0030020014B186805F0F0BD88
:100BA000C0030020024B0021186805F0BDBD00BF46
:100BB000C0030020FFF7F0BF03480449006800238A
:100BC0001A4605F041BE00BFBC030020040000200F
:100BD00013B5084C00231A4601A9206805F065FEEC
:100BE00020684FF0FF33002201A905F05EFE02B03D
:100BF00010BD00BFBC03002003685B6C18470120D8
:100C0000704703689B6A1847FEE740F2EF30704771
:100C1000054B0360054B4FF08062C3F88820BFF39B
:100C20004F8FBFF36F8F7047084E020800E100E05E
:100C300010B504464FF45A61FFF7EAFF204621F051
:100C400016FB204610BD000082B0002301930E4B1E
:100C50001A6B42F400021A631A6B02F4000201924A
:100C6000019A1A6942F400021A611A6922F4000218
:100C70001A61064B064A1A61064A5A61064B4FF042
:100C800080629A6002B0704700380240D42700208A
:100C9000E90E0008090C000800E100E008B50A2888
:100CA00009D8DFE800F006100E0808080810101038
:100CB0001000022008BD054B054A0648902122F08D
:100CC00013FA0020F6E70120F4E700BF064402080B
:100CD000214402086C44020838B50C46887FFFF7AF
:100CE000DDFFA58AE28A164B2169586342EA054274
:100CF0005A64628BD963521B1A642568082D0ED181
:100D00009A611A615862207F0E4A42EA0062DA61F3
:100D1000E2681A620C4A5961D9601A6038BD002233
:100D2000D8611A61E1680A0A480902F4784200F4BD
:100D3000FC600243C1F3C4010A439A63034AECE72F
:100D400000B002400900010001230200012303005A
:100D500008B50B280BD8DFE800F00612100A0A0AC3
:100D60000A0808080808022008BD0520FCE7054B12
:100D7000054A06486F2122F0B7F90020F4E7012068
:100D8000F2E700BF06440208B14402086C440208BE
:100D90002DE9F04191F81D800C464046FFF7D8FF41
:100DA000A77F05463846FFF7D3FF06463846FFF7CC
:100DB00075FFA18A628B444B521A1A649A61228B86
:100DC000521A1A61E28A586342EA01425A6421695E
:100DD0006268D963DA602068802828D0227F0FD823
:100DE000202867D0402865D004281AD0364B45EA21
:100DF000026545F40035B845DD6161D0334A44E011
:100E0000B0F5807F04D0B0F5007FEFD1304800E02E
:100E1000304840EA0262DA61E2681A625E62596151
:100E200032E045EA026242F40032DA61F6E7A06895
:100E3000021DDA62227F45EA026545F40035DD6174
:100E40005E625961017841B1012921D0224B234AC8
:100E500023484FF48D7122F047F9DA69418822F472
:100E60007F42013922F0100242EA0122DA610121B7
:100E7000154BDA6942F02002DA61DA699206FCD495
:100E800010229A600029B9D0164A1A60BDE8F08194
:100E9000B2F1FF01DA69408822F47F4200F1FF30AD
:100EA00022F0100242EA002242F0100218BF012193
:100EB000DA61DDE745EA0262034B42F40032B4E74F
:100EC00042F20132E1E700BF00B00240012301001D
:100ED000090002000A000200FB440208154502084E
:100EE0006C44020801230200024B1B685868036827
:100EF0005B6918471037012070B5044625460A4B38
:100F00000C30002660602672667245F8203B602235
:100F1000294608F0F3FD04F55A63EE6024359D423E
:100F2000FBD1204670BD00BF084E0208034B1A6873
:100F3000D207FCD423229A60704700BF00B0024061
:100F40007047000030B50F4C2568ED07FCD4232511
:100F50000904A56041F001010225FF2B656361646E
:100F6000E0630AD00849656241EA0363E361074B25
:100F700022626061E060236030BDE561039BA36392
:100F8000034BF8E700B00240090001000100020035
:100F90000100030030B50E4C2568ED07FCD4232575
:100FA0001204A56042F001020225FF2B6563626412
:100FB000E063E16008D01B0643F00213E361054BD8
:100FC00065626061236030BD034BE3610123F9E793
:100FD00000B0024001000200020002FF30B50B4CDD
:100FE0002568ED07FCD4232512041B06A56043F4F5
:100FF0000033022542F0010265636264E063E16050
:10100000E361034B65626061236030BD00B0024064
:1010100001000200012070470C2070470C2303FBE5
:101020000100083070470C2303FB010008307047B3
:101030000120704741F23010704741F2301303FB3A
:1010400001000830704741F2301303FB0100083003
:101050007047012070471020704700EB01100830E6
:10106000704700EB011008307047084601F0D2BB12
:1010700010B5034B0360044607F06DFB204610BD1E
:10108000C04E020810B50446FFF7F2FF20461421B7
:1010900021F0EDF8204610BD10B5034B0360044667
:1010A00007F059FB204610BD8C4E020810B50446CF
:1010B000FFF7F2FF204641F2381121F0D8F8204620
:1010C00010BD000010B5034B0360044607F043FB5E
:1010D000204610BD584E020810B50446FFF7F2FF37
:1010E0002046182121F0C3F8204610BD10B5094B49
:1010F0000360044600F58B500430FFF7B9FF04F19C
:101100002C00FFF7C9FF04F11400FFF7DBFF2046B6
:1011100010BD00BFF44E020808B50248FFF7E6FF15
:1011200008BD00BF9C12002010B50446FFF7DEFF8B
:10113000204641F2D82121F09AF8204610BD000047
:101140002DE9F34101F0DCF9054601F0DDF9002459
:101150000146234628462246009411F0F5FF274B0E
:10116000274A1A60204602F001F8264D264B274AEE
:1011700027489A6011F050FF2B68BFF35B8FDB07A5
:1011800036D4284621F075F890B3224C224F234BD9
:10119000236007F1180604F1140004F12C086060C4
:1011A000C4F80880E760266107F0D6FA1C4B63613B
:1011B000404607F0D1FA1B4BE362384607F0CCFA01
:1011C00004F5805303F5BC70174AC3F8642102F09C
:1011D000A7FA224607F11401304602F041F83046E2
:1011E00001F018FB114821F09DFF284621F04DF831
:1011F0000F4802B0BDE8F041FFF7E4BB74370120AF
:101200004804002098120020680400204C040020AC
:10121000080000209C12002000240020F44E020848
:10122000584E02088C4E0208C04E020819110008E0
:10123000C4030020704700000148FFF7D1BB00BF86
:10124000C403002070B5264E264C274D274B236043
:101250003046FFF751FE284617F07CF824480FF07F
:10126000B5FB244B2448DC6000224FF48071C3E9B5
:10127000121222491A86C3E91A12214983F858200A
:10128000C3E91E011F49C3F880101F491F480B60A6
:10129000F021C3E90422C3E90622C3E90822C3E915
:1012A0000A22C3E90E22C3E91022C3E91422C3E9CA
:1012B00017225A6683F870205A67C3E901650180D6
:1012C0001348018013484FF4A07101801248018037
:1012D00012490A70012283F83420114A1A6070BD45
:1012E000F4040020941200206804002084410208C5
:1012F0004C040020C4030020000001010100000193
:10130000000450001A001400103701200437012097
:101310000A370120063701200C3701200837012049
:101320001C4D02080148FFF773BC00BFF404002005
:101330000020704781807047C180704701817047ED
:10134000418170477047704770477047704710B4CD
:10135000C4880368121B84885B6D091B12B25DF898
:10136000044B09B218474FF6FF7383814FF0FF33E8
:1013700003621368C36110607047002070478B8858
:10138000838001207047704780F82610704790F8DE
:101390002600704710B50022B1F90840B1F90A10D3
:1013A000028042808480C18010BD00220280428081
:1013B0008280C28070470177704780ED080A7047CD
:1013C00080F82410704780F825107047012070477E
:1013D000983070478C307047843070477047704742
:1013E00070470000034B902283F85A2383F8582358
:1013F000704700BF00E100E0094A0A49D3680A4883
:10140000C3F30A03013B9BB20B801169C1F30A01CC
:10141000013901801364536B43F001035363704738
:10142000006801407625002074250020014BD3F888
:10143000AC00704700680140024B0122C3F8AC10B9
:101440005A6270470068014010B52C21044620F014
:101450000EFF204610BD10B5BC21044620F007FF4A
:10146000204610BD70B5044607F075FC23689D6EDC
:101470000EF044F801462046A8472368054AD3F8F1
:101480008C502046AC460023BDE87040A2F51631D2
:10149000604700BF00B004D007F044BC07F04EBC6A
:1014A00007F00ABC07F079BD90F8252012B1036857
:1014B0005B691847704790F825201AB190F82420EE
:1014C00002B1186070470000034B4FF080629A60D1
:1014D0004FF080729A60704700E100E0084B4FF0D7
:1014E0008062C3F88820BFF34F8FBFF36F8F4FF038
:1014F0008072C3F88820BFF34F8FBFF36F8F7047A0
:1015000000E100E070B50023124E8380124B0360AF
:10151000336893F8582005460AB1D86C00B998682A
:101520000368DB6A98473368B0FA80F4D86C6409C2
:1015300030B10368DB6A9847002808BF44F0010413
:101540002CB9064B064A07482C2121F0CDFD284630
:1015500070BD00BF10370120084F02085345020834
:10156000B1450208EA45020870B5254E3568BFF35B
:101570005B8F15F0010540D1304620F07AFE00283F
:101580003BD0204C204B256104F13400C4E90035E8
:10159000C4E90255E584A562A5850FF0FCFC04F1C1
:1015A00058000AF035FC194BA3652046184B40F84B
:1015B000843BFFF7A7FF174BC4F884302433C4F8EB
:1015C0008C304FF4C803C4E928350023C4F8AC308C
:1015D000C4F8B030C4F8B430C4F8B8300E480F4B7B
:1015E000C4F89050C4F89C50C4F8A850C4F898307F
:1015F00021F098FD304620F048FE024870BD00BF43
:10160000782500207C25002078540208284F020805
:10161000A04F02082C540208E11300080C540208E1
:1016200038B5184C23685BB3174B184A1B6C1188EC
:101630008B4216D1164B198803F0C6FD236893F828
:101640006A200025013283F86A2083F87C50FFF776
:10165000B3FA206808F0FCF82846BDE83840FFF7E8
:10166000F3B803F0B1FD2468236820461B6A98474D
:10167000012384F87C300020BDE83840FFF70EB924
:1016800038BD00BF103701200068014076250020DA
:101690007425002007B5064BADF806001B68054809
:1016A00001220DF1060104F02FFB03B05DF804FBED
:1016B0000C0000208026002007B5184D184C284645
:1016C00002F0C6FB4FF0FF31284602F05AFC2846D4
:1016D00002F0AAFCADF80000284602F037FC012019
:1016E00004F0CCFF204602F0B3FB4FF0FF31204660
:1016F00002F047FC204602F097FCADF804002046BB
:1017000002F024FC074800231A466946006805F0E9
:101710009BF8322004F0B2FFD1E700BF642800201C
:101720001C2800203C26002030B595B01022002156
:101730000AA821F0E0FE1422002103A821F0DBFE1C
:1017400000241E4B01941A6C42F080521A641B6CE8
:1017500003F080530193019B194B02941A6842F4E1
:1017600040421A601B6803F4404302930122029B2B
:101770004FF48033CDE9082302254FF4800308217C
:10178000CDE90E534FF4B473CDE9101308A8042328
:101790001393129503F070FD03F034FD0F23CDE990
:1017A00003354FF4A0504FF48053CDE906030521D3
:1017B00003A8059403F03CFF15B030BD003802408B
:1017C000007000402DE980489BB002F05BFAFFF703
:1017D000ABFF142200210DA821F08DFE0024C94B7F
:1017E00000941A6BC84842F010021A631A6B02F098
:1017F00010020092009A01941A6B42F020021A63C0
:101800001A6B02F020020192019A02941A6B42F0C4
:1018100080021A631A6B02F080020292029A039409
:101820001A6B42F004021A631A6B02F0040203926C
:10183000039A04941A6B42F001021A631A6B02F0C5
:1018400001020492049A05941A6B42F002021A6390
:101850001A6B02F002020592059A06941A6B42F086
:1018600040021A631A6B02F040020692069A07942D
:101870001A6B42F008021A631B6B03F0080322463E
:1018800007933C21079B02F0B5FEA04801220221EC
:1018900002F0B0FE22469D48042102F0ABFE224633
:1018A0009B484FF4405102F0A5FE01263C2303253E
:1018B00095480F940DA90227CDE90D36109502F039
:1018C000AFFD92480DA9CDE90D76CDE90F4402F0A8
:1018D000A7FD04238D480DA9CDE90D36CDE90F47AD
:1018E00002F09EFD4FF4405389480DA9CDE90D3615
:1018F000CDE90F4702F094FD082384480F940DA909
:10190000CDE90D3502F08CFD0DA9202381480F94FF
:10191000CDE90D3502F084FD7F48804B804D03609A
:1019200002F074FC7F48804B2C62C5E900034FF441
:1019300080432846C5E90434C5E90244C5E90644A4
:1019400003F066F81021284603F0AAFA214628463B
:1019500003F0C5FA754DDFF8ECC1AC624FF4827349
:10196000C5E900C34FF4007E1823C5E906E3284605
:101970000A23C5E90244C5E90444C5E90844EB6209
:1019800004F066F98F232246394660488DF82430EA
:101990008DF8344002F02EFE32464FF47A7309A9D6
:1019A000284604F0B1F94FF47A7332460DA928465F
:1019B00004F056FB3246394654485D4D02F01AFE9B
:1019C0009DF83430D32B04BF5A4B1E705A4B01265E
:1019D000C5E900364FF0100840230024C5E9048310
:1019E0004FF4C073C5E906344FF40063C5E9083409
:1019F0004FF400534FF0020A4FF004094FF0030B6D
:101A0000AB620DA907232846CDE90DA3CDE90F93BD
:101A10000827C5E90249CDE911BACDF84CA003F079
:101A2000FBFF4FF6FF7209A92846CDE90A76089414
:101A300009960C9404F010F8304602F04FF94FF676
:101A4000FF7209A92846CDE909A7CDE90B6404F086
:101A500003F84FF6FF7209A92846CDE909B7CDE989
:101A60000B9403F0F9FF4FF40C730893089B0C934D
:101A70004FF6FF7209A92846CDE909970B9603F0A6
:101A8000EBFF40F26A51284604F004F83422214664
:101A90000DEB020021F02FFD284D294B2C61C5E9EB
:101AA00000340923C5E905361D23C5E9073B40F28B
:101AB0000D1240F24313C5E9092340F2171140F219
:101AC00047132846C5E90B13C5E90244AC8685F8DF
:101AD000364003F097FAFF21F022CDE912144FF0BF
:101AE00005094FF480614FF4A073CDE90E24CDE9D0
:101AF0001419CDE916420DA922462846CDE9103A1F
:101B000022E000BF003802400010024000080240FE
:101B1000000C024000000240142800200030024067
:101B200080270020005C0040A08601008026002065
:101B30004C26002040260020400100A0D82600208E
:101B40000068014000500140414D18930D94ADF8DC
:101B500064408DF8664003F009FB3E4B2B601B6828
:101B600098472B683C4DDB6898473C4B2846C5E9B5
:101B70000034C5E902A4C5E90A4AC5E90C4402F0EB
:101B800055FB3146284602F007FC354DDFF800A131
:101B9000424621460DA821F0AEFC324BAC604FF41A
:101BA000803B2846C5E9003B2C612C7685F8204017
:101BB000EC62C5F828A0EC60EE6185F830406E61FB
:101BC00002F0A0F80D230DA92846CDE90D36264DCB
:101BD0000F9402F02DFA424621460DA821F08BFC0D
:101BE000224BAC602846C5E9003BC5E90AA42C613C
:101BF0002C7685F82040EC60EE6185F830406E610F
:101C000002F080F80DA92846CDE90D960F9402F058
:101C10000FFAFEF74DFDFEF74AFD04F0BFFC144A33
:101C200039460A2004F0D5FD124B134A18602146AC
:101C3000124804F0DFFC124B124A18602146124889
:101C400004F0D8FC114B186004F0BAFCFEE700BFAA
:101C50003826002014000020D427002000B00240C5
:101C600064280020002001401C28002000210140A1
:101C7000E44F02083C26002020500208B916000854
:101C800048260020FC4F0208BF060008442600201A
:101C90000100000F704770477FB5094B8DF8172082
:101CA0001B6802930DF117020123009201930A466B
:101CB0000146044802F054FF07B05DF804FB00BF82
:101CC00010000020802700207FB500238DF81730FA
:101CD000084B1B6802930A4601230DF1170100917E
:101CE00001930146044802F0CBFF9DF8170007B0AE
:101CF0005DF804FB10000020802700201FB5084C71
:101D000024680092CDE901340A46012301460548C2
:101D100002F0B6FF003818BF012004B010BD00BFAC
:101D2000100000208027002001F0D8BF10B5064C1D
:101D300000222046042102F05DFC20460122BDE87D
:101D40001040042102F056BC0008024038B50B4D8B
:101D5000044601220A484FF4005102F04BFC0022D5
:101D60000421284602F046FC2046FFF793FC284653
:101D70000122BDE83840042102F03CBC00080240CA
:101D8000000C024038B50B4D044600220A484FF4BF
:101D9000005102F02FFC00220421284602F02AFC08
:101DA0002046FFF777FC28460122BDE83840042191
:101DB00002F020BC00080240000C0240F7B5144EAF
:101DC000144F05460C4630460022042102F012FC56
:101DD00000224FF40051384602F00CFC2846FFF771
:101DE00059FC0D4B0D481B68224601A904F038F937
:101DF000384601224FF40051019C02F0FBFB3046B3
:101E00000122042102F0F6FB204603B0F0BD00BF22
:101E100000080240000C02400C0000208026002038
:101E200001F05CBF0268034B9A4201D101F044BF4C
:101E3000704700BF001000407047000082B00E4B9A
:101E400000220092596C41F480415964596C01F4AC
:101E50008041009100990192196C41F08051196400
:101E60001B6C03F080530193019B0F216FF0010065
:101E700002B002F08BB900BF0038024010B5142246
:101E80008AB0044600210DEB020021F034FB2368E8
:101E9000214A93421FD1214B2148002101915A6CC4
:101EA00042F480725A645A6C02F480720192019A70
:101EB00002911A6B42F004021A631B6B03F00403D5
:101EC00002930821029B0323CDE9051305A902F023
:101ED000A7FA0AB010BD134A9342FAD10F4B124829
:101EE000002103915A6C42F400725A645A6C02F455
:101EF00000720392039A04911A6B42F001021A6372
:101F00001B6B03F001030493049B20220323CDE900
:101F1000052305A9DBE700BF00200140003802408F
:101F20000008024000210140000002400268094B05
:101F30009A4282B00BD100230193074B1A6B42F4F3
:101F400080521A631B6B03F480530193019B02B010
:101F5000704700BF003002400038024007B50F4B09
:101F600002689A4216D10022A3F5F0430192196B40
:101F700041F4000119631B6B03F400030193052175
:101F80005A20019B02F002F95A2003B05DF804EBDD
:101F900002F02EB903B05DF804FB00BF00B00240B0
:101FA0002DE9F043044689B01422002103A821F052
:101FB000A2FA2268244B9A4243D1244C244800259B
:101FC0000095236B43F004032363236B03F00403A6
:101FD0000093009B0195236B43F001032363236B64
:101FE00003F001030193019B4FF012094FF40073BA
:101FF0004FF001080327042603A9CDE90339CDE9F1
:102000000587079602F00CFA4FF480731148079683
:1020100003A9CDE90339CDE9058702F001FA02955C
:10202000236C43F400032364236C03F40003029342
:10203000029B236A43F400032362236A23F4000310
:10204000236209B0BDE8F083005C00400038024024
:102050000008024000000240F0B599B00446142286
:10206000002107A821F047FA30220DEB02000021E1
:1020700021F041FA22685E4B9A4240F0B780082373
:102080000C93C0231093042312930CA84FF4003335
:10209000159303F095FB08B1FFF7CEFE554B56485C
:1020A000002400945A6C42F080625A645A6C02F028
:1020B00080620092009A01941A6B42F020021A6327
:1020C0001A6B02F020020192019A02941A6B42F0FC
:1020D00001021A631A6B02F001020292029A03943F
:1020E0001A6B42F002021A631A6B02F002020392A8
:1020F000039A04941A6B42F040021A631A6B02F0BE
:1021000040020492049A05941A6B42F004021A6386
:102110001A6B02F004020592059A06941A6B42F0BB
:1021200008021A631B6B03F00803069302250E26B0
:10213000069B0B964FF4806307A9CDE90735CDE9DF
:10214000094502F06DF941F658032C480B9607A992
:10215000CDE907350927CDE9094502F061F90323E7
:1021600027480B9707A9CDE90735CDE9094502F0C6
:1021700057F94FF4706322480B9607A9CDE907354C
:10218000CDE9094502F04CF94FF40C631D480B965C
:1021900007A9CDE90735CDE9094502F041F9C0238A
:1021A00019480B9607A9CDE90735CDE9094502F095
:1021B00037F9082315480B9607A9CDE90735CDE96E
:1021C000094502F02DF94FF4A0530E480B9707A9CB
:1021D000CDE90735CDE9094502F022F9582022461C
:1021E000052101F0D3FF582002F002F819B0F0BD2C
:1021F0000068014000380240001402400000024024
:10220000000402400018024000080240000C024096
:1022100010B5044688B01422002103A821F06BF900
:102220002268144B9A4223D103F56843002101919F
:102230005A6C114842F480125A645A6C02F48012AB
:102240000192019A02911A6B42F020021A631B6BF1
:1022500003F020030293029B4FF4607202230321D8
:10226000CDE903230523CDE9061303A902F0D8F82D
:1022700008B010BD00500140001402402DE9F041AB
:1022800086B0002303932B4B1C68002C4FD14FF0DA
:102290000108C3F80080284B00949A6B274842EA53
:1022A00008029A639B6B03EA080300930227032644
:1022B0000C25009B01A94FF63F03CDE90137CDE97D
:1022C000046502F0ADF81E48059501A9CDE9018726
:1022D000CDE9034602F0A4F848F2331319480595F6
:1022E00001A9CDE90137CDE9034602F099F84FF68F
:1022F00083731548059501A9CDE90137CDE903465A
:1023000002F08EF84CF203731048059501A9CDE94F
:102310000137CDE9034602F083F860230C480595A8
:1023200001A9CDE90137CDE9034602F079F806B0FD
:10233000BDE8F081AC2800200038024000140240C3
:10234000000802400018024000100240000C024049
:102350000004024070B588B000230293204B1A6C31
:1023600042F010021A641B6C03F01003029305463E
:1023700001A903A8029B03F005FA069B4BBB03F0DF
:10238000F1F9184E184B336040F2E733F360174B06
:10239000B0FBF3F3013B7360304600233361B3605D
:1023A000B36104F027F8044680B9304603F0FCFE20
:1023B000044658B9362001F01BFF0F2D0DD82246D8
:1023C0002946362001F0E2FE094B1D60204608B088
:1023D00070BD03F0C7F94000D3E70124F6E700BF62
:1023E00000380240B02800200010004040420F009A
:1023F0007C0000207047FEE7FEE7FEE7FEE770473F
:10240000014803F00FBF00BFB0280020014802F0D0
:1024100050BE00BFD8260020014801F033BF00BFE6
:10242000D42700200120704708B521F007F91623B2
:1024300003604FF0FF3008BD08B521F0FFF8162308
:102440000360FEE770B50D4614460E46731B9C42B2
:1024500001DC204670BDAFF3008006F8010BF5E704
:1024600070B50D4614460E46731B9C4201DC204697
:1024700070BD16F8010BAFF30080F5E74FF0FF30A9
:1024800070474FF400534B600020704701207047A5
:10249000002070470A4A116808B5034609B909497E
:1024A00011601068694603448B4206D921F0C6F8D2
:1024B0000C2303604FF0FF3008BD1360FCE700BF42
:1024C000F828002050440120704710B5042104462C
:1024D0001FF0CDFE204610BD012908B506D0022907
:1024E00008D059B900F08EFE006808BD00F08AFEE1
:1024F0004068FAE700F086FE8068F6E70020F4E71F
:1025000000487047585002080120704713B5002456
:1025100051B1036801948DF8034001AA9C680DF144
:102520000303A04702B010BD0846FBE7C08970470F
:10253000008A7047C088704780887047807A00F0B2
:102540007F007047807AC009704700207047000004
:102550009FED010A704700BF00000000704710B5F2
:10256000082104461FF083FE204610BD70477047C7
:1025700000F598730868496803C37047704770474F
:102580004160704770477047064BC0F84C310023DC
:10259000C0F8503100F5A273C0F84801C0F84031CE
:1025A000704700BF49260008012303727047704737
:1025B00010B4C26841685410034601EB6200D207B0
:1025C00048BF0A599B685DF8044B48BFD358184769
:1025D0000346406830B19A681AB9D86800F0010023
:1025E00070470120704710B50C2104461FF03FFED4
:1025F000204610BD10B5102104461FF038FE2046BD
:1026000010BD10B54FF4AE7104461FF030FE2046E9
:1026100010BD10B50CF072FF0368BDE81040DB6B15
:10262000184710B50446D0F8400158B10368DB687C
:10263000984738B1D4F8400103689B689847002355
:10264000C4F8403110BD00002DE9F14FD0E9556AC2
:102650000746B06803681B6A984741F22F139842F7
:1026600005D8444B444AA321444820F03DFD7068FE
:1026700003681B6A98470F2803D8414B3E4AA421A0
:10268000F2E7F06803681B6A98470B2803D83D4BB4
:10269000394AA521E8E70CF031FFDFF8F09004306B
:1026A0000CF051FFD9F8000010B10368DB689847BF
:1026B000D9F8000010B103681B689847DFF8D08094
:1026C000D8F8000010B103685B699847D7F83C015F
:1026D00010B103685B689847D8F8000010B1036830
:1026E0001B689847D7F83C0110B103689B6898476E
:1026F000F068036800215B6A98474FF0000B224B9B
:10270000C0F804B0044680F808B00360B0680368FD
:1027100059465B6A9847054600F0DCFD706803681F
:1027200059465B6A98472946064600F0B1FD331DBD
:10273000C7F83C61C9F80040C8F80050CAF800303A
:102740002B68C6F808A02846DB68EE639847336814
:1027500030461B689847214628460FF04DF92368FC
:1027600020461B69984723685B69204601B0BDE895
:10277000F04F18476F460208FD460208D547020889
:102780001C480208BF480208F050020858370120D0
:1027900054370120044B1B6893F858200AB1D86CB9
:1027A00000B99868704700BF10370120F8B5174688
:1027B00004460E460CF064FF124B1C60124B236063
:1027C000124B0025C4E95135114BC4E95355186823
:1027D000036801219B68C4E94F55C4E955769847C1
:1027E000284600F0C3FCFFF7D5FF17F05CFCFFF7AD
:1027F000D1FF17F0D3FCFFF7CDFF17F0DBFC20462D
:10280000F8BD00BF643701209C50020884500208C4
:1028100010370120064BC0F84C310023C0F850316E
:1028200000F5A273C0F84801C0F84031704700BFFE
:10283000492600087047704770477047704730B5A9
:10284000036885B06D460181D3F8843001460446A3
:102850002846984795E807003C3484E8070005B00F
:1028600030BD30B5036885B06D464181D3F8843002
:10287000014604462846984795E807003C3484E81A
:10288000070005B030BD0022028042808280C280F5
:10289000704780F83610704770B5036804461B6BAC
:1028A000154698472368294620465B6EBDE8704070
:1028B000184700207047806C70477047704770471A
:1028C0000368DB6A184710B54C2104461FF0CFFCA3
:1028D000204610BD10B5034B036004460BF014F9FD
:1028E000204610BDA451020810B5064B03600446F3
:1028F0000BF00AF920464FF488511FF0B8FC20462F
:1029000010BD00BFA451020808B5FEF7CDFD08BDFB
:10291000036870B55E6B124B1B6804468DB22BB911
:10292000104B114A6C21114820F0DEFB1049828DBA
:102930000988914203D80F4B0B4A6D21F3E713F836
:1029400012200D4B1B6853F8220003681B6B98473D
:10295000291A3346204609B2BDE87040184700BF27
:102960006837012062490208A4490208DF490208C9
:102970006C370120264A02087037012000224FF0F0
:10298000FF31C0E900218260704770B503680446DA
:102990001B6B154698472368294620465B6BBDE8AC
:1029A0007040184770B504461D46BDF91060FFF72A
:1029B000ECFF2368294620469B6B984723683146E5
:1029C0002046DB6BBDE8704018470000094A0260F2
:1029D0004FF4807100228184FF21C0E90122C0E907
:1029E0000322C0E90522C0E9072280F8261082628E
:1029F000704700BFD05702084FF4807181840D49A1
:102A000001600D4981624FF6FF7181854FF47F01AE
:102A1000002241634FF0FF31C0E90122C0E90322E7
:102A2000C0E90522C0E90722C0E91012026302874B
:102A3000C263704740570208745002082DE9F04FF6
:102A4000044691B0A14600250EF02AFEAA4BE5638C
:102A500049F8403B4846FFF7B9FF04F16C0304F125
:102A600098081846DFF8B8A20593FFF7AFFF404675
:102A700009F076FB04F584730AF1240B184604F57B
:102A80008E770993FEF73EFDC4F808A1C4F810B193
:102A9000C4F81451384609F063FB04F5C6731846B0
:102AA00004F5D0760893FEF72DFDC4F88CA1C4F888
:102AB00094B1C4F898513046FFF79EFF04F5F473C3
:102AC00018460393FFF798FF8C4BC4F8E83104F5E0
:102AD0000D731846C4F830520493FFF78DFF874BEF
:102AE000C4F8343204F520731846C4F87C520693B7
:102AF00008F080FC04F5327318460793FEF702FDD8
:102B0000C4F8C8A2C4F8D0B24FF4A07A4FF46161FF
:102B100004F53C70C4F8D4520AF0ECFF2A46F023C6
:102B200029464846CDF800A0FFF73CFF04F1040B0E
:102B30004FF07F43A3664946584605F021FE2A46DA
:102B40000598CDF800A0F0232946FFF72BFF4FF0A2
:102B50007F430599C4F89430584605F011FE0A23C6
:102B600000934FF49672462358214046FFF71AFF10
:102B7000634BC4F8143143F64473A022A4F818310F
:102B8000099BC4F8C0301146404609F0FFFBA02263
:102B90004FF40261404609F004FCD4F8D4305345A8
:102BA00004D0C4F8D4A0404609F0FAFA0121404606
:102BB00009F002FC4146584605F0E2FD0A22009267
:102BC000462355213846FFF7EDFE4E4BC4F89831A9
:102BD0004FF26103A022A4F89C31089BC4F8443151
:102BE0001146384609F0D2FBA0224FF40261384664
:102BF00009F0D7FBD4F85831B3F5A07F06D04FF4D5
:102C0000A073C4F85831384609F0CAFA3846012191
:102C100009F0D2FB394658460AAD05F0B1FD002750
:102C20009C22304606214FF0FF38FFF7AEFE3146BA
:102C30002846C4F8D081A4F8D47109F05FFD95E866
:102C4000070006F13C094FF0010389E8070031460F
:102C500084F8D831284609F051FD95E807002A4B41
:102C60000E9389E80700042330460EA9ADF83C30E6
:102C700009F0ECFF3146584605F082FD1E23712213
:102C80000398009339461423FFF78CFED4F8E831FB
:102C90000399D3F88430C4F818822846A4F81C722B
:102CA000984795E80700039BDFF878A003F13C09FB
:102CB000D4F8E831032689E80700D3F88430039973
:102CC00084F820622846984795E80700DAF8003033
:102CD00089E8070004F537792BB90C4B0C4A6021C1
:102CE0000C4820F001FA0C4B1B88022B1CD80B4B14
:102CF000074A6121F4E700BFA451020814510208F9
:102D000023EB3EFF0F0FF2FF7450020862490208E6
:102D1000644A0208DF4902086C370120264A02088B
:102D20002C54020868370120444B0221186800F037
:102D300059FA434A03460521484610F05FF9414AD3
:102D40000398C4F830920EA90E92ADF83C6009F0D9
:102D50007DFF0399584605F013FD1E21A522049816
:102D6000009114233946FFF71DFED4F8343204993C
:102D7000D3F88430C4F864822846A4F8687298476F
:102D80000499D4F8343201F13C0995E80700D3F8EE
:102D9000843089E807002846049984F86C629847D3
:102DA00095E80700DAF8003089E8070004F2E62524
:102DB000002B92D024490B88002B98D01F4B39460A
:102DC000186800F00FFA1E4A03460521284610F045
:102DD00015F91C4A0498C4F87C524FF001030EA95F
:102DE0000E92ADF83C3009F031FF0499584605F0D9
:102DF000C7FC14230698009396226E21FFF7D2FD9C
:102E00004FF4A073C4E9AB33C4F8B4324FF4345375
:102E1000C4F8BC32079B0699C4F8C0725846C4F87F
:102E2000B872C4F8D482A4F8D882C4F8A83205F0E5
:102E3000A7FC204611B0BDE8F08F00BF7437012019
:102E4000AF4A0208745002086C370120406A70478C
:102E5000806A704770478A880B8810B5D20A4C8800
:102E6000C1699BB251F8220043EA0443184410BDE3
:102E700010B50446BAB1107B68B1537BD27A1B02FD
:102E800003F4E0631A43236A03EB82031A888A423D
:102E900002D193F9020010BD05D8013880B2043385
:102EA0000028F3D1F7E70020F5E710B52C21044600
:102EB0001FF0DDF9204610BD30B58BB00446BDF8DB
:102EC00060500895BDF85C5007959DF850500695E8
:102ED0009DF84C5005959DF8485004959DF8445038
:102EE00003959DF8405002959DF83C500195BDF822
:102EF000385000950EF00CF9064B2360159BE361EA
:102F0000169B2362199B63621A9BA36220460BB037
:102F100030BD00BFDC5102087047000030B5164DCF
:102F20002C6814F001048FB0BFF35B8F20D12846CA
:102F30001FF09FF9E0B13F230993104B0893104B0A
:102F4000104911480A940122CDE906430423CDE932
:102F500003320A230093CDE90B44CDE901440594E3
:102F6000FFF7AAFF094820F0DDF828461FF08DF989
:102F700005480FB030BD00BFFC280020B462020835
:102F8000C06202086862020800290020192F0008A8
:102F90007047000030B5164D2C6814F001048FB056
:102FA000BFF35B8F21D128461FF063F9E8B13F23BF
:102FB0000993104B0893104B104911480A94CDE91E
:102FC000064301220423CDE9033214230093032294
:102FD000CDE90B44CDE901440594FFF76DFF0948A5
:102FE00020F0A0F828461FF050F905480FB030BD7A
:102FF0002C290020B8620208C46202087862020824
:1030000030290020912F00087047000030B5164D80
:103010002C6814F001048FB0BFF35B8F20D12846D9
:103020001FF027F9E0B13F230993104B0893104B91
:10303000104911480A940122CDE906430423CDE941
:10304000033228230093CDE90B44CDE901440594D4
:10305000FFF732FF094820F065F828461FF015F900
:1030600005480FB030BD00BF5C290020BC620208DB
:10307000C8620208A4620208602900200930000822
:1030800000207047002070470EB403B503AB002149
:1030900053F8042B01930DF0B9FA02B05DF804EB7C
:1030A00003B070470CB407B504AB53F8042B01937D
:1030B0000DF0ACFA03B05DF804EB02B0704700000D
:1030C000436C10B5044673B3038F2BB9184B194AE0
:1030D000C521194820F008F8C38E00EB43035B8C30
:1030E0000BB30FF0E2F9238F012B03D8134B144AD3
:1030F000CB21EEE7E28E531C9BB2092B194688BF09
:10310000A3F10A0104EB410140F63F10498C8142D2
:1031100009D10A2B04EB420228BF002304EB43032E
:10312000508C588451842046BDE810400FF0C0B840
:10313000B24A0208BB4A0208664B0208B04B0208BA
:10314000BE4B02080FF07BB810B586B002AC84E825
:1031500006001A460AAB05930193099B009321468A
:10316000089B0BF069FD06B010BD000038B518BB18
:10317000124B13481C681349B4B122682244026000
:10318000626822440A60A26814440F4B00221A802D
:1031900000F038F8054600F033F80C4B1C600C4B7F
:1031A0001D600C4B188007E00B4B03600B4B0B6052
:1031B0000B4B1C68002CE8D138BD00BF98290020BB
:1031C000902900208C2900209429002068370120B4
:1031D000703701206C370120E0620208CC620208DF
:1031E000EC620208044B1B6853F82100034B1B6878
:1031F00003EB4000704700BF8C290020902900207D
:1032000005207047004870479C29002010B5FFF743
:10321000C1FE044C2060FFF7F9FE6060FFF77EFE00
:10322000A06010BD9C29002010B5002404600C6033
:1032300014601C6010BD704710B54FF4AE710446A9
:103240001FF015F8204610BD10B50446D0F85801FF
:1032500000F069FA2046BDE810400CF0D1B900003A
:1032600010B50446FFF7A2FA014B2360204610BDBB
:1032700044520208704704387047704710B5102157
:1032800004461EF0F4FF204610BDA0F10400F5E74F
:1032900000228260024A026018324260C1607047B8
:1032A000985202087047000010B5034B03600446B3
:1032B000FFF710FB204610BDC052020810B50446AF
:1032C000FFF7F2FF204641F230111EF0D0FF2046FA
:1032D00010BD000010B50446FFF7B0FB084B23609B
:1032E0000A2204F58053C3E94A220022C3F80021D0
:1032F0004FF08042C3F80C21C3F81021204610BDC6
:10330000C0520208FFF7DBBA38B500F5885500F562
:10331000805304461435D3F82831064A284605213F
:103320000FF06CFEC4F8305204F5F470BDE838407C
:103330000DF096BA904C020838B500F5885500F5A6
:10334000805304461E35D3F82C31064A2846052101
:103350000FF054FEC4F87C5204F50D70BDE83840FF
:103360000DF07EBA904C0208B0F9863206EE903A23
:10337000B0F9843207EE903A2DE9F04F00F5805411
:1033800094ED437AB0F92071D4ED445AB0F922B1EA
:10339000B0F99C60B0F99EA0F8EEE77A06EE107ADC
:1033A00077EE877AB3EE045AF8EEE66A77EE854A4E
:1033B000B8EEC66A76EEA56AF4EEC64AF1EE10FAE9
:1033C00089B00546C4ED417AC4ED426A24DB07F1B9
:1033D000460306EE103AB8EEC66AF4EEC67AF1EE8F
:1033E00010FA19D806EE10BAB8EEC66AF4EEC66A3C
:1033F000F1EE10FA10DB0BF10A0306EE103AB8EE0C
:10340000C66AF4EEC66AF1EE10FA9EBFF1EE655A96
:10341000C4ED445A84ED426A06EE906AF8EEE66A1C
:10342000F4EEE64AF1EE10FA30DB06F1460306EE62
:10343000903AF8EEE66AF4EEE67AF1EE10FA25D864
:10344000D4ED426A06EE10AA76EE856AB8EEC66A38
:10345000F4EEC66AF1EE10FA18DB0AF10A0306EE82
:10346000103AB8EEC66AF4EEC66AF1EE10FA0DD85C
:10347000D4ED446AAAF11403F1EE666AC4ED446A1D
:1034800006EE903AF8EEE66AC4ED426AF5EEC07ACE
:10349000F1EE10FA4FF0000300F2EE80C4F80431B0
:1034A000B1EE477A84ED437AD4ED427AF5EEC07AF4
:1034B000F1EE10FA00F2EC80D4ED447AC4F8083151
:1034C000D4F82C31F1EE677A013BC4ED447AC4F8AC
:1034D0002C312846FFF730FFD4ED427AB5F886321A
:1034E000FDEEE77A05F5207017EE902AD4ED417ACB
:1034F000FDEEE77AD21A17EE901AB5F88432C91A9F
:1035000012B209B20DF02EFA7C48002300681A4668
:1035100002A903F0CAF9002840F0AB80BDF80830DA
:103520009FED776ADFED776AA3F5006307EE903AC7
:10353000F8EEE77A67EE867AF4EEE67AF1EE10FAC4
:1035400040F3C28037EEE67AF0EE087A27EE277A6B
:10355000F7EE087A27EE277ABDF80C30A3F5006362
:1035600007EE903AF8EEE77A67EE867AF4EEE67ABE
:10357000F1EE10FA40F3B58077EEE67AF0EE086AE5
:1035800067EEA67AF7EE086A67EEA67ABDEEC77A0E
:10359000FDEEE77A17EE101A17EE904A39443444DC
:1035A000AA29A8BFAA21AA2C21EAE171A8BFAA24AE
:1035B00024EAE4748F42B946A8BF8946A642B046C1
:1035C000A8BFA0468F42B8BF01F14607A9F1020982
:1035D000A8BF4637A642A8F10208A7EB0907B4BF67
:1035E00004F146064636043729EAE979A6EB0806CF
:1035F000043609EB070328EAE878F02B08EB06030A
:10360000C8BFC9F1F007F02B4FF00A035A4605F581
:103610008E70009309B24FF04603C8BFC8F1F006A0
:10362000FFF7C0F90A23524605F19800009321B232
:1036300046230435FFF7B6F9ABF1020B0E2304A9BC
:103640002846AAF1020AADF81090ADF812B0ADF814
:103650001470ADF81630ADF81880ADF81AA0ADF8BA
:103660001C60ADF81E300DF04DF906A928460DF08E
:1036700049F909B0BDE8F08FDFED237AF4EEE74AAF
:10368000F1EE10FAFFF610AF204AC4F8042107E764
:1036900077EE857A9FED1E7AF4EEC77AF1EE10FA96
:1036A000FFF61AAF1B4BD4ED447AC4F80831D4F8B6
:1036B0002831F1EE677A013BC4ED447AC4F8283131
:1036C0002846FFF721FE07E79FED137AF4EEC77A4D
:1036D000F1EE10FA02D537EEA67A35E79FED0F7AB4
:1036E0003AE79FED0D6AF4EEC67AF1EE10FA02D5D4
:1036F00077EEA67A42E7DFED097A47E73C2600201D
:103700000000003A0000C83D0000704300005C4328
:103710000000A043000096430000C8BD0000000068
:103720000022026070477047F02070474FF4A0708D
:1037300070472920FEF726BB2820FEF723BB08B5DB
:10374000FEF7F4FACA20FEF71DFBC320FEF7FEFACF
:103750000820FEF7FBFA5020FEF7F8FACF20FEF71C
:1037600011FB0020FEF7F2FAC120FEF7EFFA30203D
:10377000FEF7ECFAED20FEF705FB6420FEF7E6FA13
:103780000320FEF7E3FA1220FEF7E0FA8120FEF7AD
:10379000DDFAE820FEF7F6FA8520FEF7D7FA0020DA
:1037A000FEF7D4FA7820FEF7D1FACB20FEF7EAFA3A
:1037B0003920FEF7CBFA2C20FEF7C8FA0020FEF7DE
:1037C000C5FA3420FEF7C2FA0220FEF7BFFAF7204E
:1037D000FEF7D8FA2020FEF7B9FAEA20FEF7D2FA6F
:1037E0000020FEF7B3FA0020FEF7B0FAB120FEF792
:1037F000C9FA0020FEF7AAFA1B20FEF7A7FAB620A6
:10380000FEF7C0FA0A20FEF7A1FAA220FEF79EFA00
:10381000C020FEF7B7FA1020FEF798FAC120FEF795
:10382000B1FA1020FEF792FAC520FEF7ABFA452058
:10383000FEF78CFA1520FEF789FAC720FEF7A2FAE8
:103840009020FEF783FA3620FEF79CFAC820FEF798
:103850007DFAF220FEF796FA0020FEF777FAB02004
:10386000FEF790FAC220FEF771FAB620FEF78AFA48
:103870000A20FEF76BFAA720FEF768FA2720FEF76A
:1038800065FA0420FEF762FA2A20FEF77BFA002090
:10389000FEF75CFA0020FEF759FA0020FEF756FA10
:1038A000EF20FEF753FA2B20FEF76CFA0020FEF70C
:1038B0004DFA0020FEF74AFA0120FEF747FA3F20B2
:1038C000FEF744FAF620FEF75DFA0120FEF73EFA15
:1038D0000020FEF73BFA0620FEF738FA2C20FEF710
:1038E00051FAC820FEF79CFA2620FEF74BFA012079
:1038F000FEF72CFAE020FEF745FA0F20FEF726FA35
:103900002920FEF723FA2420FEF720FA0C20FEF7E8
:103910001DFA0E20FEF71AFA0920FEF717FA4E20BC
:10392000FEF714FA7820FEF711FA3C20FEF70EFAA3
:103930000920FEF70BFA1320FEF708FA0520FEF720
:1039400005FA1720FEF702FA1120FEF7FFF9002012
:10395000FEF7FCF9E120FEF715FA0020FEF7F6F974
:103960001620FEF7F3F91B20FEF7F0F90420FEF70E
:10397000EDF91120FEF7EAF90720FEF7E7F931200B
:10398000FEF7E4F93320FEF7E1F94220FEF7DEF915
:103990000520FEF7DBF90C20FEF7D8F90A20FEF728
:1039A000D5F92820FEF7D2F92F20FEF7CFF90F2006
:1039B000FEF7CCF91120FEF7E5F9C820FEF730FA42
:1039C0002920FEF7DFF9BDE808402C20FEF7DAB920
:1039D00008B5FEF7ABF90321D320FEF7EFF980B26B
:1039E00008BD10B5C4B2022203212046FEF754F9E7
:1039F0000A20FEF799F9204600220321FEF74CF930
:103A0000BDE810400220FEF78FB938B50446E4B295
:103A1000FEF740F900212046FEF756F90121054640
:103A20002046FEF751F940EA052080B238BD10B5B6
:103A3000C4B240212046FEF747F9030607D54C21C2
:103A40002046FEF741F9003818BF012010BD0122C1
:103A50004B212046FEF720F9204600224B21FEF79D
:103A60001BF90020F2E773B50423C4B20E461546D5
:103A7000D7210DEB03022046FEF740F9019B1BBA4C
:103A80001A0DC3F30B23328020462B8001224B21D9
:103A9000FEF702F900224B212046FEF7FDF802B0A6
:103AA00070BD000010B50A4A1378984204460DD044
:103AB000517888420AD00BB141B90123D454FEF7A2
:103AC000E9F82046BDE81040FFF78BBF10BD00BFEE
:103AD000A829002010B5C4B209212046FEF7F4F849
:103AE00040F00102D2B220460921BDE81040FEF7A5
:103AF000D3B810B5C4B209212046FEF7E5F8092174
:103B000000F0FE022046BDE81040FEF7C5B838B50B
:103B1000C4B20D4620460A21FEF7D6F840EA050257
:103B2000D2B220460A21BDE83840FEF7B5B810B53C
:103B30000446FEF7B0F820461F21FFF7E8FF2046B5
:103B4000BDE81040FFF7C6BF38B5C4B20D462046E9
:103B50000A21FEF7B9F820EA0502D2B220460A216E
:103B6000BDE83840FEF798B810B50446FFF7C1FF2E
:103B700020461F21BDE81040FFF7E6BF10B5C0B2D8
:103B80000C460B21FEF7A0F8204010BD1F21FFF7C7
:103B9000F5BF0A46C0B20B21FEF77EB81F21FFF722
:103BA000F8BF38B5C4B20D4620461721FEF78CF891
:103BB00020EA0502D2B220461721BDE83840FEF7C0
:103BC0006BB870B5C4B2064604212046FEF77CF8F7
:103BD000042100F0FB0205462046FEF75DF8304662
:103BE000F021FFF7DEFF05F0F80220460421FEF782
:103BF00053F8492220212046FEF74EF80220FEF716
:103C000093F8204601222121FEF746F820469A2209
:103C10004121FEF741F8204601224A21FEF73CF8F7
:103C2000204601224B21FEF737F8204600224B2187
:103C3000FEF732F8204601225621FEF72DF82046E5
:103C400001225821FEF728F8204601224021FEF7E4
:103C500023F82046FF220B21FEF71EF8BDE8704036
:103C60000220FEF761B80000054BD3F8882042F42B
:103C70007002C3F888204FF000629A60704700BF5E
:103C800000ED00E008B50B4B1A6842F400721A60B0
:103C90001A6842F480621A601A6842F480721A60EC
:103CA000032000F061FA0020FEF754FBFEF7C6F88F
:103CB000002008BD003C0240034A044B11681B78F9
:103CC0000B441360704700BFAC290020780000202F
:103CD000014B1868704700BFAC29002038B5044676
:103CE000FFF7F6FF631C1CBF054B1B78054618BF8A
:103CF000E418FFF7EDFF431BA342FAD338BD00BF22
:103D00007800002038B50446002800F09B80056C40
:103D100025B9FEF7B3F8656484F83C50236CDB06E4
:103D200000F18E80236C23F4885323F0020343F0C8
:103D300002032364444B5A6822F440325A605A68A2
:103D400061680A435A60236821695A6822F48072C4
:103D50005A605A6842EA01225A605A68A16822F001
:103D600040725A605A680A435A609A68E16822F4BD
:103D700000629A609A680A439A603449A26A8A4249
:103D800052D0996821F07061996099680A439A60ED
:103D90009A68E16A22F040529A609A680A439A60EF
:103DA0009A6822F002029A609A68217E42EA4102F1
:103DB0009A6094F82020002A3ED05A68616A42F442
:103DC00000625A605A6822F460425A605A680139A7
:103DD00042EA41325A60DA6AE16922F47002DA6238
:103DE000DA6A013942EA0152DA629A6822F4007210
:103DF0009A609A6894F8301042EA41229A609A6870
:103E0000616922F480629A609A68002042EA812205
:103E10009A606064236C23F0030343F0010323647E
:103E2000002384F83C3038BD9A6822F070629A60B2
:103E30009A6822F04052B2E75A6822F40062C9E759
:103E40000120EDE70120EEE7002301400100000F13
:103E500082B00023019390F83C30012B69D00123FC
:103E600080F83C3003689A68D2070BD59A68D1076E
:103E70001AD4036C43F010030364436C43F0010352
:103E800043644CE09A682C4942F001029A602B4A44
:103E90001268B2FBF1F202EB42020192019A002A8F
:103EA000E4D0019A013AF8E7026C22F4E06222F0D1
:103EB000010242F4807202645A68520541BF026CEA
:103EC00022F4405242F480520264026C12F4805296
:103ED0001CBF426C22F006024264002280F83C20A3
:103EE0006FF022021A60164A516811F01F0F15492F
:103EF0001CD18B4207D001F580718B420CD15268E6
:103F000012F01F0F0BD19A6812F0405F07D19A6828
:103F100042F080429A6002E00B498B4202D00020BE
:103F200002B07047526812F0100FEBE78B42F6D1E7
:103F3000E9E70220F4E700BF40420F0074000020D0
:103F400000230140002001400022014090F83C3055
:103F5000012B14D003689A6822F001029A609B68D2
:103F6000DB0707D4036C23F4885323F0010343F0E9
:103F700001030364002380F83C3018467047022098
:103F8000704703689A68520570B504460D460BD514
:103F90009B68DE0508D5036C43F02003036400230F
:103FA00080F83C30012070BDFFF792FE0646236882
:103FB0001A6891070CD56FF012021A60226C42F455
:103FC000007222649A6812F0405F17D00020EAE77E
:103FD000681CEDD065B923681B6813F00203E6D1B5
:103FE000226C84F83C3042F0040222640320DAE7B9
:103FF000FFF76EFE801BA842EDD8D8E7227E002A8C
:10400000E4D1DA6A12F4700F02D09B685A05DDD44D
:10401000236C23F480732364236CDB04D6D4236CD9
:1040200043F001032364D1E70368D86C70470000B4
:10403000F7B50023019390F83C30012B054600F0C2
:104040008680012380F83C3008682B688E68092838
:1040500084B233D904EB4402DF681E3A4FF0070CF8
:104060000CFA02FC27EA0C07DF60DF6806FA02F2AE
:104070003A43DA604968062901EB81022DD8596B71
:10408000053A1F26964021EA06015963596B04FA46
:1040900002F20A435A632F4A93420AD1122837D1B7
:1040A0002D4B5A6822F400025A605A6842F480028A
:1040B0005A60002085F83C0003B0F0BD1A6900EB9F
:1040C000400C072707FA0CF722EA07021A611A695F
:1040D00006FA0CF616431E61CCE70C294FF01F01BF
:1040E0000BD81E6B233A914026EA01011963196B24
:1040F00004FA02F20A431A63CDE7DE6A413A9140BC
:1041000026EA0101D962D96A94400C43DC62C2E715
:10411000124B984201D01128CBD10F4B5A6822F490
:1041200080025A605A6842F400025A600B4B98426F
:10413000BFD10B4B0B4A1B68B3FBF2F30A2253436C
:104140000193019B002BB4D0019B013BF8E70220B7
:10415000B2E700BF00200140002301401200001020
:104160007400002040420F000749CA6822F4E06250
:104170000302120403F4E063120C134343F0BF6321
:1041800043F40033CB60704700ED00E0164B30B5D0
:10419000DC68C4F30224C4F10703251D042B28BFE7
:1041A0000423062D4FF0FF358CBF033C002405FA95
:1041B00003F321EA0303A54022EA0502A3400028F5
:1041C00043EA0203ACBF00F16040084A4FEA031320
:1041D000B8BF00F00F00DBB2AABF00F56140135476
:1041E00080F8003330BD00BF00ED00E014ED00E0CA
:1041F000002807DB044A4109012300F01F00834027
:1042000042F82130704700BF00E100E010B50446DD
:1042100050B1437903F0FF0213B90271FDF786FE36
:1042200001236371002010BD0120FCE710B5044696
:1042300020B390F8393003F0FF021BB980F8382022
:10424000FDF78CFE022384F83930236861681A6810
:1042500022F440320A431A605A6BA16822F0070226
:104260000A435A631A6CE1686FF30D020A431A6439
:1042700000200123E06384F8393010BD0120FCE701
:1042800070477047036870B55E681D68F2070446A2
:1042900014D5E90512D51A6822F480721A60C26B2F
:1042A00042F00102C26301229A60042380F839308F
:1042B000002380F83830436903B19847B20616D519
:1042C000AB0414D523681A6822F400521A60202225
:1042D0009A60E36B43F00203E363042384F839300C
:1042E000002384F8383063690BB1204698473007C3
:1042F00016D5290514D523681A6822F400621A60BD
:1043000008229A60E36B43F00403E363042384F818
:104310003930002384F8383063690BB12046984760
:1043200072070BD56B0509D523681A6822F48062E1
:104330001A6004229A602046FFF7A2FFB00714D546
:10434000A90512D523681A6822F400721A600222A5
:104350009A60E36BE363012384F83930002384F827
:10436000383023690BB120469847F20613D5EB0489
:1043700011D523681A6822F480521A6010229A60BC
:10438000E36BE363012384F83930002384F8383089
:104390002046FFF776FF70BDF0B590F83820012A6F
:1043A00003464FF002002BD0012283F8382083F817
:1043B000390003EB0112D2E90740556A174F44EA6E
:1043C0000040093C012C9CBF05F07F4210434FEA9E
:1043D00001161A6888BF40EA056091B9516A3940F0
:1043E00001435162012C9969916103D8596A21F006
:1043F0007F4191620122002083F8392083F8380040
:10440000F0BDD16939400143D1619919012C896905
:1044100011619CBF25F07F451562EBE7F0FFFC00C2
:104420002DE9F74FDFF8BC916C4A00230D68012499
:104430009C4004EA0506AC4340F0B7804D68032772
:1044400005F003044FEA430807FA08FC671E012F32
:104450006FEA0C0C34D8876807EA0C0ECF6807FAAD
:1044600008F747EA0E078760476827EA060EC5F394
:1044700000179F4047EA0E074760C76807EA0C0E1F
:104480008F6807FA08F747EA0E07022CC76019D1B0
:104490004FEAD30A00EB8A0A03F0070BDAF8207020
:1044A0004FEA8B0B4FF00F0E0EFA0BFE27EA0E0EA3
:1044B0000F6907FA0BF747EA0E07CAF8207001E008
:1044C000032CDAD1076804FA08F407EA0C073C4326
:1044D00015F4403F046068D000240194D9F84440AA
:1044E00044F48044C9F84440D9F8444023F0030719
:1044F00007F1804704F4804407F59C37019403F0EA
:10450000030C019CD7F808E04FEA8C0C0F2404FA46
:104510000CF42EEA040E324CA0424DD004F5806417
:10452000A0424BD004F58064A04249D004F58064D9
:10453000A04247D004F58064A04245D004F58064D1
:10454000A04243D004F58064A04241D004F58064C9
:10455000A0423FD004F58064A0423DD004F58064C1
:10456000A04214BF0A24092404FA0CF444EA0E04FD
:10457000BC609468F74315F4801F0CBF3C40344383
:104580009460D46815F4001F0CBF3C403443D460E1
:10459000546815F4003F0CBF3C4034435460146829
:1045A000ED0354BF3C40344314600133102B7FF4BF
:1045B0003DAF03B0BDE8F08F0024D5E70124D3E779
:1045C0000224D1E70324CFE70424CDE70524CBE779
:1045D0000624C9E70724C7E70824C5E7003C0140D3
:1045E00000000240003802400369194214BF012054
:1045F000002070470AB1816170470904FBE74369F5
:1046000001EA030221EA030141EA024181617047A4
:1046100001684B6913F480634FF0000210D06FF40F
:1046200080634B612023026380F83D3080F83E2098
:10463000036C80F83C2043F00403036401207047BE
:10464000184670472DE9F84606460F4691461D4626
:104650004FEA114A3368BAF1010F0CBF5C699C69DB
:1046600027EA0404A4B2B4FA84F46409A14501D091
:10467000002025E06A1CEED0FFF72AFB089BC01A39
:10468000A84201D8002DE5D13368BAF1010F0CBF63
:104690005B699B6927EA03039BB2B3FA83F35B0967
:1046A0009945D7D100232022336386F83D2086F830
:1046B0003E30326C86F83C3042F0200232640120F9
:1046C000BDE8F8862DE9F04104460F4616469846A7
:1046D0002568686927EA000080B2C0B16B695A0595
:1046E00017D52B6843F400732B606FF480636B6104
:1046F00020220023236384F83D2084F83E30236C7D
:1047000043F004032364002384F83C300120BDE817
:10471000F081731CDDD0FFF7DBFAA0EB0800B0429C
:1047200001D8002ED4D123685A6927EA020292B236
:10473000002ACDD000232022236384F83D2084F872
:104740003E30236C1343DDE770B504460D46164634
:1047500023685B691B0601D500201EE02046FFF799
:1047600057FFC8B96A1CF3D0FFF7B2FA801BA84202
:1047700001D8002DECD123685B6913F08003E7D1E9
:104780002022236384F83D2084F83E30226C84F894
:104790003C3042F020022264012070BD2DE9F0433C
:1047A0001546026885B0DDE90C789946136843F434
:1047B000807313600E463B46CDF8008000224FF018
:1047C00001110446FFF73EFF236838B11B68DB0583
:1047D00002D54FF400732364032620E006F0FE06A2
:1047E0001E611A4943463A462046FFF76BFFA8B9B7
:1047F000236803905A6903929B69039342463946A2
:104800002046039BFFF7A0FF064660B1236C042BF4
:1048100001BF2268136843F4007313600126304619
:1048200005B0BDE8F083B9F1010F236802D1EDB204
:104830001D61F4E72A0A1A61394642462046FFF70D
:1048400083FF0028E2D12368F1E700BF02000100E6
:104850002DE9FF479A46036815461A6842F48062BC
:104860001A601A68DDE90C7842F480721A600E460C
:104870003B46CDF8008000224FF001110446FFF7BF
:10488000E1FE236838B11B68DB0544BF4FF40073B9
:104890002364032021E05FFA86F906F0FE061E611C
:1048A0002B4943463A462046FFF70CFFA0B9236840
:1048B00003905A6903929B69039342463946204606
:1048C000039BFFF741FF58B1236C042B01BF226803
:1048D000136843F400731360012004B0BDE8F0874F
:1048E000BAF1010F23681AD1EDB242461D61394673
:1048F0002046FFF729FF02460028E5D121680B6812
:1049000043F480730B602046CDF800803B464FF0A7
:104910000111FFF797FE226860B11368B4E72A0A15
:104920001A61394642462046FFF70EFF0028CBD1D8
:104930002368D9E749F001031361054943463A4624
:104940002046FFF7BFFE003818BF0120C5E700BFB3
:104950000200010070B504460D46164623685B69E7
:104960005B0701D500201EE02046FFF751FEC8B9C5
:104970006A1CF3D0FFF7ACF9801BA84201D8002DC8
:10498000ECD123685B6913F00403E7D12022236391
:1049900084F83D2084F83E30226C84F83C3042F0AC
:1049A00020022264012070BD70B504460D461646F3
:1049B00021684B6913F0400301D0002011E04A69DF
:1049C000D2060FD56FF010024A612022236384F8CB
:1049D0003D2084F83E30236C2364002384F83C306F
:1049E000012070BDFFF774F9801BA84201D8002D8B
:1049F000DED123685B6913F04003D9D12022236301
:104A000084F83D2084F83E30236C1343E4E7000033
:104A100070B5044608B9012070BD90F83D3003F030
:104A2000FF021BB980F83C20FDF7BAFA242384F872
:104A30003D3023681A6822F001021A601A6842F4B5
:104A400000421A601A6822F400421A6000F08AFEDE
:104A50003F4B65689D4294BF3E4B3F4B98428CBF95
:104A600000230123002BD6D12268394E51683B4BDD
:104A7000B0FBF3F321F03F011943B542516088BF09
:104A80004FF49676116A88BF734321F03F0184BFCB
:104A90004FF47A76B3FBF6F301330B431362D1691B
:104AA000431E2B4821F44F41854221F0FF0132D8AB
:104AB0006D0040F6FC70B3FBF5F30133034242D0C6
:104AC000C3F30B031943D161D4E9073011680343E1
:104AD00021F0C0010B4313609168D4E9030321F472
:104AE0000341034321F0FF010B439360D4E90530F8
:104AF000D168034321F0FF010B43D360136843F0F7
:104B00000103136000202023206484F83D302063DB
:104B100084F83E0080E7A06850B905EB4505B3FB7B
:104B2000F5F30133C3F30B037BB143F40043C9E74F
:104B300019206843B3FBF0F30133C3F30B0323B134
:104B400043F44043BEE70423BCE70123BAE700BFB8
:104B5000A08601007F841E00FF083D0040420F0038
:104B60002DE9F743044699460C9E0F469046FFF701
:104B7000AFF894F83D30202B054603D0022003B057
:104B8000BDE8F08300903C49192301222046FFF73D
:104B900059FD0028F2D194F83C30012BEED020686A
:104BA000012384F83C300368D9075EBF036843F0F3
:104BB00001030360036823F400630360212384F886
:104BC0003D30402384F83E30002323640A9B636217
:104BD000BDF82C306385638D2385284BE362424604
:104BE000CDE900654B4639462046FFF7D7FD002842
:104BF0002AD00120C3E7FFF7A7FD40B1236C042BA7
:104C000001BF2268136843F400731360F1E7636A1D
:104C100027681A4612F8011B39616262628D218D84
:104C2000013A92B262857A69481E80B252072085A5
:104C30000AD548B15A783A6102336362638D013B09
:104C400002399BB221856385238D2A463146204651
:104C5000002BD0D1FFF77EFE0028CFD12268136849
:104C600043F400731360202384F83D3084F83C0043
:104C700084F83E0083E700BF020010000000FFFF41
:104C80002DE9F043044687B09946109F0D469046A3
:104C9000FFF71EF894F83D30202B064604D002257D
:104CA000284607B0BDE8F08300907A491923012215
:104CB0002046FFF7C7FC0028F1D194F83C30012BC7
:104CC000EDD02068012384F83C300368DB075EBF29
:104CD000036843F001030360036823F40063036087
:104CE000222384F83D30402384F83E30002323649F
:104CF0000E9B6362BDF83C306385638D2385664BF4
:104D0000E3622946CDE900764B4642462046FFF74E
:104D10009FFD054608B10125C2E7228D2368B2B97F
:104D200002905A6902929A690292029A1A6842F4AF
:104D300000721A60DFF86481238D002B2CD12022B1
:104D400084F83D2084F83C3084F83E30A8E7012AFE
:104D50000AD11A6822F480621A6003905A69039299
:104D60009A690392039AE1E7022A0ED11A6822F4A3
:104D700080621A601A6842F400621A6004905A69EC
:104D800004929B690493049BD4E705905A690592A9
:104D90009B690593059BCDE7032B56D8012B15D1B5
:104DA000324639462046FFF7FFFD0028B3D123687D
:104DB0001A69636A1A70636A01336362238D013B67
:104DC0002385638D013B9BB26385B5E7022B00967B
:104DD0003B464FF000024146204619D1FFF732FC16
:104DE000002898D123681A6842F400721A601A6980
:104DF000636A1A70626A531C6362238D013B2385C8
:104E0000638D013B9BB2638523681B695370D2E7B6
:104E1000FFF718FC024600287FF47DAF236819686D
:104E200021F4806119601969636A1970636A01333A
:104E30006362238D013B2385638D013B9BB26385B8
:104E4000414600963B462046C8E732463946204652
:104E5000FFF7AAFD00287FF45EAF23681A69636A32
:104E60001A70628D616A013A92B24B1C62852268A7
:104E70006362238D5069013B9BB2400723857FF518
:104E80005BAF032B02BF136823F4806313601369C5
:104E90004B7090E7020010000000FFFF04000100CB
:104EA00010B590F83D30202BDCB216D1242380F8C9
:104EB0003D3003681A6822F001021A605A6A22F033
:104EC00010025A625A6A114359621A6842F001028A
:104ED0001A6080F83D40002010BD0220FCE730B58C
:104EE00090F83D30202BDCB216D10268242380F8E4
:104EF0003D30136823F001031360556A4FF6F073D9
:104F00002B400B439BB25362136843F001031360C1
:104F100080F83D40002030BD0220FCE70068D2014F
:104F200084328318F0B5C7685D684C680E6805F474
:104F300070455D60C56806F1010CC5F30B45C7F30C
:104F40000B472744654445EA07455D60C768CD685F
:104F5000C7F30A072F449D6805F470459D60D0F89B
:104F60000CC08D68CCF30A0C0135654445EA074551
:104F70009D601D69D1F810C08F6925F007051D617E
:104F8000C3F810C091F8305045EA076591F83170C8
:104F900045EA072591F8327045EA07459D615D694C
:104FA00025F0FF055D614D695D61DD6925F4E06512
:104FB00025F00705DD61D1E907573D43DD61BCF10F
:104FC000070F4D6A9D629CBF0D4D15F80C70DD6A90
:104FD00005F0E025DD6288BF01278D6AC96AA41B40
:104FE0007C437D43033444EA0544DC621C6B6FF36D
:104FF0000A041C631963835843F001038350F0BD16
:105000000853020838B5044600284ED090F8A13065
:1050100003F0FF021BB980F8A020FDF71DF8022362
:1050200084F8A13023689A6922F070429A61D4E929
:1050300001200243E06899690243206902430A4360
:105040009A61D4E9051242EA01429A60D4E9071252
:1050500042EA0142DA60D4E9091242EA01421A61E5
:10506000D4E90B1242EA01425A61DA6A94F8350037
:1050700094F8361002F07F42DA62DD6A94F8342048
:105080002A4342EA002242EA0142DA625A6B42F0C3
:1050900006025A639A6942F001029A6100200123D4
:1050A000C4F8A40084F8A13038BD0120FCE77047A3
:1050B0007047036870B59E6B5D6B7207044614D52C
:1050C000690712D55A6B22F004025A630422DA638C
:1050D000D0F8A43043F00103C0F8A430002380F8D6
:1050E000A12080F8A030FFF7E2FFB20716D5AB078A
:1050F00014D523685A6B22F002025A630222DA6343
:10510000D4F8A4301343C4F8A430042384F8A130A5
:10511000002384F8A0302046FFF7C9FFF00710D520
:10512000E9070ED523685A6B22F001025A63012267
:10513000DA63002384F8A12084F8A0302046FCF72D
:105140006FFA320711D52B070FD523685A6B22F05F
:1051500008025A630822DA63012384F8A13000238D
:1051600084F8A0302046FFF7A3FF70BD2DE9F04181
:1051700090F8A030012B06460F4694464FF00200EF
:105180001FD04FF0010886F8A08086F8A1003424D3
:105190000D4604FB02640FCD38340FC40FCD0FC48D
:1051A0000FCD0FC42B682360304662463946FFF7A7
:1051B000B5FE33680020C3F8248086F8A18086F805
:1051C000A000BDE8F081000090F8A020012A03466D
:1051D0004FF0020012D01A6883F8A100506B20F043
:1051E0000100506306480164516B41F001015163B5
:1051F0000020012283F8A12083F8A000704700BF9F
:105200000068014037B500230193184B184D1A6C04
:1052100042F080521A641B6C03F080530193019B8F
:10522000144B01221A64FEF753FD04466B68DA033F
:105230000BD5104B0E4D01225A64FEF749FD044672
:105240006B689B030AD5002006E0FEF741FD001BBA
:10525000B0F57A7FEAD9032003B030BDFEF738FD00
:10526000001BB0F57A7FEBD9F5E700BF00380240AC
:105270000070004000000E422DE9F341044640B3A7
:105280000368DE0710D423689D075BD423681907E1
:1052900000F19D8023685A0700F1BD80A369002BAF
:1052A00040F0248100202CE08D4B9A6802F00C0223
:1052B000042A07D09A6802F00C02082A0BD15B6816
:1052C000590208D5864B1B689A03DCD56368002B0E
:1052D000D9D1012015E06368814DB3F5803F13D12A
:1052E0002B6843F480332B60FEF7F2FC7C4E0546BE
:1052F00033689B03C7D4FEF7EBFC401B6428F7D947
:10530000032002B0BDE8F081B3F5A02F04D12B68D3
:1053100043F480232B60E3E72A6822F480322A607A
:105320002A6822F480222A60002BDDD1FEF7D0FC0F
:1053300006462B689F03A6D5FEF7CAFC801B64288F
:10534000F7D9DDE7664B9A6812F00C0F07D09A6820
:1053500002F00C02082A11D15B685D020ED4604A8B
:105360001368990702D5E368012BB2D1136821694C
:1053700023F0F80343EAC103136087E7E268594B5F
:10538000B2B101221A60FEF7A3FC554D06462B6808
:105390009B0707D52B68226923F0F80343EAC20371
:1053A0002B6073E7FEF794FC801B0228EFD9A7E778
:1053B0001A60FEF78DFC4A4E054633689F077FF55D
:1053C00065AFFEF785FC401B0228F6D998E76269B5
:1053D000444B82B10122C3F8802EFEF779FC404E87
:1053E0000546736F9B073FF555AFFEF771FC401BF9
:1053F0000228F6D984E7C3F8802EFEF769FC384E00
:105400000546736F9F077FF545AFFEF761FC401BB4
:105410000228F6D974E7324B1A6C12F0805228D168
:1054200001921A6C42F080521A641B6C03F0805394
:105430000193019B01272C4D2B68D8051BD5A36830
:10544000274D012B27D12B6F43F001032B67FEF76C
:105450003FFC234E054641F28838336F9A0739D511
:10546000002F3FF41BAF1E4A136C23F080531364CC
:1054700014E70027DFE72B6843F480732B60FEF707
:1054800027FC06462B68D905D9D4FEF721FC801BE2
:105490000228F7D934E7052B04D12B6F43F004031E
:1054A0002B67D0E72A6F22F001022A672A6F22F0C9
:1054B00004022A67002BCAD1FEF70AFC41F28838A1
:1054C00006462B6F9B07CBD5FEF702FC801B4045A1
:1054D000F7D915E7FEF7FCFB401B4045BDD90FE7A8
:1054E000003802400000474200700040374DAA6873
:1054F00002F00C02082A3ED0022B354B4FF000027E
:105500001A662BD1FEF7E4FB06462B6899011FD4DF
:10551000D4E907321343626A43EA8213E26A43EA38
:105520000263A26A5208013A43EA02436B60284BC5
:10553000264D01221A66FEF7CBFB04462B689A0122
:105540003FF5B0AEFEF7C4FB001B0228F6D9D7E644
:10555000FEF7BEFB801B0228D7D9D1E6FEF7B8FBC9
:1055600004462B689B017FF59DAEFEF7B1FB001B47
:105570000228F6D9C4E6012B3FF4ABAE6B68E269B2
:1055800003F4800191427FF4A4AE216A03F03F024C
:105590008A427FF49EAE616A47F6C0721A40B2EB4F
:1055A000811F7FF496AEA26A520803F44031013A9B
:1055B000B1EB024F7FF48DAEE26A03F07063B3EBA0
:1055C000026F14BF012000209BE600BF003802409C
:1055D00000004742134908B58B6803F00C03042B05
:1055E0001CD0082B1CD14A684B68496813F480030F
:1055F00014BF0D480D48C1F3881118BF002302F0F5
:105600003F02A1FB0001FAF793FE064B5B68C3F370
:10561000014301335B00B0FBF3F008BD0248FCE737
:105620000248FAE70038024000127A000024F40031
:105630002DE9F0410D46044610B90120BDE8F08186
:10564000434B1A6802F00F028A4228D321688F0761
:105650002DD4C80740D43E4B1A6802F00F02AA426C
:1056600065D8226851076BD4130707D5394A2169D9
:10567000936823F4604343EAC1039360FFF7AAFFF2
:10568000344B354A9B68C3F30313D35CD840334B88
:105690001860334B1868FCF75DFE0020CEE7CAB2F5
:1056A0001A701B6803F00F038B42C6D1CEE7294B5B
:1056B00011F0040F1EBF9A6842F4E0529A600E0780
:1056C00042BF9A6842F460429A609A68A06822F0E9
:1056D000F00202439A60BCE762681E4B012A1CD1AB
:1056E0001B6813F4003FA8D01A4EB36823F00303DD
:1056F0001343B360FEF7ECFA41F288380746B3680B
:10570000626803F00C03B3EB820FA4D0FEF7E0FA5B
:10571000C01B4045F3D9032090E7911E01291B6867
:1057200002D813F0007FDEE713F0020FDBE7EAB2E6
:105730001A701B6803F00F03AB427FF47EAF90E753
:105740000449E0688B6823F4E05303438B608BE7E4
:10575000003C024000380240F85202087400002069
:105760007C000020044B054A9B68C3F38223D35C72
:10577000034A1068D840704700380240F0520208CF
:10578000740000200F2303600B4B9A6802F00302A1
:1057900042609A6802F0F00282609A6802F4E05275
:1057A000C2609B68DB0803F4E0530361034B1B6892
:1057B00003F00F030B60704700380240003C0240CA
:1057C000036813F0430FF7B5044640F08880236860
:1057D00013F00C0F45D08C4B8C4D00221A67FEF74E
:1057E00077FA06462B68990000F1CB8021684A07BA
:1057F00015D5D4E90403D5F888201B0602F0E04251
:1058000043EA80131343C5F88830D5F88C30226AF8
:1058100023F4F853013A43EA0223C5F88C300B070E
:1058200014D57A4AA369D2F8881020691B0701F0C1
:10583000706143EA80130B43C2F88830D2F88C3091
:10584000616A23F440330B43C2F88C306E4B6F4EC9
:1058500001221A67FEF73CFA054633689F0040F1C3
:1058600097802368980634D500230193674B684DD1
:105870001A6C42F080521A641B6C03F0805301933F
:10588000019B2B6843F480732B60FEF721FA0646D8
:105890002B68D80540F183805C4DA26A2B6F13F40E
:1058A000407340F08380A36A03F44072B2F5407FF6
:1058B000564A40F09E80916823F0704021F4F81120
:1058C00020F4407001439160116FC3F30B030B434D
:1058D00013672368DB0600F1908000204FE04A4BFD
:1058E0004A4E00229A66FEF7F3F9054633681F0117
:1058F0003FD42168C80741BFD4E901231B0743EA0D
:105900008213C6F884308A0715D5404AE368D2F876
:10591000840065681B0600F0E04043EA85130343FA
:10592000C2F88430D2F88C00E36920F01F00013BFC
:105930000343C2F88C304B060AD5E36862681B0645
:1059400043EA8213A26843EA0273304AC2F8843001
:105950002D4B2E4E01229A66FEF7BAF905463368A2
:105960001F013FF534AFFEF7B3F9401B0228F6D90B
:1059700004E0FEF7ADF9401B0228B7D9032003B0BD
:10598000F0BDFEF7A5F9801B02287FF62BAFF5E7E7
:10599000FEF79EF9401B02287FF65FAFEEE7FEF7A9
:1059A00097F9801B02287FF673AFE7E702F4407295
:1059B00093423FF478AF2B6F134A0121C2F8401E87
:1059C00023F440730021C2F8401E2B672B6FD907C8
:1059D0007FF569AFFEF77CF941F2883706462B6FF9
:1059E0009A073FF560AFFEF773F9801BB842F6D90E
:1059F000C4E7916821F4F81165E7064B94F82C2070
:105A0000C3F8E02169E700BF0000474200380240C8
:105A1000007000400010474238B50D460446C8B13A
:105A200090F82C3003F0FF021BB980F82D20FCF712
:105A300025FC022384F82C30211D206800F008FD8D
:105A400062682068294600F039FD012384F82C3073
:105A5000002038BD0120FCE770B590F82C30022BF7
:105A600005460E46D8B212D000F0FB04012C0FD12F
:105A7000022385F82C30286800F056FD3368022B8D
:105A800006BF052385F82C3085F82C40002070BD1A
:105A90000120FCE738B590F82C30022B0446D8B230
:105AA0000DD094F82C30012BDDB209D102232068EF
:105AB00084F82C3000F05CFD84F82C50002038BDB8
:105AC0000120FCE72DE9F3471F468946904604462E
:105AD000FEF7FEF80A9D3D442D1AFEF7F9F8264B15
