:020000040800F2
:10000000000003205D060008F5230008F723000820
:10001000F9230008FB230008FD230008000000006E
:10002000000000000000000000000000A16D0008BA
:10003000FF23000800000000316E0008B1660008D0
:10004000AD060008AD060008AD060008AD060008C4
:10005000AD060008AD060008AD060008AD060008B4
:10006000AD060008AD060008AD060008AD060008A4
:10007000AD060008AD060008AD060008AD06000894
:10008000AD060008AD060008AD060008AD06000884
:10009000AD060008AD060008AD060008AD06000874
:1000A000AD060008AD060008AD060008AD06000864
:1000B000AD060008AD060008AD060008AD06000854
:1000C000AD060008AD060008AD060008AD06000844
:1000D000AD060008AD060008AD060008AD06000834
:1000E000AD060008AD060008AD060008AD06000824
:1000F000AD060008AD060008AD060008AD06000814
:10010000AD060008AD060008AD060008AD06000803
:10011000AD060008AD06000801240008AD06000881
:10012000AD060008AD060008AD060008AD060008E3
:10013000AD060008AD060008AD060008AD060008D3
:10014000AD060008AD060008AD060008AD060008C3
:10015000AD060008AD060008AD060008AD060008B3
:10016000AD060008AD060008AD060008AD060008A3
:10017000AD060008AD060008AD060008000000004E
:10018000AD060008AD060008AD060008AD06000883
:10019000AD060008AD060008AD060008AD06000873
:0C01A0000D240008AD060008192400081A
:1001B00010B5054C237833B9044B13B10448AFF3A1
:1001C00000800123237010BD800300200000000088
:1001D0007442020808B5034B1BB103490348AFF34F
:1001E000008008BD00000000840300207442020863
:1001F00001F0FF01102A2BDB10F0070F08D010F8D8
:10020000013B013A8B422DD010F0070F42B3F6D1DB
:10021000F0B441EA012141EA014122F007047FF0F4
:1002200000070023F0E80256083C85EA010586EA4B
:10023000010685FA47F5A3FA87F586FA47F6A5FA87
:1002400087F68EB9EED1F0BC01F0FF0102F0070293
:1002500032B110F8013B013A83EA010313B1F8D13E
:100260000020704701387047002D06BF354603381F
:10027000073815F0010F07D1013015F4807F02BF58
:10028000013015F4C03F0130F0BC0138704700BFA9
:100290007BB972B90029BEBF00204FF0004106E0D3
:1002A00008BF00281CBF6FF000414FF0FF3000F086
:1002B000D3B9ADF1080C6DE904CE002909DB002BA0
:1002C0001ADB00F04DF8DDF804E0DDE9022304B0AC
:1002D0007047404261EB4101002B1BDB00F040F80E
:1002E000DDF804E0DDE9022304B0404261EB4101A6
:1002F000524263EB43037047524263EB430300F007
:100300002FF8DDF804E0DDE9022304B0404261EBA0
:1003100041017047524263EB430300F021F8DDF8DE
:1003200004E0DDE9022304B0524263EB430370476B
:1003300053B94AB9002908BF00281CBF4FF0FF314C
:100340004FF0FF3000F088B9ADF1080C6DE904CE34
:1003500000F006F8DDF804E0DDE9022304B07047A0
:100360002DE9F047089D8E4604468846002B4AD169
:100370008A42174662D9B2FA82F64EB1C6F120031C
:1003800001FA06F820FA03F3B74043EA0808B4403C
:100390004FEA174E1FFA87FCB8FBFEF1230C0EFB49
:1003A000118843EA084301FB0CF29A4209D9FB1871
:1003B00001F1FF3080F0EA809A4240F2E780023992
:1003C0003B449A1AA3B2B2FBFEF00EFB102243EAA2
:1003D000024300FB0CFC9C4509D9FB1800F1FF32DD
:1003E00080F0D6809C4540F2D3803B44023840EAFE
:1003F0000140A3EB0C0300211DB1F3400022C5E92D
:100400000032BDE8F0878B4205D90DB1C5E9000186
:1004100000210846F5E7B3FA83F1002946D1734578
:1004200002D3824200F20581841A6EEB030201209E
:100430009046002DE5D0C5E90048E2E7002A00F02B
:100440009080B2FA82F6002E40F0A4808A1A030C43
:100450004FEA174E80B2BCB20121B2FBFEFC0EFB8C
:100460001C2243EA024304FB0CF29A4207D9FB1810
:100470000CF1FF3802D29A4200F2E080C4469B1A87
:10048000B3FBFEF20EFB123340EA034302FB04F41B
:100490009C4207D9FB1802F1FF3002D29C4200F2C5
:1004A000CA8002461B1B42EA0C40A5E7C1F12006A8
:1004B0008B4022FA06F71F430EFA01F420FA06F3E6
:1004C0002EFA06FE4FEA1749234300FA01F81FFAF5
:1004D00087FCBEFBF9F01C0C09FB10EE44EA0E444D
:1004E00000FB0CFEA64502FA01F209D93C1900F105
:1004F000FF3A80F09C80A64540F2998002383C4447
:10050000A4EB0E041FFA83FEB4FBF9F309FB1344BA
:100510004EEA044403FB0CFCA44508D93C1903F142
:10052000FF3E80F08280A4457FD9023B3C4443EAF1
:100530000040A4EB0C04A0FB02EC64457346E146CA
:1005400062D35FD05DB1B8EB030264EB090404FA37
:1005500006F622FA01F31E43CC40C5E900640021EF
:100560004FE7B1FBF2FC010C41EA0E4180B240EAD8
:1005700001423B4638463C46B846BE462026B1FBC3
:10058000F7F1A2EB080241EA0C4166E7014618E7E1
:1005900010462CE7C6F120022EFA02F3B740B14014
:1005A00020FA02F24FEA174E0A43B3FBFEF8BCB240
:1005B0000EFB1833110C41EA034108FB04F9B0406B
:1005C00089454FEA104380B23ED9791808F1FF3CC3
:1005D00001D289451FD8A1EB0901B1FBFEF909FB46
:1005E00004F80EFB191192B242EA0142424529D2A7
:1005F000BA1809F1FF31C4D24245C2D2A9F10201B1
:100600003A44BEE7F0459DD2BEEB02036CEB070C0B
:100610000138E14696E7A7EB09094944A8F1020C25
:10062000B1FBFEF909FB04F8DBE773467FE75046B0
:1006300066E70846FDE63B44023A33E7ACF1020CBC
:100640003B441CE749469CE7A1EB0901C446B1FBCA
:10065000FEF909FB04F8C4E7704700BFDFF834D0A7
:10066000002103E00C4B5B58435004310B480C4B0A
:1006700042189A42F6D30B4A02E0002342F8043BA8
:10068000094B9A42F9D303F087FB23F085F801F078
:1006900099F8704700000320E0670208000000207E
:1006A000640100208003002058440120FEE77047C9
:1006B00008B500F0BFFDBDE8084000F041BD00F006
:1006C000BBBD704710B50421044621F078FE2046DA
:1006D00010BD000038B50C4B0C4C18800C4B822020
:1006E00019806368984740F6110398420AD1094D72
:1006F00023682C60822098472B688220DB6898470B
:10070000002038BD0120FCE7A60300204C0000209B
:10071000A4030020A80300204FF4A071F020FFF7ED
:10072000D9BF0000F7B5394D2B6804461B698220FC
:100730009847208000284ED02B680DF106025B6997
:1007400001A982209847324B1B78002B4BD0BDF873
:10075000062040F674639A423FD9ADF80630BDF8E2
:1007600006209B1A9BB20A2B42D90B22B3FBF2F351
:10077000284A1288934201D9013A93B2BDF8042065
:10078000254840F6B8318A4234D8C2F571620E323B
:10079000016892B20F25B2FBF5F2204D2D88AA42D6
:1007A00084BF05F1FF35AAB28A4215468EB22AD916
:1007B000921B91B21A4E3768BB42BAB28CBF9A1ADA
:1007C000D21A92B211440529C4BF05603360036890
:1007D00063803368A38003B0F0BDB32A9CBFB4220A
:1007E000ADF80620BBE7BDF80630A3F5B473B9E752
:1007F0000023C3E7C2F56D62083292B20E2A016887
:10080000C8D800252A46891A89B2D3E7A803002050
:1008100048260020A4030020A0030020A6030020F7
:100820009C03002037B568460D461446FFF77AFF53
:10083000BDF8000030B1BDF802302B60BDF80430C7
:100840002360012003B030BD032821D8DFE800F089
:10085000020B12190F4B1A68B2FA82F252090421E4
:100860000D4803F05FBF0B4B5A68B2FA82F252098F
:100870000821F5E7074B9A68B2FA82F25209102173
:10088000EEE7044BDA68B2FA82F252092021E7E778
:10089000704700BFAC03002000100240032821D89D
:1008A000DFE800F0020B12190F4B1A68003A18BF6C
:1008B000012204210D4803F035BF0B4B5A68003A62
:1008C00018BF01220821F5E7074B9A68003A18BFC4
:1008D00001221021EEE7044BDA68003A18BF01222A
:1008E0002021E7E7704700BFAC0300200010024062
:1008F00003280DD8DFE800F00206080A04210548A5
:1009000003F015BF0821FAE71021F8E72021F6E7E8
:10091000704700BF0010024008B5032811D8DFE877
:1009200000F0020A0C0E0421074803F0F5FE431EF6
:100930005842584108BD0821F6E71021F4E720216C
:10094000F2E70020F3E700BF0010024070B5084D49
:1009500000240126E0B2FFF7DFFF18B12B68012B5E
:1009600018BF2E600134052C05F10405F2D170BDCD
:10097000AC030020012380F8781080F879307047AC
:100980007047002070470000034B4164003918BFD6
:1009900001211970704700BF1737012070470020F0
:1009A0007047836B0BB10846184770474FF6FF70CE
:1009B0007047406803689B691847704770477047E5
:1009C0007047704710B5044600F04CFD236803499A
:1009D000D3F890302046BDE810401847000000D002
:1009E00008B503680446D3F8843098472368204646
:1009F000DB6F984700F0ECF8236820465B6F984760
:100A0000292001F0BFF900F0E3F8236820465B6F6E
:100A10009847F8E710B5044608F0C2FF236820465F
:100A2000D3F8BC30BDE81040184700F0FFBC00F020
:100A300003BD00F035BD00F0D5BC00F045BD00F0B1
:100A40004DBD00F0D9BC08F0D9B910B584210446D9
:100A500021F0B5FC204610BD10B590F8341090F888
:100A600078400C4B8C421A7809D03AB90A4A0B49A3
:100A70001488088810800C8001221A7010BD002A8A
:100A8000FCD0054A05491488088810800C80002293
:100A9000F3E700BF103701200C3701200E3701208B
:100AA00070B50D46194635B9094B0A4A0A4840F255
:100AB000FF2122F0C1FBC0E90F52084B003A18BFDA
:100AC00001221A700368BDE87040D3F890301847CF
:100AD000F44202082C4302087A4302081637012028
:100AE00008B5094B1B888B4203D8084B1B889342DF
:100AF00005D9074B074A0848A32122F09DFB074B65
:100B00001980074B1A8008BD0C3701200E370120D1
:100B1000BF430208224402087A4302081237012028
:100B200014370120034690F87A0018B1586803681A
:100B30001B68184770470000012108B500220846CD
:100B400005F047FE0A4B186028B90A4B0A4A2821CB
:100B50000A4822F071FB00220421012005F0D8FE92
:100B6000074B186018B9074B034A2C21F0E708BD62
:100B7000C003002065440208AE440208DD440208B8
:100B8000BC03002024450208024B4FF0FF311868D7
:100B900005F069BEC0030020014B186805F08FBE48
:100BA000C0030020024B0021186805F05CBE00BFA6
:100BB000C0030020FFF7F0BF03480449006800238A
:100BC0001A4605F0E0BE00BFBC0300200400002070
:100BD00013B5084C00231A4601A9206805F004FF4C
:100BE00020684FF0FF33002201A905F0FDFE02B09E
:100BF00010BD00BFBC03002003685B6C18470120D8
:100C0000704703689B6A1847FEE740F2EF30704771
:100C1000054B0360054B4FF08062C3F88820BFF39B
:100C20004F8FBFF36F8F7047684F020800E100E0FD
:100C300010B504464FF45A61FFF7EAFF204621F051
:100C4000BEFB204610BD000082B0002301930E4B76
:100C50001A6B42F400021A631A6B02F4000201924A
:100C6000019A1A6942F400021A611A6922F4000218
:100C70001A61064B064A1A61064A5A61064B4FF042
:100C800080629A6002B0704700380240DC27002082
:100C9000E90E0008090C000800E100E008B50A2888
:100CA00009D8DFE800F006100E0808080810101038
:100CB0001000022008BD054B054A0648902122F08D
:100CC000BBFA0020F6E70120F4E700BF6645020802
:100CD00081450208CC45020838B50C46887FFFF7ED
:100CE000DDFFA58AE28A164B2169586342EA054274
:100CF0005A64628BD963521B1A642568082D0ED181
:100D00009A611A615862207F0E4A42EA0062DA61F3
:100D1000E2681A620C4A5961D9601A6038BD002233
:100D2000D8611A61E1680A0A480902F4784200F4BD
:100D3000FC600243C1F3C4010A439A63034AECE72F
:100D400000B002400900010001230200012303005A
:100D500008B50B280BD8DFE800F00612100A0A0AC3
:100D60000A0808080808022008BD0520FCE7054B12
:100D7000054A06486F2122F05FFA0020F4E70120BF
:100D8000F2E700BF6645020811460208CC4502089A
:100D90002DE9F04191F81D800C464046FFF7D8FF41
:100DA000A77F05463846FFF7D3FF06463846FFF7CC
:100DB00075FFA18A628B444B521A1A649A61228B86
:100DC000521A1A61E28A586342EA01425A6421695E
:100DD0006268D963DA602068802828D0227F0FD823
:100DE000202867D0402865D004281AD0364B45EA21
:100DF000026545F40035B845DD6161D0334A44E011
:100E0000B0F5807F04D0B0F5007FEFD1304800E02E
:100E1000304840EA0262DA61E2681A625E62596151
:100E200032E045EA026242F40032DA61F6E7A06895
:100E3000021DDA62227F45EA026545F40035DD6174
:100E40005E625961017841B1012921D0224B234AC8
:100E500023484FF48D7122F0EFF9DA69418822F4CA
:100E60007F42013922F0100242EA0122DA610121B7
:100E7000154BDA6942F02002DA61DA699206FCD495
:100E800010229A600029B9D0164A1A60BDE8F08194
:100E9000B2F1FF01DA69408822F47F4200F1FF30AD
:100EA00022F0100242EA002242F0100218BF012193
:100EB000DA61DDE745EA0262034B42F40032B4E74F
:100EC00042F20132E1E700BF00B00240012301001D
:100ED000090002000A0002005B460208754602088B
:100EE000CC45020801230200024B1B6858680368C6
:100EF0005B6918471837012070B5044625460A4B30
:100F00000C30002660602672667245F8203B602235
:100F1000294608F09BFE04F55A63EE6024359D4295
:100F2000FBD1204670BD00BF684F0208034B1A6812
:100F3000D207FCD423229A60704700BF00B0024061
:100F40007047000030B50F4C2568ED07FCD4232511
:100F50000904A56041F001010225FF2B656361646E
:100F6000E0630AD00849656241EA0363E361074B25
:100F700022626061E060236030BDE561039BA36392
:100F8000034BF8E700B00240090001000100020035
:100F90000100030030B50E4C2568ED07FCD4232575
:100FA0001204A56042F001020225FF2B6563626412
:100FB000E063E16008D01B0643F00213E361054BD8
:100FC00065626061236030BD034BE3610123F9E793
:100FD00000B0024001000200020002FF30B50B4CDD
:100FE0002568ED07FCD4232512041B06A56043F4F5
:100FF0000033022542F0010265636264E063E16050
:10100000E361034B65626061236030BD00B0024064
:1010100001000200012070470C2070470C2303FBE5
:101020000100083070470C2303FB010008307047B3
:101030000120704741F23810704741F2381303FB2A
:1010400001000830704741F2381303FB01000830FB
:101050007047012070471020704700EB01100830E6
:10106000704700EB011008307047084601F0D4BB10
:1010700010B5034B0360044607F015FC204610BD75
:101080002050020810B50446FFF7F2FF2046142155
:1010900021F095F9204610BD10B5034B03600446BE
:1010A00007F001FC204610BDEC4F020810B50446C5
:1010B000FFF7F2FF20464FF48A5121F080F92046D5
:1010C00010BD000010B5034B0360044607F0EBFBB6
:1010D000204610BDB84F020810B50446FFF7F2FFD6
:1010E0002046182121F06BF9204610BD10B5094BA0
:1010F0000360044600F58B500C30FFF7B9FF04F194
:101100002C00FFF7C9FF04F11400FFF7DBFF2046B6
:1011100010BD00BF5450020808B50248FFF7E6FFB3
:1011200008BD00BF9C12002010B50446FFF7DEFF8B
:1011300020464FF4975121F042F9204610BD00009F
:101140002DE9F34101F0DEF9054601F0DFF9002455
:101150000146234628462246009412F09DF8284B6B
:10116000284A1A60204601F0FFFF274D274B284AE6
:1011700028489A6011F0F8FF2B68BFF35B8FDB07FC
:1011800037D4284621F01DF998B3234C234B236014
:1011900004F12C0808F58A5707F1180604F1140029
:1011A0006060C4F80880E760266107F07DFB1C4B97
:1011B0006361404607F078FB1A4BE362384607F05C
:1011C00073FB04F58053184AC3F86C2104F58C5066
:1011D00002F03EFB224604F58C51304602F03EF808
:1011E000304601F019FB114822F044F8284621F05E
:1011F000F4F80F4802B0BDE8F041FFF7E3BB00BFD1
:101200007C37012048040020981200206804002048
:101210004C040020080000209C12002054500208BA
:10122000B84F0208EC4F02082050020819110008BC
:10123000C4030020704700000148FFF7D1BB00BF86
:10124000C403002070B5264E264C274D274B236043
:101250003046FFF751FE284617F024F924480FF0D6
:101260005DFC244B2448DC6000224FF48071C3E90C
:10127000121222491A86C3E91A12214983F858200A
:10128000C3E91E011F49C3F880101F491F480B60A6
:10129000F021C3E90422C3E90622C3E90822C3E915
:1012A0000A22C3E90E22C3E91022C3E91422C3E9CA
:1012B00017225A6683F870205A67C3E901650180D6
:1012C0001348018013484FF4A07101801248018037
:1012D00012490A70012283F83420114A1A6070BD45
:1012E000F40400209412002068040020E442020864
:1012F0004C040020C4030020000001010100000193
:10130000000450001A001400183701200C37012087
:10131000123701200E370120143701201037012029
:101320007C4E02080148FFF773BC00BFF4040020A4
:101330000020704781807047C180704701817047ED
:10134000418170477047704770477047704710B4CD
:10135000C4880368121B84885B6D091B12B25DF898
:10136000044B09B218474FF6FF7383814FF0FF33E8
:1013700003621368C36110607047002070478B8858
:10138000838001207047704780F82610704790F8DE
:101390002600704710B50022B1F90840B1F90A10D3
:1013A000028042808480C18010BD00220280428081
:1013B0008280C28070470177704780ED080A7047CD
:1013C00080F82410704780F825107047012070477E
:1013D000983070478C307047843070477047704742
:1013E00070470000034B902283F85A2383F8582358
:1013F000704700BF00E100E0094A0A49D3680A4883
:10140000C3F30A03013B9BB20B801169C1F30A01CC
:10141000013901801364536B43F001035363704738
:10142000006801407E2500207C250020014BD3F878
:10143000AC00704700680140024B0122C3F8AC10B9
:101440005A6270470068014010B52C21044620F014
:10145000B6FF204610BD10B5BC21044620F0AFFFFA
:10146000204610BD70B5044607F01DFD23689D6E33
:101470000EF0ECF801462046A8472368054AD3F849
:101480008C502046AC460023BDE87040A2F51631D2
:10149000604700BF00B004D007F0ECBC07F0F6BC1A
:1014A00007F0B2BC07F021BE90F8252012B1036806
:1014B0005B691847704790F825201AB190F82420EE
:1014C00002B1186070470000034B4FF080629A60D1
:1014D0004FF080729A60704700E100E0084B4FF0D7
:1014E0008062C3F88820BFF34F8FBFF36F8F4FF038
:1014F0008072C3F88820BFF34F8FBFF36F8F7047A0
:1015000000E100E070B50023124E8380124B0360AF
:10151000336893F8582005460AB1D86C00B998682A
:101520000368DB6A98473368B0FA80F4D86C6409C2
:1015300030B10368DB6A9847002808BF44F0010413
:101540002CB9064B064A07482C2121F075FE284687
:1015500070BD00BF1837012068500208B34602086A
:10156000114702084A47020870B5254E3568BFF397
:101570005B8F15F0010540D1304620F022FF002896
:101580003BD0204C204B256104F13400C4E90035E8
:10159000C4E90255E584A562A5850FF0A4FD04F118
:1015A00058000AF0DDFC194BA3652046184B40F8A3
:1015B000843BFFF7A7FF174BC4F884302433C4F8EB
:1015C0008C304FF4C803C4E928350023C4F8AC308C
:1015D000C4F8B030C4F8B430C4F8B8300E480F4B7B
:1015E000C4F89050C4F89C50C4F8A850C4F898307F
:1015F00021F040FE304620F0F0FE024870BD00BFF2
:101600008025002084250020D85502088850020833
:10161000005102088C550208E11300086C550208BD
:1016200038B5184C23685BB3174B184A1B6C1188EC
:101630008B4216D1164B198803F05EFE236893F88F
:101640006A200025013283F86A2083F87C50FFF776
:10165000B3FA206808F0A4F92846BDE83840FFF73F
:10166000F3B803F049FE2468236820461B6A9847B4
:10167000012384F87C300020BDE83840FFF70EB924
:1016800038BD00BF18370120006801407E250020CA
:101690007C25002007B5064BADF806001B68054801
:1016A00001220DF1060104F0C7FB03B05DF804FB55
:1016B0000C0000208826002007B5184D184C28463D
:1016C00002F05EFC4FF0FF31284602F0F2FC2846A3
:1016D00002F042FDADF80000284602F0CFFC0120E8
:1016E00005F06BF8204602F04BFC4FF0FF3120462E
:1016F00002F0DFFC204602F02FFDADF8040020468A
:1017000002F0BCFC074800231A466946006805F051
:101710003AF9322005F051F8D1E700BF6C280020DB
:10172000242800204426002030B595B01022002146
:101730000AA821F088FF1422002103A821F083FFCA
:1017400000241E4B01941A6C42F080521A641B6CE8
:1017500003F080530193019B194B02941A6842F4E1
:1017600040421A601B6803F4404302930122029B2B
:101770004FF48033CDE9082302254FF4800308217C
:10178000CDE90E534FF4B473CDE9101308A8042328
:101790001393129503F008FE03F0CCFD0F23CDE95F
:1017A00003354FF4A0504FF48053CDE906030521D3
:1017B00003A8059403F0D4FF15B030BD00380240F3
:1017C000007000402DE980489BB002F0F3FAFFF76B
:1017D000ABFF142200210DA821F035FF0024C94BD6
:1017E00000941A6BC84842F010021A631A6B02F098
:1017F00010020092009A01941A6B42F020021A63C0
:101800001A6B02F020020192019A02941A6B42F0C4
:1018100080021A631A6B02F080020292029A039409
:101820001A6B42F004021A631A6B02F0040203926C
:10183000039A04941A6B42F001021A631A6B02F0C5
:1018400001020492049A05941A6B42F002021A6390
:101850001A6B02F002020592059A06941A6B42F086
:1018600040021A631A6B02F040020692069A07942D
:101870001A6B42F008021A631B6B03F0080322463E
:1018800007933C21079B02F04DFFA0480122022153
:1018900002F048FF22469D48042102F043FF224601
:1018A0009B484FF4405102F03DFF01263C230325A5
:1018B00095480F940DA90227CDE90D36109502F039
:1018C00047FE92480DA9CDE90D76CDE90F4402F00F
:1018D0003FFE04238D480DA9CDE90D36CDE90F4714
:1018E00002F036FE4FF4405389480DA9CDE90D367C
:1018F000CDE90F4702F02CFE082384480F940DA970
:10190000CDE90D3502F024FE0DA9202381480F9466
:10191000CDE90D3502F01CFE7F48804B804D036001
:1019200002F00CFD7F48804B2C62C5E900034FF4A8
:1019300080432846C5E90434C5E90244C5E90644A4
:1019400003F0FEF81021284603F042FB214628460A
:1019500003F05DFB754DDFF8ECC1AC624FF48273B0
:10196000C5E900C34FF4007E1823C5E906E3284605
:101970000A23C5E90244C5E90444C5E90844EB6209
:1019800004F0FEF98F232246394660488DF8243052
:101990008DF8344002F0C6FE32464FF47A7309A93E
:1019A000284604F049FA4FF47A7332460DA92846C6
:1019B00004F0EEFB3246394654485D4D02F0B2FE6B
:1019C0009DF83430D32B04BF5A4B1E705A4B01265E
:1019D000C5E900364FF0100840230024C5E9048310
:1019E0004FF4C073C5E906344FF40063C5E9083409
:1019F0004FF400534FF0020A4FF004094FF0030B6D
:101A0000AB620DA907232846CDE90DA3CDE90F93BD
:101A10000827C5E90249CDE911BACDF84CA004F078
:101A200093F84FF6FF7209A92846CDE90A76089483
:101A300009960C9404F0A8F8304602F0E7F94FF646
:101A4000FF7209A92846CDE909A7CDE90B6404F086
:101A50009BF84FF6FF7209A92846CDE909B7CDE9F1
:101A60000B9404F091F84FF40C730893089B0C93BB
:101A70004FF6FF7209A92846CDE909970B9604F0A5
:101A800083F840F26A51284604F09CF8342221463B
:101A90000DEB020021F0D7FD284D294B2C61C5E943
:101AA00000340923C5E905361D23C5E9073B40F28B
:101AB0000D1240F24313C5E9092340F2171140F219
:101AC00047132846C5E90B13C5E90244AC8685F8DF
:101AD000364003F02FFBFF21F022CDE912144FF026
:101AE00005094FF480614FF4A073CDE90E24CDE9D0
:101AF0001419CDE916420DA922462846CDE9103A1F
:101B000022E000BF003802400010024000080240FE
:101B1000000C0240000002401C280020003002405F
:101B200088270020005C0040A08601008826002055
:101B30005426002048260020400100A0E026002076
:101B40000068014000500140414D18930D94ADF8DC
:101B500064408DF8664003F0A1FB3E4B2B601B6890
:101B600098472B683C4DDB6898473C4B2846C5E9B5
:101B70000034C5E902A4C5E90A4AC5E90C4402F0EB
:101B8000EDFB3146284602F09FFC354DDFF800A101
:101B9000424621460DA821F056FD324BAC604FF471
:101BA000803B2846C5E9003B2C612C7685F8204017
:101BB000EC62C5F828A0EC60EE6185F830406E61FB
:101BC00002F038F90D230DA92846CDE90D36264D32
:101BD0000F9402F0C5FA424621460DA821F033FDCC
:101BE000224BAC602846C5E9003BC5E90AA42C613C
:101BF0002C7685F82040EC60EE6185F830406E610F
:101C000002F018F90DA92846CDE90D960F9402F0BF
:101C1000A7FAFEF74DFDFEF74AFD04F057FD144A02
:101C200039460A2004F074FE124B134A186021460C
:101C3000124804F07EFD124B124A186021461248E9
:101C400004F077FD114B186004F052FDFEE700BF71
:101C50004026002014000020DC27002000B00240B5
:101C60006C28002000200140242800200021014091
:101C7000445102084426002080510208B916000889
:101C8000502600205C510208BF0600084C260020A8
:101C90000100000F704770477FB5094B8DF8172082
:101CA0001B6802930DF117020123009201930A466B
:101CB0000146044802F0ECFF07B05DF804FB00BFEA
:101CC00010000020882700207FB500238DF81730F2
:101CD000084B1B6802930A4601230DF1170100917E
:101CE00001930146044803F063F89DF8170007B01C
:101CF0005DF804FB10000020882700201FB5084C69
:101D000024680092CDE901340A46012301460548C2
:101D100003F04EF8003818BF012004B010BD00BF1A
:101D2000100000208827002002F070B810B5064C83
:101D300000222046042102F0F5FC20460122BDE8E5
:101D40001040042102F0EEBC0008024038B50B4DF3
:101D5000044601220A484FF4005102F0E3FC00223D
:101D60000421284602F0DEFC2046FFF793FC2846BB
:101D70000122BDE83840042102F0D4BC0008024032
:101D8000000C024038B50B4D044600220A484FF4BF
:101D9000005102F0C7FC00220421284602F0C2FCD8
:101DA0002046FFF777FC28460122BDE83840042191
:101DB00002F0B8BC00080240000C0240F7B5144E17
:101DC000144F05460C4630460022042102F0AAFCBE
:101DD00000224FF40051384602F0A4FC2846FFF7D9
:101DE00059FC0D4B0D481B68224601A904F0D0F99F
:101DF000384601224FF40051019C02F093FC30461A
:101E00000122042102F08EFC204603B0F0BD00BF89
:101E100000080240000C02400C0000208826002030
:101E200001F0F4BF0268034B9A4201D101F0DCBF1C
:101E3000704700BF001000407047000082B00E4B9A
:101E400000220092596C41F480415964596C01F4AC
:101E50008041009100990192196C41F08051196400
:101E60001B6C03F080530193019B0F216FF0010065
:101E700002B002F023BA00BF0038024010B51422AD
:101E80008AB0044600210DEB020021F0DCFB236840
:101E9000214A93421FD1214B2148002101915A6CC4
:101EA00042F480725A645A6C02F480720192019A70
:101EB00002911A6B42F004021A631B6B03F00403D5
:101EC00002930821029B0323CDE9051305A902F023
:101ED0003FFB0AB010BD134A9342FAD10F4B124890
:101EE000002103915A6C42F400725A645A6C02F455
:101EF00000720392039A04911A6B42F001021A6372
:101F00001B6B03F001030493049B20220323CDE900
:101F1000052305A9DBE700BF00200140003802408F
:101F20000008024000210140000002400268094B05
:101F30009A4282B00BD100230193074B1A6B42F4F3
:101F400080521A631B6B03F480530193019B02B010
:101F5000704700BF003002400038024007B50F4B09
:101F600002689A4216D10022A3F5F0430192196B40
:101F700041F4000119631B6B03F400030193052175
:101F80005A20019B02F09AF95A2003B05DF804EB45
:101F900002F0C6B903B05DF804FB00BF00B0024018
:101FA0002DE9F043044689B01422002103A821F052
:101FB0004AFB2268244B9A4243D1244C24480025F2
:101FC0000095236B43F004032363236B03F00403A6
:101FD0000093009B0195236B43F001032363236B64
:101FE00003F001030193019B4FF012094FF40073BA
:101FF0004FF001080327042603A9CDE90339CDE9F1
:102000000587079602F0A4FA4FF4807311480796EB
:1020100003A9CDE90339CDE9058702F099FA0295C4
:10202000236C43F400032364236C03F40003029342
:10203000029B236A43F400032362236A23F4000310
:10204000236209B0BDE8F083005C00400038024024
:102050000008024000000240F0B599B00446142286
:10206000002107A821F0EFFA30220DEB0200002139
:1020700021F0E9FA22685E4B9A4240F0B7800823CB
:102080000C93C0231093042312930CA84FF4003335
:10209000159303F02DFC08B1FFF7CEFE554B5648C3
:1020A000002400945A6C42F080625A645A6C02F028
:1020B00080620092009A01941A6B42F020021A6327
:1020C0001A6B02F020020192019A02941A6B42F0FC
:1020D00001021A631A6B02F001020292029A03943F
:1020E0001A6B42F002021A631A6B02F002020392A8
:1020F000039A04941A6B42F040021A631A6B02F0BE
:1021000040020492049A05941A6B42F004021A6386
:102110001A6B02F004020592059A06941A6B42F0BB
:1021200008021A631B6B03F00803069302250E26B0
:10213000069B0B964FF4806307A9CDE90735CDE9DF
:10214000094502F005FA41F658032C480B9607A9F9
:10215000CDE907350927CDE9094502F0F9F903234F
:1021600027480B9707A9CDE90735CDE9094502F0C6
:10217000EFF94FF4706322480B9607A9CDE90735B4
:10218000CDE9094502F0E4F94FF40C631D480B96C4
:1021900007A9CDE90735CDE9094502F0D9F9C023F2
:1021A00019480B9607A9CDE90735CDE9094502F095
:1021B000CFF9082315480B9607A9CDE90735CDE9D6
:1021C000094502F0C5F94FF4A0530E480B9707A933
:1021D000CDE90735CDE9094502F0BAF95820224684
:1021E000052102F06BF8582002F09AF819B0F0BD02
:1021F0000068014000380240001402400000024024
:10220000000402400018024000080240000C024096
:1022100010B5044688B01422002103A821F013FA57
:102220002268144B9A4223D103F56843002101919F
:102230005A6C114842F480125A645A6C02F48012AB
:102240000192019A02911A6B42F020021A631B6BF1
:1022500003F020030293029B4FF4607202230321D8
:10226000CDE903230523CDE9061303A902F070F994
:1022700008B010BD00500140001402402DE9F041AB
:1022800086B0002303932B4B1C68002C4FD14FF0DA
:102290000108C3F80080284B00949A6B274842EA53
:1022A00008029A639B6B03EA080300930227032644
:1022B0000C25009B01A94FF63F03CDE90137CDE97D
:1022C000046502F045F91E48059501A9CDE901878D
:1022D000CDE9034602F03CF948F23313194805955D
:1022E00001A9CDE90137CDE9034602F031F94FF6F6
:1022F00083731548059501A9CDE90137CDE903465A
:1023000002F026F94CF203731048059501A9CDE9B6
:102310000137CDE9034602F01BF960230C4805950F
:1023200001A9CDE90137CDE9034602F011F906B064
:10233000BDE8F081B42800200038024000140240BB
:10234000000802400018024000100240000C024049
:102350000004024070B588B000230293204B1A6C31
:1023600042F010021A641B6C03F01003029305463E
:1023700001A903A8029B03F09DFA069B4BBB03F047
:1023800089FA184E184B336040F2E733F360174B6D
:10239000B0FBF3F3013B7360304600233361B3605D
:1023A000B36104F0BFF8044680B9304603F094FFEF
:1023B000044658B9362001F0B3FF0F2D0DD8224640
:1023C0002946362001F07AFF094B1D60204608B0EF
:1023D00070BD03F05FFA4000D3E70124F6E700BFC9
:1023E00000380240B82800200010004040420F0092
:1023F0007C0000207047FEE7FEE7FEE7FEE770473F
:10240000014803F0A7BF00BFB8280020014802F030
:10241000E8BE00BFE0260020014801F0CBBF00BFAE
:10242000DC2700200120704708B521F0AFF9162302
:1024300003604FF0FF3008BD08B521F0A7F916235F
:102440000360FEE770B50D4614460E46731B9C42B2
:1024500001DC204670BDAFF3008006F8010BF5E704
:1024600070B50D4614460E46731B9C4201DC204697
:1024700070BD16F8010BAFF30080F5E74FF0FF30A9
:1024800070474FF400534B600020704701207047A5
:10249000002070470A4A116808B5034609B909497E
:1024A00011601068694603448B4206D921F06EF929
:1024B0000C2303604FF0FF3008BD1360FCE700BF42
:1024C0000029002058440120704710B5042104461B
:1024D0001FF075FF204610BD08B503290FD8DFE8AF
:1024E00001F00A02060A00F08BFE406808BD00F009
:1024F00087FE8068FAE700F083FE0068F6E70020B8
:10250000F4E7000000487047B85102080120704706
:1025100013B5002451B1036801948DF8034001AA5A
:102520009C680DF10303A04702B010BD0846FBE70D
:10253000C0897047008A7047C0887047808870479C
:10254000807A00F07F007047807AC00970470020D1
:10255000704700009FED010A704700BF00000000B7
:10256000704710B5082104461FF029FF204610BD12
:102570007047704700F598730868496803C370474F
:10258000704770474160704770477047064BC0F80E
:102590004C310023C0F8503100F5A273C0F8480157
:1025A000C0F84031704700BF4D2600080123037278
:1025B0007047704710B4C26841685410034601EB7D
:1025C0006200D20748BF0A599B685DF8044B48BFB8
:1025D000D35818470346406830B19A681AB9D8688A
:1025E00000F0010070470120704710B50C2104462F
:1025F0001FF0E5FE204610BD10B5102104461FF067
:10260000DEFE204610BD10B54FF4AE7104461FF03B
:10261000D6FE204610BD10B50DF018F80368BDE8D1
:102620001040DB6B184710B50446D0F8400158B194
:102630000368DB68984738B1D4F8400103689B68A9
:1026400098470023C4F8403110BD00002DE9F14F38
:10265000D0E9556A0746B06803681B6A984741F29B
:102660003713984205D8444B444AA321444820F0EC
:10267000E3FD706803681B6A98470F2803D8414B35
:102680003E4AA421F2E7F06803681B6A98470B28CA
:1026900003D83D4B394AA521E8E70CF0D7FFDFF816
:1026A000F09004300CF0F7FFD9F8000010B1036887
:1026B000DB689847D9F8000010B103681B68984799
:1026C000DFF8D080D8F8000010B103685B69984744
:1026D000D7F83C0110B103685B689847D8F8000050
:1026E00010B103681B689847D7F83C0110B1036824
:1026F0009B689847F068036800215B6A98474FF031
:10270000000B224BC0F804B0044680F808B0036008
:10271000B068036859465B6A9847054600F0D8FDE3
:102720007068036859465B6A98472946064600F078
:10273000ADFD331DC7F83C61C9F80040C8F8005032
:10274000CAF800302B68C6F808A02846DB68EE639C
:102750009847336830461B689847214628460FF053
:10276000F3F9236820461B69984723685B69204674
:1027700001B0BDE8F04F1847CF4702085D48020896
:10278000354902087C4902081F4A020850520208D3
:10279000603701205C370120044B1B6893F85820F8
:1027A0000AB1D86C00B99868704700BF183701208B
:1027B000F8B5174604460E460DF00AF8124B1C6099
:1027C000124B2360124B0025C4E95135114BC4E96B
:1027D00053551868036801219B68C4E94F55C4E943
:1027E00055769847284600F0BFFCFFF7D5FF17F055
:1027F00002FDFFF7D1FF17F079FDFFF7CDFF17F0CE
:1028000081FD2046F8BD00BF6C370120FC51020855
:10281000E451020818370120064BC0F84C31002360
:10282000C0F8503100F5A273C0F84801C0F840313B
:10283000704700BF4D2600087047704770477047CB
:10284000704730B5036885B06D460181D3F8843098
:10285000014604462846984795E807003C3484E83A
:10286000070005B030BD30B5036885B06D464181C5
:10287000D3F88430014604462846984795E8070077
:102880003C3484E8070005B030BD0022028042805D
:102890008280C280704780F83610704770B5036838
:1028A00004461B6B154698472368294620465B6EF5
:1028B000BDE87040184700207047806C7047704733
:1028C000704770470368DB6A184710B54C2104460F
:1028D0001FF075FD204610BD10B5034B0360044684
:1028E0000BF0BAF9204610BD0453020810B5064B90
:1028F000036004460BF0B0F920464FF488511FF0F6
:102900005EFD204610BD00BF0453020808B5FEF767
:10291000CBFD08BD036870B55E6B124B1B680446A7
:102920008DB22BB9104B114A6C21114820F084FC58
:102930001049828D0988914203D80F4B0B4A6D21B3
:10294000F3E713F812200D4B1B6853F822000368BD
:102950001B6B9847291A3346204609B2BDE87040E0
:10296000184700BF70370120C24A0208044B020812
:102970003F4B020874370120864B0208783701204C
:1029800000224FF0FF31C0E900218260704770B52E
:10299000036804461B6B1546984723682946204662
:1029A0005B6BBDE87040184770B504461D46BDF925
:1029B0001060FFF7ECFF2368294620469B6B984781
:1029C000236831462046DB6BBDE8704018470000A5
:1029D000094A02604FF4807100228184FF21C0E91E
:1029E0000122C0E90322C0E90522C0E9072280F8DC
:1029F00026108262704700BF305902084FF4807180
:102A000081840D4901600D4981624FF6FF71818516
:102A10004FF47F01002241634FF0FF31C0E90122F2
:102A2000C0E90322C0E90522C0E90722C0E910126B
:102A300002630287C2637047A0580208D45102089B
:102A40002DE9F04F044691B0A14600250EF0D0FECE
:102A5000A84BE56349F8403B4846FFF7B9FF04F14E
:102A60006C0304F198081846DFF8B4A20593FFF749
:102A7000AFFF404609F01CFC04F584730AF1240BF7
:102A8000184604F58E770993FEF73CFDC4F808A1BB
:102A9000C4F810B1C4F81451384609F009FC04F523
:102AA000C673184604F5D0760893FEF72BFDC4F8DC
:102AB0008CA1C4F894B1C4F898513046FFF79EFF3A
:102AC00004F5F47318460393FFF798FF8A4BC4F894
:102AD000E83104F50D731846C4F830520493FFF73B
:102AE0008DFF854BC4F8343204F520731846C4F8C2
:102AF0007C52069308F026FD04F5327318460793BE
:102B0000FEF700FDC4F8C8A2C4F8D0B24FF4A07A12
:102B10004FF4616104F53C70C4F8D4520BF092F8A4
:102B20002A46F02329464846CDF800A0FFF73CFF8F
:102B300004F1040B4FF07F43A3664946584605F065
:102B4000C7FE2A460598CDF800A0F0232946FFF7D6
:102B50002BFF4FF07F430599C4F89430584605F099
:102B6000B7FE0A2300934FF496724623582140463D
:102B7000FFF71AFF614BC4F8143143F64473A022E7
:102B8000A4F81831099BC4F8C0301146404609F03A
:102B9000A5FCA0224FF40261404609F0AAFCD4F83B
:102BA000D430534504D0C4F8D4A0404609F0A0FB6B
:102BB0000121404609F0A8FC4146584605F088FE30
:102BC0000A220092462355213846FFF7EDFE4C4B72
:102BD000C4F898314FF26103A022A4F89C31089BFD
:102BE000C4F844311146384609F078FCA0224FF46D
:102BF0000261384609F07DFCD4F85831B3F5A07F66
:102C000006D04FF4A073C4F85831384609F070FB71
:102C10003846012109F078FC394658460AAD05F0DE
:102C200057FE00279C22304606214FF0FF38FFF761
:102C3000AEFE31462846C4F8D081A4F8D47109F01C
:102C400005FE95E8070006F13C094FF0010389E80D
:102C50000700314684F8D831284609F0F7FD95E899
:102C60000700284B0E9389E807004FF0030A30460F
:102C70000EA9ADF83CA00AF091F83146584605F08F
:102C800027FE1E2371220398009339461423FFF771
:102C90008BFED4F8E8310399D3F88430C4F8188255
:102CA0002846A4F81C72984795E80700039B03F197
:102CB0003C06D4F8E83186E80700D3F8843003995D
:102CC00084F820A22846984795E8070086E8070080
:102CD0000D4E336804F537792BB90C4B0C4A602143
:102CE0000C4820F0A9FA0C4B1B88DBB90B4B084AA7
:102CF0006121F5E7045302087452020823EB3EFFFA
:102D00000F0FF2FFD451020870370120C24A0208A7
:102D1000C44B02083F4B020874370120864B02085F
:102D20008C550208444B3946186800F059FA434A5A
:102D300003460521484610F009FA4FF00101404AC8
:102D40000398C4F83092ADF83C100EA90E920AF028
:102D500025F80399584605F0BBFD1E21A5220498CD
:102D6000009114233946FFF71FFED4F8343204993A
:102D7000D3F88430C4F864822846A4F8687298476F
:102D80000499D4F8343201F13C0995E80700D3F8EE
:102D9000843089E807002846049984F86CA2984793
:102DA00095E80700336889E8070004F2E625002B60
:102DB00093D024490B88022B98D91F4B0221186805
:102DC00000F00EFA1D4A03460521284610F0BEF910
:102DD0001B4A0498C4F87C5204230EA90E92ADF845
:102DE0003C3009F0DBFF0499584605F071FD1423CF
:102DF0000698009396226E21FFF7D6FD4FF4A0733C
:102E0000C4E9AB33C4F8B4324FF43453C4F8BC3221
:102E1000079B0699C4F8C0725846C4F8B872C4F843
:102E2000D482A4F8D882C4F8A83205F051FD204617
:102E300011B0BDE8F08F00BF7C3701200F4C0208B5
:102E4000D451020874370120406A7047806A704785
:102E500070478A880B8810B5D20A4C88C1699BB22A
:102E600051F8220043EA0443184410BD10B504464B
:102E7000BAB1107B68B1537BD27A1B0203F4E063D2
:102E80001A43236A03EB82031A888A4202D193F918
:102E9000020010BD05D8013880B204330028F3D1F8
:102EA000F7E70020F5E710B52C2104461FF087FA5C
:102EB000204610BD30B58BB00446BDF86050089573
:102EC000BDF85C5007959DF8505006959DF84C5004
:102ED00005959DF8485004959DF8445003959DF83C
:102EE000405002959DF83C500195BDF83850009532
:102EF0000EF0B6F9064B2360159BE361169B236227
:102F0000199B63621A9BA36220460BB030BD00BFC1
:102F10003C5302087047000030B5164D2C6814F081
:102F200001048FB0BFF35B8F20D128461FF049FA10
:102F3000E0B13F230993104B0893104B10491148FF
:102F40000A940122CDE906430423CDE903320A2382
:102F50000093CDE90B44CDE901440594FFF7AAFFA6
:102F6000094820F087F928461FF037FA05480FB0C6
:102F700030BD00BF04290020746702088067020882
:102F8000AC66020808290020152F000870470000D1
:102F900030B5164D2C6814F001048FB0BFF35B8F71
:102FA00021D128461FF00DFAE8B13F230993104BB9
:102FB0000893104B104911480A94CDE906430122A9
:102FC0000423CDE90332142300930C22CDE90B44F2
:102FD000CDE901440594FFF76DFF094820F04AF957
:102FE00028461FF0FAF905480FB030BD34290020FB
:102FF0007867020884670208BC6602083829002046
:103000008D2F00087047000030B5164D2C6814F065
:1030100001048FB0BFF35B8F20D128461FF0D1F998
:10302000E0B13F230993104B0893104B104911480E
:103030000A940122CDE906430423CDE90332282373
:103040000093CDE90B44CDE901440594FFF732FF2D
:10305000094820F00FF928461FF0BFF905480FB0C6
:1030600030BD00BF642900207C6702088867020821
:1030700064670208682900200530000800207047B6
:10308000002070470EB403B503AB002153F8042BA6
:1030900001930DF063FB02B05DF804EB03B07047E1
:1030A0000CB407B504AB53F8042B01930DF056FB99
:1030B00003B05DF804EB02B070470000436C10B53C
:1030C000044673B3038F2BB9184B194AC52119480D
:1030D00020F0B2F8C38E00EB43035B8C0BB30FF010
:1030E0008CFA238F012B03D8134B144ACB21EEE724
:1030F000E28E531C9BB2092B194688BFA3F10A012B
:1031000004EB410140F63F10498C814209D10A2B62
:1031100004EB420228BF002304EB4303508C588485
:1031200051842046BDE810400FF06AB9124C0208E5
:103130001B4C0208C64C0208104D02081E4D020826
:103140000FF025B910B586B002AC84E806001A4627
:103150000AAB05930193099B00932146089B0BF052
:1031600013FE06B010BD000038B518BB124B134853
:103170001C681349B4B12268224402606268224488
:103180000A60A26814440F4B00221A8000F038F83D
:10319000054600F033F80C4B1C600C4B1D600C4BCB
:1031A000188007E00B4B03600B4B0B600B4B1C684C
:1031B000002CE8D138BD00BFA029002098290020AC
:1031C000942900209C2900207037012078370120A5
:1031D00074370120A06702088C670208AC670208F8
:1031E000044B1B6853F82100034B1B6803EB4000A2
:1031F000704700BF942900209829002005207047BF
:1032000000487047A429002010B5FFF7C1FE044C08
:103210002060FFF7F9FE6060FFF77EFEA06010BD42
:10322000A429002010B5002404600C6014601C6008
:1032300010BD704710B54FF4AE7104461FF0BFF8D3
:10324000204610BD10B50446D0F8580100F003FB2D
:103250002046BDE810400CF07BBA000010B50446D3
:10326000FFF7A6FA014B2360204610BDA4530208C5
:10327000704704387047704710B5102104461FF09E
:103280009EF8204610BDA0F10400F5E70022826000
:10329000024A026018324260C1607047F853020867
:1032A0007047000010B5034B03600446FFF714FBA2
:1032B000204610BD2054020810B50446FFF7F2FF67
:1032C000204641F238111FF07AF8204610BD000068
:1032D000F8B50546FFF7B4FB0B4B2B600B4B0FCB40
:1032E00005F58054012704F5927684F8207186E86C
:1032F0000F000023C4E94433C4F8347184F8183152
:10330000C4F81C312846F8BD205402088C4202083B
:10331000FFF7D7BA10B500F580530B4AC3F8002168
:103320000A4AC3F8042100F52074094AC3F80821A9
:103330002046C3F80C217821A022FEF708F8204689
:10334000BDE8104008F0F0BD0000F042000020434E
:10335000F304B53F70B500F5805401262DED028BC6
:1033600084F81861054603F0DDF91E4BC4F80031FE
:103370001D4BC4F80431D4F83431C4F81C01B342F5
:1033800022D194ED4A8A0226C4F83461B0EE480A8C
:103390001FF05EF830EE000A05F5207584ED420A54
:1033A000B0EE480A1FF098F830EE000A284684ED87
:1033B000430AA0227821FDF7CAFFBDEC028B284604
:1033C000BDE8704008F0B0BD022B1BBF03F5896358
:1033D00005EB830394ED4B8A93ED018A08BF032626
:1033E000D2E700BF0000F0420000204310B500F516
:1033F00080530446D3F81031054A052100F5377093
:103400000FF0A4FE04F5F470BDE810400DF0D0BA42
:10341000F04D020810B500F580530446D3F814317E
:10342000054A052100F2E6200FF090FE04F50D702C
:10343000BDE810400DF0BCBAF04D02082DE9F04F88
:1034400000F5805489B094F82031054623B1FFF788
:1034500061FF002384F8203194F818312BB303F076
:1034600061F9D4F81C31C01A40F6B733984240F2E3
:10347000988194ED417AD4ED407ABDEEC77A00236D
:10348000FDEEE77A84F8183117EE103A1AB217EE0B
:10349000903A05F52075284619B2FDF758FF2846E1
:1034A00009B0BDE8F04F08F03FBDB5F9863294EDA4
:1034B000427AB5F92071D4ED435AB5F922B1B5F984
:1034C0009C60B5F99EA006EE903AB5F9843207EEFD
:1034D000903AF8EEE77A06EE107A77EE877AB3EE56
:1034E000045AF8EEE66A77EE854AB8EEC66A76EEDA
:1034F000A56AF4EEC64AF1EE10FAC4ED407AC4EDC6
:10350000416A24DB07F1460306EE103AB8EEC66ABC
:10351000F4EEC67AF1EE10FA19D806EE10BAB8EE4B
:10352000C66AF4EEC66AF1EE10FA10DB0BF10A037C
:1035300006EE103AB8EEC66AF4EEC66AF1EE10FA7C
:103540009EBFF1EE655AC4ED435A84ED416A06EE22
:10355000906AF8EEE66AF4EEE64AF1EE10FA30DB35
:1035600006F1460306EE903AF8EEE66AF4EEE67AE5
:10357000F1EE10FA25D8D4ED416A06EE10AA76EEE7
:10358000856AB8EEC66AF4EEC66AF1EE10FA18DB88
:103590000AF10A0306EE103AB8EEC66AF4EEC66AFD
:1035A000F1EE10FA0DD8D4ED436AAAF11403F1EE4E
:1035B000666AC4ED436A06EE903AF8EEE66AC4ED38
:1035C000416AF5EEC07AF1EE10FA4FF0000300F216
:1035D000EB80C4F80031B1EE477A84ED427AD4ED45
:1035E000417AF5EEC07AF1EE10FA00F2E980D4EDFE
:1035F000437AC4F80431D4F81431F1EE677A013318
:10360000C4ED437AC4F814312846FFF703FF284677
:10361000FFF7A0FE94ED417AD4ED407ABDEEC77A73
:10362000FDEEE77A17EE103A1AB217EE903A05F56A
:10363000207019B2FDF78BFE7C48002300681A4603
:1036400002A903F0D1F9002840F0AB80BDF80830A2
:103650009FED776ADFED776AA3F5006307EE903A96
:10366000F8EEE77A67EE867AF4EEE67AF1EE10FA93
:1036700040F3C28037EEE67AF0EE087A27EE277A3A
:10368000F7EE087A27EE277ABDF80C30A3F5006331
:1036900007EE903AF8EEE77A67EE867AF4EEE67A8D
:1036A000F1EE10FA40F3B58077EEE67AF0EE086AB4
:1036B00067EEA67AF7EE086A67EEA67ABDEEC77ADD
:1036C000FDEEE77A17EE101A17EE904A39443444AB
:1036D000AA29A8BFAA21AA2C21EAE171A8BFAA247D
:1036E00024EAE4748F42B946A8BF8946A642B04690
:1036F000A8BFA0468F42B8BF01F14607A9F1020951
:10370000A8BF4637A642A8F10208A7EB0907B4BF35
:1037100004F146064636043729EAE979A6EB08069D
:10372000043609EB070328EAE878F02B08EB0603D8
:10373000C8BFC9F1F007F02B4FF00A035A4605F550
:103740008E70009309B24FF04603C8BFC8F1F0066F
:10375000FFF72AF90A23524605F19800009321B297
:1037600046230435FFF720F9ABF1020B0E2304A921
:103770002846AAF1020AADF81090ADF812B0ADF8E3
:103780001470ADF81630ADF81880ADF81AA0ADF889
:103790001C60ADF81E300DF05DF906A928460DF04D
:1037A00059F909B0BDE8F08FDFED237AF4EEE74A6E
:1037B000F1EE10FAFFF613AF204AC4F800210AE731
:1037C00077EE857A9FED1E7AF4EEC77AF1EE10FA65
:1037D000FFF620AF1B4BD4ED437AC4F80431D4F884
:1037E0001031F1EE677A0133C4ED437AC4F8103139
:1037F0002846FFF7FBFD0AE79FED137AF4EEC77A40
:10380000F1EE10FA02D537EEA67A35E79FED0F7A82
:103810003AE79FED0D6AF4EEC67AF1EE10FA02D5A2
:1038200077EEA67A42E7DFED097A47E744260020E3
:103830000000003A0000C83D0000704300005C43F7
:103840000000A043000096430000C8BD0000000037
:103850000022026070477047F02070474FF4A0705C
:1038600070472920FEF78EBA2820FEF78BBA08B5DC
:10387000FEF75CFACA20FEF785FAC320FEF766FA67
:103880000820FEF763FA5020FEF760FACF20FEF71B
:1038900079FA0020FEF75AFAC120FEF757FA3020D5
:1038A000FEF754FAED20FEF76DFA6420FEF74EFAAB
:1038B0000320FEF74BFA1220FEF748FA8120FEF7AC
:1038C00045FAE820FEF75EFA8520FEF73FFA002071
:1038D000FEF73CFA7820FEF739FACB20FEF752FAD1
:1038E0003920FEF733FA2C20FEF730FA0020FEF7DD
:1038F0002DFA3420FEF72AFA0220FEF727FAF720E5
:10390000FEF740FA2020FEF721FAEA20FEF73AFA05
:103910000020FEF71BFA0020FEF718FAB120FEF790
:1039200031FA0020FEF712FA1B20FEF70FFAB6203C
:10393000FEF728FA0A20FEF709FAA220FEF706FA97
:10394000C020FEF71FFA1020FEF700FAC120FEF794
:1039500019FA1020FEF7FAF9C520FEF713FA4520F0
:10396000FEF7F4F91520FEF7F1F9C720FEF70AFA81
:103970009020FEF7EBF93620FEF704FAC820FEF798
:10398000E5F9F220FEF7FEF90020FEF7DFF9B0209E
:10399000FEF7F8F9C220FEF7D9F9B620FEF7F2F9E2
:1039A0000A20FEF7D3F9A720FEF7D0F92720FEF76B
:1039B000CDF90420FEF7CAF92A20FEF7E3F900202A
:1039C000FEF7C4F90020FEF7C1F90020FEF7BEF9AA
:1039D000EF20FEF7BBF92B20FEF7D4F90020FEF70D
:1039E000B5F90020FEF7B2F90120FEF7AFF93F204C
:1039F000FEF7ACF9F620FEF7C5F90120FEF7A6F9AF
:103A00000020FEF7A3F90620FEF7A0F92C20FEF710
:103A1000B9F9C820FEF704FA2620FEF7B3F9012011
:103A2000FEF794F9E020FEF7ADF90F20FEF78EF9CE
:103A30002920FEF78BF92420FEF788F90C20FEF7E9
:103A400085F90E20FEF782F90920FEF77FF94E2056
:103A5000FEF77CF97820FEF779F93C20FEF776F93D
:103A60000920FEF773F91320FEF770F90520FEF721
:103A70006DF91720FEF76AF91120FEF767F90020AB
:103A8000FEF764F9E120FEF77DF90020FEF75EF90C
:103A90001620FEF75BF91B20FEF758F90420FEF70D
:103AA00055F91120FEF752F90720FEF74FF93120A2
:103AB000FEF74CF93320FEF749F94220FEF746F9AC
:103AC0000520FEF743F90C20FEF740F90A20FEF727
:103AD0003DF92820FEF73AF92F20FEF737F90F209D
:103AE000FEF734F91120FEF74DF9C820FEF798F9DA
:103AF0002920FEF747F9BDE808402C20FEF742B91F
:103B000008B5FEF713F90321D320FEF757F980B269
:103B100008BD10B5C4B2022203212046FEF7BCF84E
:103B20000A20FEF701F9204600220321FEF7B4F82F
:103B3000BDE810400220FEF7F7B838B50446E4B2FD
:103B4000FEF7A8F800212046FEF7BEF80121054641
:103B50002046FEF7B9F840EA052080B238BD10B51E
:103B6000C4B240212046FEF7AFF8030607D54C212A
:103B70002046FEF7A9F8003818BF012010BD012229
:103B80004B212046FEF788F8204600224B21FEF705
:103B900083F80020F2E773B50423C4B20E4615463D
:103BA000D7210DEB03022046FEF7A8F8019B1BBAB4
:103BB0001A0DC3F30B23328020462B8001224B21A8
:103BC000FEF76AF800224B212046FEF765F802B0A6
:103BD00070BD000010B50A4A1378984204460DD013
:103BE000517888420AD00BB141B90123D454FEF771
:103BF00051F82046BDE81040FFF78BBF10BD00BF55
:103C0000B029002010B5C4B209212046FEF75CF8A7
:103C100040F00102D2B220460921BDE81040FEF773
:103C20003BB810B5C4B209212046FEF74DF8092172
:103C300000F0FE022046BDE81040FEF72DB838B572
:103C4000C4B20D4620460A21FEF73EF840EA0502BE
:103C5000D2B220460A21BDE83840FEF71DB810B5A3
:103C60000446FEF718F820461F21FFF7E8FF20461C
:103C7000BDE81040FFF7C6BF38B5C4B20D462046B8
:103C80000A21FEF721F820EA0502D2B220460A21D5
:103C9000BDE83840FEF700B810B50446FFF7C1FF95
:103CA00020461F21BDE81040FFF7E6BF10B5C0B2A7
:103CB0000C460B21FEF708F8204010BD1F21FFF72E
:103CC000F5BF0A46C0B20B21FDF7E6BF1F21FFF783
:103CD000F8BF38B5C4B20D4620461721FDF7F4FFF2
:103CE00020EA0502D2B220461721BDE83840FDF790
:103CF000D3BF70B5C4B2064604212046FDF7E4FFE9
:103D0000042100F0FB0205462046FDF7C5FF3046C2
:103D1000F021FFF7DEFF05F0F80220460421FDF751
:103D2000BBFF492220212046FDF7B6FF0220FDF708
:103D3000FBFF204601222121FDF7AEFF20469A22FB
:103D40004121FDF7A9FF204601224A21FDF7A4FFEA
:103D5000204601224B21FDF79FFF204600224B21E8
:103D6000FDF79AFF204601225621FDF795FF2046D8
:103D700001225821FDF790FF204601224021FDF746
:103D80008BFF2046FF220B21FDF786FFBDE8704028
:103D90000220FDF7C9BF0000054BD3F8882042F48C
:103DA0007002C3F888204FF000629A60704700BF2D
:103DB00000ED00E008B50B4B1A6842F400721A607F
:103DC0001A6842F480621A601A6842F480721A60BB
:103DD000032000F061FA0020FEF7BCFAFEF72EF88F
:103DE000002008BD003C0240034A044B11681B78C8
:103DF0000B441360704700BFB429002078000020F6
:103E0000014B1868704700BFB429002038B504463C
:103E1000FFF7F6FF631C1CBF054B1B78054618BF58
:103E2000E418FFF7EDFF431BA342FAD338BD00BFF0
:103E30007800002038B50446002800F09B80056C0F
:103E400025B9FEF71BF8656484F83C50236CDB064B
:103E500000F18E80236C23F4885323F0020343F097
:103E600002032364444B5A6822F440325A605A6871
:103E700061680A435A60236821695A6822F4807293
:103E80005A605A6842EA01225A605A68A16822F0D0
:103E900040725A605A680A435A609A68E16822F48C
:103EA00000629A609A680A439A603449A26A8A4218
:103EB00052D0996821F07061996099680A439A60BC
:103EC0009A68E16A22F040529A609A680A439A60BE
:103ED0009A6822F002029A609A68217E42EA4102C0
:103EE0009A6094F82020002A3ED05A68616A42F411
:103EF00000625A605A6822F460425A605A68013976
:103F000042EA41325A60DA6AE16922F47002DA6206
:103F1000DA6A013942EA0152DA629A6822F40072DE
:103F20009A609A6894F8301042EA41229A609A683E
:103F3000616922F480629A609A68002042EA8122D4
:103F40009A606064236C23F0030343F0010323644D
:103F5000002384F83C3038BD9A6822F070629A6081
:103F60009A6822F04052B2E75A6822F40062C9E728
:103F70000120EDE70120EEE7002301400100000FE2
:103F800082B00023019390F83C30012B69D00123CB
:103F900080F83C3003689A68D2070BD59A68D1073D
:103FA0001AD4036C43F010030364436C43F0010321
:103FB00043644CE09A682C4942F001029A602B4A13
:103FC0001268B2FBF1F202EB42020192019A002A5E
:103FD000E4D0019A013AF8E7026C22F4E06222F0A0
:103FE000010242F4807202645A68520541BF026CB9
:103FF00022F4405242F480520264026C12F4805265
:104000001CBF426C22F006024264002280F83C2071
:104010006FF022021A60164A516811F01F0F1549FD
:104020001CD18B4207D001F580718B420CD15268B4
:1040300012F01F0F0BD19A6812F0405F07D19A68F7
:1040400042F080429A6002E00B498B4202D000208D
:1040500002B07047526812F0100FEBE78B42F6D1B6
:10406000E9E70220F4E700BF40420F00740000209F
:1040700000230140002001400022014090F83C3024
:10408000012B14D003689A6822F001029A609B68A1
:10409000DB0707D4036C23F4885323F0010343F0B8
:1040A00001030364002380F83C3018467047022067
:1040B000704703689A68520570B504460D460BD5E3
:1040C0009B68DE0508D5036C43F0200303640023DE
:1040D00080F83C30012070BDFFF792FE0646236851
:1040E0001A6891070CD56FF012021A60226C42F424
:1040F000007222649A6812F0405F17D00020EAE74D
:10410000681CEDD065B923681B6813F00203E6D183
:10411000226C84F83C3042F0040222640320DAE787
:10412000FFF76EFE801BA842EDD8D8E7227E002A5A
:10413000E4D1DA6A12F4700F02D09B685A05DDD41C
:10414000236C23F480732364236CDB04D6D4236CA8
:1041500043F001032364D1E70368D86C7047000083
:10416000F7B50023019390F83C30012B054600F091
:104170008680012380F83C3008682B688E68092807
:1041800084B233D904EB4402DF681E3A4FF0070CC7
:104190000CFA02FC27EA0C07DF60DF6806FA02F27D
:1041A0003A43DA604968062901EB81022DD8596B40
:1041B000053A1F26964021EA06015963596B04FA15
:1041C00002F20A435A632F4A93420AD1122837D186
:1041D0002D4B5A6822F400025A605A6842F4800259
:1041E0005A60002085F83C0003B0F0BD1A6900EB6E
:1041F000400C072707FA0CF722EA07021A611A692E
:1042000006FA0CF616431E61CCE70C294FF01F018D
:104210000BD81E6B233A914026EA01011963196BF2
:1042200004FA02F20A431A63CDE7DE6A413A91408A
:1042300026EA0101D962D96A94400C43DC62C2E7E4
:10424000124B984201D01128CBD10F4B5A6822F45F
:1042500080025A605A6842F400025A600B4B98423E
:10426000BFD10B4B0B4A1B68B3FBF2F30A2253433B
:104270000193019B002BB4D0019B013BF8E7022086
:10428000B2E700BF002001400023014012000010EF
:104290007400002040420F000749CA6822F4E0621F
:1042A0000302120403F4E063120C134343F0BF63F0
:1042B00043F40033CB60704700ED00E0164B30B59F
:1042C000DC68C4F30224C4F10703251D042B28BFB6
:1042D0000423062D4FF0FF358CBF033C002405FA64
:1042E00003F321EA0303A54022EA0502A3400028C4
:1042F00043EA0203ACBF00F16040084A4FEA0313EF
:10430000B8BF00F00F00DBB2AABF00F56140135444
:1043100080F8003330BD00BF00ED00E014ED00E098
:10432000002807DB044A4109012300F01F008340F5
:1043300042F82130704700BF00E100E010B50446AC
:1043400050B1437903F0FF0213B90271FDF7EEFD9E
:1043500001236371002010BD0120FCE710B5044665
:1043600020B390F8393003F0FF021BB980F83820F1
:10437000FDF7F4FD022384F83930236861681A6878
:1043800022F440320A431A605A6BA16822F00702F5
:104390000A435A631A6CE1686FF30D020A431A6408
:1043A00000200123E06384F8393010BD0120FCE7D0
:1043B00070477047036870B55E681D68F207044671
:1043C00014D5E90512D51A6822F480721A60C26BFE
:1043D00042F00102C26301229A60042380F839305E
:1043E000002380F83830436903B19847B20616D5E8
:1043F000AB0414D523681A6822F400521A602022F4
:104400009A60E36B43F00203E363042384F83930DA
:10441000002384F8383063690BB120469847300791
:1044200016D5290514D523681A6822F400621A608B
:1044300008229A60E36B43F00403E363042384F8E7
:104440003930002384F8383063690BB1204698472F
:1044500072070BD56B0509D523681A6822F48062B0
:104460001A6004229A602046FFF7A2FFB00714D515
:10447000A90512D523681A6822F400721A60022274
:104480009A60E36BE363012384F83930002384F8F6
:10449000383023690BB120469847F20613D5EB0458
:1044A00011D523681A6822F480521A6010229A608B
:1044B000E36BE363012384F83930002384F8383058
:1044C0002046FFF776FF70BDF0B590F83820012A3E
:1044D00003464FF002002BD0012283F8382083F8E6
:1044E000390003EB0112D2E90740556A174F44EA3D
:1044F0000040093C012C9CBF05F07F4210434FEA6D
:1045000001161A6888BF40EA056091B9516A3940BE
:1045100001435162012C9969916103D8596A21F0D4
:104520007F4191620122002083F8392083F838000E
:10453000F0BDD16939400143D1619919012C8969D4
:1045400011619CBF25F07F451562EBE7F0FFFC0091
:104550002DE9F74FDFF8BC916C4A00230D68012468
:104560009C4004EA0506AC4340F0B7804D68032741
:1045700005F003044FEA430807FA08FC671E012F01
:104580006FEA0C0C34D8876807EA0C0ECF6807FA7C
:1045900008F747EA0E078760476827EA060EC5F363
:1045A00000179F4047EA0E074760C76807EA0C0EEE
:1045B0008F6807FA08F747EA0E07022CC76019D17F
:1045C0004FEAD30A00EB8A0A03F0070BDAF82070EF
:1045D0004FEA8B0B4FF00F0E0EFA0BFE27EA0E0E72
:1045E0000F6907FA0BF747EA0E07CAF8207001E0D7
:1045F000032CDAD1076804FA08F407EA0C073C43F5
:1046000015F4403F046068D000240194D9F8444078
:1046100044F48044C9F84440D9F8444023F00307E7
:1046200007F1804704F4804407F59C37019403F0B8
:10463000030C019CD7F808E04FEA8C0C0F2404FA15
:104640000CF42EEA040E324CA0424DD004F58064E6
:10465000A0424BD004F58064A04249D004F58064A8
:10466000A04247D004F58064A04245D004F58064A0
:10467000A04243D004F58064A04241D004F5806498
:10468000A0423FD004F58064A0423DD004F5806490
:10469000A04214BF0A24092404FA0CF444EA0E04CC
:1046A000BC609468F74315F4801F0CBF3C40344352
:1046B0009460D46815F4001F0CBF3C403443D460B0
:1046C000546815F4003F0CBF3C40344354601468F8
:1046D000ED0354BF3C40344314600133102B7FF48E
:1046E0003DAF03B0BDE8F08F0024D5E70124D3E748
:1046F0000224D1E70324CFE70424CDE70524CBE748
:104700000624C9E70724C7E70824C5E7003C0140A1
:1047100000000240003802400369194214BF012022
:10472000002070470AB1816170470904FBE74369C3
:1047300001EA030221EA030141EA02418161704773
:1047400001684B6913F480634FF0000210D06FF4DE
:1047500080634B612023026380F83D3080F83E2067
:10476000036C80F83C2043F004030364012070478D
:10477000184670472DE9F84606460F4691461D46F5
:104780004FEA114A3368BAF1010F0CBF5C699C69AA
:1047900027EA0404A4B2B4FA84F46409A14501D060
:1047A000002025E06A1CEED0FFF72AFB089BC01A08
:1047B000A84201D8002DE5D13368BAF1010F0CBF32
:1047C0005B699B6927EA03039BB2B3FA83F35B0936
:1047D0009945D7D100232022336386F83D2086F8FF
:1047E0003E30326C86F83C3042F0200232640120C8
:1047F000BDE8F8862DE9F04104460F461646984676
:104800002568686927EA000080B2C0B16B695A0563
:1048100017D52B6843F400732B606FF480636B61D2
:1048200020220023236384F83D2084F83E30236C4B
:1048300043F004032364002384F83C300120BDE8E6
:10484000F081731CDDD0FFF7DBFAA0EB0800B0426B
:1048500001D8002ED4D123685A6927EA020292B205
:10486000002ACDD000232022236384F83D2084F841
:104870003E30236C1343DDE770B504460D46164603
:1048800023685B691B0601D500201EE02046FFF768
:1048900057FFC8B96A1CF3D0FFF7B2FA801BA842D1
:1048A00001D8002DECD123685B6913F08003E7D1B8
:1048B0002022236384F83D2084F83E30226C84F863
:1048C0003C3042F020022264012070BD2DE9F0430B
:1048D0001546026885B0DDE90C789946136843F403
:1048E000807313600E463B46CDF8008000224FF0E7
:1048F00001110446FFF73EFF236838B11B68DB0552
:1049000002D54FF400732364032620E006F0FE0670
:104910001E611A4943463A462046FFF76BFFA8B985
:10492000236803905A6903929B6903934246394670
:104930002046039BFFF7A0FF064660B1236C042BC3
:1049400001BF2268136843F40073136001263046E8
:1049500005B0BDE8F083B9F1010F236802D1EDB2D3
:104960001D61F4E72A0A1A61394642462046FFF7DC
:1049700083FF0028E2D12368F1E700BF02000100B5
:104980002DE9FF479A46036815461A6842F480628B
:104990001A601A68DDE90C7842F480721A600E46DB
:1049A0003B46CDF8008000224FF001110446FFF78E
:1049B000E1FE236838B11B68DB0544BF4FF4007388
:1049C0002364032021E05FFA86F906F0FE061E61EB
:1049D0002B4943463A462046FFF70CFFA0B923680F
:1049E00003905A6903929B690393424639462046D5
:1049F000039BFFF741FF58B1236C042B01BF2268D2
:104A0000136843F400731360012004B0BDE8F0871D
:104A1000BAF1010F23681AD1EDB242461D61394641
:104A20002046FFF729FF02460028E5D121680B68E0
:104A300043F480730B602046CDF800803B464FF076
:104A40000111FFF797FE226860B11368B4E72A0AE4
:104A50001A61394642462046FFF70EFF0028CBD1A7
:104A60002368D9E749F001031361054943463A46F3
:104A70002046FFF7BFFE003818BF0120C5E700BF82
:104A80000200010070B504460D46164623685B69B6
:104A90005B0701D500201EE02046FFF751FEC8B994
:104AA0006A1CF3D0FFF7ACF9801BA84201D8002D97
:104AB000ECD123685B6913F00403E7D12022236360
:104AC00084F83D2084F83E30226C84F83C3042F07B
:104AD00020022264012070BD70B504460D461646C2
:104AE00021684B6913F0400301D0002011E04A69AE
:104AF000D2060FD56FF010024A612022236384F89A
:104B00003D2084F83E30236C2364002384F83C303D
:104B1000012070BDFFF774F9801BA84201D8002D59
:104B2000DED123685B6913F04003D9D120222363CF
:104B300084F83D2084F83E30236C1343E4E7000002
:104B400070B5044608B9012070BD90F83D3003F0FF
:104B5000FF021BB980F83C20FDF722FA242384F8D9
:104B60003D3023681A6822F001021A601A6842F484
:104B700000421A601A6822F400421A6000F08AFEAD
:104B80003F4B65689D4294BF3E4B3F4B98428CBF64
:104B900000230123002BD6D12268394E51683B4BAC
:104BA000B0FBF3F321F03F011943B542516088BFD8
:104BB0004FF49676116A88BF734321F03F0184BF9A
:104BC0004FF47A76B3FBF6F301330B431362D169EA
:104BD000431E2B4821F44F41854221F0FF0132D87A
:104BE0006D0040F6FC70B3FBF5F30133034242D095
:104BF000C3F30B031943D161D4E9073011680343B0
:104C000021F0C0010B4313609168D4E9030321F440
:104C10000341034321F0FF010B439360D4E90530C6
:104C2000D168034321F0FF010B43D360136843F0C5
:104C30000103136000202023206484F83D302063AA
:104C400084F83E0080E7A06850B905EB4505B3FB4A
:104C5000F5F30133C3F30B037BB143F40043C9E71E
:104C600019206843B3FBF0F30133C3F30B0323B103
:104C700043F44043BEE70423BCE70123BAE700BF87
:104C8000A08601007F841E00FF083D0040420F0007
:104C90002DE9F743044699460C9E0F469046FFF7D0
:104CA000AFF894F83D30202B054603D0022003B026
:104CB000BDE8F08300903C49192301222046FFF70C
:104CC00059FD0028F2D194F83C30012BEED0206839
:104CD000012384F83C300368D9075EBF036843F0C2
:104CE00001030360036823F400630360212384F855
:104CF0003D30402384F83E30002323640A9B6362E6
:104D0000BDF82C306385638D2385284BE3624246D2
:104D1000CDE900654B4639462046FFF7D7FD002810
:104D20002AD00120C3E7FFF7A7FD40B1236C042B75
:104D300001BF2268136843F400731360F1E7636AEC
:104D400027681A4612F8011B39616262628D218D53
:104D5000013A92B262857A69481E80B25207208574
:104D60000AD548B15A783A6102336362638D013BD8
:104D700002399BB221856385238D2A463146204620
:104D8000002BD0D1FFF77EFE0028CFD12268136818
:104D900043F400731360202384F83D3084F83C0012
:104DA00084F83E0083E700BF020010000000FFFF10
:104DB0002DE9F043044687B09946109F0D46904672
:104DC000FFF71EF894F83D30202B064604D002254C
:104DD000284607B0BDE8F08300907A4919230122E4
:104DE0002046FFF7C7FC0028F1D194F83C30012B96
:104DF000EDD02068012384F83C300368DB075EBFF8
:104E0000036843F001030360036823F40063036055
:104E1000222384F83D30402384F83E30002323646D
:104E20000E9B6362BDF83C306385638D2385664BC2
:104E3000E3622946CDE900764B4642462046FFF71D
:104E40009FFD054608B10125C2E7228D2368B2B94E
:104E500002905A6902929A690292029A1A6842F47E
:104E600000721A60DFF86481238D002B2CD1202280
:104E700084F83D2084F83C3084F83E30A8E7012ACD
:104E80000AD11A6822F480621A6003905A69039268
:104E90009A690392039AE1E7022A0ED11A6822F472
:104EA00080621A601A6842F400621A6004905A69BB
:104EB00004929B690493049BD4E705905A69059278
:104EC0009B690593059BCDE7032B56D8012B15D184
:104ED000324639462046FFF7FFFD0028B3D123684C
:104EE0001A69636A1A70636A01336362238D013B36
:104EF0002385638D013B9BB26385B5E7022B00964A
:104F00003B464FF000024146204619D1FFF732FCE4
:104F1000002898D123681A6842F400721A601A694E
:104F2000636A1A70626A531C6362238D013B238596
:104F3000638D013B9BB2638523681B695370D2E785
:104F4000FFF718FC024600287FF47DAF236819683C
:104F500021F4806119601969636A1970636A013309
:104F60006362238D013B2385638D013B9BB2638587
:104F7000414600963B462046C8E732463946204621
:104F8000FFF7AAFD00287FF45EAF23681A69636A01
:104F90001A70628D616A013A92B24B1C6285226876
:104FA0006362238D5069013B9BB2400723857FF5E7
:104FB0005BAF032B02BF136823F480631360136994
:104FC0004B7090E7020010000000FFFF040001009A
:104FD00010B590F83D30202BDCB216D1242380F898
:104FE0003D3003681A6822F001021A605A6A22F002
:104FF00010025A625A6A114359621A6842F0010259
:105000001A6080F83D40002010BD0220FCE730B55A
:1050100090F83D30202BDCB216D10268242380F8B2
:105020003D30136823F001031360556A4FF6F073A7
:105030002B400B439BB25362136843F00103136090
:1050400080F83D40002030BD0220FCE70068D2011E
:1050500084328318F0B5C7685D684C680E6805F443
:1050600070455D60C56806F1010CC5F30B45C7F3DB
:105070000B472744654445EA07455D60C768CD682E
:10508000C7F30A072F449D6805F470459D60D0F86A
:105090000CC08D68CCF30A0C0135654445EA074520
:1050A0009D601D69D1F810C08F6925F007051D614D
:1050B000C3F810C091F8305045EA076591F8317097
:1050C00045EA072591F8327045EA07459D615D691B
:1050D00025F0FF055D614D695D61DD6925F4E065E1
:1050E00025F00705DD61D1E907573D43DD61BCF1DE
:1050F000070F4D6A9D629CBF0D4D15F80C70DD6A5F
:1051000005F0E025DD6288BF01278D6AC96AA41B0E
:105110007C437D43033444EA0544DC621C6B6FF33B
:105120000A041C631963835843F001038350F0BDE4
:105130006854020838B5044600284ED090F8A130D3
:1051400003F0FF021BB980F8A020FCF785FF0223C3
:1051500084F8A13023689A6922F070429A61D4E9F8
:1051600001200243E06899690243206902430A432F
:105170009A61D4E9051242EA01429A60D4E9071221
:1051800042EA0142DA60D4E9091242EA01421A61B4
:10519000D4E90B1242EA01425A61DA6A94F8350006
:1051A00094F8361002F07F42DA62DD6A94F8342017
:1051B0002A4342EA002242EA0142DA625A6B42F092
:1051C00006025A639A6942F001029A6100200123A3
:1051D000C4F8A40084F8A13038BD0120FCE7704772
:1051E0007047036870B59E6B5D6B7207044614D5FB
:1051F000690712D55A6B22F004025A630422DA635B
:10520000D0F8A43043F00103C0F8A430002380F8A4
:10521000A12080F8A030FFF7E2FFB20716D5AB0758
:1052200014D523685A6B22F002025A630222DA6311
:10523000D4F8A4301343C4F8A430042384F8A13074
:10524000002384F8A0302046FFF7C9FFF00710D5EF
:10525000E9070ED523685A6B22F001025A63012236
:10526000DA63002384F8A12084F8A0302046FCF7FC
:10527000D7F9320711D52B070FD523685A6B22F0C7
:1052800008025A630822DA63012384F8A13000235C
:1052900084F8A0302046FFF7A3FF70BD2DE9F04150
:1052A00090F8A030012B06460F4694464FF00200BE
:1052B0001FD04FF0010886F8A08086F8A1003424A2
:1052C0000D4604FB02640FCD38340FC40FCD0FC45C
:1052D0000FCD0FC42B682360304662463946FFF776
:1052E000B5FE33680020C3F8248086F8A18086F8D4
:1052F000A000BDE8F081000090F8A020012A03463C
:105300004FF0020012D01A6883F8A100506B20F011
:105310000100506306480164516B41F00101516383
:105320000020012283F8A12083F8A000704700BF6D
:105330000068014037B500230193184B184D1A6CD3
:1053400042F080521A641B6C03F080530193019B5E
:10535000144B01221A64FEF753FD04466B68DA030E
:105360000BD5104B0E4D01225A64FEF749FD044641
:105370006B689B030AD5002006E0FEF741FD001B89
:10538000B0F57A7FEAD9032003B030BDFEF738FDCF
:10539000001BB0F57A7FEBD9F5E700BF003802407B
:1053A0000070004000000E422DE9F341044640B376
:1053B0000368DE0710D423689D075BD423681907B0
:1053C00000F19D8023685A0700F1BD80A369002B7E
:1053D00040F0248100202CE08D4B9A6802F00C02F2
:1053E000042A07D09A6802F00C02082A0BD15B68E5
:1053F000590208D5864B1B689A03DCD56368002BDD
:10540000D9D1012015E06368814DB3F5803F13D1F8
:105410002B6843F480332B60FEF7F2FC7C4E05468C
:1054200033689B03C7D4FEF7EBFC401B6428F7D915
:10543000032002B0BDE8F081B3F5A02F04D12B68A2
:1054400043F480232B60E3E72A6822F480322A6049
:105450002A6822F480222A60002BDDD1FEF7D0FCDE
:1054600006462B689F03A6D5FEF7CAFC801B64285E
:10547000F7D9DDE7664B9A6812F00C0F07D09A68EF
:1054800002F00C02082A11D15B685D020ED4604A5A
:105490001368990702D5E368012BB2D1136821691B
:1054A00023F0F80343EAC103136087E7E268594B2E
:1054B000B2B101221A60FEF7A3FC554D06462B68D7
:1054C0009B0707D52B68226923F0F80343EAC20340
:1054D0002B6073E7FEF794FC801B0228EFD9A7E747
:1054E0001A60FEF78DFC4A4E054633689F077FF52C
:1054F00065AFFEF785FC401B0228F6D998E7626984
:10550000444B82B10122C3F8802EFEF779FC404E55
:105510000546736F9B073FF555AFFEF771FC401BC7
:105520000228F6D984E7C3F8802EFEF769FC384ECE
:105530000546736F9F077FF545AFFEF761FC401B83
:105540000228F6D974E7324B1A6C12F0805228D137
:1055500001921A6C42F080521A641B6C03F0805363
:105560000193019B01272C4D2B68D8051BD5A368FF
:10557000274D012B27D12B6F43F001032B67FEF73B
:105580003FFC234E054641F28838336F9A0739D5E0
:10559000002F3FF41BAF1E4A136C23F0805313649B
:1055A00014E70027DFE72B6843F480732B60FEF7D6
:1055B00027FC06462B68D905D9D4FEF721FC801BB1
:1055C0000228F7D934E7052B04D12B6F43F00403ED
:1055D0002B67D0E72A6F22F001022A672A6F22F098
:1055E00004022A67002BCAD1FEF70AFC41F2883870
:1055F00006462B6F9B07CBD5FEF702FC801B404570
:10560000F7D915E7FEF7FCFB401B4045BDD90FE776
:10561000003802400000474200700040374DAA6841
:1056200002F00C02082A3ED0022B354B4FF000024C
:105630001A662BD1FEF7E4FB06462B6899011FD4AE
:10564000D4E907321343626A43EA8213E26A43EA07
:105650000263A26A5208013A43EA02436B60284B94
:10566000264D01221A66FEF7CBFB04462B689A01F1
:105670003FF5B0AEFEF7C4FB001B0228F6D9D7E613
:10568000FEF7BEFB801B0228D7D9D1E6FEF7B8FB98
:1056900004462B689B017FF59DAEFEF7B1FB001B16
:1056A0000228F6D9C4E6012B3FF4ABAE6B68E26981
:1056B00003F4800191427FF4A4AE216A03F03F021B
:1056C0008A427FF49EAE616A47F6C0721A40B2EB1E
:1056D000811F7FF496AEA26A520803F44031013A6A
:1056E000B1EB024F7FF48DAEE26A03F07063B3EB6F
:1056F000026F14BF012000209BE600BF003802406B
:1057000000004742134908B58B6803F00C03042BD3
:105710001CD0082B1CD14A684B68496813F48003DD
:1057200014BF0D480D48C1F3881118BF002302F0C3
:105730003F02A1FB0001FAF7FBFD064B5B68C3F3D8
:10574000014301335B00B0FBF3F008BD0248FCE706
:105750000248FAE70038024000127A000024F40000
:105760002DE9F0410D46044610B90120BDE8F08155
:10577000434B1A6802F00F028A4228D321688F0730
:105780002DD4C80740D43E4B1A6802F00F02AA423B
:1057900065D8226851076BD4130707D5394A2169A8
:1057A000936823F4604343EAC1039360FFF7AAFFC1
:1057B000344B354A9B68C3F30313D35CD840334B57
:1057C0001860334B1868FCF7C5FD0020CEE7CAB25D
:1057D0001A701B6803F00F038B42C6D1CEE7294B2A
:1057E00011F0040F1EBF9A6842F4E0529A600E074F
:1057F00042BF9A6842F460429A609A68A06822F0B8
:10580000F00202439A60BCE762681E4B012A1CD179
:105810001B6813F4003FA8D01A4EB36823F00303AB
:105820001343B360FEF7ECFA41F288380746B368D9
:10583000626803F00C03B3EB820FA4D0FEF7E0FA2A
:10584000C01B4045F3D9032090E7911E01291B6836
:1058500002D813F0007FDEE713F0020FDBE7EAB2B5
:105860001A701B6803F00F03AB427FF47EAF90E722
:105870000449E0688B6823F4E05303438B608BE7B3
:10588000003C0240003802405854020874000020D6
:105890007C000020044B054A9B68C3F38223D35C41
:1058A000034A1068D840704700380240505402083C
:1058B000740000200F2303600B4B9A6802F0030270
:1058C00042609A6802F0F00282609A6802F4E05244
:1058D000C2609B68DB0803F4E0530361034B1B6861
:1058E00003F00F030B60704700380240003C024099
:1058F000036813F0430FF7B5044640F0888023682F
:1059000013F00C0F45D08C4B8C4D00221A67FEF71C
:1059100077FA06462B68990000F1CB8021684A0788
:1059200015D5D4E90403D5F888201B0602F0E0421F
:1059300043EA80131343C5F88830D5F88C30226AC7
:1059400023F4F853013A43EA0223C5F88C300B07DD
:1059500014D57A4AA369D2F8881020691B0701F090
:10596000706143EA80130B43C2F88830D2F88C3060
:10597000616A23F440330B43C2F88C306E4B6F4E98
:1059800001221A67FEF73CFA054633689F0040F192
:1059900097802368980634D500230193674B684DA0
:1059A0001A6C42F080521A641B6C03F0805301930E
:1059B000019B2B6843F480732B60FEF721FA0646A7
:1059C0002B68D80540F183805C4DA26A2B6F13F4DD
:1059D000407340F08380A36A03F44072B2F5407FC5
:1059E000564A40F09E80916823F0704021F4F811EF
:1059F00020F4407001439160116FC3F30B030B431C
:105A000013672368DB0600F1908000204FE04A4BCB
:105A10004A4E00229A66FEF7F3F9054633681F01E5
:105A20003FD42168C80741BFD4E901231B0743EADB
:105A30008213C6F884308A0715D5404AE368D2F845
:105A4000840065681B0600F0E04043EA85130343C9
:105A5000C2F88430D2F88C00E36920F01F00013BCB
:105A60000343C2F88C304B060AD5E36862681B0614
:105A700043EA8213A26843EA0273304AC2F88430D0
:105A80002D4B2E4E01229A66FEF7BAF90546336871
:105A90001F013FF534AFFEF7B3F9401B0228F6D9DA
:105AA00004E0FEF7ADF9401B0228B7D9032003B08C
:105AB000F0BDFEF7A5F9801B02287FF62BAFF5E7B6
:105AC000FEF79EF9401B02287FF65FAFEEE7FEF778
:105AD00097F9801B02287FF673AFE7E702F4407264
