:020000040800F2
:10000000000003205D0600088525000887250008FC
:10001000892500088B2500088D25000800000000B8
:10002000000000000000000000000000118C00082B
:100030008F25000800000000A18C00082985000819
:10004000AD060008AD060008AD060008AD060008C4
:10005000AD060008AD060008AD060008AD060008B4
:10006000AD060008AD060008AD060008AD060008A4
:10007000AD060008AD060008AD060008AD06000894
:1000800091250008AD060008AD060008AD06000881
:10009000AD060008AD060008AD060008AD06000874
:1000A000AD060008AD060008AD060008AD06000864
:1000B000AD060008AD060008AD060008AD06000854
:1000C000AD060008AD060008AD060008AD06000844
:1000D000AD060008AD060008AD060008AD06000834
:1000E000AD060008AD060008AD060008AD06000824
:1000F000AD060008AD060008AD060008AD06000814
:10010000AD060008AD060008AD060008AD06000803
:10011000AD060008AD0600089D250008AD060008E4
:10012000AD060008AD060008AD060008AD060008E3
:10013000AD060008AD060008AD060008AD060008D3
:10014000AD060008AD060008AD060008AD060008C3
:10015000AD060008AD060008AD060008AD060008B3
:10016000AD060008AD060008AD060008AD060008A3
:10017000AD060008AD060008AD060008000000004E
:10018000AD060008AD060008AD060008AD06000883
:10019000AD060008AD060008AD060008AD06000873
:0C01A000A9250008AD060008B5250008E0
:1001B00010B5054C237833B9044B13B10448AFF3A1
:1001C00000800123237010BD800300200000000088
:1001D000F47F020808B5034B1BB103490348AFF392
:1001E000008008BD0000000084030020F47F0208A6
:1001F00001F0FF01102A2BDB10F0070F08D010F8D8
:10020000013B013A8B422DD010F0070F42B3F6D1DB
:10021000F0B441EA012141EA014122F007047FF0F4
:1002200000070023F0E80256083C85EA010586EA4B
:10023000010685FA47F5A3FA87F586FA47F6A5FA87
:1002400087F68EB9EED1F0BC01F0FF0102F0070293
:1002500032B110F8013B013A83EA010313B1F8D13E
:100260000020704701387047002D06BF354603381F
:10027000073815F0010F07D1013015F4807F02BF58
:10028000013015F4C03F0130F0BC0138704700BFA9
:100290007BB972B90029BEBF00204FF0004106E0D3
:1002A00008BF00281CBF6FF000414FF0FF3000F086
:1002B000D3B9ADF1080C6DE904CE002909DB002BA0
:1002C0001ADB00F04DF8DDF804E0DDE9022304B0AC
:1002D0007047404261EB4101002B1BDB00F040F80E
:1002E000DDF804E0DDE9022304B0404261EB4101A6
:1002F000524263EB43037047524263EB430300F007
:100300002FF8DDF804E0DDE9022304B0404261EBA0
:1003100041017047524263EB430300F021F8DDF8DE
:1003200004E0DDE9022304B0524263EB430370476B
:1003300053B94AB9002908BF00281CBF4FF0FF314C
:100340004FF0FF3000F088B9ADF1080C6DE904CE34
:1003500000F006F8DDF804E0DDE9022304B07047A0
:100360002DE9F047089D8E4604468846002B4AD169
:100370008A42174662D9B2FA82F64EB1C6F120031C
:1003800001FA06F820FA03F3B74043EA0808B4403C
:100390004FEA174E1FFA87FCB8FBFEF1230C0EFB49
:1003A000118843EA084301FB0CF29A4209D9FB1871
:1003B00001F1FF3080F0EA809A4240F2E780023992
:1003C0003B449A1AA3B2B2FBFEF00EFB102243EAA2
:1003D000024300FB0CFC9C4509D9FB1800F1FF32DD
:1003E00080F0D6809C4540F2D3803B44023840EAFE
:1003F0000140A3EB0C0300211DB1F3400022C5E92D
:100400000032BDE8F0878B4205D90DB1C5E9000186
:1004100000210846F5E7B3FA83F1002946D1734578
:1004200002D3824200F20581841A6EEB030201209E
:100430009046002DE5D0C5E90048E2E7002A00F02B
:100440009080B2FA82F6002E40F0A4808A1A030C43
:100450004FEA174E80B2BCB20121B2FBFEFC0EFB8C
:100460001C2243EA024304FB0CF29A4207D9FB1810
:100470000CF1FF3802D29A4200F2E080C4469B1A87
:10048000B3FBFEF20EFB123340EA034302FB04F41B
:100490009C4207D9FB1802F1FF3002D29C4200F2C5
:1004A000CA8002461B1B42EA0C40A5E7C1F12006A8
:1004B0008B4022FA06F71F430EFA01F420FA06F3E6
:1004C0002EFA06FE4FEA1749234300FA01F81FFAF5
:1004D00087FCBEFBF9F01C0C09FB10EE44EA0E444D
:1004E00000FB0CFEA64502FA01F209D93C1900F105
:1004F000FF3A80F09C80A64540F2998002383C4447
:10050000A4EB0E041FFA83FEB4FBF9F309FB1344BA
:100510004EEA044403FB0CFCA44508D93C1903F142
:10052000FF3E80F08280A4457FD9023B3C4443EAF1
:100530000040A4EB0C04A0FB02EC64457346E146CA
:1005400062D35FD05DB1B8EB030264EB090404FA37
:1005500006F622FA01F31E43CC40C5E900640021EF
:100560004FE7B1FBF2FC010C41EA0E4180B240EAD8
:1005700001423B4638463C46B846BE462026B1FBC3
:10058000F7F1A2EB080241EA0C4166E7014618E7E1
:1005900010462CE7C6F120022EFA02F3B740B14014
:1005A00020FA02F24FEA174E0A43B3FBFEF8BCB240
:1005B0000EFB1833110C41EA034108FB04F9B0406B
:1005C00089454FEA104380B23ED9791808F1FF3CC3
:1005D00001D289451FD8A1EB0901B1FBFEF909FB46
:1005E00004F80EFB191192B242EA0142424529D2A7
:1005F000BA1809F1FF31C4D24245C2D2A9F10201B1
:100600003A44BEE7F0459DD2BEEB02036CEB070C0B
:100610000138E14696E7A7EB09094944A8F1020C25
:10062000B1FBFEF909FB04F8DBE773467FE75046B0
:1006300066E70846FDE63B44023A33E7ACF1020CBC
:100640003B441CE749469CE7A1EB0901C446B1FBCA
:10065000FEF909FB04F8C4E7704700BFDFF834D0A7
:10066000002103E00C4B5B58435004310B480C4B0A
:1006700042189A42F6D30B4A02E0002342F8043BA8
:10068000094B9A42F9D304F041FE26F045FF01F0F0
:10069000A9F8704700000320B4E80B080000002010
:1006A000640100208003002088460120FEE7704797
:1006B00008B500F0BFFDBDE8084000F041BD00F006
:1006C000BBBD704710B50421044625F039FD204616
:1006D00010BD000038B50C4B0C4C18800C4B822020
:1006E00019806368984740F6110398420AD1094D72
:1006F00023682C60822098472B688220DB6898470B
:10070000002038BD0120FCE7A60300204C0000209B
:10071000A4030020A80300204FF4A071F020FFF7ED
:10072000D9BF0000F7B5394D2B6804461B698220FC
:100730009847208000284ED02B680DF106025B6997
:1007400001A982209847324B1B78002B4BD0BDF873
:10075000062040F674639A423FD9ADF80630BDF8E2
:1007600006209B1A9BB20A2B42D90B22B3FBF2F351
:10077000284A1288934201D9013A93B2BDF8042065
:10078000254840F6B8318A4234D8C2F571620E323B
:10079000016892B20F25B2FBF5F2204D2D88AA42D6
:1007A00084BF05F1FF35AAB28A4215468EB22AD916
:1007B000921B91B21A4E3768BB42BAB28CBF9A1ADA
:1007C000D21A92B211440529C4BF05603360036890
:1007D00063803368A38003B0F0BDB32A9CBFB4220A
:1007E000ADF80620BBE7BDF80630A3F5B473B9E752
:1007F0000023C3E7C2F56D62083292B20E2A016887
:10080000C8D800252A46891A89B2D3E7A803002050
:1008100064270020A4030020A0030020A6030020DA
:100820009C03002037B568460D461446FFF77AFF53
:10083000BDF8000030B1BDF802302B60BDF80430C7
:100840002360012003B030BD032821D8DFE800F089
:10085000020B12190F4B1A68B2FA82F252090421E4
:100860000D4805F0A5BB0B4B5A68B2FA82F252094B
:100870000821F5E7074B9A68B2FA82F25209102173
:10088000EEE7044BDA68B2FA82F252092021E7E778
:10089000704700BFAC03002000100240032821D89D
:1008A000DFE800F0020B12190F4B1A68003A18BF6C
:1008B000012204210D4805F07BBB0B4B5A68003A1E
:1008C00018BF01220821F5E7074B9A68003A18BFC4
:1008D00001221021EEE7044BDA68003A18BF01222A
:1008E0002021E7E7704700BFAC0300200010024062
:1008F00003280DD8DFE800F00206080A04210548A5
:1009000005F05BBB0821FAE71021F8E72021F6E7A4
:10091000704700BF0010024008B5032811D8DFE877
:1009200000F0020A0C0E0421074805F03BFB431EB1
:100930005842584108BD0821F6E71021F4E720216C
:10094000F2E70020F3E700BF0010024070B5084D49
:1009500000240126E0B2FFF7DFFF18B12B68012B5E
:1009600018BF2E600134052C05F10405F2D170BDCD
:10097000AC030020012380F8781080F879307047AC
:100980007047002070470000034B4164003918BFD6
:1009900001211970704700BF4739012070470020BE
:1009A0007047836B0BB10846184770474FF6FF70CE
:1009B0007047406803689B691847704770477047E5
:1009C0007047704710B5044600F04CFD236803499A
:1009D000D3F890302046BDE810401847000000D002
:1009E00008B503680446D3F8843098472368204646
:1009F000DB6F984700F0ECF8236820465B6F984760
:100A0000292001F005FA00F0E3F8236820465B6F27
:100A10009847F8E710B504460AF0F8FE2368204628
:100A2000D3F8BC30BDE81040184700F0FFBC00F020
:100A300003BD00F035BD00F0D5BC00F045BD00F0B1
:100A40004DBD00F0D9BC0AF00FB910B584210446A1
:100A500025F076FB204610BD10B590F8341090F8C4
:100A600078400C4B8C421A7809D03AB90A4A0B49A3
:100A70001488088810800C8001221A7010BD002A8A
:100A8000FCD0054A05491488088810800C80002293
:100A9000F3E700BF403901203C3901203E390120F5
:100AA00070B50D46194635B9094B0A4A0A4840F255
:100AB000FF2126F081FAC0E90F52084B003A18BF17
:100AC00001221A700368BDE87040D3F890301847CF
:100AD000348102086C810208BA810208463901207B
:100AE00008B5094B1B888B4203D8084B1B889342DF
:100AF00005D9074B074A0848A32126F05DFA074BA2
:100B00001980074B1A8008BD3C3901203E3901206D
:100B1000FF81020862820208BA810208423901207C
:100B200044390120034690F87A0018B158680368E8
:100B30001B68184770470000012108B500220846CD
:100B400007F083FD0A4B186028B90A4B0A4A28218E
:100B50000A4826F031FA00220421012007F014FE91
:100B6000074B186018B9074B034A2C21F0E708BD62
:100B7000C0030020A5820208EE8202081D8302083D
:100B8000BC03002064830208024B4FF0FF31186859
:100B900007F0A5BDC0030020014B186807F0CBBDCE
:100BA000C0030020024B0021186807F098BD00BF69
:100BB000C0030020FFF7F0BF03480449006800238A
:100BC0001A4607F01CBE00BFBC0300200400002032
:100BD00013B5084C00231A4601A9206807F040FE0F
:100BE00020684FF0FF33002201A907F039FE02B060
:100BF00010BD00BFBC03002003685B6C18470120D8
:100C0000704703689B6A1847FEE740F2EF30704771
:100C1000054B0360054B4FF08062C3F88820BFF39B
:100C20004F8FBFF36F8F70474091020800E100E0E3
:100C300010B504464FF45A61FFF7EAFF204625F04D
:100C40007FFA204610BD000082B0002301930E4BB6
:100C50001A6B42F400021A631A6B02F4000201924A
:100C6000019A1A6942F400021A611A6922F4000218
:100C70001A61064B064A1A61064A5A61064B4FF042
:100C800080629A6002B0704700380240A4290020B8
:100C9000E90E0008090C000800E100E008B50A2888
:100CA00009D8DFE800F006100E0808080810101038
:100CB0001000022008BD054B054A0648902126F089
:100CC0007BF90020F6E70120F4E700BFA6830208C5
:100CD000C18302080C84020838B50C46887FFFF7F0
:100CE000DDFFA58AE28A164B2169586342EA054274
:100CF0005A64628BD963521B1A642568082D0ED181
:100D00009A611A615862207F0E4A42EA0062DA61F3
:100D1000E2681A620C4A5961D9601A6038BD002233
:100D2000D8611A61E1680A0A480902F4784200F4BD
:100D3000FC600243C1F3C4010A439A63034AECE72F
:100D400000B002400900010001230200012303005A
:100D500008B50B280BD8DFE800F00612100A0A0AC3
:100D60000A0808080808022008BD0520FCE7054B12
:100D7000054A06486F2126F01FF90020F4E70120FC
:100D8000F2E700BFA6830208518402080C8402081F
:100D90002DE9F04191F81D800C464046FFF7D8FF41
:100DA000A77F05463846FFF7D3FF06463846FFF7CC
:100DB00075FFA18A628B444B521A1A649A61228B86
:100DC000521A1A61E28A586342EA01425A6421695E
:100DD0006268D963DA602068802828D0227F0FD823
:100DE000202867D0402865D004281AD0364B45EA21
:100DF000026545F40035B845DD6161D0334A44E011
:100E0000B0F5807F04D0B0F5007FEFD1304800E02E
:100E1000304840EA0262DA61E2681A625E62596151
:100E200032E045EA026242F40032DA61F6E7A06895
:100E3000021DDA62227F45EA026545F40035DD6174
:100E40005E625961017841B1012921D0224B234AC8
:100E500023484FF48D7126F0AFF8DA69418822F407
:100E60007F42013922F0100242EA0122DA610121B7
:100E7000154BDA6942F02002DA61DA699206FCD495
:100E800010229A600029B9D0164A1A60BDE8F08194
:100E9000B2F1FF01DA69408822F47F4200F1FF30AD
:100EA00022F0100242EA002242F0100218BF012193
:100EB000DA61DDE745EA0262034B42F40032B4E74F
:100EC00042F20132E1E700BF00B00240012301001D
:100ED000090002000A0002009B840208B58402088F
:100EE0000C84020801230200024B1B685868036847
:100EF0005B6918474839012070B5044625460A4BFE
:100F00000C30002660602672667245F8203B602235
:100F100029460AF0D1FD04F55A63EE6024359D425E
:100F2000FBD1204670BD00BF40910208034B1A68F8
:100F3000D207FCD423229A60704700BF00B0024061
:100F40007047000030B50F4C2568ED07FCD4232511
:100F50000904A56041F001010225FF2B656361646E
:100F6000E0630AD00849656241EA0363E361074B25
:100F700022626061E060236030BDE561039BA36392
:100F8000034BF8E700B00240090001000100020035
:100F90000100030030B50E4C2568ED07FCD4232575
:100FA0001204A56042F001020225FF2B6563626412
:100FB000E063E16008D01B0643F00213E361054BD8
:100FC00065626061236030BD034BE3610123F9E793
:100FD00000B0024001000200020002FF30B50B4CDD
:100FE0002568ED07FCD4232512041B06A56043F4F5
:100FF0000033022542F0010265636264E063E16050
:10100000E361034B65626061236030BD00B0024064
:10101000010002000120704714207047142303FBD5
:10102000010008307047142303FB010008307047AB
:101030000120704741F24820704741F2482303FBEA
:1010400001000830704741F2482303FB01000830DB
:101050007047012070471020704700EB01100830E6
:10106000704700EB011008307047084602F06EB878
:1010700010B5034B0360044609F04DFB204610BD3C
:10108000F891020810B50446FFF7F2FF20461C2134
:1010900025F056F8204610BD10B5034B03600446FA
:1010A00009F039FB204610BDC491020810B5044672
:1010B000FFF7F2FF204641F2502125F041F820468B
:1010C00010BD000010B5034B0360044609F023FB7C
:1010D000204610BD9091020810B50446FFF7F2FFBC
:1010E0002046182125F02CF8204610BD10B5094BDC
:1010F0000360044600F593501C30FFF7B9FF04F17C
:101100002C00FFF7C9FF04F11400FFF7DBFF2046B6
:1011100010BD00BF2C92020808B50248FFF7E6FF99
:1011200008BD00BF9C12002010B50446FFF7DEFF8B
:10113000204641F2FC3125F003F8204610BD0000A6
:101140002DE9F34101F0B4FA054601F0B5FA0024A7
:101150000146234628462246009415F03FFF274BC0
:10116000274A1A60204603F01FFA264D264B274ACD
:1011700027489A6015F09AFE2B68BFF35B8FDB0758
:1011800036D4284624F0DEFF90B3224C224B234F66
:10119000236004F5955604F1140004F12C086060F6
:1011A000C4F80880E760266109F0B6FA1C4B636159
:1011B000404609F0B1FA1B4BE362384609F0ACFA3D
:1011C00004F5805303F52670174AC3F87C2203F018
:1011D00059FD2246A6F10801304603F065FA304673
:1011E00001F0B4FF114825F005FF284624F0B6FFB2
:1011F0000F4802B0BDE8F041FFF7E4BBAC39012075
:101200004804002098120020680400204C040020AC
:10121000080000209C1200202C92020818250020B3
:1012200090910208C4910208F8910208191100086F
:10123000C4030020704700000148FFF7D1BB00BF86
:10124000C403002070B5264E264C274D274B236043
:101250003046FFF751FE28461AF0C6FF244812F028
:1012600051FE244B2448DC6000224FF48071C3E916
:10127000121222491A86C3E91A12214983F858200A
:10128000C3E91E011F49C3F880101F491F480B60A6
:10129000F021C3E90422C3E90622C3E90822C3E915
:1012A0000A22C3E90E22C3E91022C3E91422C3E9CA
:1012B00017225A6683F870205A67C3E901650180D6
:1012C0001348018013484FF4A07101801248018037
:1012D00012490A70012283F83420114A1A6070BD45
:1012E000F4040020941200206804002024810208E5
:1012F0004C040020C4030020000001010100000193
:10130000000450001A001400483901203C39012023
:10131000423901203E390120443901204039012061
:10132000549002080148FFF773BC00BFF40400208A
:101330000020704781807047C180704701817047ED
:10134000418170477047704770477047704710B4CD
:10135000C4880368121B84885B6D091B12B25DF898
:10136000044B09B218474FF6FF7383814FF0FF33E8
:1013700003621368C36110607047002070478B8858
:10138000838001207047704780F82610704790F8DE
:101390002600704710B50022B1F90840B1F90A10D3
:1013A000028042808480C18010BD00220280428081
:1013B0008280C28070470177704780ED080A7047CD
:1013C00080F82410704780F825107047012070477E
:1013D000983070478C307047843070477047704742
:1013E00070470000034B902283F85A2383F8582358
:1013F000704700BF00E100E0094A0A49D3680A4883
:10140000C3F30A03013B9BB20B801169C1F30A01CC
:10141000013901801364536B43F001035363704738
:10142000006801409A26002098260020014BD3F83E
:10143000AC00704700680140024B0122C3F8AC10B9
:101440005A6270470068014010B52C21044624F010
:1014500077FE204610BD10B5BC21044624F070FE76
:10146000204610BD70B5044609F053FC23689D6EFC
:1014700011F0DCFA01462046A8472368054AD3F854
:101480008C502046AC460023BDE87040A2F51631D2
:10149000604700BF00B004D009F022BC09F02CBCAA
:1014A00009F0E8BB09F057BD90F8252012B1036898
:1014B0005B691847704790F825201AB190F82420EE
:1014C00002B1186070470000034B4FF080629A60D1
:1014D0004FF080729A60704700E100E0084B4FF0D7
:1014E0008062C3F88820BFF34F8FBFF36F8F4FF038
:1014F0008072C3F88820BFF34F8FBFF36F8F7047A0
:1015000000E100E070B50023124E8380124B0360AF
:10151000336893F8582005460AB1D86C00B998682A
:101520000368DB6A98473368B0FA80F4D86C6409C2
:1015300030B10368DB6A9847002808BF44F0010413
:101540002CB9064B064A07482C2125F035FD2846C4
:1015500070BD00BF4839012040920208F3840208A0
:10156000518502088A85020870B5254E3568BFF39B
:101570005B8F15F0010540D1304624F0E3FD0028D3
:101580003BD0204C204B256104F13400C4E90035E8
:10159000C4E90255E584A562A58512F098FF04F11F
:1015A00058000CF011FC194BA3652046184B40F86D
:1015B000843BFFF7A7FF174BC4F884302433C4F8EB
:1015C0008C304FF4C803C4E928350023C4F8AC308C
:1015D000C4F8B030C4F8B430C4F8B8300E480F4B7B
:1015E000C4F89050C4F89C50C4F8A850C4F898307F
:1015F00025F000FD304624F0B1FD024870BD00BF6B
:101600009C260020A0260020749C020860920208FC
:10161000D8920208289C0208E1130008089C0208DE
:1016200038B5184C23685BB3174B184A1B6C1188EC
:101630008B4216D1164B198805F070FD236893F87C
:101640006A200025013283F86A2083F87C50FFF776
:10165000B3FA20680AF0DAF82846BDE83840FFF708
:10166000F3B805F05BFD2468236820461B6A9847A1
:10167000012384F87C300020BDE83840FFF70EB924
:1016800038BD00BF48390120006801409A2600207B
:101690009826002007B5064BADF806001B680548E4
:1016A00001220DF1060106F003FB03B05DF804FB17
:1016B0000C000020A827002007B5184D184C28461C
:1016C00003F018FF4FF0FF31284603F0ACFF284627
:1016D00003F0FCFFADF80000284603F089FF01206D
:1016E00006F0A7FF204603F005FF4FF0FF3120462C
:1016F00003F099FF204603F0E9FFADF8040020460F
:1017000003F076FF074800231A466946006807F091
:1017100076F8322006F08DFFD1E700BF342A002092
:10172000EC2900206027002008B50549054808225B
:1017300005F072F94FF47A7006F07BFFFAE700BF0C
:101740001C9302080829002030B595B01022002112
:101750000AA825F038FE1422002103A825F033FE44
:1017600000241E4B01941A6C42F080521A641B6CC8
:1017700003F080530193019B194B02941A6842F4C1
:1017800040421A601B6803F4404302930122029B0B
:101790004FF48033CDE9082302254FF4800308215C
:1017A000CDE90E534FF4B473CDE9101308A8042308
:1017B0001393129505F00AFD05F0CEFC0F23CDE939
:1017C00003354FF4A0504FF48053CDE906030521B3
:1017D00003A8059405F0D6FE15B030BD00380240D0
:1017E000007000402DE980489DB00024C84D03F0F2
:1017F0009BFDFFF7A9FF142200210FA825F0E3FDB0
:1018000002942B6BC34843F010032B632B6B03F044
:1018100010030293029B03942B6B43F020032B6372
:101820002B6B03F020030393039B04942B6B43F077
:1018300080032B632B6B03F080030493049B0594BC
:101840002B6B43F004032B632B6B03F00403059312
:10185000059B06942B6B43F001032B632B6B03F06A
:1018600001030693069B07942B6B43F002032B6343
:101870002B6B03F002030793079B08942B6B43F039
:1018800040032B632B6B03F040030893089B0994E0
:101890002B6B43F008032B632B6B03F008032246EA
:1018A00009933C21099B04F083FB9B480122022100
:1018B00004F07EFB22469848042104F079FB22467E
:1018C00096484FF4405104F073FB3C2301264FF03F
:1018D00003080DEB03018F4811940227CDE90F3661
:1018E000CDF8488004F07AFA8B480FA9CDE90F763D
:1018F000CDE9114404F072FA042387480FA9CDE919
:101900000F36CDE9114704F069FA4FF4405383488C
:101910000FA9CDE90F36CDE9114704F05FFA08238E
:101920007D4811940FA9CDE90F3804F057FA202310
:101930007B4811940FA9CDE90F3804F04FFA0194B8
:101940002B6B43F400132B632B6B764D03F40013C6
:101950002246052101931020019B03F069FF10200E
:1019600003F098FF7048714B036003F0A1FFDFF8AC
:10197000DCC16F4B2C62C5E900C328464FF480439D
:10198000C5E90434C5E90244C5E9064404F01EFD76
:101990001021284604F062FF2146284604F07DFF0E
:1019A000644DDFF8ACE1AC624FF48273C5E900E34B
:1019B0004FF400781823C5E9068328460A23C5E9B1
:1019C0000244C5E90444C5E90844EB6206F014F991
:1019D0008F232246394650488DF82C308DF83C40F4
:1019E00004F0E6FA32464FF47A730BA9284606F063
:1019F0005FF94FF47A7332460FA9284606F004FBCC
:101A00003246394644484C4D04F0D2FA9DF83C30F9
:101A1000D32B04BF494B1E70494B0126C5E9003644
:101A20004FF0100840230024C5E904834FF4C0732D
:101A3000C5E906344FF40063C5E908344FF4005398
:101A40004FF0020A4FF004094FF0030BAB620FA9ED
:101A500007232846CDE90FA3CDE911930827C5E94F
:101A60000249CDE913BACDF854A005F0A9FF4FF60D
:101A7000FF720BA92846CDE90C760A940B960E94BA
:101A800005F0BEFF304603F07BFC4FF6FF720BA95A
:101A90002846CDE90BA7CDE90D6405F0B1FF4FF65F
:101AA000FF720BA92846CDE90BB7CDE90D9405F0DF
:101AB000A7FF4FF40C730A930A9B0E934FF6FF7225
:101AC0000BA92846CDE90B970D9605F099FF40F23A
:101AD0006A51284605F0B2FF342221460FA825F0AE
:101AE00072FC184D184B2C61C5E900340923C5E977
:101AF00005361D23C5E9073B40F20D1240F24313A2
:101B0000C5E9092340F2171140F2471322E000BF54
:101B1000003802400010024000080240000C024061
:101B20000000024050290020E4290020003002403B
:101B3000A0860100A8270020742700206427002029
:101B4000400100A00028002000680140005C004027
:101B5000005001402846C5E90B13C5E90244AC8694
:101B600085F8364005F0F8F9FF21F022CDE914148C
:101B70004FF005094FF480614FF4A073CDE91024B4
:101B8000CDE91619CDE918420FA922462846CDE91C
:101B9000123A4D4D1A930F94ADF86C408DF86E408B
:101BA00005F08EFA494B2B601B6898472B68484D0F
:101BB000DB689847474B2846C5E90034C5E902A4CD
:101BC000C5E90A4AC5E90C4404F00EF83146284636
:101BD00004F0C0F8404DDFF844A1424621460FA86A
:101BE00025F0F1FB3D4BAC604FF4803B2846C5E946
:101BF000003B2C612C7685F82040EC62C5F828A0CB
:101C0000EC60EE6185F830406E6103F0CDFB0D2392
:101C10000FA92846CDE90F36314D119403F05AFD36
:101C2000424621460FA825F0CEFB2E4BAC6028463D
:101C3000C5E9003BC5E90AA42C612C7685F8204053
:101C4000EC60EE6185F830406E6103F0ADFB0FA9EA
:101C50002846CDE90F96244D119403F03BFD23480F
:101C60004FF40073C0E900534FF4FA53C0E9053450
:101C7000C0E90244C0E90744046104F02DFEFEF708
:101C800017FDFEF714FD06F05DFC194A39460A20DF
:101C900006F07AFD174B184A18602146174806F0DF
:101CA00084FC174B174A18602146174806F07DFC44
:101CB000164B174A18602146164806F076FC164B5C
:101CC000186006F051FCFEE75C270020140000209D
:101CD000A429002000B00240342A00200020014046
:101CE000EC29002000210140003C00400829002090
:101CF0002C930208602700208C930208B916000874
:101D00007027002068930208BF0600086C27002097
:101D10004493020829170008682700200100000FDB
:101D2000704770477FB5094B8DF817201B680293E9
:101D30000DF117020123009201930A46014604485F
:101D400004F0ECFB07B05DF804FB00BF10000020BE
:101D5000502900207FB500238DF81730084B1B68F1
:101D600002930A4601230DF11701009101930146E8
:101D7000044804F063FC9DF8170007B05DF804FB0D
:101D800010000020502900201FB5084C2468009244
:101D9000CDE901340A4601230146054804F04EFC12
:101DA000003818BF012004B010BD00BF1000002093
:101DB0005029002003F0E4BA10B5064C002220465A
:101DC000042104F0F5F820460122BDE8104004216A
:101DD00004F0EEB80008024038B50B4D044601226D
:101DE0000A484FF4005104F0E3F800220421284689
:101DF00004F0DEF82046FFF74DFC28460122BDE83E
:101E00003840042104F0D4B800080240000C02401D
:101E100038B50B4D044600220A484FF4005104F037
:101E2000C7F800220421284604F0C2F82046FFF734
:101E300031FC28460122BDE83840042104F0B8B83E
:101E400000080240000C0240F7B5144E144F05463E
:101E50000C4630460022042104F0AAF800224FF478
:101E60000051384604F0A4F82846FFF713FC0D4B48
:101E70000D481B68224601A906F0C6F83846012223
:101E80004FF40051019C04F093F8304601220421E4
:101E900004F08EF8204603B0F0BD00BF00080240F9
:101EA000000C02400C000020A827002003F068BAB4
:101EB0000268034B9A4201D103F050BA704700BF49
:101EC000001000407047000082B00E4B00220092CC
:101ED000596C41F480415964596C01F4804100917E
:101EE00000990192196C41F0805119641B6C03F048
:101EF00080530193019B0F216FF0010002B003F0AA
:101F000097BC00BF0038024010B514228AB00446C6
:101F100000210DEB020025F056FA2368214A934276
:101F20001FD1214B2148002101915A6C42F480724B
:101F30005A645A6C02F480720192019A02911A6BEF
:101F400042F004021A631B6B03F00403029308219E
:101F5000029B0323CDE9051305A903F03FFF0AB057
:101F600010BD134A9342FAD10F4B1248002103913E
:101F70005A6C42F400725A645A6C02F40072039272
:101F8000039A04911A6B42F001021A631B6B03F06F
:101F900001030493049B20220323CDE9052305A913
:101FA000DBE700BF0020014000380240000802408B
:101FB00000210140000002400268094B9A4282B0B1
:101FC0000BD100230193074B1A6B42F480521A6322
:101FD0001B6B03F480530193019B02B0704700BF59
:101FE000003002400038024007B50F4B02689A42A9
:101FF00016D10022A3F5F0430192196B41F40001C0
:1020000019631B6B03F40003019305215A20019B04
:1020100003F00EFC5A2003B05DF804EB03F03ABC69
:1020200003B05DF804FB00BF00B002402DE9F043AF
:10203000044689B01422002103A825F0C4F92268BF
:10204000244B9A4243D1244C244800250095236B0D
:1020500043F004032363236B03F004030093009B0A
:102060000195236B43F001032363236B03F001030A
:102070000193019B4FF012094FF400734FF00108D8
:102080000327042603A9CDE90339CDE9058707967F
:1020900003F0A4FE4FF480731148079603A9CDE91D
:1020A0000339CDE9058703F099FE0295236C43F4CB
:1020B00000032364236C03F400030293029B236A4E
:1020C00043F400032362236A23F40003236209B06C
:1020D000BDE8F083005C0040003802400008024088
:1020E00000000240F0B595B006461422002103A876
:1020F00025F069F93022002108A825F064F932683A
:10210000334B9A4262D10120C023CDE90803022358
:1021100008A80A9305F0FEFA08B1FFF7D3FE2D4B8D
:102120002D48002500951A6C42F400421A641A6C7E
:1021300002F400420092009A01951A6B42F00102EB
:102140001A631A6B02F001020192019A02951A6B4E
:1021500042F004021A631B6B03F00403029306248B
:10216000029B07944FF40043022703A9CDE90337EC
:10217000CDE9055503F032FE4FF4A05317480794FC
:1021800003A9174CCDE90337CDE9055503F026FE29
:10219000144BC4E900354023C4E902354FF4806292
:1021A0004FF40063C4E904234FF400514FF48073EB
:1021B000C4E9061320464FF40033C4E9083503F0A0
:1021C0009DFB08B1FFF77EFEB463A66315B0F0BDBA
:1021D000003C00400038024000000240000802407D
:1021E000A828002088600240F0B599B00446142267
:1021F000002107A825F0E7F830220DEB02000021AE
:1022000025F0E1F822685E4B9A4240F0B78008233F
:102210000C93C0231093042312930CA84FF40033A3
:10222000159305F077FA08B1FFF74CFE554B564869
:10223000002400945A6C42F080625A645A6C02F096
:1022400080620092009A01941A6B42F020021A6395
:102250001A6B02F020020192019A02941A6B42F06A
:1022600001021A631A6B02F001020292029A0394AD
:102270001A6B42F002021A631A6B02F00202039216
:10228000039A04941A6B42F040021A631A6B02F02C
:1022900040020492049A05941A6B42F004021A63F5
:1022A0001A6B02F004020592059A06941A6B42F02A
:1022B00008021A631B6B03F00803069302250E261F
:1022C000069B0B964FF4806307A9CDE90735CDE94E
:1022D000094503F083FD41F658032C480B9607A9E6
:1022E000CDE907350927CDE9094503F077FD03233B
:1022F00027480B9707A9CDE90735CDE9094503F034
:102300006DFD4FF4706322480B9607A9CDE90735A0
:10231000CDE9094503F062FD4FF40C631D480B96AF
:1023200007A9CDE90735CDE9094503F057FDC023DD
:1023300019480B9607A9CDE90735CDE9094503F002
:102340004DFD082315480B9607A9CDE90735CDE9C2
:10235000094503F043FD4FF4A0530E480B9707A91E
:10236000CDE90735CDE9094503F038FD582022466F
:10237000052103F05DFA582003F08CFA19B0F0BD86
:102380000068014000380240001402400000024092
:10239000000402400018024000080240000C024005
:1023A00010B5044688B01422002103A825F00BF8CC
:1023B0002268144B9A4223D103F56843002101910E
:1023C0005A6C114842F480125A645A6C02F480121A
:1023D0000192019A02911A6B42F020021A631B6B60
:1023E00003F020030293029B4FF460720223032147
:1023F000CDE903230523CDE9061303A903F0EEFC81
:1024000008B010BD00500140001402402DE9F04119
:1024100086B0002303932B4B1C68002C4FD14FF048
:102420000108C3F80080284B00949A6B274842EAC1
:1024300008029A639B6B03EA0803009302270326B2
:102440000C25009B01A94FF63F03CDE90137CDE9EB
:10245000046503F0C3FC1E48059501A9CDE9018779
:10246000CDE9034603F0BAFC48F233131948059549
:1024700001A9CDE90137CDE9034603F0AFFC4FF6E2
:1024800083731548059501A9CDE90137CDE90346C8
:1024900003F0A4FC4CF203731048059501A9CDE9A3
:1024A0000137CDE9034603F099FC60230C480595FC
:1024B00001A9CDE90137CDE9034603F08FFC06B051
:1024C000BDE8F0817C2A0020003802400014024060
:1024D000000802400018024000100240000C0240B8
:1024E0000004024070B588B000230293204B1A6CA0
:1024F00042F010021A641B6C03F0100302930546AD
:1025000001A903A8029B05F0E7F8069B4BBB05F069
:10251000D3F8184E184B336040F2E733F360174B93
:10252000B0FBF3F3013B7360304600233361B360CB
:10253000B36105F033FF044680B9304605F008FE6C
:10254000044658B9362003F0A5F90F2D0DD82246C0
:102550002946362003F06CF9094B1D60204608B06F
:1025600070BD05F0A9F84000D3E70124F6E700BFED
:1025700000380240802A00200010004040420F0036
:102580007C0000207047FEE7FEE7FEE7FEE77047AD
:10259000014803F06BBA00BFA8280020014805F0ED
:1025A00015BE00BF802A0020014804F02CBD00BFEA
:1025B00000280020014803F043BB00BFA4290020ED
:1025C0000120704708B524F0A1FF162303604FF0E7
:1025D000FF3008BD08B524F099FF16230360FEE71D
:1025E00070B50D4614460E46731B9C4201DC204616
:1025F00070BDAFF3008006F8010BF5E770B50D462E
:1026000014460E46731B9C4201DC204670BD16F832
:10261000010BAFF30080F5E74FF0FF3070474FF448
:1026200000534B6000207047012070470020704726
:102630000A4A116808B5034609B9094911601068CA
:10264000694603448B4206D924F060FF0C230360E3
:102650004FF0FF3008BD1360FCE700BFC82A002020
:1026600088460120704708B5042918D8DFE801F032
:1026700003070B0F130001F0E3FF006808BD01F032
:10268000DFFF4068FAE701F0DBFF8068F6E701F062
:10269000D7FFC068F2E701F0D3FF0069EEE7002042
:1026A000ECE710B50421044623F04AFD204610BD96
:1026B00000487047C49302080820704713B50024EF
:1026C00051B1036801948DF8034001AA9C680DF193
:1026D0000303A04702B010BD0846FBE7C08970475E
:1026E000008A7047C088704780887047807A00F001
:1026F0007F007047807AC009704700207047000053
:102700009FED010A704700BF00000000704710B540
:102710000821044623F014FD204610BD7047704781
:1027200000F598730868496803C37047704770479D
:102730004160704770477047064BC0F84C3100232A
:10274000C0F8503100F5A273C0F84801C0F840311C
:10275000704700BF712C0008012303727047704757
:102760007047704770477047704738B505464068F6
:102770000368DB699847044604B938BDA188AB8972
:10278000C91A236820461B6B09B29847A469F3E76E
:1027900010B4C26841685410034601EB6200D207CE
:1027A00048BF0A599B685DF8044B48BFD358184787
:1027B0000346406830B19A681AB9D86800F0010041
:1027C00070470120704710B51421044623F0B8FC6F
:1027D000204610BD10B50C21044623F0B1FC204664
:1027E00010BD10B51021044623F0AAFC204610BDF0
:1027F00010B51021044623F0A3FC204610BD10B5EF
:102800004FF4AE71044623F09BFC204610BD10B57A
:1028100010F00CF90368BDE81040DB6B184710B5E9
:1028200010F004F90368BDE810405B6B1847000026
:1028300070B50446B2B01E49C02202A824F093FE2F
:10284000237C2F2B03D90123237232B070BD33B9FF
:10285000184B1B781BB110F0E9F810F0EDF80225C9
:10286000237C302BF1D832AA02EB8303E68953F89C
:10287000C03C608993FBF6F206FB123313FB00F3B6
:10288000ADF804006068A189ADF800300368ADF8C8
:10289000061012FB01F21B69ADF802206946984749
:1028A000237C012D03F101032374CED00125D7E74A
:1028B0000C8002084639012037B50546807A6B7ACC
:1028C0000130C0B29842A87205D901232B720023AF
:1028D000AB7203B030BDB5F90C20B5F90E40002144
:1028E00012F04EFBC30707D500284FF6FF73C8BF91
:1028F000012313FA80F000B2AB7AE881041B012BAC
:10290000A4B206D1174B1B781BB110F08FF810F052
:1029100093F8154A00231288ADF80230EB891A4467
:102920005B42ADF80430114BADF800201B88ADF8C8
:10293000063010F07BF8036802AA12E906001B6C4F
:10294000984768680368DB6998470546002DC0D042
:10295000A9882B68214428461B6B09B29847AD69AA
:10296000F4E700BF463901203C3901203E390120FF
:1029700010B50446D0F8400158B10368DB689847A9
:1029800038B1D4F8400103689B6898470023C4F825
:10299000403110BD2DE9F047D0E955690546B068D2
:1029A00003681B6A9847B0F5CE7F05D24E4B4F4A5D
:1029B000A3214F4824F000FB706803681B6A984706
:1029C0000F2803D84B4B494AA421F2E7F06803686B
:1029D0001B6A9847132803D8474B444AA521E8E7C8
:1029E00010F024F8DFF82481043010F06CF8D8F8E7
:1029F000000010B10368DB689847D8F8000010B1F8
:102A000003681B6898473D4F386810B103685B69DD
:102A10009847D5F83C0110B103685B68984738685F
:102A200010B103681B689847D5F83C0110B10368E2
:102A30009B689847F068036800215B6A9847002309
:102A40004360037203742E4B2E4A02601A882E4B89
:102A50001B889A4204463FD9073206210533D20823
:102A6000B3FBF1F308219BB2B068A38103686281D4
:102A70005B6AE18100219847824602F09BF9706809
:102A8000036800215B6A98475146064602F070F9D8
:102A9000331DC5F83C61C8F80040C7F800A0C9F86C
:102AA0000030DAF80030C6F808905046DB68CAF803
:102AB0003C609847336830461B689847214650462B
:102AC00012F058FA236820461B699847236820466D
:102AD0005B69BDE8F0471847073305320621DB087C
:102AE000B2FBF1F292B2BFE719860208A78602088C
:102AF00084870208CB8702086E8802088C3901207F
:102B00003C3901200C9502083E3901209039012002
:102B10002DE9F14FD0E9556A0746B06803681B6A92
:102B20009847B0F5BE7F05D2484B494AA321494892
:102B300024F042FA706803681B6A98470F2803D88C
:102B4000454B434AA421F2E7F06803681B6A9847A3
:102B50000F2803D8414B3E4AA521E8E70FF066FF56
:102B6000DFF8049104300FF0AEFFD9F8000010B187
:102B70000368DB689847D9F8000010B103681B6848
:102B80009847DFF8E880D8F8000010B103685B6967
:102B90009847D7F83C0110B103685B689847D8F8AC
:102BA000000010B103681B689847D7F83C0110B1CA
:102BB00003689B689847F068036800215B6A984740
:102BC000274B03604FF4A0530381264B1B884FF023
:102BD000000B80F80AB05B420446C0F804B0A0F8CD
:102BE0000EB08381B068036859465B6A9847054612
:102BF00002F094F87068036859465B6A9847294662
:102C0000064602F053F8331DC7F83C61C9F800408E
:102C1000C8F80050CAF800302B68C6F808A028464B
:102C2000DB68EE639847336830461B689847214657
:102C3000284612F09FF9236820461B6998472368AD
:102C40005B69204601B0BDE8F04F184719860208BD
:102C50001189020884870208CB8702086E8802085F
:102C6000309502083C390120903901208C3901202F
:102C70002DE9F14FD0E9556A0746B06803681B6A31
:102C80009847B0F5CE7F05D2444B454AA32145482D
:102C900024F092F9706803681B6A98470F2803D8DC
:102CA000414B3F4AA421F2E7F06803681B6A98474A
:102CB0000B2803D83D4B3A4AA521E8E70FF0B6FEB2
:102CC000DFF8F09004300FF0FEFED9F8000010B1EC
:102CD0000368DB689847D9F8000010B103681B68E7
:102CE0009847DFF8D480D8F8000010B103685B691A
:102CF0009847D7F83C0110B103685B689847D8F84B
:102D0000000010B103681B689847D7F83C0110B168
:102D100003689B689847F068036800215B6A9847DE
:102D20004FF0000B224BC0F804B0044680F808B006
:102D30000360B068036859465B6A9847054602F02D
:102D400039F87068036859465B6A98472946064611
:102D500002F00EF8331DC7F83C61C9F80040C8F80E
:102D60000050CAF800302B68C6F808A02846DB6877
:102D7000EE639847336830461B68984721462846DB
:102D800012F0F8F8236820461B69984723685B69AE
:102D9000204601B0BDE8F04F184700BF1986020871
:102DA000FC89020884870208CB8702086E88020823
:102DB000E8940208903901208C3901202DE9F14F67
:102DC000D0E9556A0746B06803681B6A984741F224
:102DD0004723984205D8444B444AA321444824F051
:102DE000EBF8706803681B6A98470F2803D8414BBB
:102DF0003E4AA421F2E7F06803681B6A98470B2853
:102E000003D83D4B394AA521E8E70FF00FFEDFF864
:102E1000F09004300FF057FED9F8000010B10368AD
:102E2000DB689847D9F8000010B103681B68984721
:102E3000DFF8D080D8F8000010B103685B699847CC
:102E4000D7F83C0110B103685B689847D8F80000D8
:102E500010B103681B689847D7F83C0110B10368AC
:102E60009B689847F068036800215B6A98474FF0B9
:102E7000000B224BC0F804B0044680F808B0036091
:102E8000B068036859465B6A9847054601F04EFCF6
:102E90007068036859465B6A98472946064601F000
:102EA0001BFC331DC7F83C61C9F80040C8F800504E
:102EB000CAF800302B68C6F808A02846DB68EE6325
:102EC0009847336830461B6898472146284612F0D9
:102ED00051F8236820461B69984723685B692046A0
:102EE00001B0BDE8F04F184719860208D68A0208DB
:102EF00084870208CB8702086E880208E8940208DB
:102F0000903901208C3901202DE9F14FD0E9556A23
:102F10000746B06803681B6A984741F24723984206
:102F200005D8494B494AA321494824F045F870681F
:102F300003681B6A98470F2803D8464B434AA421CD
:102F4000F2E7F06803681B6A98470F2803D8424BE2
:102F50003E4AA521E8E70FF069FDDFF8089104304B
:102F60000FF0B1FDD9F8000010B10368DB68984795
:102F7000D9F8000010B103681B689847DFF8E880B3
:102F8000D8F8000010B103685B699847D7F83C0196
:102F900010B103685B689847D8F8000010B1036867
:102FA0001B689847D7F83C0110B103689B689847A5
:102FB000F068036800215B6A9847284B03604FF470
:102FC000A0530381264B1B884FF0000B80F80AB0FA
:102FD0005B420446C0F804B0A0F80EB08381B0682C
:102FE000036859465B6A9847054601F09FFB706885
:102FF000036859465B6A98472946064601F06CFB10
:10300000331DC7F83C61C9F80040C8F80050CAF841
:1030100000302B68C6F808A02846DB68EE639847A6
:10302000336830461B6898472146284611F0A2FFB6
:10303000236820461B69984723685B69204601B0D6
:10304000BDE8F04F184700BF19860208AE8B020892
:1030500084870208CB8702086E8802083095020830
:103060003C390120903901208C390120044B1B6828
:1030700093F858200AB1D86C00B99868704700BF1F
:1030800048390120F8B5174604460E460FF0B8FD42
:10309000124B1C60124B2360124B0025C4E95135C2
:1030A000114BC4E953551868036801219B68C4E9B2
:1030B0004F55C4E955769847284601F075FAFFF751
:1030C000D5FF1AF03AFFFFF7D1FF1AF0B1FFFFF773
:1030D000CDFF1AF0B9FF2046F8BD00BF9C39012092
:1030E000949402087C94020848390120064BC0F8E9
:1030F0004C310023C0F8503100F5A273C0F84801EC
:10310000C0F84031704700BF092F0008064BC0F8D7
:103110004C310023C0F8503100F5A273C0F84801CB
:10312000C0F84031704700BFBD2D0008064BC0F805
:103130004C310023C0F8503100F5A273C0F84801AB
:10314000C0F84031704700BF112B0008064BC0F893
:103150004C310023C0F8503100F5A273C0F848018B
:10316000C0F84031704700BF712C0008064BC0F812
:103170004C310023C0F8503100F5A273C0F848016B
:10318000C0F84031704700BF95290008806A704739
:103190007047704770477047704730B5036885B017
:1031A0006D460181D3F8843001460446284698478D
:1031B00095E807003C3484E8070005B030BD30B521
:1031C000036885B06D464181D3F8843001460446DA
:1031D0002846984795E807003C3484E8070005B086
:1031E00030BD0022028042808280C280704780F819
:1031F0003610704770B5036804461B6B1546984738
:103200002368294620465B6EBDE8704018470020C1
:103210007047806C704770477047704770477047C1
:1032200003681B6B184730B4C268446855100346E6
:1032300004EB6200D20748BF62599B6830BC48BFAC
:10324000D35818470346406830B19A681AB9D8680D
:1032500000F0010070470120704790F82D3080F891
:103260006030704710B54C21044622F069FF2046BB
:1032700010BD10B56421044622F062FF204610BD47
:1032800010B51021044622F05BFF204610BD014618
:10329000383091F82C3013B136310CF0B7BA3431E4
:1032A000FBE7000010B5034B036004460DF0ACFAD9
:1032B000204610BD0497020810B5064B0360044673
:1032C0000DF0A2FA204641F20C2122F039FF2046EF
:1032D00010BD00BF0497020808B50FF0A7FBBDE8BA
:1032E0000840FFF723BF08B5FEF7DEF808BD10B5AC
:1032F0000446006B50B10368DB68984730B1206B1F
:10330000036821469B68BDE81040184710BD0000C7
:10331000036870B55E6B124B1B6804468DB22BB907
:10332000104B114A6C21114823F046FE1049828D42
:103330000988914203D80F4B0B4A6D21F3E713F82C
:1033400012200D4B1B6853F8220003681B6B984733
:10335000291A3346204609B2BDE87040184700BF1D
:10336000A0390120998C0208DB8C0208168D020816
:10337000A43901205D8D0208A83901200B7970B5B0
:1033800090F82C6004460D460BB916B170BD002EA6
:10339000FCD0B3FA83F35B0984F82C302368204611
:1033A000D3F88C309847236820465B699847002EF5
:1033B000ECD02B79012BE9D123682046D3F8883053
:1033C000BDE87040184700F55D70884208B505D12A
:1033D0000FF02CFBBDE80840FFF7C8BE08BD002277
:1033E0004FF0FF31C0E900218260704770B503687B
:1033F00004461B6B154698472368294620465B6B9D
:10340000BDE8704018470B882DE9F041838613888A
:10341000B0F90850C38604461046904613F0F2FDFA
:10342000B4F90A30074603EBD3734046C3F34F06A3
:1034300013F01CFE05EBD575C5F34F0500EBD070FE
:1034400007EBD777A6EB6002A5EB670104F1380024
:1034500012B209B2FFF7CAFF23682046D3F88C30B6
:10346000BDE8F041184770B504461D46BDF910602F
:10347000FFF7BCFF2368294620469B6B98472368CB
:1034800031462046DB6BBDE8704018470022C0E99A
:103490000122C0E90322C0E90522C0E907224FF456
:1034A00080728284014A0260704700BF549502080E
:1034B00010B526220446002123F085FF2046FFF7A1
:1034C000E5FF044B2360FF2384F826300023A3622A
:1034D000204610BD40A0020810B526220446002157
:1034E00023F071FF2046FFF7D1FF0A4BA3624FF68E
:1034F000FF73A3854FF47F020023C4E90C32064A10
:10350000226023874FF0FF32C4E91023E363A364F2
:10351000204610BD6C940208BC9502084FF47F430E
:1035200073B50546838540F2011300218384174B50
:103530008162C0E90111C0E90311C0E90511C0E9C8
:10354000071145F8383B4FF0FF330446262201634C
:1035500043634FF6FF762846ADF8046023F033FF4F
:103560002846FFF793FF0A4BA363BDF80430A4F885
:103570005E3001A9284684F860600CF047F92046C7
:10358000294607F0DBF8204602B070BD4C960208D1
:1035900094A1020810B4C46BB4EB411F4FEA41126E
:1035A00004D05DF8044BC2630AF0D6BD5DF8044B4D
:1035B000704700002DE9F04F044697B0A146002562
:1035C00011F02CFB9D4BE56349F8403B04F16C0A7C
:1035D000484604F19808FFF76BFF5046984FFFF7F5
:1035E00067FF40460AF098FD04F5847304F58E7673
:1035F00007F1240B18460D93FDF784FFC4F80871FA
:10360000C4F810B13046C4F814510AF085FD04F531
:10361000C67318460C93FDF775FF04F5D073C4F814
:103620008C71C4F894B11846C4F898510493FFF70C
:1036300053FF04F5F67318460593FFF74DFF04F5A5
:103640000E73184603930AF067FD04F52A731846B3
:103650000B93FDF757FF04F52F73C4F8A872C4F855
:10366000B0B21846C4F8B452079309F09FFE04F5AF
:10367000417318460A93FDF745FF04F54673C4F8F5
:103680000473C4F80CB31846C4F81053089309F037
:103690008DFE04F5587318460993FDF733FF04F5C2
:1036A0005D73C4F86073C4F868B31846C4F86C530B
:1036B0000693FFF733FF634A04F58053C3E97F2481
:1036C000614A4FF46161C3E9812504F57B704FF4D1
:1036D000A07B0DF08FF82A464846F0232946CDF806
:1036E00000B0FFF7C0FE271D4FF07F434946A36699
:1036F000384607F023F82A465046F0232946CDF8ED
:1037000000B0FFF7B0FE514BC4F894304FF00A09F7
:103710005146384607F012F8404646234FF4967259
:103720005821CDF80090FFF79EFE494BC4F81431A4
:1037300043F64473A022A4F818310D9BC4F8C0309E
:10374000114640460AF0FEFDA02240464FF40261B9
:103750000AF003FE40464946FFF71CFF40460121A0
:103760000AF006FE4146384606F0E8FF304646239A
:103770004A465521CDF80090FFF775FE354BC4F849
:1037800098314FF26103A022A4F89C310C9BC4F83D
:103790004431114630460AF0D5FDA02230464FF4A0
:1037A00002610AF0DAFD30464946FFF7F3FE304683
:1037B00001210AF0DDFD3146384606F0BFFF1E2329
:1037C0006E220498009329461423FFF74CFED4F888
:1037D000A0310499D3F88430A4F8D4510EAE4FF040
:1037E000FF3A3046C4F8D0A1984796E8070004F5A0
:1037F000EE784FF0030388E8070084F8D831D4F856
:10380000A0310499D3F884303046984796E80700F1
:10381000114B1B6888E8070004F576782BB90F4B2D
:103820000F4A60210F4823F0C7FB0F4B1B88042B66
:103830001ED80E4B0A4A6121F4E700BF0497020824
:10384000289C0208EC960208C7330008613E02FF7C
:1038500023EB3EFF0F0FF2FFA0390120998C0208E5
:103860009B8D0208168D0208A43901205D8D020887
:10387000784B0421186800F0D3FE774A03460521EF
:10388000404613F005FB4FF005020498C4F8E881A8
:1038900014A9DFF8D081ADF85420CDF850800BF09A
:1038A000C5FB0499384606F049FF1E21A52205985C
:1038B000009114232946FFF7D6FDD4F8EC31059981
:1038C000D3F88430C4F81CA23046A4F8205298479C
:1038D00096E8070004F50A7383E80700D4F8EC21A2
:1038E00004934FF003013046D2F8842084F8241268
:1038F0000599904796E80700049B83E80700574A1C
:10390000136804F2E236002B89D0554A1388062B3F
:103910008FD9504B0621186800F082FE4E4A0346AC
:103920000521304613F0B4FA07230598C4F8346231
:1039300014A9ADF85430CDF8508004260BF076FB76
:103940000599384606F0FAFE039800962946F023BA
:103950009E22FFF788FD0B9BC4F86032A0220398DB
:10396000C4F8B4A21146A4F8B8A20AF0EBFCA02255
:1039700003984FF4EB510AF0F0FC03984946FFF727
:1039800009FE039802210AF0F3FC0399384606F079
:10399000D5FE0823079800939C227421FFF763FD4E
:1039A0008023C4E9BA33C4F8F0324FF6FF734FF402
:1039B0003458A4F814330A9B0799C4F8E432384603
:1039C000C4F8FC52C4F8F452C4F8F882C4F810A346
:1039D00006F0B4FE14230898009396226E21FFF798
:1039E00042FD6FF0FF03C4F86C334FF6E073A4F8A8
:1039F0007033099BC4F840330899C4F84CB3384677
:103A0000C4E9D1BBC4E9D458C4F8585306F096FEB3
:103A10004FF005020698ADF84C2013A914AAADF892
:103A20005060FFF7F0FC04F58F531C33C4F8A43347
:103A300023230698C4F8B0537D220093CD21FFF7CD
:103A400012FD3846069906F079FE204617B0BDE80B
:103A5000F08F00BFAC390120E68D0208A0390120AB
:103A6000A43901206C940208406A7047806A70474C
:103A700070478A880B8810B5D20A4C88C1699BB2FE
:103A800051F8220043EA0443184410BD10B504461F
:103A9000BAB1107B68B1537BD27A1B0203F4E063A6
:103AA0001A43236A03EB82031A888A4202D193F9EC
:103AB000020010BD05D8013880B204330028F3D1CC
:103AC000F7E70020F5E710B52C21044622F038FB7B
:103AD000204610BD30B58BB00446BDF86050089547
:103AE000BDF85C5007959DF8505006959DF84C50D8
:103AF00005959DF8485004959DF8445003959DF810
:103B0000405002959DF83C500195BDF83850009505
:103B100010F09AFD064B2360159BE361169B236210
:103B2000199B63621A9BA36220460BB030BD00BF95
:103B30004097020870477047704730B4C2684468C5
:103B40005510034604EB6200D20748BF62599B68D8
:103B500030BC48BFD35818470346406830B19A6814
:103B60001AB9D86800F0010070470120704710B5FD
:103B70001021044622F0E4FA204610BD10B54FF49F
:103B8000BE71044622F0DCFA204610BDC4308842E3
:103B900008B505D10EF04AFFBDE80840FFF7A6BA08
:103BA00008BD0000F8B5194B018F1B888B420646F3
:103BB0002AD9174B1B682BB9164B174A17486C218B
:103BC00023F0FAF913F81120154B1B6853F8225013
:103BD000144B186800F024FD2B6807469B6B2846A1
:103BE00098472B6804469B6C3946284698472B68B3
:103BF00014FB00F45B6A394628469847A4B22318A0
:103C00001BB2A6F84630F8BD0023FAE7A43901201C
:103C1000A0390120998C0208DB8C0208168D02085D
:103C2000A8390120AC3901202DE9F04F04468BB0B2
:103C3000A146002510F0F2FF774BE56349F8403BC1
:103C400004F16C0A484604F19808FFF731FC50462D
:103C5000FFF72EFC04F1C4074FF6FF7608A9404693
:103C6000ADF820600AF090FC38460BF007FF4FF4E7
:103C70008073A4F83031694BC4F834314FF47F03BA
:103C8000C4F84031664BC4F80C314FF0FF33C4E93F
:103C90005335644BA4F83861C4E95B34624BC4F813
:103CA0003C514FF4A07BC4E95D352A464846C4E93F
:103CB0004455C4E94655C4E94855C4E94A55A4F8F1
:103CC0004451C4F84851C4F85451F0232946CDF862
:103CD00000B0FFF7C8FB261D4FF07F434946A3669F
:103CE000304606F02BFD2A46F02329465046CDF8F3
:103CF00000B0FFF7B8FB4D4BC4F894305146304646
:103D000006F01CFD4FF00309404608A9ADF82090CD
:103D10000BF07CFD4FF483736FF025024046009357
:103D20002946F023FFF79FFB404629460AF0E7FBB0
:103D30004146304606F002FD3846F1222946FFF79B
:103D400055FB4FF00108022308AA07A93846ADF831
:103D50002030ADF81C800BF092FB3846A4F8FC90A4
:103D6000FFF720FF324A4FF0FF33C4E9402304F548
:103D7000B6733946C4F8EC30304606F0DFFC04F583
:103D800086771523B52200934D215A233846FFF735
:103D90006AFB284BC4F83C31D4F80C31A4F84051EC
:103DA0000DF108094846D3F884303946984799E818
:103DB000070004F5A47383E807001F4B1B6804F594
:103DC000AC792BB91D4B1E4A60211E4823F0F4F834
:103DD0001D4B1B881BB91D4B194A6121F5E71C4B74
:103DE0002946186800F01CFC1A4A03460A21484676
:103DF00013F04EF8094BC4F8549108A938460893BB
:103E0000ADF824800BF012F93046394606F096FCE6
:103E100020460BB0BDE8F08FC09702086C940208F2
:103E2000BC950208A89702088D3B00080B0B4CFFBD
:103E3000B205AAFFE685E1FFA0390120998C0208AE
:103E40009B8D0208168D0208A43901205D8D0208A1
:103E5000AC390120E68D0208704770477047704703
:103E6000704790F82C304BB100F16C021268C265BB
:103E70003BB100F174031B680366704700F16802F0
:103E8000F4E700F17003F6E730B4C26844685510F7
:103E9000034604EB6200D20748BF62599B6830BCFE
:103EA00048BFD35818470346406830B19A681AB9DA
:103EB000D86800F0010070470120704790F82D305D
:103EC00080F8A43080F85A30704790F82D3080F890
:103ED0005A30704710B57821044622F031F9204657
:103EE00010BD10B5A821044622F02AF9204610BDC5
:103EF00010B51021044622F023F9204610BD10B55C
:103F00004FF4CE71044622F01BF9204610BD10B5C7
:103F100004467C3094F82C303BB104F17A010BF06C
:103F200075FC2046FFF79DFF10BD04F17801F6E710
:103F3000E430884208B505D10EF078FDBDE80840B0
:103F4000FFF7E4B808BD0B882DE9F041A0F8783000
:103F50001388B0F90850A0F87A300446104690460D
:103F600013F050F8B4F90A30074603EBD373404618
:103F7000C3F34F0613F07AF805EBD575C5F34F057B
:103F800000EBD07007EBD777A6EB6002A5EB6701DB
:103F900004F17C0012B209B2FFF728FA2368204628
:103FA000D3F88C30BDE8F0411847000038B5262220
:103FB00004460D46002123F006FA2046FFF766FA74
:103FC000064B23602B88E384FF23204684F82830A7
:103FD00029460BF01BFC204638BD00BF94A1020807
:103FE0004FF47F4373B50646838540F201130025E5
:103FF00083841D4B8562C0E90155C0E90355C0E9C2
:104000000555C0E90755056346F8343B044630467C
:10401000FFF74EFA154B63632A46C4E91A55C4E903
:104020001C552566A4F8645029463046FFF7DEF992
:104030003146204606F082FB0D4B236004F17C05DF
:104040004FF6FF73A4F87830A4F87A3001A9284617
:10405000ADF80430FFF7AAFF2046294606F06EFBB4
:10406000204602B070BD00BFF49702082CA10208E0
:10407000909802082DE9F04F04468BB0A146002528
:1040800010F0CCFD674BE56349F8403B04F16C0848
:104090004846FFF70DFA4FF6FF7708A9404604F1AE
:1040A0009C06ADF82070FFF781FF5F4BE366294661
:1040B0002622A4F89650A4F89850304623F083F9AD
:1040C0003046FFF7E3F9594BC4F89C30584BC4F81D
:1040D000C430A4F8C8704FF47F0304F1E4074FF034
:1040E000FF32C4E93725C4F8D030C4F8CC50A4F866
:1040F000D450C4F8D8503846FFF772FF4D4BC4E98E
:1041000063344D4B4FF4A07B2A46C4E965352946FC
:104110004846CDF800B0F023FFF7A5F904F1040AF2
:104120004FF07F43A3664946504606F007FB08A9B7
:104130004046ADF820500AF0F5FFF0232A46294604
:104140004046CDF800B0FFF78EF92A462946404692
:104150000AF0C6FF4146504606F0F0FA602300938D
:104160002D2229463046E823FFF77DF90DF1080896
:10417000324BC4F8CC3031464046A4F8D0500AF057
:10418000ADFC98E8070004F1D80383E80700284B4A
:10419000089308A902233046ADF824300AF046FF00
:1041A00031465046322606F0C9FA2A46294604F519
:1041B0008C7000965023FFF756F90523204AA4F887
:1041C0004831204BC4E953231F4B4FF0FF31C4E962
:1041D0005513D4F8E4303846D3F88C30984706238A
:1041E000ADF81C3008AA072307A93846ADF82030DF
:1041F000FFF7A9FE4FF00113C4F8643104F5C6734C
:10420000C4F8143150231946DA2238460096FFF7D5
:104210002AF95046394606F091FA20460BB0BDE81F
:10422000F08F00BF48990208A8A00208B09F0208BA
:104230006C94020830990208313F00081363EDFFC7
:104240001F5BC2FFCC9900FF996633FF70470000E7
:1042500030B5174D2C6814F001048FB0BFF35B8F9D
:1042600023D1284621F06EFFF8B13F230993114B6B
:104270000893114B079302220423CDE90523012261
:10428000CDE9033223230D49009312222A23CDE9DD
:104290000B44CDE901440A480A94FFF71BFC094886
:1042A00022F0A8FE284621F059FF05480FB030BD86
:1042B000CC2A002054C50208ACC5020838C3020845
:1042C000D02A00204D4200087047000030B5164D3E
:1042D0002C6814F001048FB0BFF35B8F20D1284607
:1042E00021F030FFE0B13F230993104B0893104BAE
:1042F000104911480A940122CDE906430423CDE96F
:1043000003320A230093CDE90B44CDE9014405941F
:10431000FFF7E0FB094822F06DFE284621F01EFF62
:1043200005480FB030BD00BFFC2A00209CC5020824
:10433000B0C5020834C40208002B0020C94200089E
:104340007047000030B5164D2C6814F001048FB092
:10435000BFF35B8F20D1284621F0F4FEE0B13F236C
:104360000993104B0893104B104911480A940122ED
:10437000CDE906430423CDE9033214230093CDE9AC
:104380000B44CDE901440594FFF7A4FB094822F052
:1043900031FE284621F0E2FE05480FB030BD00BFD7
:1043A0002C2B0020A0C50208B4C5020844C4020892
:1043B000302B0020414300087047000030B5164DF7
:1043C0002C6814F001048FB0BFF35B8F20D1284616
:1043D00021F0B8FEE0B13F230993104B0893104B36
:1043E000104911480A940122CDE906430423CDE97E
:1043F000033228230093CDE90B44CDE90144059411
:10440000FFF768FB094822F0F5FD284621F0A6FEDB
:1044100005480FB030BD00BF5C2B0020A4C50208CA
:10442000B8C5020854C40208602B0020B943000834
:104430007047000030B5164D2C6814F001048FB0A1
:10444000BFF35B8F21D1284621F07CFEE8B13F23EA
:104450000993104B0893104B104911480A94CDE969
:10446000064301220423CDE90332142300931122D1
:10447000CDE90B44CDE901440594FFF72BFB094836
:1044800022F0B8FD284621F069FE05480FB030BD86
:104490008C2B0020A8C50208BCC5020864C4020811
:1044A000902B002031440008002070470020704706
:1044B0000EB403B503AB002153F8042B01930FF0A6
:1044C00065FB02B05DF804EB03B070470CB407B5B0
:1044D00004AB53F8042B01930FF058FB03B05DF8C5
:1044E00004EB02B07047000010B5044610F000FE67
:1044F000E38E04EB43035884636C5BB3238F2BB9C7
:10450000174B184AC521184822F056FD10B3204613
:1045100011F015FF238F012B03D8144B144ACB2124
:10452000F1E7E28E531C9BB2092B194688BFA3F119
:104530000A0104EB410140F63F10498C814209D148
:104540000A2B04EB420228BF002304EB4303508CE8
:10455000588451842046BDE8104011F0F3BD00BFDF
:10456000E98D0208F28D02089D8E0208E78E02088E
:10457000F58E020810B5044611F0ABFD2046BDE8EB
:10458000104010F0B1BD10B586B002AC84E8060052
:104590001A460AAB05930193099B00932146089B99
:1045A0000DF0AEFD06B010BD38B518BB124B134868
:1045B0001C681349B4B12268224402606268224434
:1045C0000A60A26814440F4B00221A8000F038F8E9
:1045D000054600F033F80C4B1C600C4B1D600C4B77
:1045E000188007E00B4B03600B4B0B600B4B1C68F8
:1045F000002CE8D138BD00BFC82B0020C02B002004
:10460000BC2B0020C42B0020A0390120A839012098
:10461000A4390120E0C50208C0C5020834C602085A
:10462000044B1B6853F82100034B1B6803EB40004D
:10463000704700BFBC2B0020C02B00200820704713
:1046400000487047CC2B002010B5FFF77BFE074CCD
:104650002060FFF7FDFD6060FFF738FEA060FFF708
:10466000E9FEE060FFF7AAFE206110BDCC2B002020
:1046700010B5002404600C6014601C6010BD70470D
:1046800010B54FF4AE71044621F05AFD204610BD1E
:1046900010B50446D0F8580100F0F8FA2046BDE8FD
:1046A00010400EF06DBA000010B50446FEF7EAFCAB
:1046B000014B2360204610BD7C99020870470438E6
:1046C0007047704710B51021044621F039FD20468F
:1046D00010BDA0F10400F5E700228260024A0260EA
:1046E00018324260C1607047D099020808B58368EB
:1046F00059600EF09BF9BDE80840FEF717BD704702
:1047000010B5034B03600446FEF7CCFD204610BDF8
:10471000F899020810B50446FFF7F2FF204641F26F
:10472000482121F00DFD204610BD0000F8B50546DA
:10473000FEF740FF0C4B2B600C4B0FCB05F5805464
:10474000012704F50C7684F82C7286E80F0000230C
:10475000C4E98733C4F84072C4F8443284F8243280
:10476000C4F828322846F8BDF8990208CC8002081F
:10477000FEF755BD70B500F5805401262DED028B76
:1047800084F82462054603F009FF1E4BC4F80C327E
:104790001D4BC4F81032D4F84032C4F82802B3429A
:1047A00022D194ED8D8A0226C4F84062B0EE480A08
:1047B00021F00EFD30EE000A05F5467584ED850A00
:1047C000B0EE480A21F048FD30EE000A284684ED9C
:1047D000860A96226E21FCF7BAFDBDEC028B2846B4
:1047E000BDE8704009F0D4BA022B1BBF03F28C4322
:1047F00005EB830394ED8E8A93ED008A08BF0326B0
:10480000D2E700BF0000DC420000164310B500F5FF
:1048100080530446D3F81C32054A052100F5767012
:1048200012F036FB04F5D070BDE810400FF0B5BAB9
:10483000C78F020810B500F580530446D3F8203224
:10484000054A052100F2E23012F022FB04F5F67071
:10485000BDE810400FF0A1BAC78F02082DE9F04F54
:1048600000F5805489B094F82C32054623B1FFF747
:1048700081FF002384F82C3294F8243223B303F010
:104880008DFED4F82832C01AB0F57A7FC0F0A98125
:1048900094ED847AD4ED837ABDEEC77A0023FDEEE1
:1048A000E77A84F8243217EE103A1AB217EE903AEB
:1048B00005F54675284619B2FCF749FD284609B0AA
:1048C000BDE8F04F09F064BAB5F91E3394ED857A6E
:1048D000B5F92071D4ED865AB5F922B1B5F99C60CD
:1048E000B5F99EA006EE903AB5F91C3307EE903A62
:1048F000F8EEE77A06EE107A77EE877AB3EE045A8E
:10490000F8EEE66A77EE854AB8EEC66A76EEA56AF4
:10491000F4EEC64AF1EE10FAC4ED837AC4ED846A6F
:1049200024DB07F1460306EE103AB8EEC66AF4EE51
:10493000C67AF1EE10FA19D806EE10BAB8EEC66AC9
:10494000F4EEC66AF1EE10FA10DB0BF10A0306EE84
:10495000103AB8EEC66AF4EEC66AF1EE10FA9EBFDF
:10496000F1EE655AC4ED865A84ED846A06EE906ACB
:10497000F8EEE66AF4EEE64AF1EE10FA30DB06F104
:10498000460306EE903AF8EEE66AF4EEE67AF1EEC9
:1049900010FA25D8D4ED846A06EE10AA76EE856A60
:1049A000B8EEC66AF4EEC66AF1EE10FA18DB0AF148
:1049B0000A0306EE103AB8EEC66AF4EEC66AF1EEE5
:1049C00010FA0DD8D4ED866AAAF11403F1EE666AE6
:1049D000C4ED866A06EE903AF8EEE66AC4ED846AA3
:1049E000F5EEC07AF1EE10FA4FF000032CD8C4F8BF
:1049F0000C32B1EE477A84ED857AD4ED847AF5EE07
:104A0000C07AF1EE10FA00F2EF80D4ED867AC4F8A5
:104A10001032D4F82032F1EE677A0133C4F8203234
:104A2000C4ED867A2846FFF705FFD4F82032092B1B
:104A300015DD0221E86BFFF759FE0DF0F7FF09B015
:104A4000BDE8F04FFEF772BBDFED857AF4EEE74A82
:104A5000F1EE10FAD1DB834AC4F80C22C9E72846EC
:104A6000FFF788FE94ED847AD4ED837ABDEEC77AA1
:104A7000FDEEE77A17EE103A1AB217EE903A05F506
:104A8000467019B2FCF763FC7748002300681A46A9
:104A900002A903F0E5FE002840F0A380BDF808302D
:104AA0009FED726ADFED726AA3F5006307EE903A3C
:104AB000F8EEE77A67EE867AF4EEE67AF1EE10FA2F
:104AC00040F3B48077EEE67AB0EE087A27EE877A84
:104AD000BDF80C30A3F5006307EE903AF8EEE77AE4
:104AE00067EE867AF4EEE67AF1EE10FA40F3AB80E8
:104AF00077EEE67AF0EE086A67EEA67ABDEEC77A40
:104B0000FDEEE77A17EE101A17EE904A3944344456
:104B1000AA29A8BFAA21AA2C21EAE171A8BFAA2428
:104B200024EAE4748F42B946A8BF8946A642B0463B
:104B3000A8BFA0468F42B8BF01F14607A9F10209FC
:104B4000A8BF4637A642A8F10208A7EB0907B4BFE1
:104B500004F146064636043729EAE979A6EB080649
:104B6000043609EB070328EAE878F02B08EB060384
:104B7000C8BFC9F1F007F02B4FF00A035A4605F5FC
:104B80008E70009309B24FF04603C8BFC8F1F0061B
:104B9000FEF769FC0A23524605F19800009321B202
:104BA00046230435FEF75FFCABF1020B0E2304A98C
:104BB0002846AAF1020AADF81090ADF812B0ADF88F
:104BC0001470ADF81630ADF81880ADF81AA0ADF835
:104BD0001C60ADF81E300FF031F906A928460FF021
:104BE0002DF909B0BDE8F08F77EE857A9FED217A37
:104BF000F4EEC77AF1EE10FAFFF634AF1E4BD4EDA7
:104C0000867AC4F81032D4F81C32F1EE677A013398
:104C1000C4F81C32C4ED867A2846FFF7F7FDD4F8B5
:104C20001C32092B7FF71BAF012103E79FED137A9D
:104C3000F4EEC77AF1EE10FA02D577EEA67A43E7E2
:104C40009FED0F7A44E79FED0D6AF4EEC67AF1EE20
:104C500010FA02D577EEA67A4CE7DFED097A4DE738
:104C60000000704300005C43602700200000003A11
:104C70000000C83D0000A043000096430000C8BDEE
:104C8000000000000022C0E9002270477047704712
:104C900004387047704710B51021044621F050FACF
:104CA000204610BDA0F10400F5E70000002282605C
:104CB000024A026018324260C1607047349A0208AA
:104CC000836858687047704710B5034B036004460B
:104CD000FEF731FF204610BD5C9A020810B504466D
:104CE000FFF7F2FF20464FF4BE7121F029FA20466B
:104CF00010BD000010B50446C06BFFF7E1FF064A87
:104D000003460A2104F5AC7012F0C2F804F586706F
:104D1000BDE810400FF041B8C78F020810B5044637
:104D2000FEF782FF034B23602046FFF7E3FF204698
:104D300010BD00BF5C9A020810B50446FEF7FCFEE9
:104D400004F5AC73C4F854312046BDE81040FFF7B9
:104D5000D1BF704704387047704710B51021044622
:104D600021F0EEF9204610BDA0F10400F5E70000A7
:104D700000228260024A026018324260C1607047BD
:104D8000909A02087047000010B5034B0360044678
:104D9000FFF765F8204610BDB89A020810B5044622
:104DA000FFF7F2FF20464FF4CE7121F0C9F92046FB
:104DB00010BD000010B50446FFF75CF9014B2360FD
:104DC000204610BDB89A0208FFF74AB8F020704795
:104DD0004FF4A07070472920FDF71AB82820FDF77E
:104DE00017B808B5FCF7E8FFCA20FDF711F8C32093
:104DF000FCF7F2FF0820FCF7EFFF5020FCF7ECFF78
:104E0000CF20FDF705F80020FCF7E6FFC120FCF7F6
:104E1000E3FF3020FCF7E0FFED20FCF7F9FF642012
:104E2000FCF7DAFF0320FCF7D7FF1220FCF7D4FFD2
:104E30008120FCF7D1FFE820FCF7EAFF8520FCF792
:104E4000CBFF0020FCF7C8FF7820FCF7C5FFCB2084
:104E5000FCF7DEFF3920FCF7BFFF2C20FCF7BCFF7E
:104E60000020FCF7B9FF3420FCF7B6FF0220FCF766
:104E7000B3FFF720FCF7CCFF2020FCF7ADFFEA20C2
:104E8000FCF7C6FF0020FCF7A7FF0020FCF7A4FFFB
:104E9000B120FCF7BDFF0020FCF79EFF1B20FCF7B4
:104EA0009BFFB620FCF7B4FF0A20FCF795FFA22079
:104EB000FCF792FFC020FCF7ABFF1020FCF78CFF43
:104EC000C120FCF7A5FF1020FCF786FFC520FCF7EA
:104ED0009FFF4520FCF780FF1520FCF77DFFC720D2
:104EE000FCF796FF9020FCF777FF3620FCF790FF49
:104EF000C820FCF771FFF220FCF78AFF0020FCF7C6
:104F00006BFFB020FCF784FFC220FCF765FFB620E2
:104F1000FCF77EFF0A20FCF75FFFA720FCF75CFF91
:104F20002720FCF759FF0420FCF756FF2A20FCF746
:104F30006FFF0020FCF750FF0020FCF74DFF002022
:104F4000FCF74AFFEF20FCF747FF2B20FCF760FF40
:104F50000020FCF741FF0020FCF73EFF0120FCF79A
:104F60003BFF3F20FCF738FFF620FCF751FF012004
:104F7000FCF732FF0020FCF72FFF0620FCF72CFF88
:104F80002C20FCF745FFC820FCF790FF2620FCF7FB
:104F90003FFF0120FCF720FFE020FCF739FF0F2046
:104FA000FCF71AFF2920FCF717FF2420FCF714FF59
:104FB0000C20FCF711FF0E20FCF70EFF0920FCF778
:104FC0000BFF4E20FCF708FF7820FCF705FF3C2084
:104FD000FCF702FF0920FCF7FFFE1320FCF7FCFEA4
:104FE0000520FCF7F9FE1720FCF7F6FE1120FCF770
:104FF000F3FE0020FCF7F0FEE120FCF709FF0020A3
:10500000FCF7EAFE1620FCF7E7FE1B20FCF7E4FEA7
:105010000420FCF7E1FE1120FCF7DEFE0720FCF780
:10502000DBFE3120FCF7D8FE3320FCF7D5FE422012
:10503000FCF7D2FE0520FCF7CFFE0C20FCF7CCFEDF
:105040000A20FCF7C9FE2820FCF7C6FE2F20FCF73B
:10505000C3FE0F20FCF7C0FE1120FCF7D9FEC820CC
:10506000FCF724FF2920FCF7D3FEBDE808402C20E4
:10507000FCF7CEBE08B5FCF79FFE0321D320FCF75A
:10508000E3FE80B208BD10B5C4B20222032120465F
:10509000FCF748FE0A20FCF78DFE20460022032183
:1050A000FCF740FEBDE810400220FCF783BE38B597
:1050B0000446E4B2FCF734FE00212046FCF74AFE29
:1050C000012105462046FCF745FE40EA052080B256
:1050D00038BD10B5C4B240212046FCF73BFE0306A4
:1050E00007D54C212046FCF735FE003818BF0120BB
:1050F00010BD01224B212046FCF714FE2046002261
:105100004B21FCF70FFE0020F2E773B50423C4B275
:105110000E461546D7210DEB03022046FCF734FE60
:10512000019B1BBA1A0DC3F30B23328020462B8040
:1051300001224B21FCF7F6FD00224B212046FCF713
:10514000F1FD02B070BD000010B50A4A1378984214
:1051500004460DD0517888420AD00BB141B90123E1
:10516000D454FCF7DDFD2046BDE81040FFF78BBFAF
:1051700010BD00BFE02B002010B5C4B209212046AD
:10518000FCF7E8FD40F00102D2B220460921BDE85B
:105190001040FCF7C7BD10B5C4B209212046FCF78A
:1051A000D9FD092100F0FE022046BDE81040FCF7C1
:1051B000B9BD38B5C4B20D4620460A21FCF7CAFD78
:1051C00040EA0502D2B220460A21BDE83840FCF789
:1051D000A9BD10B50446FCF7A4FD20461F21FFF72A
:1051E000E8FF2046BDE81040FFF7C6BF38B5C4B29F
:1051F0000D4620460A21FCF7ADFD20EA0502D2B299
:1052000020460A21BDE83840FCF78CBD10B50446A5
:10521000FFF7C1FF20461F21BDE81040FFF7E6BFA2
:1052200010B5C0B20C460B21FCF794FD204010BD18
:105230001F21FFF7F5BF0A46C0B20B21FCF772BD74
:105240001F21FFF7F8BF38B5C4B20D46204617211D
:10525000FCF780FD20EA0502D2B220461721BDE806
:105260003840FCF75FBD70B5C4B206460421204645
:10527000FCF770FD042100F0FB0205462046FCF718
:1052800051FD3046F021FFF7DEFF05F0F802204621
:105290000421FCF747FD492220212046FCF742FD6E
:1052A0000220FCF787FD204601222121FCF73AFD70
:1052B00020469A224121FCF735FD204601224A2151
:1052C000FCF730FD204601224B21FCF72BFD204648
:1052D00000224B21FCF726FD204601225621FCF737
:1052E00021FD204601225821FCF71CFD2046012209
:1052F0004021FCF717FD2046FF220B21FCF712FD91
:10530000BDE870400220FCF755BD0000054BD3F806
:10531000882042F47002C3F888204FF000629A603F
:10532000704700BF00ED00E008B50B4B1A6842F46F
:1053300000721A601A6842F480621A601A6842F4B5
:1053400080721A60032000F061FA0520FDF7CAF8A8
:10535000FCF7BAFD002008BD003C0240034A044BA4
:1053600011681B780B441360704700BFE42B0020CA
:1053700078000020014B1868704700BFE42B002024
:1053800038B50446FFF7F6FF631C1CBF054B1B78BE
:10539000054618BFE418FFF7EDFF431BA342FAD3FD
:1053A00038BD00BF7800002038B50446002800F062
:1053B0009B80056C25B9FCF7A7FD656484F83C501B
:1053C000236CDB0600F18E80236C23F4885323F0DA
:1053D000020343F002032364444B5A6822F4403230
:1053E0005A605A6861680A435A60236821695A689A
:1053F00022F480725A605A6842EA01225A605A685E
:10540000A16822F040725A605A680A435A609A684A
:10541000E16822F400629A609A680A439A6034490B
:10542000A26A8A4252D0996821F0706199609968A5
:105430000A439A609A68E16A22F040529A609A6838
:105440000A439A609A6822F002029A609A68217E62
:1054500042EA41029A6094F82020002A3ED05A681D
:10546000616A42F400625A605A6822F460425A60EB
:105470005A68013942EA41325A60DA6AE16922F433
:105480007002DA62DA6A013942EA0152DA629A6833
:1054900022F400729A609A6894F8301042EA41222D
:1054A0009A609A68616922F480629A609A68002022
:1054B00042EA81229A606064236C23F0030343F084
:1054C00001032364002384F83C3038BD9A6822F03D
:1054D00070629A609A6822F04052B2E75A6822F4E9
:1054E0000062C9E70120EDE70120EEE7002301405B
:1054F0000100000F82B00023019390F83C30012B93
:1055000069D0012380F83C3003689A68D2070BD534
:105510009A68D1071AD4036C43F010030364436CF8
:1055200043F0010343644CE09A682C4942F00102C5
:105530009A602B4A1268B2FBF1F202EB420201922E
:10554000019A002AE4D0019A013AF8E7026C22F4A9
:10555000E06222F0010242F4807202645A6852054D
:1055600041BF026C22F4405242F480520264026C49
:1055700012F480521CBF426C22F0060242640022E8
:1055800080F83C206FF022021A60164A516811F030
:105590001F0F15491CD18B4207D001F580718B423A
:1055A0000CD1526812F01F0F0BD19A6812F0405FB5
:1055B00007D19A6842F080429A6002E00B498B4220
:1055C00002D0002002B07047526812F0100FEBE7D3
:1055D0008B42F6D1E9E70220F4E700BF40420F001A
:1055E00074000020002301400020014000220140FF
:1055F00090F83C30012B14D003689A6822F0010225
:105600009A609B68DB0707D4036C23F4885323F06C
:10561000010343F001030364002380F83C30184683
:1056200070470220704703689A68520570B50446B7
:105630000D460BD59B68DE0508D5036C43F02003AF
:105640000364002380F83C30012070BDFFF792FE18
:10565000064623681A6891070CD56FF012021A608B
:10566000226C42F4007222649A6812F0405F17D0F4
:105670000020EAE7681CEDD065B923681B6813F0C9
:105680000203E6D1226C84F83C3042F0040222642A
:105690000320DAE7FFF76EFE801BA842EDD8D8E7BB
:1056A000227E002AE4D1DA6A12F4700F02D09B68DD
:1056B0005A05DDD4236C23F480732364236CDB044C
:1056C000D6D4236C43F001032364D1E70368D86C7C
:1056D00070470000F7B50023019390F83C30012B90
:1056E000054600F08680012380F83C3008682B686E
:1056F0008E68092884B233D904EB4402DF681E3A6D
:105700004FF0070C0CFA02FC27EA0C07DF60DF6899
:1057100006FA02F23A43DA604968062901EB81028F
:105720002DD8596B053A1F26964021EA0601596388
:10573000596B04FA02F20A435A632F4A93420AD180
:10574000122837D12D4B5A6822F400025A605A6849
:1057500042F480025A60002085F83C0003B0F0BD9E
:105760001A6900EB400C072707FA0CF722EA070238
:105770001A611A6906FA0CF616431E61CCE70C2969
:105780004FF01F010BD81E6B233A914026EA01010E
:105790001963196B04FA02F20A431A63CDE7DE6A51
:1057A000413A914026EA0101D962D96A94400C43FA
:1057B000DC62C2E7124B984201D01128CBD10F4BCB
:1057C0005A6822F480025A605A6842F400025A6011
:1057D0000B4B9842BFD10B4B0B4A1B68B3FBF2F348
:1057E0000A2253430193019B002BB4D0019B013B40
:1057F000F8E70220B2E700BF00200140002301408B
:10580000120000107400002040420F000749CA68CF
:1058100022F4E0620302120403F4E063120C134367
:1058200043F0BF6343F40033CB60704700ED00E00A
:10583000164B30B5DC68C4F30224C4F10703251D00
:10584000042B28BF0423062D4FF0FF358CBF033CEB
:10585000002405FA03F321EA0303A54022EA050226
:10586000A340002843EA0203ACBF00F16040084AAD
:105870004FEA0313B8BF00F00F00DBB2AABF00F578
:105880006140135480F8003330BD00BF00ED00E0EC
:1058900014ED00E0002807DB044A4109012300F071
:1058A0001F00834042F82130704700BF00E100E054
:1058B00010B5044650B1437903F0FF0213B90271E9
:1058C000FCF77AFB01236371002010BD0120FCE787
:1058D000036810B5084C0246D9B210391820B1FB44
:1058E000F0F0205CD06523F47F7020F003005F2986
:1058F00088BF0430906510BDFC9A020870B504465C
:10590000FFF738FD0546002C60D0022384F83530BF
:105910002268002384F83430136823F001031360F5
:1059200022681368D8072ED413683248A16918403A
:10593000D4E901352B43E5682B4325692B43656981
:105940002B43E5690B432B43256A2B430343606AD2
:10595000042802BFD4E90B5635432B431360536927
:10596000042823F0070343EA000335D1A06AE56A5F
:1059700003438DB391B9012820D030F002012BD11F
:10598000E90129D51DE0FFF7F5FC401B0528C7D923
:1059900020230320636584F8350070BDB1F5005FF6
:1059A00016D1032818D801A151F820F0C3590008D6
:1059B00081590008C3590008BD590008B5F1C07FDE
:1059C0000AD140236365012384F835300120E4E7E0
:1059D0000228F6D90328D3D053612046FFF778FF79
:1059E000E26D3F239340836000200123606584F8CB
:1059F0003530D2E73F8010F070B590F83440866DB6
:105A0000012C30D0012480F8344090F83540012C2E
:105A10004FF0000425D1022580F835504465046814
:105A2000256825F48025256063608368402B0EBFC0
:105A3000A260A160E260C26D08BFE1603F239340B5
:105A4000B360236843F016032360036C1BB1236823
:105A500043F008032360236843F001032360002020
:105A600070BD80F834400220FAE70000F7B500234B
:105A700001935C4B856D1F68C36D2E6808229A40A8
:105A8000324204460CD001680868400708D508680F
:105A900020F004000860AA60626D42F001026265B5
:105AA00001229A40324208D021684969090641BF63
:105AB000AA60626D42F00202626504229A4032429C
:105AC00008D021680968880741BFAA60626D42F06A
:105AD0000402626510229A40324210D0236819688D
