:020000040800F2
:10000000000003205D060008F1230008F323000828
:10001000F5230008F7230008F9230008000000007A
:1000200000000000000000000000000091740008C3
:10003000FB2300080000000021750008A56D0008E2
:10004000AD060008AD060008AD060008AD060008C4
:10005000AD060008AD060008AD060008AD060008B4
:10006000AD060008AD060008AD060008AD060008A4
:10007000AD060008AD060008AD060008AD06000894
:10008000AD060008AD060008AD060008AD06000884
:10009000AD060008AD060008AD060008AD06000874
:1000A000AD060008AD060008AD060008AD06000864
:1000B000AD060008AD060008AD060008AD06000854
:1000C000AD060008AD060008AD060008AD06000844
:1000D000AD060008AD060008AD060008AD06000834
:1000E000AD060008AD060008AD060008AD06000824
:1000F000AD060008AD060008AD060008AD06000814
:10010000AD060008AD060008AD060008AD06000803
:10011000AD060008AD060008FD230008AD06000886
:10012000AD060008AD060008AD060008AD060008E3
:10013000AD060008AD060008AD060008AD060008D3
:10014000AD060008AD060008AD060008AD060008C3
:10015000AD060008AD060008AD060008AD060008B3
:10016000AD060008AD060008AD060008AD060008A3
:10017000AD060008AD060008AD060008000000004E
:10018000AD060008AD060008AD060008AD06000883
:10019000AD060008AD060008AD060008AD06000873
:0C01A00009240008AD0600081524000822
:1001B00010B5054C237833B9044B13B10448AFF3A1
:1001C00000800123237010BD800300200000000088
:1001D0009C5E020808B5034B1BB103490348AFF30B
:1001E000008008BD00000000840300209C5E02081F
:1001F00001F0FF01102A2BDB10F0070F08D010F8D8
:10020000013B013A8B422DD010F0070F42B3F6D1DB
:10021000F0B441EA012141EA014122F007047FF0F4
:1002200000070023F0E80256083C85EA010586EA4B
:10023000010685FA47F5A3FA87F586FA47F6A5FA87
:1002400087F68EB9EED1F0BC01F0FF0102F0070293
:1002500032B110F8013B013A83EA010313B1F8D13E
:100260000020704701387047002D06BF354603381F
:10027000073815F0010F07D1013015F4807F02BF58
:10028000013015F4C03F0130F0BC0138704700BFA9
:100290007BB972B90029BEBF00204FF0004106E0D3
:1002A00008BF00281CBF6FF000414FF0FF3000F086
:1002B000D3B9ADF1080C6DE904CE002909DB002BA0
:1002C0001ADB00F04DF8DDF804E0DDE9022304B0AC
:1002D0007047404261EB4101002B1BDB00F040F80E
:1002E000DDF804E0DDE9022304B0404261EB4101A6
:1002F000524263EB43037047524263EB430300F007
:100300002FF8DDF804E0DDE9022304B0404261EBA0
:1003100041017047524263EB430300F021F8DDF8DE
:1003200004E0DDE9022304B0524263EB430370476B
:1003300053B94AB9002908BF00281CBF4FF0FF314C
:100340004FF0FF3000F088B9ADF1080C6DE904CE34
:1003500000F006F8DDF804E0DDE9022304B07047A0
:100360002DE9F047089D8E4604468846002B4AD169
:100370008A42174662D9B2FA82F64EB1C6F120031C
:1003800001FA06F820FA03F3B74043EA0808B4403C
:100390004FEA174E1FFA87FCB8FBFEF1230C0EFB49
:1003A000118843EA084301FB0CF29A4209D9FB1871
:1003B00001F1FF3080F0EA809A4240F2E780023992
:1003C0003B449A1AA3B2B2FBFEF00EFB102243EAA2
:1003D000024300FB0CFC9C4509D9FB1800F1FF32DD
:1003E00080F0D6809C4540F2D3803B44023840EAFE
:1003F0000140A3EB0C0300211DB1F3400022C5E92D
:100400000032BDE8F0878B4205D90DB1C5E9000186
:1004100000210846F5E7B3FA83F1002946D1734578
:1004200002D3824200F20581841A6EEB030201209E
:100430009046002DE5D0C5E90048E2E7002A00F02B
:100440009080B2FA82F6002E40F0A4808A1A030C43
:100450004FEA174E80B2BCB20121B2FBFEFC0EFB8C
:100460001C2243EA024304FB0CF29A4207D9FB1810
:100470000CF1FF3802D29A4200F2E080C4469B1A87
:10048000B3FBFEF20EFB123340EA034302FB04F41B
:100490009C4207D9FB1802F1FF3002D29C4200F2C5
:1004A000CA8002461B1B42EA0C40A5E7C1F12006A8
:1004B0008B4022FA06F71F430EFA01F420FA06F3E6
:1004C0002EFA06FE4FEA1749234300FA01F81FFAF5
:1004D00087FCBEFBF9F01C0C09FB10EE44EA0E444D
:1004E00000FB0CFEA64502FA01F209D93C1900F105
:1004F000FF3A80F09C80A64540F2998002383C4447
:10050000A4EB0E041FFA83FEB4FBF9F309FB1344BA
:100510004EEA044403FB0CFCA44508D93C1903F142
:10052000FF3E80F08280A4457FD9023B3C4443EAF1
:100530000040A4EB0C04A0FB02EC64457346E146CA
:1005400062D35FD05DB1B8EB030264EB090404FA37
:1005500006F622FA01F31E43CC40C5E900640021EF
:100560004FE7B1FBF2FC010C41EA0E4180B240EAD8
:1005700001423B4638463C46B846BE462026B1FBC3
:10058000F7F1A2EB080241EA0C4166E7014618E7E1
:1005900010462CE7C6F120022EFA02F3B740B14014
:1005A00020FA02F24FEA174E0A43B3FBFEF8BCB240
:1005B0000EFB1833110C41EA034108FB04F9B0406B
:1005C00089454FEA104380B23ED9791808F1FF3CC3
:1005D00001D289451FD8A1EB0901B1FBFEF909FB46
:1005E00004F80EFB191192B242EA0142424529D2A7
:1005F000BA1809F1FF31C4D24245C2D2A9F10201B1
:100600003A44BEE7F0459DD2BEEB02036CEB070C0B
:100610000138E14696E7A7EB09094944A8F1020C25
:10062000B1FBFEF909FB04F8DBE773467FE75046B0
:1006300066E70846FDE63B44023A33E7ACF1020CBC
:100640003B441CE749469CE7A1EB0901C446B1FBCA
:10065000FEF909FB04F8C4E7704700BFDFF834D0A7
:10066000002103E00C4B5B58435004310B480C4B0A
:1006700042189A42F6D30B4A02E0002342F8043BA8
:10068000094B9A42F9D303F001FF24F099FE01F0DF
:1006900097F870470000032014B9080800000020F4
:1006A0006401002080030020F4440120FEE770472D
:1006B00008B500F0BDFDBDE8084000F03FBD00F00A
:1006C000B9BD704710B50421044623F08DFC2046C7
:1006D00010BD000038B50C4B0C4C18800C4B822020
:1006E00019806368984740F6110398420AD1094D72
:1006F00023682C60822098472B688220DB6898470B
:10070000002038BD0120FCE7A60300204C0000209B
:10071000A4030020A80300204FF4A071F020FFF7ED
:10072000D9BF0000F7B5394D2B6804461B698220FC
:100730009847208000284ED02B680DF106025B6997
:1007400001A982209847324B1B78002B4BD0BDF873
:10075000062040F674639A423FD9ADF80630BDF8E2
:1007600006209B1A9BB20A2B42D90B22B3FBF2F351
:10077000284A1288934201D9013A93B2BDF8042065
:10078000254840F6B8318A4234D8C2F571620E323B
:10079000016892B20F25B2FBF5F2204D2D88AA42D6
:1007A00084BF05F1FF35AAB28A4215468EB22AD916
:1007B000921B91B21A4E3768BB42BAB28CBF9A1ADA
:1007C000D21A92B211440529C4BF05603360036890
:1007D00063803368A38003B0F0BDB32A9CBFB4220A
:1007E000ADF80620BBE7BDF80630A3F5B473B9E752
:1007F0000023C3E7C2F56D62083292B20E2A016887
:10080000C8D800252A46891A89B2D3E7A803002050
:10081000E4260020A4030020A0030020A60300205B
:100820009C03002037B568460D461446FFF77AFF53
:10083000BDF8000030B1BDF802302B60BDF80430C7
:100840002360012003B030BD032821D8DFE800F089
:10085000020B12190F4B1A68B2FA82F252090421E4
:100860000D4804F0D9BA0B4B5A68B2FA82F2520919
:100870000821F5E7074B9A68B2FA82F25209102173
:10088000EEE7044BDA68B2FA82F252092021E7E778
:10089000704700BFAC03002000100240032821D89D
:1008A000DFE800F0020B12190F4B1A68003A18BF6C
:1008B000012204210D4804F0AFBA0B4B5A68003AEC
:1008C00018BF01220821F5E7074B9A68003A18BFC4
:1008D00001221021EEE7044BDA68003A18BF01222A
:1008E0002021E7E7704700BFAC0300200010024062
:1008F00003280DD8DFE800F00206080A04210548A5
:1009000004F08FBA0821FAE71021F8E72021F6E772
:10091000704700BF0010024008B5032811D8DFE877
:1009200000F0020A0C0E0421074804F06FFA431E7F
:100930005842584108BD0821F6E71021F4E720216C
:10094000F2E70020F3E700BF0010024070B5084D49
:1009500000240126E0B2FFF7DFFF18B12B68012B5E
:1009600018BF2E600134052C05F10405F2D170BDCD
:10097000AC030020012380F8781080F879307047AC
:100980007047002070470000034B4164003918BFD6
:1009900001211970704700BFB33701207047002054
:1009A0007047836B0BB10846184770474FF6FF70CE
:1009B0007047406803689B691847704770477047E5
:1009C0007047704710B5044600F04AFD236803499C
:1009D000D3F890302046BDE810401847000000D002
:1009E00008B503680446D3F8843098472368204646
:1009F000DB6F984700F0ECF8236820465B6F984760
:100A0000292001F0BDF900F0E3F8236820465B6F70
:100A10009847F8E710B5044609F03AFB23682046EA
:100A2000D3F8BC30BDE81040184700F0FDBC00F022
:100A300001BD00F033BD00F0D3BC00F043BD00F0B9
:100A40004BBD00F0D7BC08F051BD10B58421044661
:100A500023F0CAFA204610BD10B590F8341090F873
:100A600078400C4B8C421A7809D03AB90A4A0B49A3
:100A70001488088810800C8001221A7010BD002A8A
:100A8000FCD0054A05491488088810800C80002293
:100A9000F3E700BFAC370120A8370120AA370120B7
:100AA00070B50D46194635B9094B0A4A0A4840F255
:100AB000FF2124F0D5F9C0E90F52084B003A18BFC6
:100AC00001221A700368BDE87040D3F890301847CF
:100AD0001C5F0208545F0208A25F0208B2370120BF
:100AE00008B5094B1B888B4203D8084B1B889342DF
:100AF00005D9074B074A0848A32124F0B1F9074B51
:100B00001980074B1A8008BDA8370120AA37012099
:100B1000E75F02084A600208A25F0208AE370120C0
:100B2000B0370120034690F87A0018B1586803687E
:100B30001B68184770470000012108B500220846CD
:100B400006F0C1F90A4B186028B90A4B0A4A282155
:100B50000A4824F085F900220421012006F052FA07
:100B6000074B186018B9074B034A2C21F0E708BD62
:100B7000C00300208D600208D660020805610208EB
:100B8000BC0300204C610208024B4FF0FF31186893
:100B900006F0E3B9C0030020014B186806F009BA5B
:100BA000C0030020024B0021186806F0D6B900BF30
:100BB000C0030020FFF7F0BF03480449006800238A
:100BC0001A4606F05ABA00BFBC03002004000020F9
:100BD00013B5084C00231A4601A9206806F07EFAD6
:100BE00020684FF0FF33002201A906F077FA02B027
:100BF00010BD00BFBC03002003685B6C18470120D8
:100C0000704703689B6A1847FEE740F2EF30704771
:100C1000054B0360054B4FF08062C3F88820BFF39B
:100C20004F8FBFF36F8F7047686D020800E100E0DF
:100C300010B504464FF45A61FFF7EAFF204623F04F
:100C4000D3F9204610BD000082B0002301930E4B63
:100C50001A6B42F400021A631A6B02F4000201924A
:100C6000019A1A6942F400021A611A6922F4000218
:100C70001A61064B064A1A61064A5A61064B4FF042
:100C800080629A6002B070470038024078280020E5
:100C9000E90E0008090C000800E100E008B50A2888
:100CA00009D8DFE800F006100E0808080810101038
:100CB0001000022008BD054B054A0648902124F08B
:100CC000CFF80020F6E70120F4E700BF8E610208AC
:100CD000A9610208F461020838B50C46887FFFF765
:100CE000DDFFA58AE28A164B2169586342EA054274
:100CF0005A64628BD963521B1A642568082D0ED181
:100D00009A611A615862207F0E4A42EA0062DA61F3
:100D1000E2681A620C4A5961D9601A6038BD002233
:100D2000D8611A61E1680A0A480902F4784200F4BD
:100D3000FC600243C1F3C4010A439A63034AECE72F
:100D400000B002400900010001230200012303005A
:100D500008B50B280BD8DFE800F00612100A0A0AC3
:100D60000A0808080808022008BD0520FCE7054B12
:100D7000054A06486F2124F073F80020F4E70120AB
:100D8000F2E700BF8E61020839620208F4610208CE
:100D90002DE9F04191F81D800C464046FFF7D8FF41
:100DA000A77F05463846FFF7D3FF06463846FFF7CC
:100DB00075FFA18A628B444B521A1A649A61228B86
:100DC000521A1A61E28A586342EA01425A6421695E
:100DD0006268D963DA602068802828D0227F0FD823
:100DE000202867D0402865D004281AD0364B45EA21
:100DF000026545F40035B845DD6161D0334A44E011
:100E0000B0F5807F04D0B0F5007FEFD1304800E02E
:100E1000304840EA0262DA61E2681A625E62596151
:100E200032E045EA026242F40032DA61F6E7A06895
:100E3000021DDA62227F45EA026545F40035DD6174
:100E40005E625961017841B1012921D0224B234AC8
:100E500023484FF48D7124F003F8DA69418822F4B5
:100E60007F42013922F0100242EA0122DA610121B7
:100E7000154BDA6942F02002DA61DA699206FCD495
:100E800010229A600029B9D0164A1A60BDE8F08194
:100E9000B2F1FF01DA69408822F47F4200F1FF30AD
:100EA00022F0100242EA002242F0100218BF012193
:100EB000DA61DDE745EA0262034B42F40032B4E74F
:100EC00042F20132E1E700BF00B00240012301001D
:100ED000090002000A000200836202089D62020803
:100EE000F461020801230200024B1B685868036882
:100EF0005B691847B437012070B5044625460A4B94
:100F00000C30002660602672667245F8203B602235
:100F1000294609F013FA04F55A63EE6024359D4220
:100F2000FBD1204670BD00BF686D0208034B1A68F4
:100F3000D207FCD423229A60704700BF00B0024061
:100F40007047000030B50F4C2568ED07FCD4232511
:100F50000904A56041F001010225FF2B656361646E
:100F6000E0630AD00849656241EA0363E361074B25
:100F700022626061E060236030BDE561039BA36392
:100F8000034BF8E700B00240090001000100020035
:100F90000100030030B50E4C2568ED07FCD4232575
:100FA0001204A56042F001020225FF2B6563626412
:100FB000E063E16008D01B0643F00213E361054BD8
:100FC00065626061236030BD034BE3610123F9E793
:100FD00000B0024001000200020002FF30B50B4CDD
:100FE0002568ED07FCD4232512041B06A56043F4F5
:100FF0000033022542F0010265636264E063E16050
:10100000E361034B65626061236030BD00B0024064
:1010100001000200012070471020704700EB011012
:101020000830704700EB011008307047012070470E
:1010300041F2D010704741F2D01303FB0100083099
:10104000704741F2D01303FB0100083070470120C4
:1010500070471020704700EB01100830704700EB1C
:10106000011008307047084601F0B4BD10B5034BBD
:101070000360044607F08FFF204610BD206E020873
:1010800010B50446FFF7F2FF2046182122F0ACFF0E
:10109000204610BD10B5034B0360044607F07BFFEC
:1010A000204610BDEC6D020810B50446FFF7F2FFB4
:1010B000204641F2D81122F097FF204610BD0000D3
:1010C00010B5034B0360044607F065FF204610BDD2
:1010D000B86D020810B50446FFF7F2FF204618214C
:1010E00022F082FF204610BD10B5094B0360044674
:1010F00000F590500430FFF7B9FF04F12C00FFF722
:10110000C9FF04F11400FFF7DBFF204610BD00BF4C
:10111000546E020808B50248FFF7E6FF08BD00BF9D
:101120009C12002010B50446FFF7DEFF204641F276
:101130007C3122F059FF204610BD00002DE9F3411B
:1011400001F0DEF9054601F0DFF9002401462346EF
:1011500028462246009413F095FE274B274A1A6032
:10116000204602F05DFB264D264B274A27489A6011
:1011700013F0F0FD2B68BFF35B8FDB0735D42846F7
:1011800022F034FF88B3224C224B234F236004F516
:10119000915604F1140004F12C086060C4F8088032
:1011A000E760266107F0F8FE1C4B6361404607F0DC
:1011B000F3FE1B4BE362384607F0EEFE04F5805366
:1011C00003F50770174AC3F8042202F07FFE224697
:1011D000311F304602F09EFB304601F0FBFC124806
:1011E00023F05CFE284622F00DFF104802B0BDE857
:1011F000F041FFF7E7BB00BF18380120480400208A
:1012000098120020680400204C04002008000020F0
:101210009C120020546E0208A0240020B86D020821
:10122000EC6D0208206E020815110008C4030020AE
:10123000704700000148FFF7D3BB00BFC403002084
:1012400070B5264E264C274D274B23603046FFF7BE
:1012500053FE284618F01CFF244810F0B7FD244B1D
:101260002448DC6000224FF48071C3E91212224945
:101270001A86C3E91A12214983F85820C3E91E01CE
:101280001F49C3F880101F491F480B60F021C3E9B4
:101290000422C3E90622C3E90822C3E90A22C3E9FA
:1012A0000E22C3E91022C3E91422C3E917225A66A9
:1012B00083F870205A67C3E90165018013480180F3
:1012C00013484FF4A07101801248018012490A703E
:1012D000012283F83420114A1A6070BDF404002002
:1012E00094120020680400200C5F02084C040020C7
:1012F000C4030020000001010100000100045000AF
:101300001A001400B4370120A8370120AE3701209D
:10131000AA370120B0370120AC3701207C6C0208CD
:101320000148FFF775BC00BFF4040020002070479F
:1013300081807047C180704701817047418170474B
:101340007047704770477047704710B4C48803688F
:10135000121B84885B6D091B12B25DF8044B09B245
:1013600018474FF6FF7383814FF0FF330362136812
:10137000C36110607047002070478B888380012014
:101380007047704780F82610704790F82600704725
:1013900010B50022B1F90840B1F90A10028042806C
:1013A0008480C18010BD0022028042808280C28081
:1013B00070470177704780ED080A704780F8241065
:1013C000704780F8251070470120704798307047AB
:1013D0008C3070478430704770477047704700000A
:1013E000034B902283F85A2383F85823704700BF99
:1013F00000E100E0094A0A49D3680A48C3F30A0336
:10140000013B9BB20B801169C1F30A0101390180D4
:101410001364536B43F0010353637047006801404A
:101420001A26002018260020014BD3F8AC00704784
:1014300000680140024B0122C3F8AC105A627047A9
:101440000068014010B52C21044622F0CDFD204655
:1014500010BD10B5BC21044622F0C6FD204610BDCB
:1014600070B5044608F097F823689D6E0FF042FAB5
:1014700001462046A8472368054AD3F88C502046E9
:10148000AC460023BDE87040A2F51631604700BFAE
:1014900000B004D008F066B808F070B808F02CB8B6
:1014A00008F09BB990F8252012B103685B691847D2
:1014B000704790F825201AB190F8242002B11860E6
:1014C00070470000034B4FF080629A604FF08072CB
:1014D0009A60704700E100E0084B4FF08062C3F86B
:1014E0008820BFF34F8FBFF36F8F4FF08072C3F828
:1014F0008820BFF34F8FBFF36F8F704700E100E08C
:1015000070B50023124E8380124B0360336893F84A
:10151000582005460AB1D86C00B998680368DB6AA0
:1015200098473368B0FA80F4D86C640930B1036826
:10153000DB6A9847002808BF44F001042CB9064B29
:10154000064A07482C2123F08BFC284670BD00BFBB
:10155000B4370120686E0208DB62020839630208B2
:101560007263020870B5254E3568BFF35B8F15F0C6
:10157000010540D1304622F039FD00283BD0204CF7
:10158000204B256104F13400C4E90035C4E902555B
:10159000E584A562A58510F0FEFE04F158000BF06D
:1015A00057F8194BA3652046184B40F8843BFFF7CA
:1015B000A7FF174BC4F884302433C4F88C304FF4A1
:1015C000C803C4E928350023C4F8AC30C4F8B030EF
:1015D000C4F8B430C4F8B8300E480F4BC4F890507B
:1015E000C4F89C50C4F8A850C4F8983023F056FCB6
:1015F000304622F007FD024870BD00BF1C260020C7
:1016000020260020D4740208886E0208006F0208A9
:1016100088740208DD1300086874020838B5184C95
:1016200023685BB3174B184A1B6C11888B4216D189
:10163000164B198804F0DAF9236893F86A2000251C
:10164000013283F86A2083F87C50FFF7B5FA2068EE
:1016500008F01EFD2846BDE83840FFF7F5B804F055
:10166000C5F92468236820461B6A9847012384F83B
:101670007C300020BDE83840FFF710B938BD00BF0E
:10168000B4370120006801401A26002018260020E7
:1016900007B5064BADF806001B68054801220DF1A1
:1016A000060104F043FF03B05DF804FB0C000020CA
:1016B0002427002007B5184D184C284602F0DAFF01
:1016C0004FF0FF31284603F06EF8284603F0BEF8CD
:1016D000ADF80000284603F04BF8012005F0E7FBC9
:1016E000204602F0C7FF4FF0FF31204603F05BF8C1
:1016F000204603F0ABF8ADF80400204603F038F8BC
:10170000074800231A466946006805F0B6FC3220F7
:1017100005F0CDFBD1E700BF08290020C02800203C
:10172000E026002030B595B0102200210AA823F051
:101730009EFD1422002103A823F099FD00241E4BD6
:1017400001941A6C42F080521A641B6C03F08053AF
:101750000193019B194B02941A6842F440421A60AB
:101760001B6803F4404302930122029B4FF4803331
:10177000CDE9082302254FF480030821CDE90E535B
:101780004FF4B473CDE9101308A8042313931295F2
:1017900004F084F904F048F90F23CDE903354FF440
:1017A000A0504FF48053CDE90603052103A805940A
:1017B00004F050FB15B030BD00380240007000400E
:1017C0002DE980489BB002F06FFEFFF7ABFF1422BB
:1017D00000210DA823F04BFD0024C94B00941A6B87
:1017E000C84842F010021A631A6B02F0100200920D
:1017F000009A01941A6B42F020021A631A6B02F0ED
:1018000020020192019A02941A6B42F080021A633C
:101810001A6B02F080020292029A03941A6B42F051
:1018200004021A631A6B02F004020392039A0494EE
:101830001A6B42F001021A631A6B02F00102049261
:10184000049A05941A6B42F002021A631A6B02F0B2
:1018500002020592059A06941A6B42F040021A633E
:101860001A6B02F040020692069A07941A6B42F035
:1018700008021A631B6B03F00803224607933C21FE
:10188000079B03F0C9FAA0480122022103F0C4FA21
:1018900022469D48042103F0BFFA22469B484FF49C
:1018A000405103F0B9FA01263C23032595480F94D3
:1018B0000DA90227CDE90D36109503F0C3F9924822
:1018C0000DA9CDE90D76CDE90F4403F0BBF9042352
:1018D0008D480DA9CDE90D36CDE90F4703F0B2F9DA
:1018E0004FF4405389480DA9CDE90D36CDE90F4796
:1018F00003F0A8F9082384480F940DA9CDE90D350C
:1019000003F0A0F90DA9202381480F94CDE90D35EE
:1019100003F098F97F48804B804D036003F088F80E
:101920007F48804B2C62C5E900034FF48043284672
:10193000C5E90434C5E90244C5E9064403F07AFC6C
:101940001021284603F0BEFE2146284603F0D9FEAA
:10195000754DDFF8ECC1AC624FF48273C5E900C38A
:101960004FF4007E1823C5E906E328460A23C5E99B
:101970000244C5E90444C5E90844EB6204F07AFD79
:101980008F232246394660488DF824308DF8344044
:1019900003F042FA32464FF47A7309A9284604F05C
:1019A000C5FD4FF47A7332460DA9284604F06AFF4C
:1019B0003246394654485D4D03F02EFA9DF83430D6
:1019C000D32B04BF5A4B1E705A4B0126C5E9003673
:1019D0004FF0100840230024C5E904834FF4C0737E
:1019E000C5E906344FF40063C5E908344FF40053E9
:1019F0004FF0020A4FF004094FF0030BAB620DA940
:101A000007232846CDE90DA3CDE90F930827C5E9A3
:101A10000249CDE911BACDF84CA004F00FFC4FF605
:101A2000FF7209A92846CDE90A76089409960C9414
:101A300004F024FC304602F063FD4FF6FF7209A962
:101A40002846CDE909A7CDE90B6404F017FC4FF651
:101A5000FF7209A92846CDE909B7CDE90B9404F036
:101A60000DFC4FF40C730893089B0C934FF6FF7218
:101A700009A92846CDE909970B9604F0FFFB40F22F
:101A80006A51284604F018FC342221460DEB02006E
:101A900023F0EDFB284D294B2C61C5E900340923C7
:101AA000C5E905361D23C5E9073B40F20D1240F29A
:101AB0004313C5E9092340F2171140F247132846A2
:101AC000C5E90B13C5E90244AC8685F8364003F03E
:101AD000ABFEFF21F022CDE912144FF005094FF4BF
:101AE00080614FF4A073CDE90E24CDE91419CDE93E
:101AF00016420DA922462846CDE9103A22E000BF41
:101B0000003802400010024000080240000C024071
:101B100000000240B82800200030024024280020A5
:101B2000005C0040A086010024270020F026002051
:101B3000E4260020400100A07C270020006801402E
:101B400000500140414D18930D94ADF864408DF85C
:101B5000664003F01DFF3E4B2B601B6898472B68C7
:101B60003C4DDB6898473C4B2846C5E90034C5E945
:101B700002A4C5E90A4AC5E90C4402F069FF3146EE
:101B8000284603F01BF8354DDFF800A142462146F8
:101B90000DA823F06CFB324BAC604FF4803B284621
:101BA000C5E9003B2C612C7685F82040EC62C5F835
:101BB00028A0EC60EE6185F830406E6102F0B4FC64
:101BC0000D230DA92846CDE90D36264D0F9402F0C0
:101BD00041FE424621460DA823F049FB224BAC6052
:101BE0002846C5E9003BC5E90AA42C612C7685F896
:101BF0002040EC60EE6185F830406E6102F094FCAC
:101C00000DA92846CDE90D960F9402F023FEFEF7AC
:101C10004FFDFEF74CFD05F0D3F8144A39460A2073
:101C200005F0F0F9124B134A18602146124805F0EE
:101C3000FAF8124B124A18602146124805F0F3F8E0
:101C4000114B186005F0CEF8FEE700BFDC2600203F
:101C5000140000207828002000B00240082900204D
:101C600000200140C028002000210140446F0208EC
:101C7000E0260020806F0208B5160008EC26002040
:101C80005C6F0208BF060008E82600200100000F74
:101C9000704770477FB5094B8DF817201B6802937A
:101CA0000DF117020123009201930A4601460448F0
:101CB00003F068FB07B05DF804FB00BF10000020D4
:101CC000242800207FB500238DF81730084B1B68AF
:101CD00002930A4601230DF1170100910193014679
:101CE000044803F0DFFB9DF8170007B05DF804FB24
:101CF00010000020242800201FB5084C2468009202
:101D0000CDE901340A4601230146054803F0CAFB28
:101D1000003818BF012004B010BD00BF1000002023
:101D20002428002002F0ECBB10B5064C002220460F
:101D3000042103F071F820460122BDE8104004217F
:101D400003F06AB80008024038B50B4D0446012282
:101D50000A484FF4005103F05FF80022042128469E
:101D600003F05AF82046FFF793FC28460122BDE80D
:101D70003840042103F050B800080240000C024033
:101D800038B50B4D044600220A484FF4005103F0C9
:101D900043F800220421284603F03EF82046FFF7CE
:101DA00077FC28460122BDE83840042103F034B80E
:101DB00000080240000C0240F7B5144E144F0546CF
:101DC0000C4630460022042103F026F800224FF48E
:101DD0000051384603F020F82846FFF759FC0D4B18
:101DE0000D481B68224601A904F04CFD384601222B
:101DF0004FF40051019C03F00FF8304601220421FA
:101E000003F00AF8204603B0F0BD00BF000802400E
:101E1000000C02400C0000202427002002F070BBC0
:101E20000268034B9A4201D102F058BB704700BFD1
:101E3000001000407047000082B00E4B002200925C
:101E4000596C41F480415964596C01F4804100910E
:101E500000990192196C41F0805119641B6C03F0D8
:101E600080530193019B0F216FF0010002B002F03B
:101E70009FBD00BF0038024010B514228AB004464E
:101E800000210DEB020023F0F2F92368214A93426E
:101E90001FD1214B2148002101915A6C42F48072DC
:101EA0005A645A6C02F480720192019A02911A6B80
:101EB00042F004021A631B6B03F00403029308212F
:101EC000029B0323CDE9051305A902F0BBFE0AB06E
:101ED00010BD134A9342FAD10F4B124800210391CF
:101EE0005A6C42F400725A645A6C02F40072039203
:101EF000039A04911A6B42F001021A631B6B03F000
:101F000001030493049B20220323CDE9052305A9A3
:101F1000DBE700BF0020014000380240000802401B
:101F200000210140000002400268094B9A4282B041
:101F30000BD100230193074B1A6B42F480521A63B2
:101F40001B6B03F480530193019B02B0704700BFE9
:101F5000003002400038024007B50F4B02689A4239
:101F600016D10022A3F5F0430192196B41F4000150
:101F700019631B6B03F40003019305215A20019B95
:101F800002F016FD5A2003B05DF804EB02F042BDEA
:101F900003B05DF804FB00BF00B002402DE9F04340
:101FA000044689B01422002103A823F060F92268B6
:101FB000244B9A4243D1244C244800250095236B9E
:101FC00043F004032363236B03F004030093009B9B
:101FD0000195236B43F001032363236B03F001039B
:101FE0000193019B4FF012094FF400734FF0010869
:101FF0000327042603A9CDE90339CDE90587079610
:1020000002F020FE4FF480731148079603A9CDE932
:102010000339CDE9058702F015FE0295236C43F4E0
:1020200000032364236C03F400030293029B236ADE
:1020300043F400032362236A23F40003236209B0FC
:10204000BDE8F083005C0040003802400008024018
:1020500000000240F0B599B004461422002107A800
:1020600023F005F930220DEB0200002123F0FFF8E8
:1020700022685E4B9A4240F0B78008230C93C0233D
:102080001093042312930CA84FF40033159303F01C
:10209000A9FF08B1FFF7CEFE554B56480024009427
:1020A0005A6C42F080625A645A6C02F0806200926C
:1020B000009A01941A6B42F020021A631A6B02F024
:1020C00020020192019A02941A6B42F001021A63F3
:1020D0001A6B02F001020292029A03941A6B42F008
:1020E00002021A631A6B02F002020392039A04942A
:1020F0001A6B42F040021A631A6B02F0400204921B
:10210000049A05941A6B42F004021A631A6B02F0E7
:1021100004020592059A06941A6B42F008021A63AB
:102120001B6B03F00803069302250E26069B0B96F5
:102130004FF4806307A9CDE90735CDE9094502F0E1
:1021400081FD41F658032C480B9607A9CDE90735C8
:102150000927CDE9094502F075FD032327480B97B0
:1021600007A9CDE90735CDE9094502F06BFD4FF42C
:10217000706322480B9607A9CDE90735CDE90945DB
:1021800002F060FD4FF40C631D480B9607A9CDE9E2
:102190000735CDE9094502F055FDC02319480B96D6
:1021A00007A9CDE90735CDE9094502F04BFD082324
:1021B00015480B9607A9CDE90735CDE9094502F089
:1021C00041FD4FF4A0530E480B9707A9CDE9073501
:1021D000CDE9094502F036FD58202246052102F0DE
:1021E000E7FB582002F016FC19B0F0BD0068014072
:1021F0000038024000140240000002400004024087
:102200000018024000080240000C024010B50446CD
:1022100088B01422002103A823F029F82268144B67
:102220009A4223D103F56843002101915A6C114869
:1022300042F480125A645A6C02F480120192019A9C
:1022400002911A6B42F020021A631B6B03F0200309
:102250000293029B4FF4607202230321CDE9032312
:102260000523CDE9061303A902F0ECFC08B010BD6C
:1022700000500140001402402DE9F04186B00023D7
:1022800003932B4B1C68002C4FD14FF00108C3F86F
:102290000080284B00949A6B274842EA08029A6310
:1022A0009B6B03EA08030093022703260C25009B7F
:1022B00001A94FF63F03CDE90137CDE9046502F0EE
:1022C000C1FC1E48059501A9CDE90187CDE903466A
:1022D00002F0B8FC48F233131948059501A9CDE97D
:1022E0000137CDE9034602F0ADFC4FF68373154884
:1022F000059501A9CDE90137CDE9034602F0A2FC1D
:102300004CF203731048059501A9CDE90137CDE9D9
:10231000034602F097FC60230C48059501A9CDE91E
:102320000137CDE9034602F08DFC06B0BDE8F0812F
:1023300050290020003802400014024000080240EA
:102340000018024000100240000C0240000402404D
:1023500070B588B000230293204B1A6C42F0100233
:102360001A641B6C03F010030293054601A903A82D
:10237000029B03F019FE069B4BBB03F005FE184EB3
:10238000184B336040F2E733F360174BB0FBF3F3C5
:10239000013B7360304600233361B360B36104F0E6
:1023A0003BFC044680B9304604F010FB044658B9A3
:1023B000362002F02FFB0F2D0DD82246294636205D
:1023C00002F0F6FA094B1D60204608B070BD03F01C
:1023D000DBFD4000D3E70124F6E700BF00380240F0
:1023E000542900200010004040420F007C000020D3
:1023F0007047FEE7FEE7FEE7FEE77047014804F09E
:1024000023BB00BF54290020014803F064BA00BF79
:102410007C270020014802F047BB00BF782800203D
:102420000120704708B522F0C5FF162303604FF066
:10243000FF3008BD08B522F0BDFF16230360FEE79C
:1024400070B50D4614460E46731B9C4201DC2046B7
:1024500070BDAFF3008006F8010BF5E770B50D46CF
:1024600014460E46731B9C4201DC204670BD16F8D4
:10247000010BAFF30080F5E74FF0FF3070474FF4EA
:1024800000534B60002070470120704700207047C8
:102490000A4A116808B5034609B90949116010686C
:1024A000694603448B4206D922F084FF0C23036063
:1024B0004FF0FF3008BD1360FCE700BF9C290020EF
:1024C000F8440120704708B5042910D8DFE801F06E
:1024D0000B03070B0B0001F0EFF9406808BD01F09A
:1024E000EBF98068FAE701F0E7F90068F6E7002009
:1024F000F4E710B50421044621F076FD204610BD16
:1025000000487047B86F02080320704713B50024D5
:1025100051B1036801948DF8034001AA9C680DF144
:102520000303A04702B010BD0846FBE7C08970470F
:10253000008A7047C088704780887047807A00F0B2
:102540007F007047807AC009704700207047000004
:102550009FED010A704700BF00000000704710B5F2
:102560000821044621F040FD204610BD7047704709
:1025700000F598730868496803C37047704770474F
:102580004160704770477047064BC0F84C310023DC
:10259000C0F8503100F5A273C0F84801C0F84031CE
:1025A000704700BF092A0008012303727047704773
:1025B000704738B5054640680368DB6998470446AC
:1025C00004B938BDA188AB89C91A236820461B6BA2
:1025D00009B29847A469F3E710B4C268416854107F
:1025E000034601EB6200D20748BF0A599B685DF8B9
:1025F000044B48BFD35818470346406830B19A6827
:102600001AB9D86800F0010070470120704710B572
:102610000C21044621F0E8FC204610BD10B5102125
:10262000044621F0E1FC204610BD10B510210446FF
:1026300021F0DAFC204610BD10B54FF4AE7104460F
:1026400021F0D2FC204610BD10B50EF053F90368FE
:10265000BDE81040DB6B184710B50EF04BF903686E
:10266000BDE810405B6B184737B50546807A6B7A3A
:102670000130C0B29842A87205D901232B72002301
:10268000AB7203B030BDB5F90C20B5F90E40002196
:1026900010F0DAFBC30707D500284FF6FF73C8BF59
:1026A000012313FA80F000B2AB7AE881041B012BFE
:1026B000A4B206D1174B1B781BB10EF01BF90EF01C
:1026C0001FF9154A00231288ADF80230EB891A442D
:1026D0005B42ADF80430114BADF800201B88ADF81B
:1026E00006300EF007F9036802AA12E906001B6C17
:1026F000984768680368DB6998470546002DC0D095
:10270000A9882B68214428461B6B09B29847AD69FC
:10271000F4E700BFB2370120A8370120AA37012013
:1027200010B50446D0F8400158B10368DB689847FB
:1027300038B1D4F8400103689B6898470023C4F877
:10274000403110BD2DE9F14FD0E9556A0746B06818
:1027500003681B6A9847B0F58E7F05D2484B494AFB
:10276000A321494822F07CFB706803681B6A9847E4
:102770000F2803D8454B434AA421F2E7F0680368C9
:102780001B6A98470F2803D8414B3E4AA521E8E72A
:102790000EF0B0F8DFF8049104300EF0F8F8D9F834
:1027A000000010B10368DB689847D9F8000010B149
:1027B00003681B689847DFF8E880D8F8000010B17C
:1027C00003685B699847D7F83C0110B103685B6800
:1027D0009847D8F8000010B103681B689847D7F8ED
:1027E0003C0110B103689B689847F06803680021BA
:1027F0005B6A9847274B03604FF4A0530381264B35
:102800001B884FF0000B80F80AB05B420446C0F80A
:1028100004B0A0F80EB08381B068036859465B6AC3
:102820009847054601F086FB7068036859465B6A65
:1028300098472946064601F05BFB331DC7F83C610B
:10284000C9F80040C8F80050CAF800302B68C6F834
:1028500008A02846DB68EE639847336830461B685B
:1028600098472146284610F0E9FA236820461B695C
:10287000984723685B69204601B0BDE8F04F1847D0
:10288000F76302088564020870650208B7650208EC
:102890005A6602089C700208A8370120FC37012004
:1028A000F83701202DE9F14FD0E9556A0746B068A5
:1028B00003681B6A984741F2CF13984205D8494BE9
:1028C000494AA321494822F0CBFA706803681B6A81
:1028D00098470F2803D8464B434AA421F2E7F068F3
:1028E00003681B6A98470F2803D8424B3E4AA5212C
:1028F000E8E70DF0FFFFDFF8089104300EF047F82D
:10290000D9F8000010B10368DB689847D9F80000D7
:1029100010B103681B689847DFF8E880D8F800001A
:1029200010B103685B699847D7F83C0110B10368A0
:102930005B689847D8F8000010B103681B68984797
:10294000D7F83C0110B103689B689847F0680368AA
:1029500000215B6A9847284B03604FF4A053038122
:10296000264B1B884FF0000B80F80AB05B420446F0
:10297000C0F804B0A0F80EB08381B068036859466F
:102980005B6A9847054600F0FFFF70680368594688
:102990005B6A98472946064600F0D4FF331DC7F806
:1029A0003C61C9F80040C8F80050CAF800302B68F4
:1029B000C6F808A02846DB68EE63984733683046BF
:1029C0001B6898472146284610F038FA23682046AD
:1029D0001B69984723685B69204601B0BDE8F04F4A
:1029E000184700BFF7630208FD6602087065020819
:1029F000B76502085A6602089C700208A8370120D1
:102A0000FC370120F83701202DE9F14FD0E9556A54
:102A10000746B06803681B6A984741F2CF13984293
:102A200005D8444B444AA321444822F019FA70685F
:102A300003681B6A98470F2803D8414B3E4AA421DC
:102A4000F2E7F06803681B6A98470B2803D83D4BF0
:102A5000394AA521E8E70DF04DFFDFF8F09004308A
:102A60000DF095FFD9F8000010B10368DB689847B6
:102A7000D9F8000010B103681B689847DFF8D080D0
:102A8000D8F8000010B103685B699847D7F83C019B
:102A900010B103685B689847D8F8000010B103686C
:102AA0001B689847D7F83C0110B103689B689847AA
:102AB000F068036800215B6A98474FF0000B224BD7
:102AC000C0F804B0044680F808B00360B06803683A
:102AD00059465B6A9847054600F056FF70680368E0
:102AE00059465B6A98472946064600F02BFF331D7E
:102AF000C7F83C61C9F80040C8F80050CAF8003077
:102B00002B68C6F808A02846DB68EE639847336850
:102B100030461B6898472146284610F08FF92368F5
:102B200020461B69984723685B69204601B0BDE8D1
:102B3000F04F1847F7630208E8670208706502085B
:102B4000B76502085A66020878700208FC3701204F
:102B5000F8370120044B1B6893F858200AB1D86C51
:102B600000B99868704700BFB4370120F8B5174620
:102B700004460E460DF0A8FF124B1C60124B23605A
:102B8000124B0025C4E95135114BC4E9535518685F
:102B9000036801219B68C4E94F55C4E955769847FD
:102BA000284600F03DFEFFF7D5FF19F01AF9FFF7B0
:102BB000D1FF19F091F9FFF7CDFF19F099F92046EF
:102BC000F8BD00BF08380120247002080C7002080C
:102BD000B4370120064BC0F84C310023C0F8503107
:102BE00000F5A273C0F84801C0F84031704700BF3B
:102BF000092A0008064BC0F84C310023C0F85031B8
:102C000000F5A273C0F84801C0F84031704700BF1A
:102C1000A5280008064BC0F84C310023C0F85031FD
:102C200000F5A273C0F84801C0F84031704700BFFA
:102C3000452700087047704770477047704730B5A8
:102C4000036885B06D460181D3F88430014604469F
:102C50002846984795E807003C3484E8070005B00B
:102C600030BD30B5036885B06D464181D3F88430FE
:102C7000014604462846984795E807003C3484E816
:102C8000070005B030BD0022028042808280C280F1
:102C9000704780F83610704770B5036804461B6BA8
:102CA000154698472368294620465B6EBDE870406C
:102CB000184700207047806C704770477047704716
:102CC00003681B6B184710B54C21044621F08CF9A2
:102CD000204610BD10B5034B036004460BF0F8FC12
:102CE000204610BD5071020810B5064B0360044623
:102CF0000BF0EEFC204641F2981121F075F92046C8
:102D000010BD00BF5071020808B50DF0F3FDBDE81D
:102D10000840FFF77FBF08B5FEF7C4FB08BD000001
:102D2000036870B55E6B124B1B6804468DB22BB9FD
:102D3000104B114A6C21114822F092F81049828DF3
:102D40000988914203D80F4B0B4A6D21F3E713F822
:102D500012200D4B1B6853F8220003681B6B984729
:102D6000291A3346204609B2BDE87040184700BF13
:102D70000C380120C0680208026902083D69020897
:102D800010380120846902081438012000224FF015
:102D9000FF31C0E90021826070472DE9F0411D46F6
:102DA0000368BDF918701B6B0446164698472368E4
:102DB000314620465B6B98472368294620469B6B2B
:102DC0009847236839462046DB6BBDE8F041184739
:102DD000094A02604FF4807100228184FF21C0E91A
:102DE0000122C0E90322C0E90522C0E9072280F8D8
:102DF00026108262704700BF107802084FF480717D
:102E000081840E4981624FF6FF7181854FF47F0105
:102E100041630B49016000224FF0FF31C0E90122FC
:102E2000C0E90322C0E90522C0E90722C0E9101267
:102E300002630287C2638264704700BFFC6F0208AE
:102E4000C070020810B4C46BB4EB411F4FEA4112CA
:102E500004D05DF8044BC26309F0C2BD5DF8044BB9
:102E6000704700002DE9F04F044693B0A1460025BD
:102E70000FF038FE964BE56349F8403B04F16C0ACD
:102E8000484604F19808FFF7A3FF5046914FFFF71B
:102E90009FFF404609F084FD04F5847304F58E76A7
:102EA00007F1240B18460B93FEF72AFBC4F80871B0
:102EB000C4F810B13046C4F8145109F071FD04F59E
:102EC000C67318460A93FEF71BFB04F5D073C4F8CB
:102ED0008C71C4F894B11846C4F898510393FFF765
:102EE0008DFF04F5F67318460493FFF787FF04F58A
:102EF0000E731846029309F053FD04F52A73184621
:102F00000993FEF7FDFA04F52F73C4F8A872C4F80C
:102F1000B0B21846C4F8B452059308F08BFE04F51D
:102F2000417318460893FEF7EBFA04F54673C4F8AC
:102F30000473C4F80CB31846C4F81053069308F091
:102F400079FE04F5587318460793FEF7D9FAC4F8CA
:102F50006073C4F868B34FF4616104F562704FF4B4
:102F6000A07BC4F86C530BF0A9FB2A464846F0231B
:102F70002946CDF800B0FFF710FF271D4FF07F4323
:102F80004946A366384606F01BF82A465046F02309
:102F90002946CDF800B0FFF700FF4F4BC4F894303E
:102FA0004FF00A095146384606F00AF840464623D3
:102FB0004FF496725821CDF80090FFF7EEFE474B84
:102FC000C4F8143143F64473A022A4F818310B9BC3
:102FD000C4F8C0301146404609F0F8FDA022404632
:102FE0004FF4026109F0FDFD40464946FFF72AFF14
:102FF0004046012109F000FE4146384605F0E0FF59
:10300000304646234A465521CDF80090FFF7C5FECD
:10301000334BC4F898314FF26103A022A4F89C31DD
:103020000A9BC4F844311146304609F0CFFDA02276
:1030300030464FF4026109F0D4FD30464946FFF7AF
:1030400001FF3046012109F0D7FD3146384605F031
:10305000B7FF1E236E220398009329461423FFF71F
:103060009CFED4F8A0310399D3F88430A4F8D4514D
:103070000CAE4FF0FF383046C4F8D081984796E840
:10308000070004F5EE7A4FF003038AE8070084F89E
:10309000D831D4F8A0310399D3F88430304698471A
:1030A00096E807000F4B1B688AE8070004F55D7A75
:1030B0002BB90D4B0D4A60210D4821F0D1FE0D4B6F
:1030C0001B88012B1AD80C4B084A6121F4E700BF7A
:1030D0005071020888740208613E02FF23EB3EFF34
:1030E0000F0FF2FF0C380120C0680208C269020805
:1030F0003D6902081038012084690208684B0121EB
:10310000186800F0C9FB674A03460521504611F0D4
:1031100013FE654A0398C4F8E8A110A94FF0020A0B
:103120001092ADF844A00AF047F90399384605F02B
:1031300047FF1E21A5220498009114232946FFF77A
:103140002CFED4F8EC310499D3F88430C4F81C82F6
:103150003046A4F82052984796E8070004F50A7311
:1031600083E80700D4F8EC2103934FF003013046C5
:10317000D2F8842084F824120499904796E8070036
:10318000039B83E8070049490B6804F27E36002B55
:103190008FD047490B88032B95D9414B03211868E1
:1031A00000F07AFB3F4A03460521304611F0C4FD8A
:1031B0003D4A0498C4F8346210A904261092ADF870
:1031C00044600AF0F9F80499384605F0F9FE0298CF
:1031D00000962946F0239E22FFF7DFFD099BC4F8E5
:1031E0006032A0220298C4F8B4821146A4F8B882D2
:1031F00009F0ECFCA02202984FF4EB5109F0F1FC2D
:1032000002984946FFF71EFE0298514609F0F4FC69
:103210000299384605F0D4FE0823059800939C22B5
:103220007421FFF7BAFD8023C4E9BA33C4F8F03241
:103230004FF6FF734FF43456A4F81433089B0599E6
:10324000C4F8E4323846C4F8FC52C4F8F452C4F866
:10325000F862C4F8108305F0B3FE142306980093B7
:1032600096226E21FFF799FD6FF0FF03C4F86C33CF
:103270004FF6E073A4F87033079B0699C4F84CB37B
:103280003846C4E9D1BBC4E9D456C4F85853C4F88D
:10329000403305F095FE204613B0BDE8F08F00BF27
:1032A000183801200D6A0208FC6F02080C38012052
:1032B00010380120406A7047806A704770478A88DA
:1032C0000B8810B5D20A4C88C1699BB251F8220014
:1032D00043EA0443184410BD10B50446BAB1107B4C
:1032E00068B1537BD27A1B0203F4E0631A43236A6A
:1032F00003EB82031A888A4202D193F9020010BDBF
:1033000005D8013880B204330028F3D1F7E7002054
:10331000F5E710B52C21044620F066FE204610BDCE
:1033200030B58BB00446BDF860500895BDF85C50D0
:1033300007959DF8505006959DF84C5005959DF8C1
:10334000485004959DF8445003959DF840500295CF
:103350009DF83C500195BDF8385000950FF0D8F815
:10336000064B2360159BE361169B2362199B6362E6
:103370001A9BA36220460BB030BD00BF8C710208BF
:1033800070477047704730B4C268446855100346B0
:1033900004EB6200D20748BF62599B6830BC48BF4B
:1033A000D35818470346406830B19A681AB9D868AC
:1033B00000F0010070470120704710B5102104464D
:1033C00020F012FE204610BD10B54FF48E71044659
:1033D00020F00AFE204610BDC430884208B505D151
:1033E0000DF088FABDE80840FFF704BC08BD70B5D1
:1033F000036804461B6B15469847236829462046F8
:103400005B6BBDE870401847F8B5194B018F1B88FE
:103410008B4206462AD9174B1B682BB9164B174A05
:1034200017486C2121F01CFD13F81120154B1B6867
:1034300053F82250144B186800F02EFA2B680746F8
:103440009B6B284698472B6804469B6C3946284658
:1034500098472B6814FB00F45B6A39462846984766
:10346000A4B223181BB2A6F84630F8BD0023FAE731
:10347000103801200C380120C068020802690208D7
:103480003D69020814380120183801202DE9F04F59
:10349000044685B0A04600250FF024FB404BE563B1
:1034A00048F8403B04F16C0A4046FFF791FC04F1F8
:1034B00098075046FFF78CFC04F1C4064FF6FF73E3
:1034C00003A93846ADF80C3009F0A2FC30460AF0EA
:1034D00039FA344BC4E94334334B4FF4A07BC4E98D
:1034E00045352A4629464046CDF800B0F023FFF77F
:1034F00054FC04F104094FF07F43A366414648465B
:1035000005F05EFD2A4629465046CDF800B0F0236E
:10351000FFF743FC254BC4F894305146484605F06C
:103520004FFD022303A93846ADF80C300AF0D3F85A
:103530004FF483736FF0250200932946F023384639
:10354000FFF72BFC2946384609F01DFC3946484652
:1035500005F036FD29463046F122FFF748FF0123EA
:1035600003AA02A93046ADF80C30ADF8085009F0B6
:1035700080FF3046A4F8FC50FFF746FF0C4A4FF09E
:10358000FF33C4E9402304F586734846C4F8EC30A1
:10359000314605F015FD204605B0BDE8F08F00BFAF
:1035A0000C720208F4710208D93300080B0B4CFFAF
:1035B000B205AAFF7047000030B5174D2C6814F013
:1035C00001048FB0BFF35B8F23D1284620F00EFD9E
:1035D000F8B13F230993114B0893114B0793022332
:1035E000CDE9053301220423CDE9033228230D4917
:1035F00000930A223123CDE90B44CDE901440A4866
:103600000A94FFF78DFE094821F048FC284620F077
:10361000F9FC05480FB030BDA029002078910208C0
:10362000A091020840900208A4290020B5350008A6
:103630007047000030B5164D2C6814F001048FB0AF
:10364000BFF35B8F20D1284620F0D0FCE0B13F23B0
:103650000993104B0893104B104911480A9401220A
:10366000CDE906430423CDE903320A230093CDE9D3
:103670000B44CDE901440594FFF752FE094821F0BF
:103680000DFC284620F0BEFC05480FB030BD00BF41
:10369000D029002098910208A4910208CC90020839
:1036A000D4290020313600087047000030B5164D8F
:1036B0002C6814F001048FB0BFF35B8F21D1284632
:1036C00020F094FCE8B13F230993104B0893104B72
:1036D000104911480A94CDE9064301220423CDE99B
:1036E0000332142300930B22CDE90B44CDE90144AE
:1036F0000594FFF715FE094821F0D0FB284620F07D
:1037000081FC05480FB030BD002A00209C910208C2
:10371000A8910208DC900208042A0020A9360008BB
:1037200000207047002070470EB403B503AB0021A2
:1037300053F8042B01930EF08DF902B05DF804EB01
:1037400003B070470CB407B504AB53F8042B0193D6
:103750000EF080F903B05DF804EB02B07047000092
:1037600010B504460FF018FCE38E04EB43035884B5
:10377000636C5BB3238F2BB9174B184AC5211848CC
:1037800021F06EFB10B3204610F02DFD238F012B8E
:1037900003D8144B144ACB21F1E7E28E531C9BB2A1
:1037A000092B194688BFA3F10A0104EB410140F639
:1037B0003F10498C814209D10A2B04EB420228BFF9
:1037C000002304EB4303508C588451842046BDE809
:1037D000104010F00BBC00BF106A0208196A020802
:1037E000C46A02080E6B02081C6B020810B504467E
:1037F00010F0C3FB2046BDE810400FF0C8BB10B569
:1038000086B002AC84E806001A460AAB0593019321
:10381000099B00932146089B0CF0D6FB06B010BD17
:1038200038B518BB124B13481C681349B4B1226851
:1038300022440260626822440A60A26814440F4B6A
:1038400000221A8000F038F8054600F033F80C4BDF
:103850001C600C4B1D600C4B188007E00B4B036089
:103860000B4B0B600B4B1C68002CE8D138BD00BF24
:103870003C2A0020342A0020302A0020382A002048
:103880000C3801201438012010380120C0910208A2
:10389000AC910208E0910208044B1B6853F8210028
:1038A000034B1B6803EB4000704700BF302A002029
:1038B000342A00200520704700487047402A002025
:1038C00010B5FFF7F3FE044C2060FFF775FE606053
:1038D000FFF7B0FEA06010BD402A002010B5002404
:1038E00004600C6014601C6010BD704710B54FF48C
:1038F000AE71044620F078FB204610BD10B504469A
:10390000D0F8580100F0E5FA2046BDE810400DF06F
:103910009BB8000010B50446FFF728F9014B23605F
:10392000204610BD40720208704704387047704747
:1039300010B51021044620F057FB204610BDA0F121
:103940000400F5E700228260024A026018324260F9
:10395000C1607047947202087047000010B5034BB5
:1039600003600446FFF7B6F9204610BDBC7202089A
:1039700010B50446FFF7F2FF204641F2D01120F0C7
:1039800033FB204610BD0000F8B50546FFF76AFA84
:103990000B4B2B600B4B0FCB05F58054012704F527
:1039A000DE7684F8B87186E80F000023C4E96A3334
:1039B000C4F8CC7184F8B031C4F8B4312846F8BDED
:1039C000BC720208B45E0208FFF779B970B500F561
:1039D000805401262DED028B84F8B061054603F07A
:1039E0001BFA1E4BC4F898311D4BC4F89C31D4F817
:1039F000CC31C4F8B401B34222D194ED708A0226CE
:103A0000C4F8CC61B0EE480A20F036FB30EE000A74
:103A100005F5467584ED680AB0EE480A20F070FBA3
:103A200030EE000A284684ED690A96226E21FDF7E1
:103A30008CFCBDEC028B2846BDE8704008F0ECBD64
:103A4000022B1BBF03F26E4305EB830394ED718AD7
:103A500093ED018A08BF0326D2E700BF0000DC42D5
:103A60000000164310B500F580530446D3F8A83182
:103A7000054A052100F55D7011F05EF904F5D0707E
:103A8000BDE810400EF0EDB8EE6B020810B500F581
:103A900080530446D3F8AC31054A052100F27E304C
:103AA00011F04AF904F5F670BDE810400EF0D9B8EF
:103AB000EE6B02082DE9F04F00F5805489B094F8C0
:103AC000B831054623B1FFF781FF002384F8B831F0
:103AD00094F8B03123B303F09FF9D4F8B431C01A8D
:103AE000B0F57A7FC0F0A58194ED677AD4ED667A5F
:103AF000BDEEC77A0023FDEEE77A84F8B03117EE09
:103B0000103A1AB217EE903A05F54675284619B2E2
:103B1000FDF71BFC284609B0BDE8F04F08F07CBD5E
:103B2000B5F91E3394ED687AB5F92071D4ED695A70
:103B3000B5F922B1B5F99C60B5F99EA006EE903AB0
:103B4000B5F91C3307EE903AF8EEE77A06EE107AF4
:103B500077EE877AB3EE045AF8EEE66A77EE854A96
:103B6000B8EEC66A76EEA56AF4EEC64AF1EE10FA31
:103B7000C4ED667AC4ED676A24DB07F1460306EEFE
:103B8000103AB8EEC66AF4EEC67AF1EE10FA19D819
:103B900006EE10BAB8EEC66AF4EEC66AF1EE10FA96
:103BA00010DB0BF10A0306EE103AB8EEC66AF4EE2B
:103BB000C66AF1EE10FA9EBFF1EE655AC4ED695A7D
:103BC00084ED676A06EE906AF8EEE66AF4EEE64A7D
:103BD000F1EE10FA30DB06F1460306EE903AF8EE0D
:103BE000E66AF4EEE67AF1EE10FA25D8D4ED676ACB
:103BF00006EE10AA76EE856AB8EEC66AF4EEC66ADC
:103C0000F1EE10FA18DB0AF10A0306EE103AB8EEEC
:103C1000C66AF4EEC66AF1EE10FA0DD8D4ED696A00
:103C2000AAF11403F1EE666AC4ED696A06EE903AF1
:103C3000F8EEE66AC4ED676AF5EEC07AF1EE10FAC6
:103C40004FF0000328D8C4F89831B1EE477A84EDDC
:103C5000687AD4ED677AF5EEC07AF1EE10FA00F2E8
:103C6000EB80D4ED697AC4F89C31D4F8AC31F1EE34
:103C7000677A0133C4F8AC31C4ED697A2846FFF79E
:103C800005FFD4F8AC31092B11DD0CF033FE09B07F
:103C9000BDE8F04FFEF7BEBFDFED837AF4EEE74AF2
:103CA000F1EE10FAD5DB814AC4F89821CDE7284619
:103CB000FFF78CFE94ED677AD4ED667ABDEEC77A95
:103CC000FDEEE77A17EE103A1AB217EE903A05F5C4
:103CD000467019B2FDF739FB7548002300681A4693
:103CE00002A903F0FBF9002840F0A380BDF80830DA
:103CF0009FED706ADFED706AA3F5006307EE903AFE
:103D0000F8EEE77A67EE867AF4EEE67AF1EE10FAEC
:103D100040F3B08077EEE67AB0EE087A27EE877A45
:103D2000BDF80C30A3F5006307EE903AF8EEE77AA1
:103D300067EE867AF4EEE67AF1EE10FA40F3A780A9
:103D400077EEE67AF0EE086A67EEA67ABDEEC77AFD
:103D5000FDEEE77A17EE101A17EE904A3944344414
:103D6000AA29A8BFAA21AA2C21EAE171A8BFAA24E6
:103D700024EAE4748F42B946A8BF8946A642B046F9
:103D8000A8BFA0468F42B8BF01F14607A9F10209BA
:103D9000A8BF4637A642A8F10208A7EB0907B4BF9F
:103DA00004F146064636043729EAE979A6EB080607
:103DB000043609EB070328EAE878F02B08EB060342
:103DC000C8BFC9F1F007F02B4FF00A035A4605F5BA
:103DD0008E70009309B24FF04603C8BFC8F1F006D9
:103DE000FEF7DBFF0A23524605F19800009321B24B
:103DF00046230435FEF7D1FFABF1020B0E2304A9D5
:103E00002846AAF1020AADF81090ADF812B0ADF84C
:103E10001470ADF81630ADF81880ADF81AA0ADF8F2
:103E20001C60ADF81E300DF06DFF06A928460DF0A0
:103E300069FF09B0BDE8F08F77EE857A9FED1F7AB4
:103E4000F4EEC77AF1EE10FAFFF634AF1C4BD4ED66
:103E5000697AC4F89C31D4F8A831F1EE677A01335D
:103E6000C4F8A831C4ED697A2846FFF7FBFDD4F801
:103E7000A83108E79FED137AF4EEC77AF1EE10FA55
:103E800002D577EEA67A47E79FED0F7A48E79FEDD8
:103E90000D6AF4EEC67AF1EE10FA02D577EEA67A44
:103EA00050E7DFED097A51E70000704300005C4302
:103EB000E02600200000003A0000C83D0000A043BA
:103EC000000096430000C8BD000000000022026010
:103ED00070477047704704387047704710B510211D
:103EE000044620F081F8204610BDA0F10400F5E75B
:103EF00000228260024A026018324260C16070474C
:103F0000F87202087047000010B5034B03600446C6
:103F1000FFF737FA204610BD2073020810B504469B
:103F2000FFF7F2FF20464FF48E7120F05DF8204637
:103F300010BD000010B50446FFF7A8FA014B23603E
:103F4000204610BD20730208FFF71CBAF02070470E
:103F50004FF4A07070472920FDF712BF2820FDF70D
:103F60000FBF08B5FDF7E0FECA20FDF709FFC3202B
:103F7000FDF7EAFE0820FDF7E7FE5020FDF7E4FE1E
:103F8000CF20FDF7FDFE0020FDF7DEFEC120FDF78E
:103F9000DBFE3020FDF7D8FEED20FDF7F1FE6420BA
:103FA000FDF7D2FE0320FDF7CFFE1220FDF7CCFE79
:103FB0008120FDF7C9FEE820FDF7E2FE8520FDF730
:103FC000C3FE0020FDF7C0FE7820FDF7BDFECB202C
:103FD000FDF7D6FE3920FDF7B7FE2C20FDF7B4FE25
:103FE0000020FDF7B1FE3420FDF7AEFE0220FDF704
:103FF000ABFEF720FDF7C4FE2020FDF7A5FEEA206A
:10400000FDF7BEFE0020FDF79FFE0020FDF79CFEA1
:10401000B120FDF7B5FE0020FDF796FE1B20FDF751
:1040200093FEB620FDF7ACFE0A20FDF78DFEA22020
:10403000FDF78AFEC020FDF7A3FE1020FDF784FEE9
:10404000C120FDF79DFE1020FDF77EFEC520FDF787
:1040500097FE4520FDF778FE1520FDF775FEC72079
:10406000FDF78EFE9020FDF76FFE3620FDF788FEEF
:10407000C820FDF769FEF220FDF782FE0020FDF763
:1040800063FEB020FDF77CFEC220FDF75DFEB6208A
:10409000FDF776FE0A20FDF757FEA720FDF754FE38
:1040A0002720FDF751FE0420FDF74EFE2A20FDF7E4
:1040B00067FE0020FDF748FE0020FDF745FE0020CA
:1040C000FDF742FEEF20FDF73FFE2B20FDF758FEE7
:1040D0000020FDF739FE0020FDF736FE0120FDF738
:1040E00033FE3F20FDF730FEF620FDF749FE0120AC
:1040F000FDF72AFE0020FDF727FE0620FDF724FE2F
:104100002C20FDF73DFEC820FDF788FE2620FDF798
:1041100037FE0120FDF718FEE020FDF731FE0F20ED
:10412000FDF712FE2920FDF70FFE2420FDF70CFEFF
:104130000C20FDF709FE0E20FDF706FE0920FDF715
:1041400003FE4E20FDF700FE7820FDF7FDFD3C202C
:10415000FDF7FAFD0920FDF7F7FD1320FDF7F4FD4B
:104160000520FDF7F1FD1720FDF7EEFD1120FDF70D
:10417000EBFD0020FDF7E8FDE120FDF701FE00204A
:10418000FDF7E2FD1620FDF7DFFD1B20FDF7DCFD4E
:104190000420FDF7D9FD1120FDF7D6FD0720FDF71E
:1041A000D3FD3120FDF7D0FD3320FDF7CDFD4220BA
:1041B000FDF7CAFD0520FDF7C7FD0C20FDF7C4FD86
:1041C0000A20FDF7C1FD2820FDF7BEFD2F20FDF7D9
:1041D000BBFD0F20FDF7B8FD1120FDF7D1FDC82074
:1041E000FDF71CFE2920FDF7CBFDBDE808402C2083
:1041F000FDF7C6BD08B5FDF797FD0321D320FDF7F8
:10420000DBFD80B208BD10B5C4B2022203212046F6
:10421000FDF740FD0A20FDF785FD20460022032121
:10422000FDF738FDBDE810400220FDF77BBD38B535
:104230000446E4B2FDF72CFD00212046FDF742FDC7
:10424000012105462046FDF73DFD40EA052080B2EC
:1042500038BD10B5C4B240212046FDF733FD03063A
:1042600007D54C212046FDF72DFD003818BF012051
:1042700010BD01224B212046FDF70CFD20460022F7
:104280004B21FDF707FD0020F2E773B50423C4B20C
:104290000E461546D7210DEB03022046FDF72CFDF7
:1042A000019B1BBA1A0DC3F30B23328020462B80CF
:1042B00001224B21FDF7EEFC00224B212046FDF7A9
:1042C000E9FC02B070BD000010B50A4A13789842AC
:1042D00004460DD0517888420AD00BB141B9012370
:1042E000D454FDF7D5FC2046BDE81040FFF78BBF46
:1042F00010BD00BF4C2A002010B5C4B209212046D1
:10430000FDF7E0FC40F00102D2B220460921BDE8F1
:104310001040FDF7BFBC10B5C4B209212046FDF71F
:10432000D1FC092100F0FE022046BDE81040FDF757
:10433000B1BC38B5C4B20D4620460A21FDF7C2FC17
:1043400040EA0502D2B220460A21BDE83840FDF716
:10435000A1BC10B50446FDF79CFC20461F21FFF7C9
:10436000E8FF2046BDE81040FFF7C6BF38B5C4B22D
:104370000D4620460A21FDF7A5FC20EA0502D2B22F
:1043800020460A21BDE83840FDF784BC10B504463C
:10439000FFF7C1FF20461F21BDE81040FFF7E6BF31
:1043A00010B5C0B20C460B21FDF78CFC204010BDAF
:1043B0001F21FFF7F5BF0A46C0B20B21FDF76ABC0B
:1043C0001F21FFF7F8BF38B5C4B20D4620461721AC
:1043D000FDF778FC20EA0502D2B220461721BDE89D
:1043E0003840FDF757BC70B5C4B2064604212046DC
:1043F000FDF768FC042100F0FB0205462046FDF7AE
:1044000049FC3046F021FFF7DEFF05F0F8022046B8
:104410000421FDF73FFC492220212046FDF73AFC0C
:104420000220FDF77FFC204601222121FDF732FC0E
:1044300020469A224121FDF72DFC204601224A21E7
:10444000FDF728FC204601224B21FDF723FC2046E6
:1044500000224B21FDF71EFC204601225621FDF7CC
:1044600019FC204601225821FDF714FC20460122A8
:104470004021FDF70FFC2046FF220B21FDF70AFC2F
:10448000BDE870400220FDF74DBC0000054BD3F89D
:10449000882042F47002C3F888204FF000629A60CE
:1044A000704700BF00ED00E008B50B4B1A6842F4FE
:1044B00000721A601A6842F480621A601A6842F444
:1044C00080721A60032000F061FA0020FDF740FFBF
:1044D000FDF7B2FC002008BD003C0240034A044B3B
:1044E00011681B780B441360704700BF502A0020EE
:1044F00078000020014B1868704700BF502A002048
:1045000038B50446FFF7F6FF631C1CBF054B1B784C
:10451000054618BFE418FFF7EDFF431BA342FAD38B
:1045200038BD00BF7800002038B50446002800F0F0
:104530009B80056C25B9FDF79FFC656484F83C50B1
:10454000236CDB0600F18E80236C23F4885323F068
:10455000020343F002032364444B5A6822F44032BE
:104560005A605A6861680A435A60236821695A6828
:1045700022F480725A605A6842EA01225A605A68EC
:10458000A16822F040725A605A680A435A609A68D9
:10459000E16822F400629A609A680A439A6034499A
:1045A000A26A8A4252D0996821F070619960996834
:1045B0000A439A609A68E16A22F040529A609A68C7
:1045C0000A439A609A6822F002029A609A68217EF1
:1045D00042EA41029A6094F82020002A3ED05A68AC
:1045E000616A42F400625A605A6822F460425A607A
:1045F0005A68013942EA41325A60DA6AE16922F4C2
:104600007002DA62DA6A013942EA0152DA629A68C1
:1046100022F400729A609A6894F8301042EA4122BB
:104620009A609A68616922F480629A609A680020B0
:1046300042EA81229A606064236C23F0030343F012
:1046400001032364002384F83C3038BD9A6822F0CB
:1046500070629A609A6822F04052B2E75A6822F477
:104660000062C9E70120EDE70120EEE700230140E9
:104670000100000F82B00023019390F83C30012B21
:1046800069D0012380F83C3003689A68D2070BD5C3
:104690009A68D1071AD4036C43F010030364436C87
:1046A00043F0010343644CE09A682C4942F0010254
:1046B0009A602B4A1268B2FBF1F202EB42020192BD
:1046C000019A002AE4D0019A013AF8E7026C22F438
:1046D000E06222F0010242F4807202645A685205DC
:1046E00041BF026C22F4405242F480520264026CD8
:1046F00012F480521CBF426C22F006024264002277
:1047000080F83C206FF022021A60164A516811F0BE
:104710001F0F15491CD18B4207D001F580718B42C8
:104720000CD1526812F01F0F0BD19A6812F0405F43
:1047300007D19A6842F080429A6002E00B498B42AE
:1047400002D0002002B07047526812F0100FEBE761
:104750008B42F6D1E9E70220F4E700BF40420F00A8
:10476000740000200023014000200140002201408D
:1047700090F83C30012B14D003689A6822F00102B3
:104780009A609B68DB0707D4036C23F4885323F0FB
:10479000010343F001030364002380F83C30184612
:1047A00070470220704703689A68520570B5044646
:1047B0000D460BD59B68DE0508D5036C43F020033E
:1047C0000364002380F83C30012070BDFFF792FEA7
:1047D000064623681A6891070CD56FF012021A601A
:1047E000226C42F4007222649A6812F0405F17D083
:1047F0000020EAE7681CEDD065B923681B6813F058
:104800000203E6D1226C84F83C3042F004022264B8
:104810000320DAE7FFF76EFE801BA842EDD8D8E749
:10482000227E002AE4D1DA6A12F4700F02D09B686B
:104830005A05DDD4236C23F480732364236CDB04DA
:10484000D6D4236C43F001032364D1E70368D86C0A
:1048500070470000F7B50023019390F83C30012B1E
:10486000054600F08680012380F83C3008682B68FC
:104870008E68092884B233D904EB4402DF681E3AFB
:104880004FF0070C0CFA02FC27EA0C07DF60DF6828
:1048900006FA02F23A43DA604968062901EB81021E
:1048A0002DD8596B053A1F26964021EA0601596317
:1048B000596B04FA02F20A435A632F4A93420AD10F
:1048C000122837D12D4B5A6822F400025A605A68D8
:1048D00042F480025A60002085F83C0003B0F0BD2D
:1048E0001A6900EB400C072707FA0CF722EA0702C7
:1048F0001A611A6906FA0CF616431E61CCE70C29F8
:104900004FF01F010BD81E6B233A914026EA01019C
:104910001963196B04FA02F20A431A63CDE7DE6ADF
:10492000413A914026EA0101D962D96A94400C4388
:10493000DC62C2E7124B984201D01128CBD10F4B59
:104940005A6822F480025A605A6842F400025A609F
:104950000B4B9842BFD10B4B0B4A1B68B3FBF2F3D6
:104960000A2253430193019B002BB4D0019B013BCE
:10497000F8E70220B2E700BF002001400023014019
:10498000120000107400002040420F000749CA685E
:1049900022F4E0620302120403F4E063120C1343F6
:1049A00043F0BF6343F40033CB60704700ED00E099
:1049B000164B30B5DC68C4F30224C4F10703251D8F
:1049C000042B28BF0423062D4FF0FF358CBF033C7A
:1049D000002405FA03F321EA0303A54022EA0502B5
:1049E000A340002843EA0203ACBF00F16040084A3C
:1049F0004FEA0313B8BF00F00F00DBB2AABF00F507
:104A00006140135480F8003330BD00BF00ED00E07A
:104A100014ED00E0002807DB044A4109012300F0FF
:104A20001F00834042F82130704700BF00E100E0E2
:104A300010B5044650B1437903F0FF0213B9027177
:104A4000FDF772FA01236371002010BD0120FCE71D
:104A500010B5044620B390F8393003F0FF021BB9BB
:104A600080F83820FDF778FA022384F8393023687B
:104A700061681A6822F440320A431A605A6BA168CE
:104A800022F007020A435A631A6CE1686FF30D02C1
:104A90000A431A6400200123E06384F8393010BD12
:104AA0000120FCE770477047036870B55E681D68B9
:104AB000F207044614D5E90512D51A6822F480726B
:104AC0001A60C26B42F00102C26301229A600423A1
:104AD00080F83930002380F83830436903B19847B3
:104AE000B20616D5AB0414D523681A6822F4005216
:104AF0001A6020229A60E36B43F00203E36304230D
:104B000084F83930002384F8383063690BB12046CB
:104B10009847300716D5290514D523681A6822F45A
:104B200000621A6008229A60E36B43F00403E363B7
:104B3000042384F83930002384F8383063690BB1DA
:104B40002046984772070BD56B0509D523681A686C
:104B500022F480621A6004229A602046FFF7A2FFC6
:104B6000B00714D5A90512D523681A6822F400727B
:104B70001A6002229A60E36BE363012384F8393000
:104B8000002384F8383023690BB120469847F20699
:104B900013D5EB0411D523681A6822F480521A60E9
:104BA00010229A60E36BE363012384F83930002319
:104BB00084F838302046FFF776FF70BDF0B590F8E6
:104BC0003820012A03464FF002002BD0012283F83F
:104BD000382083F8390003EB0112D2E90740556A07
:104BE000174F44EA0040093C012C9CBF05F07F426E
:104BF00010434FEA01161A6888BF40EA056091B970
:104C0000516A394001435162012C9969916103D87D
:104C1000596A21F07F4191620122002083F83920F6
:104C200083F83800F0BDD16939400143D161991949
:104C3000012C896911619CBF25F07F451562EBE766
:104C4000F0FFFC002DE9F74FDFF8BC916C4A002320
:104C50000D6801249C4004EA0506AC4340F0B7808F
:104C60004D68032705F003044FEA430807FA08FCE0
:104C7000671E012F6FEA0C0C34D8876807EA0C0E08
:104C8000CF6807FA08F747EA0E078760476827EA00
:104C9000060EC5F300179F4047EA0E074760C76836
:104CA00007EA0C0E8F6807FA08F747EA0E07022C8E
:104CB000C76019D14FEAD30A00EB8A0A03F0070B49
:104CC000DAF820704FEA8B0B4FF00F0E0EFA0BFE46
:104CD00027EA0E0E0F6907FA0BF747EA0E07CAF824
:104CE000207001E0032CDAD1076804FA08F407EA1F
:104CF0000C073C4315F4403F046068D00024019445
:104D0000D9F8444044F48044C9F84440D9F84440B8
:104D100023F0030707F1804704F4804407F59C372C
:104D2000019403F0030C019CD7F808E04FEA8C0CC7
:104D30000F2404FA0CF42EEA040E324CA0424DD09B
:104D400004F58064A0424BD004F58064A04249D0B1
:104D500004F58064A04247D004F58064A04245D0A9
:104D600004F58064A04243D004F58064A04241D0A1
:104D700004F58064A0423FD004F58064A0423DD099
:104D800004F58064A04214BF0A24092404FA0CF438
:104D900044EA0E04BC609468F74315F4801F0CBF0E
:104DA0003C4034439460D46815F4001F0CBF3C4071
:104DB0003443D460546815F4003F0CBF3C40344386
:104DC00054601468ED0354BF3C4034431460013315
:104DD000102B7FF43DAF03B0BDE8F08F0024D5E782
:104DE0000124D3E70224D1E70324CFE70424CDE74D
:104DF0000524CBE70624C9E70724C7E70824C5E74D
:104E0000003C0140000002400038024003691942A2
:104E100014BF0120002070470AB181617047090466
:104E2000FBE7436901EA030221EA030141EA024187
:104E30008161704701684B6913F480634FF0000291
:104E400010D06FF480634B612023026380F83D3003
:104E500080F83E20036C80F83C2043F00403036498
:104E600001207047184670472DE9F84606460F4660
:104E700091461D464FEA114A3368BAF1010F0CBF43
:104E80005C699C6927EA0404A4B2B4FA84F4640956
:104E9000A14501D0002025E06A1CEED0FFF72AFBD7
:104EA000089BC01AA84201D8002DE5D13368BAF199
:104EB000010F0CBF5B699B6927EA03039BB2B3FA3E
:104EC00083F35B099945D7D100232022336386F809
:104ED0003D2086F83E30326C86F83C3042F02002AD
:104EE00032640120BDE8F8862DE9F04104460F4602
:104EF000164698462568686927EA000080B2C0B166
:104F00006B695A0517D52B6843F400732B606FF457
:104F100080636B6120220023236384F83D2084F8A2
:104F20003E30236C43F004032364002384F83C30B8
:104F30000120BDE8F081731CDDD0FFF7DBFAA0EBA8
:104F40000800B04201D8002ED4D123685A6927EA5C
:104F5000020292B2002ACDD000232022236384F8DB
:104F60003D2084F83E30236C1343DDE770B50446E2
:104F70000D46164623685B691B0601D500201EE01E
:104F80002046FFF757FFC8B96A1CF3D0FFF7B2FA03
:104F9000801BA84201D8002DECD123685B6913F077
:104FA0008003E7D12022236384F83D2084F83E303B
:104FB000226C84F83C3042F020022264012070BD53
:104FC0002DE9F0431546026885B0DDE90C78994675
:104FD000136843F4807313600E463B46CDF800809F
:104FE00000224FF001110446FFF73EFF236838B15D
:104FF0001B68DB0502D54FF400732364032620E011
:1050000006F0FE061E611A4943463A462046FFF75F
:105010006BFFA8B9236803905A6903929B690393B5
:10502000424639462046039BFFF7A0FF064660B183
:10503000236C042B01BF2268136843F400731360D0
:105040000126304605B0BDE8F083B9F1010F2368B1
:1050500002D1EDB21D61F4E72A0A1A6139464246CF
:105060002046FFF783FF0028E2D12368F1E700BF65
:10507000020001002DE9FF479A46036815461A68A9
:1050800042F480621A601A68DDE90C7842F480729A
:105090001A600E463B46CDF8008000224FF0011109
:1050A0000446FFF7E1FE236838B11B68DB0544BF07
:1050B0004FF400732364032021E05FFA86F906F0C1
:1050C000FE061E612B4943463A462046FFF70CFF79
:1050D000A0B9236803905A6903929B6903934246DF
:1050E00039462046039BFFF741FF58B1236C042B40
:1050F00001BF2268136843F400731360012004B0F9
:10510000BDE8F087BAF1010F23681AD1EDB242462B
:105110001D6139462046FFF729FF02460028E5D1E8
:1051200021680B6843F480730B602046CDF8008043
:105130003B464FF00111FFF797FE226860B11368FC
:10514000B4E72A0A1A61394642462046FFF70EFFA5
:105150000028CBD12368D9E749F001031361054941
:1051600043463A462046FFF7BFFE003818BF0120ED
:10517000C5E700BF0200010070B504460D461646A3
:1051800023685B695B0701D500201EE02046FFF71E
:1051900051FEC8B96A1CF3D0FFF7ACF9801BA842D6
:1051A00001D8002DECD123685B6913F00403E7D12B
:1051B0002022236384F83D2084F83E30226C84F85A
:1051C0003C3042F020022264012070BD70B50446DC
:1051D0000D46164621684B6913F0400301D00020AC
:1051E00011E04A69D2060FD56FF010024A61202201
:1051F000236384F83D2084F83E30236C236400232D
:1052000084F83C30012070BDFFF774F9801BA84280
:1052100001D8002DDED123685B6913F04003D9D19A
:105220002022236384F83D2084F83E30236C13430E
:10523000E4E7000070B5044608B9012070BD90F89D
:105240003D3003F0FF021BB980F83C20FCF7A6FEBE
:10525000242384F83D3023681A6822F001021A6082
:105260001A6842F400421A601A6822F400421A6076
:1052700000F08AFE3F4B65689D4294BF3E4B3F4B1A
:1052800098428CBF00230123002BD6D12268394ECF
:1052900051683B4BB0FBF3F321F03F011943B5429A
:1052A000516088BF4FF49676116A88BF734321F02E
:1052B0003F0184BF4FF47A76B3FBF6F301330B431F
:1052C0001362D169431E2B4821F44F41854221F0DE
:1052D000FF0132D86D0040F6FC70B3FBF5F30133EB
:1052E000034242D0C3F30B031943D161D4E9073021
:1052F0001168034321F0C0010B4313609168D4E9A6
:10530000030321F40341034321F0FF010B439360A6
:10531000D4E90530D168034321F0FF010B43D3608A
:10532000136843F00103136000202023206484F8F5
:105330003D30206384F83E0080E7A06850B905EB5B
:105340004505B3FBF5F30133C3F30B037BB143F422
:105350000043C9E719206843B3FBF0F30133C3F3FB
:105360000B0323B143F44043BEE70423BCE701230E
:10537000BAE700BFA08601007F841E00FF083D0041
:1053800040420F002DE9F743044699460C9E0F4614
:105390009046FFF7AFF894F83D30202B054603D038
:1053A000022003B0BDE8F08300903C49192301229C
:1053B0002046FFF759FD0028F2D194F83C30012B2C
:1053C000EED02068012384F83C300368D9075EBF23
:1053D000036843F001030360036823F40063036080
:1053E000212384F83D30402384F83E300023236499
:1053F0000A9B6362BDF82C306385638D2385284B3F
:10540000E3624246CDE900654B4639462046FFF748
:10541000D7FD00282AD00120C3E7FFF7A7FD40B140
:10542000236C042B01BF2268136843F400731360DC
:10543000F1E7636A27681A4612F8011B3961626254
:10544000628D218D013A92B262857A69481E80B2DE
:10545000520720850AD548B15A783A61023363620F
:10546000638D013B02399BB221856385238D2A46DA
:1054700031462046002BD0D1FFF77EFE0028CFD149
:105480002268136843F400731360202384F83D30CE
:1054900084F83C0084F83E0083E700BF020010005F
:1054A0000000FFFF2DE9F043044687B09946109FA6
:1054B0000D469046FFF71EF894F83D30202B064627
:1054C00004D00225284607B0BDE8F08300907A4951
:1054D000192301222046FFF7C7FC0028F1D194F8D8
:1054E0003C30012BEDD02068012384F83C30036868
:1054F000DB075EBF036843F001030360036823F426
:1055000000630360222384F83D30402384F83E305A
:10551000002323640E9B6362BDF83C306385638D7A
:105520002385664BE3622946CDE900764B46424629
:105530002046FFF79FFD054608B10125C2E7228DF1
:105540002368B2B902905A6902929A690292029A49
:105550001A6842F400721A60DFF86481238D002B10
:105560002CD1202284F83D2084F83C3084F83E3051
:10557000A8E7012A0AD11A6822F480621A6003900F
:105580005A6903929A690392039AE1E7022A0ED1BB
:105590001A6822F480621A601A6842F400621A6083
:1055A00004905A6904929B690493049BD4E7059084
:1055B0005A6905929B690593059BCDE7032B56D845
:1055C000012B15D1324639462046FFF7FFFD002852
:1055D000B3D123681A69636A1A70636A013363621C
:1055E000238D013B2385638D013B9BB26385B5E72A
:1055F000022B00963B464FF000024146204619D14F
:10560000FFF732FC002898D123681A6842F4007230
:105610001A601A69636A1A70626A531C6362238D86
:10562000013B2385638D013B9BB2638523681B6926
:105630005370D2E7FFF718FC024600287FF47DAFD5
:105640002368196821F4806119601969636A197007
:10565000636A01336362238D013B2385638D013BC4
:105660009BB26385414600963B462046C8E73246DA
:1056700039462046FFF7AAFD00287FF45EAF236875
:105680001A69636A1A70628D616A013A92B24B1CA0
:10569000628522686362238D5069013B9BB240079B
:1056A00023857FF55BAF032B02BF136823F4806370
:1056B000136013694B7090E7020010000000FFFFB9
:1056C0000400010010B590F83D30202BDCB216D15B
:1056D000242380F83D3003681A6822F001021A6022
:1056E0005A6A22F010025A625A6A114359621A68C1
:1056F00042F001021A6080F83D40002010BD0220F7
:10570000FCE730B590F83D30202BDCB216D10268B2
:10571000242380F83D30136823F001031360556A99
:105720004FF6F0732B400B439BB25362136843F068
:105730000103136080F83D40002030BD0220FCE7EB
:105740000068D20184328318F0B5C7685D684C6880
:105750000E6805F470455D60C56806F1010CC5F37F
:105760000B45C7F30B472744654445EA07455D6091
:10577000C768CD68C7F30A072F449D6805F47045D4
:105780009D60D0F80CC08D68CCF30A0C01356544DF
:1057900045EA07459D601D69D1F810C08F6925F065
:1057A00007051D61C3F810C091F8305045EA076540
:1057B00091F8317045EA072591F8327045EA0745BE
:1057C0009D615D6925F0FF055D614D695D61DD6984
:1057D00025F4E06525F00705DD61D1E907573D4374
:1057E000DD61BCF1070F4D6A9D629CBF0D4D15F840
:1057F0000C70DD6A05F0E025DD6288BF01278D6A47
:10580000C96AA41B7C437D43033444EA0544DC623B
:105810001C6B6FF30A041C631963835843F0010384
:105820008350F0BD6473020838B5044600284ED09A
:1058300090F8A13003F0FF021BB980F8A020FCF71C
:1058400009FC022384F8A13023689A6922F070428F
:105850009A61D4E901200243E06899690243206912
:1058600002430A439A61D4E9051242EA01429A606E
:10587000D4E9071242EA0142DA60D4E9091242EAA5
:1058800001421A61D4E90B1242EA01425A61DA6A12
:1058900094F8350094F8361002F07F42DA62DD6A3F
:1058A00094F834202A4342EA002242EA0142DA62B2
:1058B0005A6B42F006025A639A6942F001029A61F9
:1058C00000200123C4F8A40084F8A13038BD0120D1
:1058D000FCE770477047036870B59E6B5D6B72079D
:1058E000044614D5690712D55A6B22F004025A6394
:1058F0000422DA63D0F8A43043F00103C0F8A430E6
:10590000002380F8A12080F8A030FFF7E2FFB20763
:1059100016D5AB0714D523685A6B22F002025A63DE
:105920000222DA63D4F8A4301343C4F8A430042369
:1059300084F8A130002384F8A0302046FFF7C9FF87
:10594000F00710D5E9070ED523685A6B22F0010243
:105950005A630122DA63002384F8A12084F8A0307E
:105960002046FBF75BFE320711D52B070FD52368C6
:105970005A6B22F008025A630822DA63012384F882
:10598000A130002384F8A0302046FFF7A3FF70BDAC
:105990002DE9F04190F8A030012B06460F469446C1
:1059A0004FF002001FD04FF0010886F8A08086F863
:1059B000A10034240D4604FB02640FCD38340FC41B
:1059C0000FCD0FC40FCD0FC42B6823603046624645
:1059D0003946FFF7B5FE33680020C3F8248086F807
:1059E000A18086F8A000BDE8F081000090F8A0201A
:1059F000012A03464FF0020012D01A6883F8A10072
:105A0000506B20F00100506306480164516B41F077
:105A1000010151630020012283F8A12083F8A00036
:105A2000704700BF0068014037B500230193184B51
:105A3000184D1A6C42F080521A641B6C03F08053AC
:105A40000193019B144B01221A64FEF753FD044697
:105A50006B68DA030BD5104B0E4D01225A64FEF72A
:105A600049FD04466B689B030AD5002006E0FEF75B
:105A700041FD001BB0F57A7FEAD9032003B030BDA9
:105A8000FEF738FD001BB0F57A7FEBD9F5E700BFD4
:105A9000003802400070004000000E422DE9F34142
:105AA000044640B30368DE0710D423689D075BD427
:105AB0002368190700F19D8023685A0700F1BD8013
:105AC000A369002B40F0248100202CE08D4B9A68C4
:105AD00002F00C02042A07D09A6802F00C02082A8D
