:020000040800F2
:10000000000003205D060008F5230008F723000820
:10001000F9230008FB230008FD230008000000006E
:1000200000000000000000000000000071810008D6
:10003000FF2300080000000001820008897A000800
:10004000AD060008AD060008AD060008AD060008C4
:10005000AD060008AD060008AD060008AD060008B4
:10006000AD060008AD060008AD060008AD060008A4
:10007000AD060008AD060008AD060008AD06000894
:10008000AD060008AD060008AD060008AD06000884
:10009000AD060008AD060008AD060008AD06000874
:1000A000AD060008AD060008AD060008AD06000864
:1000B000AD060008AD060008AD060008AD06000854
:1000C000AD060008AD060008AD060008AD06000844
:1000D000AD060008AD060008AD060008AD06000834
:1000E000AD060008AD060008AD060008AD06000824
:1000F000AD060008AD060008AD060008AD06000814
:10010000AD060008AD060008AD060008AD06000803
:10011000AD060008AD06000801240008AD06000881
:10012000AD060008AD060008AD060008AD060008E3
:10013000AD060008AD060008AD060008AD060008D3
:10014000AD060008AD060008AD060008AD060008C3
:10015000AD060008AD060008AD060008AD060008B3
:10016000AD060008AD060008AD060008AD060008A3
:10017000AD060008AD060008AD060008000000004E
:10018000AD060008AD060008AD060008AD06000883
:10019000AD060008AD060008AD060008AD06000873
:0C01A0000D240008AD060008192400081A
:1001B00010B5054C237833B9044B13B10448AFF3A1
:1001C00000800123237010BD800300200000000088
:1001D0005475020808B5034B1BB103490348AFF33C
:1001E000008008BD00000000840300205475020850
:1001F00001F0FF01102A2BDB10F0070F08D010F8D8
:10020000013B013A8B422DD010F0070F42B3F6D1DB
:10021000F0B441EA012141EA014122F007047FF0F4
:1002200000070023F0E80256083C85EA010586EA4B
:10023000010685FA47F5A3FA87F586FA47F6A5FA87
:1002400087F68EB9EED1F0BC01F0FF0102F0070293
:1002500032B110F8013B013A83EA010313B1F8D13E
:100260000020704701387047002D06BF354603381F
:10027000073815F0010F07D1013015F4807F02BF58
:10028000013015F4C03F0130F0BC0138704700BFA9
:100290007BB972B90029BEBF00204FF0004106E0D3
:1002A00008BF00281CBF6FF000414FF0FF3000F086
:1002B000D3B9ADF1080C6DE904CE002909DB002BA0
:1002C0001ADB00F04DF8DDF804E0DDE9022304B0AC
:1002D0007047404261EB4101002B1BDB00F040F80E
:1002E000DDF804E0DDE9022304B0404261EB4101A6
:1002F000524263EB43037047524263EB430300F007
:100300002FF8DDF804E0DDE9022304B0404261EBA0
:1003100041017047524263EB430300F021F8DDF8DE
:1003200004E0DDE9022304B0524263EB430370476B
:1003300053B94AB9002908BF00281CBF4FF0FF314C
:100340004FF0FF3000F088B9ADF1080C6DE904CE34
:1003500000F006F8DDF804E0DDE9022304B07047A0
:100360002DE9F047089D8E4604468846002B4AD169
:100370008A42174662D9B2FA82F64EB1C6F120031C
:1003800001FA06F820FA03F3B74043EA0808B4403C
:100390004FEA174E1FFA87FCB8FBFEF1230C0EFB49
:1003A000118843EA084301FB0CF29A4209D9FB1871
:1003B00001F1FF3080F0EA809A4240F2E780023992
:1003C0003B449A1AA3B2B2FBFEF00EFB102243EAA2
:1003D000024300FB0CFC9C4509D9FB1800F1FF32DD
:1003E00080F0D6809C4540F2D3803B44023840EAFE
:1003F0000140A3EB0C0300211DB1F3400022C5E92D
:100400000032BDE8F0878B4205D90DB1C5E9000186
:1004100000210846F5E7B3FA83F1002946D1734578
:1004200002D3824200F20581841A6EEB030201209E
:100430009046002DE5D0C5E90048E2E7002A00F02B
:100440009080B2FA82F6002E40F0A4808A1A030C43
:100450004FEA174E80B2BCB20121B2FBFEFC0EFB8C
:100460001C2243EA024304FB0CF29A4207D9FB1810
:100470000CF1FF3802D29A4200F2E080C4469B1A87
:10048000B3FBFEF20EFB123340EA034302FB04F41B
:100490009C4207D9FB1802F1FF3002D29C4200F2C5
:1004A000CA8002461B1B42EA0C40A5E7C1F12006A8
:1004B0008B4022FA06F71F430EFA01F420FA06F3E6
:1004C0002EFA06FE4FEA1749234300FA01F81FFAF5
:1004D00087FCBEFBF9F01C0C09FB10EE44EA0E444D
:1004E00000FB0CFEA64502FA01F209D93C1900F105
:1004F000FF3A80F09C80A64540F2998002383C4447
:10050000A4EB0E041FFA83FEB4FBF9F309FB1344BA
:100510004EEA044403FB0CFCA44508D93C1903F142
:10052000FF3E80F08280A4457FD9023B3C4443EAF1
:100530000040A4EB0C04A0FB02EC64457346E146CA
:1005400062D35FD05DB1B8EB030264EB090404FA37
:1005500006F622FA01F31E43CC40C5E900640021EF
:100560004FE7B1FBF2FC010C41EA0E4180B240EAD8
:1005700001423B4638463C46B846BE462026B1FBC3
:10058000F7F1A2EB080241EA0C4166E7014618E7E1
:1005900010462CE7C6F120022EFA02F3B740B14014
:1005A00020FA02F24FEA174E0A43B3FBFEF8BCB240
:1005B0000EFB1833110C41EA034108FB04F9B0406B
:1005C00089454FEA104380B23ED9791808F1FF3CC3
:1005D00001D289451FD8A1EB0901B1FBFEF909FB46
:1005E00004F80EFB191192B242EA0142424529D2A7
:1005F000BA1809F1FF31C4D24245C2D2A9F10201B1
:100600003A44BEE7F0459DD2BEEB02036CEB070C0B
:100610000138E14696E7A7EB09094944A8F1020C25
:10062000B1FBFEF909FB04F8DBE773467FE75046B0
:1006300066E70846FDE63B44023A33E7ACF1020CBC
:100640003B441CE749469CE7A1EB0901C446B1FBCA
:10065000FEF909FB04F8C4E7704700BFDFF834D0A7
:10066000002103E00C4B5B58435004310B480C4B0A
:1006700042189A42F6D30B4A02E0002342F8043BA8
:10068000094B9A42F9D304F073FD26F0F5F901F015
:1006900099F8704700000320D0DD0B08000000200F
:1006A0006401002080030020DC450120FEE7704744
:1006B00008B500F0BFFDBDE8084000F041BD00F006
:1006C000BBBD704710B50421044624F0E9FF204665
:1006D00010BD000038B50C4B0C4C18800C4B822020
:1006E00019806368984740F6110398420AD1094D72
:1006F00023682C60822098472B688220DB6898470B
:10070000002038BD0120FCE7A60300204C0000209B
:10071000A4030020A80300204FF4A071F020FFF7ED
:10072000D9BF0000F7B5394D2B6804461B698220FC
:100730009847208000284ED02B680DF106025B6997
:1007400001A982209847324B1B78002B4BD0BDF873
:10075000062040F674639A423FD9ADF80630BDF8E2
:1007600006209B1A9BB20A2B42D90B22B3FBF2F351
:10077000284A1288934201D9013A93B2BDF8042065
:10078000254840F6B8318A4234D8C2F571620E323B
:10079000016892B20F25B2FBF5F2204D2D88AA42D6
:1007A00084BF05F1FF35AAB28A4215468EB22AD916
:1007B000921B91B21A4E3768BB42BAB28CBF9A1ADA
:1007C000D21A92B211440529C4BF05603360036890
:1007D00063803368A38003B0F0BDB32A9CBFB4220A
:1007E000ADF80620BBE7BDF80630A3F5B473B9E752
:1007F0000023C3E7C2F56D62083292B20E2A016887
:10080000C8D800252A46891A89B2D3E7A803002050
:1008100064270020A4030020A0030020A6030020DA
:100820009C03002037B568460D461446FFF77AFF53
:10083000BDF8000030B1BDF802302B60BDF80430C7
:100840002360012003B030BD032821D8DFE800F089
:10085000020B12190F4B1A68B2FA82F252090421E4
:100860000D4805F04BB90B4B5A68B2FA82F25209A7
:100870000821F5E7074B9A68B2FA82F25209102173
:10088000EEE7044BDA68B2FA82F252092021E7E778
:10089000704700BFAC03002000100240032821D89D
:1008A000DFE800F0020B12190F4B1A68003A18BF6C
:1008B000012204210D4805F021B90B4B5A68003A7A
:1008C00018BF01220821F5E7074B9A68003A18BFC4
:1008D00001221021EEE7044BDA68003A18BF01222A
:1008E0002021E7E7704700BFAC0300200010024062
:1008F00003280DD8DFE800F00206080A04210548A5
:1009000005F001B90821FAE71021F8E72021F6E700
:10091000704700BF0010024008B5032811D8DFE877
:1009200000F0020A0C0E0421074805F0E1F8431E0E
:100930005842584108BD0821F6E71021F4E720216C
:10094000F2E70020F3E700BF0010024070B5084D49
:1009500000240126E0B2FFF7DFFF18B12B68012B5E
:1009600018BF2E600134052C05F10405F2D170BDCD
:10097000AC030020012380F8781080F879307047AC
:100980007047002070470000034B4164003918BFD6
:1009900001211970704700BF9B380120704700206B
:1009A0007047836B0BB10846184770474FF6FF70CE
:1009B0007047406803689B691847704770477047E5
:1009C0007047704710B5044600F04CFD236803499A
:1009D000D3F890302046BDE810401847000000D002
:1009E00008B503680446D3F8843098472368204646
:1009F000DB6F984700F0ECF8236820465B6F984760
:100A0000292001F0BFF900F0E3F8236820465B6F6E
:100A10009847F8E710B504460AF0A8F9236820467D
:100A2000D3F8BC30BDE81040184700F0FFBC00F020
:100A300003BD00F035BD00F0D5BC00F045BD00F0B1
:100A40004DBD00F0D9BC09F0BFBB10B584210446F0
:100A500024F026FE204610BD10B590F8341090F812
:100A600078400C4B8C421A7809D03AB90A4A0B49A3
:100A70001488088810800C8001221A7010BD002A8A
:100A8000FCD0054A05491488088810800C80002293
:100A9000F3E700BF943801209038012092380120FC
:100AA00070B50D46194635B9094B0A4A0A4840F255
:100AB000FF2125F031FDC0E90F52084B003A18BF65
:100AC00001221A700368BDE87040D3F890301847CF
:100AD00094760208CC7602081A7702089A38012028
:100AE00008B5094B1B888B4203D8084B1B889342DF
:100AF00005D9074B074A0848A32125F00DFD074BF0
:100B00001980074B1A8008BD9038012092380120C7
:100B10005F770208C27702081A7702089638012028
:100B200098380120034690F87A0018B15868036895
:100B30001B68184770470000012108B500220846CD
:100B400007F033F80A4B186028B90A4B0A4A2821E3
:100B50000A4825F0E1FC00220421012007F0C4F836
:100B6000074B186018B9074B034A2C21F0E708BD62
:100B7000C0030020057802084E7802087D7802083C
:100B8000BC030020C4780208024B4FF0FF31186804
:100B900007F055B8C0030020014B186807F07BB878
:100BA000C0030020024B0021186807F048B800BFBE
:100BB000C0030020FFF7F0BF03480449006800238A
:100BC0001A4607F0CCB800BFBC0300200400002088
:100BD00013B5084C00231A4601A9206807F0F0F865
:100BE00020684FF0FF33002201A907F0E9F802B0B6
:100BF00010BD00BFBC03002003685B6C18470120D8
:100C0000704703689B6A1847FEE740F2EF30704771
:100C1000054B0360054B4FF08062C3F88820BFF39B
:100C20004F8FBFF36F8F70479886020800E100E096
:100C300010B504464FF45A61FFF7EAFF204624F04E
:100C40002FFD204610BD000082B0002301930E4B03
:100C50001A6B42F400021A631A6B02F4000201924A
:100C6000019A1A6942F400021A611A6922F4000218
:100C70001A61064B064A1A61064A5A61064B4FF042
:100C800080629A6002B0704700380240F828002065
:100C9000E90E0008090C000800E100E008B50A2888
:100CA00009D8DFE800F006100E0808080810101038
:100CB0001000022008BD054B054A0648902125F08A
:100CC0002BFC0020F6E70120F4E700BF06790208BC
:100CD000217902086C79020838B50C46887FFFF745
:100CE000DDFFA58AE28A164B2169586342EA054274
:100CF0005A64628BD963521B1A642568082D0ED181
:100D00009A611A615862207F0E4A42EA0062DA61F3
:100D1000E2681A620C4A5961D9601A6038BD002233
:100D2000D8611A61E1680A0A480902F4784200F4BD
:100D3000FC600243C1F3C4010A439A63034AECE72F
:100D400000B002400900010001230200012303005A
:100D500008B50B280BD8DFE800F00612100A0A0AC3
:100D60000A0808080808022008BD0520FCE7054B12
:100D7000054A06486F2125F0CFFB0020F4E701204B
:100D8000F2E700BF06790208B17902086C7902081F
:100D90002DE9F04191F81D800C464046FFF7D8FF41
:100DA000A77F05463846FFF7D3FF06463846FFF7CC
:100DB00075FFA18A628B444B521A1A649A61228B86
:100DC000521A1A61E28A586342EA01425A6421695E
:100DD0006268D963DA602068802828D0227F0FD823
:100DE000202867D0402865D004281AD0364B45EA21
:100DF000026545F40035B845DD6161D0334A44E011
:100E0000B0F5807F04D0B0F5007FEFD1304800E02E
:100E1000304840EA0262DA61E2681A625E62596151
:100E200032E045EA026242F40032DA61F6E7A06895
:100E3000021DDA62227F45EA026545F40035DD6174
:100E40005E625961017841B1012921D0224B234AC8
:100E500023484FF48D7125F05FFBDA69418822F455
:100E60007F42013922F0100242EA0122DA610121B7
:100E7000154BDA6942F02002DA61DA699206FCD495
:100E800010229A600029B9D0164A1A60BDE8F08194
:100E9000B2F1FF01DA69408822F47F4200F1FF30AD
:100EA00022F0100242EA002242F0100218BF012193
:100EB000DA61DDE745EA0262034B42F40032B4E74F
:100EC00042F20132E1E700BF00B00240012301001D
:100ED000090002000A000200FB790208157A0208E4
:100EE0006C79020801230200024B1B6858680368F2
:100EF0005B6918479C38012070B5044625460A4BAB
:100F00000C30002660602672667245F8203B602235
:100F100029460AF081F804F55A63EE6024359D42B3
:100F2000FBD1204670BD00BF98860208034B1A68AB
:100F3000D207FCD423229A60704700BF00B0024061
:100F40007047000030B50F4C2568ED07FCD4232511
:100F50000904A56041F001010225FF2B656361646E
:100F6000E0630AD00849656241EA0363E361074B25
:100F700022626061E060236030BDE561039BA36392
:100F8000034BF8E700B00240090001000100020035
:100F90000100030030B50E4C2568ED07FCD4232575
:100FA0001204A56042F001020225FF2B6563626412
:100FB000E063E16008D01B0643F00213E361054BD8
:100FC00065626061236030BD034BE3610123F9E793
:100FD00000B0024001000200020002FF30B50B4CDD
:100FE0002568ED07FCD4232512041B06A56043F4F5
:100FF0000033022542F0010265636264E063E16050
:10100000E361034B65626061236030BD00B0024064
:10101000010002000120704714207047142303FBD5
:10102000010008307047142303FB010008307047AB
:101030000120704741F24820704741F2482303FBEA
:1010400001000830704741F2482303FB01000830DB
:101050007047012070471020704700EB01100830E6
:10106000704700EB011008307047084601F0A0BF40
:1010700010B5034B0360044608F0FDFD204610BD8B
:101080005087020810B50446FFF7F2FF20461C21E6
:1010900024F006FB204610BD10B5034B0360044648
:1010A00008F0E9FD204610BD1C87020810B5044673
:1010B000FFF7F2FF204641F2502124F0F1FA2046DA
:1010C00010BD000010B5034B0360044608F0D3FDCB
:1010D000204610BDE886020810B50446FFF7F2FF6F
:1010E0002046182124F0DCFA204610BD10B5094B2B
:1010F0000360044600F593501C30FFF7B9FF04F17C
:101100002C00FFF7C9FF04F11400FFF7DBFF2046B6
:1011100010BD00BF8487020808B50248FFF7E6FF4C
:1011200008BD00BF9C12002010B50446FFF7DEFF8B
:10113000204641F2FC3124F0B3FA204610BD0000F5
:101140002DE9F34101F0E6F9054601F0E7F9002445
:101150000146234628462246009415F0EFF9274B16
:10116000274A1A60204603F051F9264D264B274A9C
:1011700027489A6015F04AF92B68BFF35B8FDB07AD
:1011800036D4284624F08EFA90B3224C224B234FBB
:10119000236004F5955604F1140004F12C086060F6
:1011A000C4F80880E760266108F066FD1C4B6361A7
:1011B000404608F061FD1B4BE362384608F05CFDD9
:1011C00004F5805303F52670174AC3F87C2203F018
:1011D0008BFC2246A6F10801304603F097F9304611
:1011E00001F0E6FE114825F0B5F9284624F066FA2C
:1011F0000F4802B0BDE8F041FFF7E4BB0039012021
:101200004804002098120020680400204C040020AC
:10121000080000209C120020848702081825002066
:10122000E88602081C870208508702081911000886
:10123000C4030020704700000148FFF7D1BB00BF86
:10124000C403002070B5264E264C274D274B236043
:101250003046FFF751FE28461AF076FA244812F07D
:1012600001F9244B2448DC6000224FF48071C3E96B
:10127000121222491A86C3E91A12214983F858200A
:10128000C3E91E011F49C3F880101F491F480B60A6
:10129000F021C3E90422C3E90622C3E90822C3E915
:1012A0000A22C3E90E22C3E91022C3E91422C3E9CA
:1012B00017225A6683F870205A67C3E901650180D6
:1012C0001348018013484FF4A07101801248018037
:1012D00012490A70012283F83420114A1A6070BD45
:1012E000F404002094120020680400208476020890
:1012F0004C040020C4030020000001010100000193
:10130000000450001A0014009C380120903801207D
:101310009638012092380120983801209438012015
:10132000AC8502080148FFF773BC00BFF40400203D
:101330000020704781807047C180704701817047ED
:10134000418170477047704770477047704710B4CD
:10135000C4880368121B84885B6D091B12B25DF898
:10136000044B09B218474FF6FF7383814FF0FF33E8
:1013700003621368C36110607047002070478B8858
:10138000838001207047704780F82610704790F8DE
:101390002600704710B50022B1F90840B1F90A10D3
:1013A000028042808480C18010BD00220280428081
:1013B0008280C28070470177704780ED080A7047CD
:1013C00080F82410704780F825107047012070477E
:1013D000983070478C307047843070477047704742
:1013E00070470000034B902283F85A2383F8582358
:1013F000704700BF00E100E0094A0A49D3680A4883
:10140000C3F30A03013B9BB20B801169C1F30A01CC
:10141000013901801364536B43F001035363704738
:10142000006801409A26002098260020014BD3F83E
:10143000AC00704700680140024B0122C3F8AC10B9
:101440005A6270470068014010B52C21044624F010
:1014500027F9204610BD10B5BC21044624F020F920
:10146000204610BD70B5044608F003FF23689D6E4A
:1014700010F08CFD01462046A8472368054AD3F8A2
:101480008C502046AC460023BDE87040A2F51631D2
:10149000604700BF00B004D008F0D2BE08F0DCBE48
:1014A00008F098BE09F007B890F8252012B103683B
:1014B0005B691847704790F825201AB190F82420EE
:1014C00002B1186070470000034B4FF080629A60D1
:1014D0004FF080729A60704700E100E0084B4FF0D7
:1014E0008062C3F88820BFF34F8FBFF36F8F4FF038
:1014F0008072C3F88820BFF34F8FBFF36F8F7047A0
:1015000000E100E070B50023124E8380124B0360AF
:10151000336893F8582005460AB1D86C00B998682A
:101520000368DB6A98473368B0FA80F4D86C6409C2
:1015300030B10368DB6A9847002808BF44F0010413
:101540002CB9064B064A07482C2124F0E5FF284613
:1015500070BD00BF9C38012098870208537A0208AA
:10156000B17A0208EA7A020870B5254E3568BFF3F1
:101570005B8F15F0010540D1304624F093F8002828
:101580003BD0204C204B256104F13400C4E90035E8
:10159000C4E90255E584A562A58512F048FA04F174
:1015A00058000BF0C1FE194BA3652046184B40F8BC
:1015B000843BFFF7A7FF174BC4F884302433C4F8EB
:1015C0008C304FF4C803C4E928350023C4F8AC308C
:1015D000C4F8B030C4F8B430C4F8B8300E480F4B7B
:1015E000C4F89050C4F89C50C4F8A850C4F898307F
:1015F00024F0B0FF304624F061F8024870BD00BF0F
:101600009C260020A026002090910208B88702089E
:101610003088020844910208E1130008249102086E
:1016200038B5184C23685BB3174B184A1B6C1188EC
:101630008B4216D1164B198805F04AF8236893F8A7
:101640006A200025013283F86A2083F87C50FFF776
:10165000B3FA206809F08AFB2846BDE83840FFF756
:10166000F3B805F035F82468236820461B6A9847CC
:10167000012384F87C300020BDE83840FFF70EB924
:1016800038BD00BF9C380120006801409A26002028
:101690009826002007B5064BADF806001B680548E4
:1016A00001220DF1060105F0B3FD03B05DF804FB66
:1016B0000C000020A427002007B5184D184C284620
:1016C00003F04AFE4FF0FF31284603F0DEFE2846C5
:1016D00003F02EFFADF80000284603F0BBFE01200A
:1016E00006F057FA204603F037FE4FF0FF31204650
:1016F00003F0CBFE204603F01BFFADF804002046AC
:1017000003F0A8FE074800231A466946006806F061
:1017100026FB322006F03DFAD1E700BF88290020E1
:10172000402900206027002030B595B0102200210C
:101730000AA825F0F8F81422002103A825F0F3F8F0
:1017400000241E4B01941A6C42F080521A641B6CE8
:1017500003F080530193019B194B02941A6842F4E1
:1017600040421A601B6803F4404302930122029B2B
:101770004FF48033CDE9082302254FF4800308217C
:10178000CDE90E534FF4B473CDE9101308A8042328
:101790001393129504F0F4FF04F0B8FF0F23CDE982
:1017A00003354FF4A0504FF48053CDE906030521D3
:1017B00003A8059405F0C0F915B030BD003802400B
:1017C000007000402DE980489BB003F0DFFCFFF77C
:1017D000ABFF142200210DA825F0A5F80024C94B69
:1017E00000941A6BC84842F010021A631A6B02F098
:1017F00010020092009A01941A6B42F020021A63C0
:101800001A6B02F020020192019A02941A6B42F0C4
:1018100080021A631A6B02F080020292029A039409
:101820001A6B42F004021A631A6B02F0040203926C
:10183000039A04941A6B42F001021A631A6B02F0C5
:1018400001020492049A05941A6B42F002021A6390
:101850001A6B02F002020592059A06941A6B42F086
:1018600040021A631A6B02F040020692069A07942D
:101870001A6B42F008021A631B6B03F0080322463E
:1018800007933C21079B04F039F9A048012202216B
:1018900004F034F922469D48042104F02FF9224631
:1018A0009B484FF4405104F029F901263C230325BD
:1018B00095480F940DA90227CDE90D36109504F037
:1018C00033F892480DA9CDE90D76CDE90F4404F027
:1018D0002BF804238D480DA9CDE90D36CDE90F472E
:1018E00004F022F84FF4405389480DA9CDE90D3694
:1018F000CDE90F4704F018F8082384480F940DA988
:10190000CDE90D3504F010F80DA9202381480F947E
:10191000CDE90D3504F008F87F48804B804D036019
:1019200003F0F8FE7F48804B2C62C5E900034FF4BA
:1019300080432846C5E90434C5E90244C5E90644A4
:1019400004F0EAFA1021284604F02EFD214628462C
:1019500004F049FD754DDFF8ECC1AC624FF48273C1
:10196000C5E900C34FF4007E1823C5E906E3284605
:101970000A23C5E90244C5E90444C5E90844EB6209
:1019800005F0EAFB8F232246394660488DF8243063
:101990008DF8344004F0B2F832464FF47A7309A956
:1019A000284605F035FC4FF47A7332460DA92846D7
:1019B00005F0DAFD3246394654485D4D04F09EF894
:1019C0009DF83430D32B04BF5A4B1E705A4B01265E
:1019D000C5E900364FF0100840230024C5E9048310
:1019E0004FF4C073C5E906344FF40063C5E9083409
:1019F0004FF400534FF0020A4FF004094FF0030B6D
:101A0000AB620DA907232846CDE90DA3CDE90F93BD
:101A10000827C5E90249CDE911BACDF84CA005F077
:101A20007FFA4FF6FF7209A92846CDE90A76089495
:101A300009960C9405F094FA304603F0D3FB4FF668
:101A4000FF7209A92846CDE909A7CDE90B6405F085
:101A500087FA4FF6FF7209A92846CDE909B7CDE903
:101A60000B9405F07DFA4FF40C730893089B0C93CC
:101A70004FF6FF7209A92846CDE909970B9605F0A4
:101A80006FFA40F26A51284605F088FA342221465E
:101A90000DEB020024F047FF284D294B2C61C5E9CE
:101AA00000340923C5E905361D23C5E9073B40F28B
:101AB0000D1240F24313C5E9092340F2171140F219
:101AC00047132846C5E90B13C5E90244AC8685F8DF
:101AD000364004F01BFDFF21F022CDE912144FF037
:101AE00005094FF480614FF4A073CDE90E24CDE9D0
:101AF0001419CDE916420DA922462846CDE9103A1F
:101B000022E000BF003802400010024000080240FE
:101B1000000C024000000240382900200030024042
:101B2000A4280020005C0040A0860100A42700201B
:101B30007027002064270020400100A0FC2700201F
:101B40000068014000500140414D18930D94ADF8DC
:101B500064408DF8664004F08DFD3E4B2B601B68A1
:101B600098472B683C4DDB6898473C4B2846C5E9B5
:101B70000034C5E902A4C5E90A4AC5E90C4403F0EA
:101B8000D9FD3146284603F08BFE354DDFF800A124
:101B9000424621460DA824F0C6FE324BAC604FF4FD
:101BA000803B2846C5E9003B2C612C7685F8204017
:101BB000EC62C5F828A0EC60EE6185F830406E61FB
:101BC00003F024FB0D230DA92846CDE90D36264D43
:101BD0000F9403F0B1FC424621460DA824F0A3FE69
:101BE000224BAC602846C5E9003BC5E90AA42C613C
:101BF0002C7685F82040EC60EE6185F830406E610F
:101C000003F004FB0DA92846CDE90D960F9403F0CF
:101C100093FCFEF74DFDFEF74AFD05F043FF144A25
:101C200039460A2006F060F8124B134A1860214624
:101C3000124805F06AFF124B124A186021461248FA
:101C400005F063FF114B186005F03EFFFEE700BF93
:101C50005C27002014000020F828002000B002407B
:101C60008829002000200140402900200021014057
:101C70007488020860270020B0880208B91600089E
:101C80006C2700208C880208BF0600086827002007
:101C90000100000F704770477FB5094B8DF8172082
:101CA0001B6802930DF117020123009201930A466B
:101CB0000146044804F0D8F907B05DF804FB00BF02
:101CC00010000020A42800207FB500238DF81730D5
:101CD000084B1B6802930A4601230DF1170100917E
:101CE00001930146044804F04FFA9DF8170007B02D
:101CF0005DF804FB10000020A42800201FB5084C4C
:101D000024680092CDE901340A46012301460548C2
:101D100004F03AFA003818BF012004B010BD00BF2B
:101D200010000020A428002003F05CBA10B5064C77
:101D300000222046042103F0E1FE20460122BDE8F6
:101D40001040042103F0DABE0008024038B50B4D04
:101D5000044601220A484FF4005103F0CFFE00224E
:101D60000421284603F0CAFE2046FFF793FC2846CC
:101D70000122BDE83840042103F0C0BE0008024043
:101D8000000C024038B50B4D044600220A484FF4BF
:101D9000005103F0B3FE00220421284603F0AEFEFA
:101DA0002046FFF777FC28460122BDE83840042191
:101DB00003F0A4BE00080240000C0240F7B5144E28
:101DC000144F05460C4630460022042103F096FECF
:101DD00000224FF40051384603F090FE2846FFF7EA
:101DE00059FC0D4B0D481B68224601A905F0BCFBB0
:101DF000384601224FF40051019C03F07FFE30462B
:101E00000122042103F07AFE204603B0F0BD00BF9A
:101E100000080240000C02400C000020A427002013
:101E200003F0E0B90268034B9A4201D103F0C8B94C
:101E3000704700BF001000407047000082B00E4B9A
:101E400000220092596C41F480415964596C01F4AC
:101E50008041009100990192196C41F08051196400
:101E60001B6C03F080530193019B0F216FF0010065
:101E700002B003F00FBC00BF0038024010B51422BE
:101E80008AB0044600210DEB020024F04CFD2368CB
:101E9000214A93421FD1214B2148002101915A6CC4
:101EA00042F480725A645A6C02F480720192019A70
:101EB00002911A6B42F004021A631B6B03F00403D5
:101EC00002930821029B0323CDE9051305A903F022
:101ED0002BFD0AB010BD134A9342FAD10F4B1248A2
:101EE000002103915A6C42F400725A645A6C02F455
:101EF00000720392039A04911A6B42F001021A6372
:101F00001B6B03F001030493049B20220323CDE900
:101F1000052305A9DBE700BF00200140003802408F
:101F20000008024000210140000002400268094B05
:101F30009A4282B00BD100230193074B1A6B42F4F3
:101F400080521A631B6B03F480530193019B02B010
:101F5000704700BF003002400038024007B50F4B09
:101F600002689A4216D10022A3F5F0430192196B40
:101F700041F4000119631B6B03F400030193052175
:101F80005A20019B03F086FB5A2003B05DF804EB56
:101F900003F0B2BB03B05DF804FB00BF00B0024029
:101FA0002DE9F043044689B01422002103A824F04F
:101FB000BAFC2268244B9A4243D1244C2448002581
:101FC0000095236B43F004032363236B03F00403A6
:101FD0000093009B0195236B43F001032363236B64
:101FE00003F001030193019B4FF012094FF40073BA
:101FF0004FF001080327042603A9CDE90339CDE9F1
:102000000587079603F090FC4FF4807311480796FC
:1020100003A9CDE90339CDE9058703F085FC0295D5
:10202000236C43F400032364236C03F40003029342
:10203000029B236A43F400032362236A23F4000310
:10204000236209B0BDE8F083005C00400038024024
:102050000008024000000240F0B599B00446142286
:10206000002107A824F05FFC30220DEB02000021C4
:1020700024F059FC22685E4B9A4240F0B780082356
:102080000C93C0231093042312930CA84FF4003335
:10209000159304F019FE08B1FFF7CEFE554B5648D4
:1020A000002400945A6C42F080625A645A6C02F028
:1020B00080620092009A01941A6B42F020021A6327
:1020C0001A6B02F020020192019A02941A6B42F0FC
:1020D00001021A631A6B02F001020292029A03943F
:1020E0001A6B42F002021A631A6B02F002020392A8
:1020F000039A04941A6B42F040021A631A6B02F0BE
:1021000040020492049A05941A6B42F004021A6386
:102110001A6B02F004020592059A06941A6B42F0BB
:1021200008021A631B6B03F00803069302250E26B0
:10213000069B0B964FF4806307A9CDE90735CDE9DF
:10214000094503F0F1FB41F658032C480B9607A90B
:10215000CDE907350927CDE9094503F0E5FB032360
:1021600027480B9707A9CDE90735CDE9094503F0C5
:10217000DBFB4FF4706322480B9607A9CDE90735C6
:10218000CDE9094503F0D0FB4FF40C631D480B96D5
:1021900007A9CDE90735CDE9094503F0C5FBC02303
:1021A00019480B9607A9CDE90735CDE9094503F094
:1021B000BBFB082315480B9607A9CDE90735CDE9E8
:1021C000094503F0B1FB4FF4A0530E480B9707A944
:1021D000CDE90735CDE9094503F0A6FB5820224695
:1021E000052103F057FA582003F086FA19B0F0BD24
:1021F0000068014000380240001402400000024024
:10220000000402400018024000080240000C024096
:1022100010B5044688B01422002103A824F083FBE3
:102220002268144B9A4223D103F56843002101919F
:102230005A6C114842F480125A645A6C02F48012AB
:102240000192019A02911A6B42F020021A631B6BF1
:1022500003F020030293029B4FF4607202230321D8
:10226000CDE903230523CDE9061303A903F05CFBA5
:1022700008B010BD00500140001402402DE9F041AB
:1022800086B0002303932B4B1C68002C4FD14FF0DA
:102290000108C3F80080284B00949A6B274842EA53
:1022A00008029A639B6B03EA080300930227032644
:1022B0000C25009B01A94FF63F03CDE90137CDE97D
:1022C000046503F031FB1E48059501A9CDE901879E
:1022D000CDE9034603F028FB48F23313194805956E
:1022E00001A9CDE90137CDE9034603F01DFB4FF607
:1022F00083731548059501A9CDE90137CDE903465A
:1023000003F012FB4CF203731048059501A9CDE9C7
:102310000137CDE9034603F007FB60230C48059520
:1023200001A9CDE90137CDE9034603F0FDFA06B076
:10233000BDE8F081D029002000380240001402409E
:10234000000802400018024000100240000C024049
:102350000004024070B588B000230293204B1A6C31
:1023600042F010021A641B6C03F01003029305463E
:1023700001A903A8029B04F089FC069B4BBB04F057
:1023800075FC184E184B336040F2E733F360174B7F
:10239000B0FBF3F3013B7360304600233361B3605D
:1023A000B36105F0ABFA044680B9304605F080F918
:1023B000044658B9362003F09FF90F2D0DD8224658
:1023C0002946362003F066F9094B1D60204608B007
:1023D00070BD04F04BFC4000D3E70124F6E700BFDA
:1023E00000380240D42900200010004040420F0075
:1023F0007C0000207047FEE7FEE7FEE7FEE770473F
:10240000014805F093B900BFD4290020014804F029
:10241000D4B800BFFC270020014803F0B7B900BFC3
:10242000F82800200120704708B524F01FFB162370
:1024300003604FF0FF3008BD08B524F017FB1623EA
:102440000360FEE770B50D4614460E46731B9C42B2
:1024500001DC204670BDAFF3008006F8010BF5E704
:1024600070B50D4614460E46731B9C4201DC204697
:1024700070BD16F8010BAFF30080F5E74FF0FF30A9
:1024800070474FF400534B600020704701207047A5
:10249000002070470A4A116808B5034609B909497E
:1024A00011601068694603448B4206D924F0DEFAB5
:1024B0000C2303604FF0FF3008BD1360FCE700BF42
:1024C0001C2A0020E0450120704708B5042918D8CF
:1024D000DFE801F003070B0F130001F0E3FF0068D2
:1024E00008BD01F0DFFF4068FAE701F0DBFF80681C
:1024F000F6E701F0D7FFC068F2E701F0D3FF00690B
:10250000EEE70020ECE710B50421044623F0C8F8FC
:10251000204610BD00487047E88802080820704730
:1025200013B5002451B1036801948DF8034001AA4A
:102530009C680DF10303A04702B010BD0846FBE7FD
:10254000C0897047008A7047C0887047808870478C
:10255000807A00F07F007047807AC00970470020C1
:10256000704700009FED010A704700BF00000000A7
:10257000704710B50821044623F092F8204610BD9C
:102580007047704700F598730868496803C370473F
:10259000704770474160704770477047064BC0F8FE
:1025A0004C310023C0F8503100F5A273C0F8480147
:1025B000C0F84031704700BFD52A000801230372DC
:1025C000704770477047704770477047704738B51D
:1025D000054640680368DB699847044604B938BD7E
:1025E000A188AB89C91A236820461B6B09B298479A
:1025F000A469F3E710B4C26841685410034601EBC4
:102600006200D20748BF0A599B685DF8044B48BF77
:10261000D35818470346406830B19A681AB9D86849
:1026200000F0010070470120704710B514210446E6
:1026300023F036F8204610BD10B50C21044623F0D7
:102640002FF8204610BD10B51021044623F028F8BD
:10265000204610BD10B51021044623F021F8204675
:1026600010BD10B54FF4AE71044623F019F82046A2
:1026700010BD10B50FF08AFC0368BDE81040DB6B9D
:10268000184710B50FF082FC0368BDE810405B6B83
:102690001847000070B50446B2B01E49C02202A817
:1026A00024F011FA237C2F2B03D90123237232B09B
:1026B00070BD33B9184B1B781BB10FF067FC0FF0DE
:1026C0006BFC0225237C302BF1D832AA02EB83036A
:1026D000E68953F8C03C608993FBF6F206FB12339F
:1026E00013FB00F3ADF804006068A189ADF8003079
:1026F0000368ADF8061012FB01F21B69ADF8022069
:1027000069469847237C012D03F101032374CED041
:102710000125D7E76C7502089A38012037B50546C0
:10272000807A6B7A0130C0B29842A87205D9012331
:102730002B720023AB7203B030BDB5F90C20B5F994
:102740000E40002111F0CCFEC30707D500284FF63C
:10275000FF73C8BF012313FA80F000B2AB7AE8819F
:10276000041B012BA4B206D1174B1B781BB10FF031
:102770000DFC0FF011FC154A00231288ADF8023051
:10278000EB891A445B42ADF80430114BADF80020E0
:102790001B88ADF806300FF0F9FB036802AA12E9B6
:1027A00006001B6C984768680368DB699847054614
:1027B000002DC0D0A9882B68214428461B6B09B284
:1027C0009847AD69F4E700BF9A380120903801209E
:1027D0009238012010B50446D0F8400158B1036882
:1027E000DB68984738B1D4F8400103689B68984784
:1027F0000023C4F8403110BD2DE9F047D0E95569F8
:102800000546B06803681B6A9847B0F5CE7F05D2CD
:102810004E4B4F4AA3214F4823F07EFE7068036859
:102820001B6A98470F2803D84B4B494AA421F2E76B
:10283000F06803681B6A9847132803D8474B444A3B
:10284000A521E8E70FF0A2FBDFF8248104300FF0A8
:10285000EAFBD8F8000010B10368DB689847D8F8A5
:10286000000010B103681B6898473D4F386810B1ED
:1028700003685B699847D5F83C0110B103685B6851
:102880009847386810B103681B689847D5F83C0131
:1028900010B103689B689847F068036800215B6A81
:1028A000984700234360037203742E4B2E4A026044
:1028B0001A882E4B1B889A4204463FD907320621BC
:1028C0000533D208B3FBF1F308219BB2B068A381B2
:1028D000036862815B6AE18100219847824602F0C9
:1028E0009BF97068036800215B6A98475146064669
:1028F00002F070F9331DC5F83C61C8F80040C7F814
:1029000000A0C9F80030DAF80030C6F80890504648
:10291000DB68CAF83C609847336830461B689847C4
:102920002146504611F0D6FD236820461B69984782
:10293000236820465B69BDE8F04718470733053236
:102940000621DB08B2FBF1F292B2BFE76F7B02080F
:10295000FD7B0208DA7C0208217D0208C47D0208A2
:10296000E038012090380120308A02089238012096
:10297000E43801202DE9F14FD0E9556A0746B068E7
:1029800003681B6A9847B0F5BE7F05D2484B494A99
:10299000A321494823F0C0FD706803681B6A98476B
:1029A0000F2803D8454B434AA421F2E7F068036897
:1029B0001B6A98470F2803D8414B3E4AA521E8E7F8
:1029C0000FF0E4FADFF8049104300FF02CFBD9F893
:1029D000000010B10368DB689847D9F8000010B117
:1029E00003681B689847DFF8E880D8F8000010B14A
:1029F00003685B699847D7F83C0110B103685B68CE
:102A00009847D8F8000010B103681B689847D7F8BA
:102A10003C0110B103689B689847F0680368002187
:102A20005B6A9847274B03604FF4A0530381264B02
:102A30001B884FF0000B80F80AB05B420446C0F8D8
:102A400004B0A0F80EB08381B068036859465B6A91
:102A50009847054602F094F87068036859465B6A27
:102A600098472946064602F053F8331DC7F83C61E3
:102A7000C9F80040C8F80050CAF800302B68C6F802
:102A800008A02846DB68EE639847336830461B6829
:102A900098472146284611F01DFD236820461B69F2
:102AA000984723685B69204601B0BDE8F04F18479E
:102AB0006F7B0208677E0208DA7C0208217D02082B
:102AC000C47D0208548A020890380120E4380120AD
:102AD000E03801202DE9F14FD0E9556A0746B0688A
:102AE00003681B6A9847B0F5CE7F05D2444B454A30
:102AF000A321454823F010FD706803681B6A9847BE
:102B00000F2803D8414B3F4AA421F2E7F06803683D
:102B10001B6A98470B2803D83D4B3A4AA521E8E7A2
:102B20000FF034FADFF8F09004300FF07CFAD9F8A7
:102B3000000010B10368DB689847D9F8000010B1B5
:102B400003681B689847DFF8D480D8F8000010B1FC
:102B500003685B699847D7F83C0110B103685B686C
:102B60009847D8F8000010B103681B689847D7F859
:102B70003C0110B103689B689847F0680368002126
:102B80005B6A98474FF0000B224BC0F804B0044634
:102B900080F808B00360B068036859465B6A9847DC
:102BA000054602F039F87068036859465B6A984731
:102BB0002946064602F00EF8331DC7F83C61C9F8F5
:102BC0000040C8F80050CAF800302B68C6F808A0CA
:102BD0002846DB68EE639847336830461B689847A1
:102BE0002146284611F076FC236820461B69984749
:102BF00023685B69204601B0BDE8F04F184700BF6D
:102C00006F7B0208527F0208DA7C0208217D0208ED
:102C1000C47D02080C8A0208E4380120E038012053
:102C20002DE9F14FD0E9556A0746B06803681B6A81
:102C3000984741F24723984205D8444B444AA32180
:102C4000444823F069FC706803681B6A98470F28A2
:102C500003D8414B3E4AA421F2E7F06803681B6A9F
:102C600098470B2803D83D4B394AA521E8E70FF0D8
:102C70008DF9DFF8F09004300FF0D5F9D9F80000A5
:102C800010B10368DB689847D9F8000010B10368F9
:102C90001B689847DFF8D080D8F8000010B10368AF
:102CA0005B699847D7F83C0110B103685B689847A7
:102CB000D8F8000010B103681B689847D7F83C01AA
:102CC00010B103689B689847F068036800215B6A4D
:102CD00098474FF0000B224BC0F804B0044680F830
:102CE00008B00360B068036859465B6A98470546B8
:102CF00001F04EFC7068036859465B6A98472946A4
:102D0000064601F01BFC331DC7F83C61C9F80040C2
:102D1000C8F80050CAF800302B68C6F808A028464A
:102D2000DB68EE639847336830461B689847214656
:102D3000284611F0CFFB236820461B69984723687B
:102D40005B69204601B0BDE8F04F18476F7B020871
:102D50002C800208DA7C0208217D0208C47D02086A
:102D60000C8A0208E4380120E03801202DE9F14FF7
:102D7000D0E9556A0746B06803681B6A984741F274
:102D80004723984205D8494B494AA321494823F093
:102D9000C3FB706803681B6A98470F2803D8464B2B
:102DA000434AA421F2E7F06803681B6A98470F289A
:102DB00003D8424B3E4AA521E8E70FF0E7F8DFF8D9
:102DC000089104300FF02FF9D9F8000010B1036812
:102DD000DB689847D9F8000010B103681B68984772
:102DE000DFF8E880D8F8000010B103685B69984705
:102DF000D7F83C0110B103685B689847D8F8000029
:102E000010B103681B689847D7F83C0110B10368FC
:102E10009B689847F068036800215B6A9847284BD5
:102E200003604FF4A0530381264B1B884FF0000B27
:102E300080F80AB05B420446C0F804B0A0F80EB0B7
:102E40008381B068036859465B6A9847054601F07C
:102E50009FFB7068036859465B6A98472946064697
:102E600001F06CFB331DC7F83C61C9F80040C8F89D
:102E70000050CAF800302B68C6F808A02846DB6866
:102E8000EE639847336830461B68984721462846CA
:102E900011F020FB236820461B69984723685B6973
:102EA000204601B0BDE8F04F184700BF6F7B020815
:102EB00004810208DA7C0208217D0208C47D020830
:102EC000548A020890380120E4380120E0380120BB
:102ED000044B1B6893F858200AB1D86C00B9986865
:102EE000704700BF9C380120F8B5174604460E46CF
:102EF0000FF036F9124B1C60124B2360124B002569
:102F0000C4E95135114BC4E95355186803680121D0
:102F10009B68C4E94F55C4E955769847284601F0A7
:102F200075FAFFF7D5FF1AF0B8FAFFF7D1FF1AF0DC
:102F30002FFBFFF7CDFF1AF037FB2046F8BD00BF8F
:102F4000F0380120B8890208A08902089C380120C5
:102F5000064BC0F84C310023C0F8503100F5A27385
:102F6000C0F84801C0F84031704700BF6D2D00081F
:102F7000064BC0F84C310023C0F8503100F5A27365
:102F8000C0F84801C0F84031704700BF212C00084C
:102F9000064BC0F84C310023C0F8503100F5A27345
:102FA000C0F84801C0F84031704700BF75290008DB
:102FB000064BC0F84C310023C0F8503100F5A27325
:102FC000C0F84801C0F84031704700BFD52A00085A
:102FD000064BC0F84C310023C0F8503100F5A27305
:102FE000C0F84801C0F84031704700BFF927000819
:102FF000806A70477047704770477047704730B5B8
:10300000036885B06D460181D3F8843001460446DB
:103010002846984795E807003C3484E8070005B047
:1030200030BD30B5036885B06D464181D3F884303A
:10303000014604462846984795E807003C3484E852
:10304000070005B030BD0022028042808280C2802D
:10305000704780F83610704770B5036804461B6BE4
:10306000154698472368294620465B6EBDE87040A8
:10307000184700207047806C704770477047704752
:103080007047704703681B6B184730B4C2684468C8
:103090005510034604EB6200D20748BF62599B6893
:1030A00030BC48BFD35818470346406830B19A68CF
:1030B0001AB9D86800F0010070470120704790F8F5
:1030C0002D3080F86030704710B54C21044622F056
:1030D000E7FA204610BD10B56421044622F0E0FA5C
:1030E000204610BD10B51021044622F0D9FA204622
:1030F00010BD0146383091F82C3013B136310BF049
:1031000035BE3431FBE7000010B5034B03600446C5
:103110000CF02AFE204610BD288C020810B5064B84
:10312000036004460CF020FE204641F20C2122F000
:10313000B7FA204610BD00BF288C020808B50EF073
:1031400025FFBDE80840FFF723BF08B5FEF7ACF93F
:1031500008BD10B50446006B50B10368DB689847A2
:1031600030B1206B036821469B68BDE810401847CA
:1031700010BD0000036870B55E6B124B1B680446FF
:103180008DB22BB9104B114A6C21114823F0C4F9B0
:103190001049828D0988914203D80F4B0B4A6D214B
:1031A000F3E713F812200D4B1B6853F82200036855
:1031B0001B6B9847291A3346204609B2BDE8704078
:1031C000184700BFF4380120EF810208318202085D
:1031D0006C820208F8380120B3820208FC38012012
:1031E0000B7970B590F82C6004460D460BB916B1FA
:1031F00070BD002EFCD0B3FA83F35B0984F82C3049
:1032000023682046D3F88C309847236820465B69B2
:103210009847002EECD02B79012BE9D1236820466A
:10322000D3F88830BDE87040184700F55D708842DB
:1032300008B505D10EF0AAFEBDE80840FFF7C8BEEC
:1032400008BD00224FF0FF31C0E9002182607047C5
:1032500070B5036804461B6B1546984723682946DA
:1032600020465B6BBDE8704018470B882DE9F041A4
:1032700083861388B0F90850C386044610469046EA
:1032800013F070F9B4F90A30074603EBD3734046E4
:10329000C3F34F0613F09AF905EBD575C5F34F0547
:1032A00000EBD07007EBD777A6EB6002A5EB6701C8
:1032B00004F1380012B209B2FFF7CAFF23682046B2
:1032C000D3F88C30BDE8F041184770B504461D4670
:1032D000BDF91060FFF7BCFF2368294620469B6BB1
:1032E0009847236831462046DB6BBDE8704018479D
:1032F0000022C0E90122C0E90322C0E90522C0E999
:1033000007224FF480728284014A0260704700BF36
:10331000788A020810B526220446002123F003FB18
:103320002046FFF7E5FF044B2360FF2384F8263097
:103330000023A362204610BD5C95020810B526222A
:103340000446002123F0EFFA2046FFF7D1FF0A4B95
:10335000A3624FF6FF73A3854FF47F020023C4E9F5
:103360000C32064A226023874FF0FF32C4E9102353
:10337000E363A364204610BD90890208E08A020836
:103380004FF47F4373B50546838540F20113002156
:103390008384174B8162C0E90111C0E90311C0E9C0
:1033A0000511C0E9071145F8383B4FF0FF330446DB
:1033B0002622016343634FF6FF762846ADF804608A
:1033C00023F0B1FA2846FFF793FF0A4BA363BDF839
:1033D0000430A4F85E3001A9284684F860600BF040
:1033E000C5FC2046294606F059FC204602B070BDB7
:1033F000708B0208B096020810B4C46BB4EB411F86
:103400004FEA411204D05DF8044BC2630AF054B98C
:103410005DF8044B704700002DE9F04F044697B06B
:10342000A146002510F0AAFE9D4BE56349F8403BFC
:1034300004F16C0A484604F19808FFF76BFF504608
:10344000984FFFF767FF40460AF016F904F58473BA
:1034500004F58E7607F1240B18460D93FEF752F80B
:10346000C4F80871C4F810B13046C4F814510AF019
:1034700003F904F5C67318460C93FEF743F804F5F8
:10348000D073C4F88C71C4F894B11846C4F898513C
:103490000493FFF753FF04F5F67318460593FFF7FF
:1034A0004DFF04F50E73184603930AF0E5F804F592
:1034B0002A7318460B93FEF725F804F52F73C4F80A
:1034C000A872C4F8B0B21846C4F8B452079309F011
:1034D0001DFA04F5417318460A93FEF713F804F534
:1034E0004673C4F80473C4F80CB31846C4F81053F8
:1034F000089309F00BFA04F5587318460993FEF780
:1035000001F804F55D73C4F86073C4F868B3184635
:10351000C4F86C530693FFF733FF634A04F58053F6
:10352000C3E97F24614A4FF46161C3E9812504F551
:103530007B704FF4A07B0CF00DFC2A464846F0232C
:103540002946CDF800B0FFF7C0FE271D4FF07F439E
:103550004946A366384606F0A1FB2A465046F023AA
:103560002946CDF800B0FFF7B0FE514BC4F89430B7
:103570004FF00A095146384606F090FB4046462374
:103580004FF496725821CDF80090FFF79EFE494BFC
:10359000C4F8143143F64473A022A4F818310D9BEB
:1035A000C4F8C030114640460AF07CF9A0224046DB
:1035B0004FF402610AF081F940464946FFF71CFFCB
:1035C000404601210AF084F94146384606F066FB80
:1035D000304646234A465521CDF80090FFF775FE48
:1035E000354BC4F898314FF26103A022A4F89C3106
:1035F0000C9BC4F84431114630460AF053F9A0221E
:1036000030464FF402610AF058F930464946FFF758
:10361000F3FE304601210AF05BF93146384606F0E8
:103620003DFB1E236E220498009329461423FFF7C6
:103630004CFED4F8A0310499D3F88430A4F8D451C6
:103640000EAE4FF0FF3A3046C4F8D0A1984796E846
:10365000070004F5EE784FF0030388E8070084F8CC
:10366000D831D4F8A0310499D3F884303046984743
:1036700096E80700114B1B6888E8070004F5767888
:103680002BB90F4B0F4A60210F4822F045FF0F4B1B
:103690001B88042B1ED80E4B0A4A6121F4E700BF99
:1036A000288C020844910208108C02082B32000872
:1036B000613E02FF23EB3EFF0F0FF2FFF4380120C3
:1036C000EF810208F18202086C820208F8380120BA
:1036D000B3820208784B0421186800F0D3FE774AC1
:1036E00003460521404612F083FE4FF00502049880
:1036F000C4F8E88114A9DFF8D081ADF85420CDF8E2
:1037000050800AF043FF0499384606F0C7FA1E219C
:10371000A5220598009114232946FFF7D6FDD4F879
:10372000EC310599D3F88430C4F81CA23046A4F8D3
:103730002052984796E8070004F50A7383E80700CB
:10374000D4F8EC2104934FF003013046D2F88420E2
:1037500084F824120599904796E80700049B83E8B3
:103760000700574A136804F2E236002B89D0554A05
:103770001388062B8FD9504B0621186800F082FE63
:103780004E4A03460521304612F032FE07230598C3
:10379000C4F8346214A9ADF85430CDF85080042632
:1037A0000AF0F4FE0599384606F078FA0398009678
:1037B0002946F0239E22FFF788FD0B9BC4F8603258
:1037C000A0220398C4F8B4A21146A4F8B8A20AF043
:1037D00069F8A02203984FF4EB510AF06EF80398B1
:1037E0004946FFF709FE039802210AF071F8039990
:1037F000384606F053FA0823079800939C22742158
:10380000FFF763FD8023C4E9BA33C4F8F0324FF602
:10381000FF734FF43458A4F814330A9B0799C4F883
:10382000E4323846C4F8FC52C4F8F452C4F8F882C2
:10383000C4F810A306F032FA1423089800939622D5
:103840006E21FFF742FD6FF0FF03C4F86C334FF6B3
:10385000E073A4F87033099BC4F840330899C4F8A6
:103860004CB33846C4E9D1BBC4E9D458C4F8585362
:1038700006F014FA4FF005020698ADF84C2013A993
:1038800014AAADF85060FFF7F0FC04F58F531C3319
:10389000C4F8A43323230698C4F8B0537D220093C0
:1038A000CD21FFF712FD3846069906F0F7F92046BC
:1038B00017B0BDE8F08F00BF003901203C8302083B
:1038C000F4380120F838012090890208406A7047D6
:1038D000806A704770478A880B8810B5D20A4C8876
:1038E000C1699BB251F8220043EA0443184410BD59
:1038F00010B50446BAB1107B68B1537BD27A1B0273
:1039000003F4E0631A43236A03EB82031A888A42B2
:1039100002D193F9020010BD05D8013880B20433FA
:103920000028F3D1F7E70020F5E710B52C21044675
:1039300021F0B6FE204610BD30B58BB00446BDF870
:1039400060500895BDF85C5007959DF8505006955D
:103950009DF84C5005959DF8485004959DF84450AD
:1039600003959DF8405002959DF83C500195BDF897
:103970003850009510F018F9064B2360159BE36151
:10398000169B2362199B63621A9BA36220460BB0AD
:1039900030BD00BF648C020870477047704730B478
:1039A000C26844685510034604EB6200D20748BF62
:1039B00062599B6830BC48BFD358184703464068DB
:1039C00030B19A681AB9D86800F001007047012038
:1039D000704710B51021044621F062FE204610BD4C
:1039E00010B54FF4BE71044621F05AFE204610BDBA
:1039F000C430884208B505D10EF0C8FABDE80840C9
:103A0000FFF7A6BA08BD0000F8B5194B018F1B8857
:103A10008B4206462AD9174B1B682BB9164B174AFF
:103A200017486C2122F078FD13F81120154B1B6804
:103A300053F82250144B186800F024FD2B680746F9
:103A40009B6B284698472B6804469B6C3946284652
:103A500098472B6814FB00F45B6A39462846984760
:103A6000A4B223181BB2A6F84630F8BD0023FAE72B
:103A7000F8380120F4380120EF8102083182020871
:103A80006C820208FC380120003901202DE9F04F3A
:103A900004468BB0A146002510F070FB774BE56320
:103AA00049F8403B04F16C0A484604F19808FFF7D6
:103AB00031FC5046FFF72EFC04F1C4074FF6FF76A9
:103AC00008A94046ADF820600AF00EF838460BF021
:103AD00085FA4FF48073A4F83031694BC4F834315F
:103AE0004FF47F03C4F84031664BC4F80C314FF0FB
:103AF000FF33C4E95335644BA4F83861C4E95B343F
:103B0000624BC4F83C514FF4A07BC4E95D352A46B2
:103B10004846C4E94455C4E94655C4E94855C4E992
:103B20004A55A4F84451C4F84851C4F85451F023FC
:103B30002946CDF800B0FFF7C8FB261D4FF07F43A4
:103B40004946A366304606F0A9F82A46F0232946DE
:103B50005046CDF800B0FFF7B8FB4D4BC4F8943099
:103B60005146304606F09AF84FF00309404608A93E
:103B7000ADF820900BF0FAF84FF483736FF0250244
:103B8000404600932946F023FFF79FFB4046294615
:103B900009F065FF4146304606F080F83846F122CC
:103BA0002946FFF755FB4FF00108022308AA07A991
:103BB0003846ADF82030ADF81C800AF010FF3846CA
:103BC000A4F8FC90FFF720FF324A4FF0FF33C4E91E
:103BD000402304F5B6733946C4F8EC30304606F09D
:103BE0005DF804F586771523B52200934D215A23FD
:103BF0003846FFF76AFB284BC4F83C31D4F80C3147
:103C0000A4F840510DF108094846D3F884303946EC
:103C1000984799E8070004F5A47383E807001F4B51
:103C20001B6804F5AC792BB91D4B1E4A60211E4858
:103C300022F072FC1D4B1B881BB91D4B194A6121D8
:103C4000F5E71C4B2946186800F01CFC1A4A03468D
:103C50000A21484612F0CCFB094BC4F8549108A93C
:103C600038460893ADF824800AF090FC3046394677
:103C700006F014F820460BB0BDE8F08FE48C020883
:103C800090890208E08A0208CC8C0208F139000809
:103C90000B0B4CFFB205AAFFE685E1FFF4380120CB
:103CA000EF810208F18202086C820208F8380120D4
:103CB000B3820208003901203C8302087047704734
:103CC00070477047704790F82C304BB100F16C0290
:103CD0001268C2653BB100F174031B68036670474C
:103CE00000F16802F4E700F17003F6E730B4C2684F
:103CF00044685510034604EB6200D20748BF62597E
:103D00009B6830BC48BFD35818470346406830B161
:103D10009A681AB9D86800F001007047012070470E
:103D200090F82D3080F8A43080F85A30704790F821
:103D30002D3080F85A30704710B57821044621F0B4
:103D4000AFFC204610BD10B5A821044621F0A8FC08
:103D5000204610BD10B51021044621F0A1FC2046DC
:103D600010BD10B54FF4CE71044621F099FC2046E9
:103D700010BD10B504467C3094F82C303BB104F1F2
:103D80007A010AF0F3FF2046FFF79DFF10BD04F112
:103D90007801F6E7E430884208B505D10EF0F6F870
:103DA000BDE80840FFF7E4B808BD0B882DE9F041F5
:103DB000A0F878301388B0F90850A0F87A3004469B
:103DC0001046904612F0CEFBB4F90A30074603EBDA
:103DD000D3734046C3F34F0612F0F8FB05EBD575DD
:103DE000C5F34F0500EBD07007EBD777A6EB600269
:103DF000A5EB670104F17C0012B209B2FFF728FAC3
:103E000023682046D3F88C30BDE8F0411847000005
:103E100038B5262204460D46002122F084FD2046B6
:103E2000FFF766FA064B23602B88E384FF232046C6
:103E300084F8283029460AF099FF204638BD00BF93
:103E4000B09602084FF47F4373B50646838540F26F
:103E50000113002583841D4B8562C0E90155C0E92B
:103E60000355C0E90555C0E90755056346F8343BDD
:103E700004463046FFF74EFA154B63632A46C4E901
:103E80001A55C4E91C552566A4F8645029463046E5
:103E9000FFF7DEF93146204605F000FF0D4B2360A9
:103EA00004F17C054FF6FF73A4F87830A4F87A305B
:103EB00001A92846ADF80430FFF7AAFF204629469D
:103EC00005F0ECFE204602B070BD00BF188D020860
:103ED00048960208B48D02082DE9F04F04468BB0D5
:103EE000A146002510F04AF9674BE56349F8403BCD
:103EF00004F16C084846FFF70DFA4FF6FF7708A962
:103F0000404604F19C06ADF82070FFF781FF5F4B3F
:103F1000E36629462622A4F89650A4F89850304625
:103F200022F001FD3046FFF7E3F9594BC4F89C300D
:103F3000584BC4F8C430A4F8C8704FF47F0304F1A0
:103F4000E4074FF0FF32C4E93725C4F8D030C4F895
:103F5000CC50A4F8D450C4F8D8503846FFF772FFBC
:103F60004D4BC4E963344D4B4FF4A07B2A46C4E962
:103F7000653529464846CDF800B0F023FFF7A5F98E
:103F800004F1040A4FF07F43A3664946504605F00A
:103F900085FE08A94046ADF820500AF073FBF023D7
:103FA0002A4629464046CDF800B0FFF78EF92A464A
:103FB000294640460AF044FB4146504605F06EFE55
:103FC000602300932D2229463046E823FFF77DF930
:103FD0000DF10808324BC4F8CC3031464046A4F805
:103FE000D0500AF02BF898E8070004F1D80383E8D2
:103FF0000700284B089308A902233046ADF8243067
:104000000AF0C4FA31465046322605F047FE2A46E9
:10401000294604F58C7000965023FFF756F90523C6
:10402000204AA4F84831204BC4E953231F4B4FF0DA
:10403000FF31C4E95513D4F8E4303846D3F88C3056
:1040400098470623ADF81C3008AA072307A938466D
:10405000ADF82030FFF7A9FE4FF00113C4F864312A
:1040600004F5C673C4F8143150231946DA223846D1
:104070000096FFF72AF95046394605F00FFE204614
:104080000BB0BDE8F08F00BF6C8E0208C49502082B
:10409000CC94020890890208548E0208953D0008CD
:1040A0001363EDFF1F5BC2FFCC9900FF996633FFDE
:1040B0007047000030B5174D2C6814F001048FB024
:1040C000BFF35B8F23D1284621F0ECFAF8B13F23F0
:1040D0000993114B0893114B079302220423CDE956
:1040E00005230122CDE9033223230D490093122237
:1040F0002A23CDE90B44CDE901440A480A94FFF78D
:104100001BFC094822F026FA284621F0D7FA054878
:104110000FB030BD202A002070BA0208C8BA0208C9
:1041200054B80208242A0020B1400008704700005B
:1041300030B5164D2C6814F001048FB0BFF35B8FBF
:1041400020D1284621F0AEFAE0B13F230993104B6D
:104150000893104B104911480A940122CDE90643F7
:104160000423CDE903320A230093CDE90B44CDE9C2
:1041700001440594FFF7E0FB094822F0EBF92846DB
:1041800021F09CFA05480FB030BD00BF502A002036
:10419000B8BA0208CCBA020850B90208542A002062
:1041A0002D4100087047000030B5164D2C6814F002
:1041B00001048FB0BFF35B8F20D1284621F072FA43
:1041C000E0B13F230993104B0893104B104911485D
:1041D0000A940122CDE906430423CDE903321423D6
:1041E0000093CDE90B44CDE901440594FFF7A4FB0E
:1041F000094822F0AFF9284621F060FA05480FB0CF
:1042000030BD00BF802A0020BCBA0208D0BA020824
:1042100060B90208842A0020A54100087047000008
:1042200030B5164D2C6814F001048FB0BFF35B8FCE
:1042300020D1284621F036FAE0B13F230993104BF4
:104240000893104B104911480A940122CDE9064306
:104250000423CDE9033228230093CDE90B44CDE9B3
:1042600001440594FFF768FB094822F073F92846DA
:1042700021F024FA05480FB030BD00BFB02A00205D
:10428000C0BA0208D4BA020870B90208B42A0020E1
:104290001D4200087047000030B5164D2C6814F020
:1042A00001048FB0BFF35B8F21D1284621F0FAF9CA
:1042B000E8B13F230993104B0893104B1049114864
:1042C0000A94CDE9064301220423CDE903321423E5
:1042D00000931122CDE90B44CDE901440594FFF789
:1042E0002BFB094822F036F9284621F0E7F905486A
:1042F0000FB030BDE02A0020C4BA0208D8BA0208C4
:1043000080B90208E42A0020954200080020704786
:10431000002070470EB403B503AB002153F8042B03
:1043200001930EF0E3FE02B05DF804EB03B07047BA
:104330000CB407B504AB53F8042B01930EF0D6FE72
:1043400003B05DF804EB02B07047000010B50446FE
:1043500010F07EF9E38E04EB43035884636C5BB387
:10436000238F2BB9174B184AC521184822F0D4F8CF
:1043700010B3204611F093FA238F012B03D8144B6E
:10438000144ACB21F1E7E28E531C9BB2092B19464C
:1043900088BFA3F10A0104EB410140F63F10498CAC
:1043A000814209D10A2B04EB420228BF002304EB0F
:1043B0004303508C588451842046BDE8104011F0CE
:1043C00071B900BF3F83020848830208F3830208E3
:1043D0003D8402084B84020810B5044611F029F907
:1043E0002046BDE8104010F02FB910B586B002ACE1
:1043F00084E806001A460AAB05930193099B0093D3
:104400002146089B0DF02CF906B010BD38B518BB3D
:10441000124B13481C681349B4B12268224402604D
:10442000626822440A60A26814440F4B00221A807A
:1044300000F038F8054600F033F80C4B1C600C4BCC
:104440001D600C4B188007E00B4B03600B4B0B609F
:104450000B4B1C68002CE8D138BD00BF1C2B002082
:10446000142B0020102B0020182B0020F4380120E2
:10447000FC380120F8380120FCBA0208DCBA020836
:1044800050BB0208044B1B6853F82100034B1B6808
:1044900003EB4000704700BF102B0020142B0020BE
:1044A0000820704700487047202B002010B5FFF708
:1044B0007BFE074C2060FFF7FDFD6060FFF738FED4
:1044C000A060FFF7E9FEE060FFF7AAFE206110BDE3
:1044D000202B002010B5002404600C6014601C60C8
:1044E00010BD704710B54FF4AE71044621F0D8F8F6
:1044F000204610BD10B50446D0F8580100F0F8FA77
:104500002046BDE810400DF0EBBD000010B504469C
:10451000FEF7EAFC014B2360204610BDA08E020886
:10452000704704387047704710B51021044621F0D9
:10453000B7F8204610BDA0F10400F5E70022826024
:10454000024A026018324260C1607047F48E02086D
:1045500008B5836859600DF019FDBDE80840FEF705
:1045600017BD704710B5034B03600446FEF7CCFD42
:10457000204610BD1C8F020810B50446FFF7F2FF5D
:10458000204641F2482121F08BF8204610BD000062
:10459000F8B50546FEF740FF0C4B2B600C4B0FCBDC
:1045A00005F58054012704F50C7684F82C7286E812
:1045B0000F000023C4E98733C4F84072C4F84432C2
:1045C00084F82432C4F828322846F8BD1C8F02082B
:1045D0002C760208FEF755BD70B500F58054012613
:1045E0002DED028B84F82462054603F087FA1E4BFA
:1045F000C4F80C321D4BC4F81032D4F84032C4F861
:104600002802B34222D194ED8D8A0226C4F840627A
:10461000B0EE480A21F08CF830EE000A05F5467538
:1046200084ED850AB0EE480A21F0C6F830EE000AA3
:10463000284684ED860A96226E21FCF788FEBDECA2
:10464000028B2846BDE8704008F052BE022B1BBF0B
:1046500003F28C4305EB830394ED8E8A93ED008A7D
:1046600008BF0326D2E700BF0000DC42000016436B
:1046700010B500F580530446D3F81C32054A0521D5
:1046800000F5767011F0B4FE04F5D070BDE810406E
:104690000EF033BE1D85020810B500F580530446A8
:1046A000D3F82032054A052100F2E23011F0A0FED5
:1046B00004F5F670BDE810400EF01FBE1D8502081F
:1046C0002DE9F04F00F5805489B094F82C3205465E
:1046D00023B1FFF781FF002384F82C3294F82432B1
:1046E00023B303F00BFAD4F82832C01AB0F57A7F5E
:1046F000C0F0A98194ED847AD4ED837ABDEEC77AB7
:104700000023FDEEE77A84F8243217EE103A1AB24D
:1047100017EE903A05F54675284619B2FCF717FED4
:10472000284609B0BDE8F04F08F0E2BDB5F91E33E8
:1047300094ED857AB5F92071D4ED865AB5F922B198
:10474000B5F99C60B5F99EA006EE903AB5F91C3318
:1047500007EE903AF8EEE77A06EE107A77EE877A6F
:10476000B3EE045AF8EEE66A77EE854AB8EEC66A0A
:1047700076EEA56AF4EEC64AF1EE10FAC4ED837A3D
:10478000C4ED846A24DB07F1460306EE103AB8EE66
:10479000C66AF4EEC67AF1EE10FA19D806EE10BA2F
:1047A000B8EEC66AF4EEC66AF1EE10FA10DB0BF151
:1047B0000A0306EE103AB8EEC66AF4EEC66AF1EEE7
:1047C00010FA9EBFF1EE655AC4ED865A84ED846AF4
:1047D00006EE906AF8EEE66AF4EEE64AF1EE10FABA
:1047E00030DB06F1460306EE903AF8EEE66AF4EEA8
:1047F000E67AF1EE10FA25D8D4ED846A06EE10AA16
:1048000076EE856AB8EEC66AF4EEC66AF1EE10FA84
:1048100018DB0AF10A0306EE103AB8EEC66AF4EEA7
:10482000C66AF1EE10FA0DD8D4ED866AAAF1140327
:10483000F1EE666AC4ED866A06EE903AF8EEE66A34
:10484000C4ED846AF5EEC07AF1EE10FA4FF0000381
:104850002CD8C4F80C32B1EE477A84ED857AD4EDC9
:10486000847AF5EEC07AF1EE10FA00F2EF80D4ED22
:10487000867AC4F81032D4F82032F1EE677A013328
:10488000C4F82032C4ED867A2846FFF705FFD4F835
:104890002032092B15DD0221E86BFFF759FE0DF0E0
:1048A00075FB09B0BDE8F04FFEF772BBDFED857A0E
:1048B000F4EEE74AF1EE10FAD1DB834AC4F80C2299
:1048C000C9E72846FFF788FE94ED847AD4ED837A11
:1048D000BDEEC77AFDEEE77A17EE103A1AB217EE80
:1048E000903A05F5467019B2FCF731FD7748002380
:1048F00000681A4602A903F063FA002840F0A3807A
:10490000BDF808309FED726ADFED726AA3F50063AF
:1049100007EE903AF8EEE77A67EE867AF4EEE67AFA
:10492000F1EE10FA40F3B48077EEE67AB0EE087A52
:1049300027EE877ABDF80C30A3F5006307EE903AB6
:10494000F8EEE77A67EE867AF4EEE67AF1EE10FAA0
:1049500040F3AB8077EEE67AF0EE086A67EEA67A6F
:10496000BDEEC77AFDEEE77A17EE101A17EE904A01
:1049700039443444AA29A8BFAA21AA2C21EAE1710A
:10498000A8BFAA2424EAE4748F42B946A8BF894686
:10499000A642B046A8BFA0468F42B8BF01F1460765
:1049A000A9F10209A8BF4637A642A8F10208A7EB61
:1049B0000907B4BF04F146064636043729EAE97907
:1049C000A6EB0806043609EB070328EAE878F02B83
:1049D00008EB0603C8BFC9F1F007F02B4FF00A033C
:1049E0005A4605F58E70009309B24FF04603C8BFD2
:1049F000C8F1F006FEF769FC0A23524605F198005B
:104A0000009321B246230435FEF75FFCABF1020BA5
:104A10000E2304A92846AAF1020AADF81090ADF8B9
:104A200012B0ADF81470ADF81630ADF81880ADF8CE
:104A30001AA0ADF81C60ADF81E300EF0AFFC06A950
:104A400028460EF0ABFC09B0BDE8F08F77EE857A12
:104A50009FED217AF4EEC77AF1EE10FAFFF634AF4B
:104A60001E4BD4ED867AC4F81032D4F81C32F1EE25
:104A7000677A0133C4F81C32C4ED867A2846FFF702
:104A8000F7FDD4F81C32092B7FF71BAF012103E798
:104A90009FED137AF4EEC77AF1EE10FA02D577EEB5
:104AA000A67A43E79FED0F7A44E79FED0D6AF4EE97
:104AB000C67AF1EE10FA02D577EEA67A4CE7DFED72
:104AC000097A4DE70000704300005C436027002036
:104AD0000000003A0000C83D0000A04300009643DB
:104AE0000000C8BD000000000022C0E9002270479D
:104AF0007047704704387047704710B5102104465E
:104B000020F0CEFD204610BDA0F10400F5E7000026
:104B100000228260024A026018324260C16070471F
:104B2000588F0208836858687047704710B5034B68
:104B300003600446FEF731FF204610BD808F020857
:104B400010B50446FFF7F2FF20464FF4BE7120F087
:104B5000A7FD204610BD000010B50446C06BFFF74E
:104B6000E1FF064A03460A2104F5AC7011F040FC4F
:104B700004F58670BDE810400EF0BFBB1D8502082D
:104B800010B50446FEF782FF034B23602046FFF773
:104B9000E3FF204610BD00BF808F020810B5044619
:104BA000FEF7FCFE04F5AC73C4F854312046BDE8B2
:104BB0001040FFF7D1BF704704387047704710B5F9
:104BC0001021044620F06CFD204610BDA0F1040029
:104BD000F5E7000000228260024A0260183242605B
:104BE000C1607047B48F02087047000010B5034BD6
:104BF00003600446FFF765F8204610BDDC8F02080D
:104C000010B50446FFF7F2FF20464FF4CE7120F0B6
:104C100047FD204610BD000010B50446FFF75CF9C3
:104C2000014B2360204610BDDC8F0208FFF74AB815
:104C3000F02070474FF4A07070472920FDF7A2B80C
:104C40002820FDF79FB808B5FDF770F8CA20FDF7DA
:104C500099F8C320FDF77AF80820FDF777F850207F
:104C6000FDF774F8CF20FDF78DF80020FDF76EF802
:104C7000C120FDF76BF83020FDF768F8ED20FDF757
:104C800081F86420FDF762F80320FDF75FF8122039
:104C9000FDF75CF88120FDF759F8E820FDF772F880
:104CA0008520FDF753F80020FDF750F87820FDF738
:104CB0004DF8CB20FDF766F83920FDF747F82C209A
:104CC000FDF744F80020FDF741F83420FDF73EF8E9
:104CD0000220FDF73BF8F720FDF754F82020FDF700
:104CE00035F8EA20FDF74EF80020FDF72FF80020F8
:104CF000FDF72CF8B120FDF745F80020FDF726F868
:104D00001B20FDF723F8B620FDF73CF80A20FDF73D
:104D10001DF8A220FDF71AF8C020FDF733F8102087
:104D2000FDF714F8C120FDF72DF81020FDF70EF85F
:104D3000C520FDF727F84520FDF708F81520FDF7F9
:104D400005F8C720FDF71EF89020FCF7FFFF36207E
:104D5000FDF718F8C820FCF7F9FFF220FDF712F86C
:104D60000020FCF7F3FFB020FDF70CF8C220FCF7A1
:104D7000EDFFB620FDF706F80A20FCF7E7FFA720B5
:104D8000FCF7E4FF2720FCF7E1FF0420FCF7DEFF3F
:104D90002A20FCF7F7FF0020FCF7D8FF0020FCF7E3
:104DA000D5FF0020FCF7D2FFEF20FCF7CFFF2B2030
:104DB000FCF7E8FF0020FCF7C9FF0020FCF7C6FF66
:104DC0000120FCF7C3FF3F20FCF7C0FFF620FCF7F3
:104DD000D9FF0120FCF7BAFF0020FCF7B7FF06203F
:104DE000FCF7B4FF2C20FCF7CDFFC820FDF718F826
:104DF0002620FCF7C7FF0120FCF7A8FFE020FCF706
:104E0000C1FF0F20FCF7A2FF2920FCF79FFF242001
:104E1000FCF79CFF0C20FCF799FF0E20FCF796FF97
:104E20000920FCF793FF4E20FCF790FF7820FCF759
:104E30008DFF3C20FCF78AFF0920FCF787FF132039
:104E4000FCF784FF0520FCF781FF1720FCF77EFFAD
:104E50001120FCF77BFF0020FCF778FFE120FCF736
:104E600091FF0020FCF772FF1620FCF76FFF1B205C
:104E7000FCF76CFF0420FCF769FF1120FCF766FFCC
:104E80000720FCF763FF3120FCF760FF3320FCF7BD
:104E90005DFF4220FCF75AFF0520FCF757FF0C206E
:104EA000FCF754FF0A20FCF751FF2820FCF74EFFC7
:104EB0002F20FCF74BFF0F20FCF748FF1120FCF7D9
:104EC00061FFC820FCF7ACFF2920FCF75BFFBDE8C1
:104ED00008402C20FCF756BF08B5FCF727FF03213C
:104EE000D320FCF76BFF80B208BD10B5C4B202221C
:104EF00003212046FCF7D0FE0A20FCF715FF2046D0
:104F000000220321FCF7C8FEBDE810400220FCF798
:104F10000BBF38B50446E4B2FCF7BCFE00212046C6
:104F2000FCF7D2FE012105462046FCF7CDFE40EA03
:104F3000052080B238BD10B5C4B240212046FCF730
:104F4000C3FE030607D54C212046FCF7BDFE003802
:104F500018BF012010BD01224B212046FCF79CFE0A
:104F6000204600224B21FCF797FE0020F2E773B5A4
:104F70000423C4B20E461546D7210DEB030220468A
:104F8000FCF7BCFE019B1BBA1A0DC3F30B23328046
:104F900020462B8001224B21FCF77EFE00224B2174
:104FA0002046FCF779FE02B070BD000010B50A4A39
:104FB0001378984204460DD0517888420AD00BB13C
:104FC00041B90123D454FCF765FE2046BDE81040EA
:104FD000FFF78BBF10BD00BF342B002010B5C4B24B
:104FE00009212046FCF770FE40F00102D2B22046B3
:104FF0000921BDE81040FCF74FBE10B5C4B209212D
:105000002046FCF761FE092100F0FE022046BDE8C3
:105010001040FCF741BE38B5C4B20D4620460A2107
:10502000FCF752FE40EA0502D2B220460A21BDE852
:105030003840FCF731BE10B50446FCF72CFE204684
:105040001F21FFF7E8FF2046BDE81040FFF7C6BF6D
:1050500038B5C4B20D4620460A21FCF735FE20EAD9
:105060000502D2B220460A21BDE83840FCF714BE42
:1050700010B50446FFF7C1FF20461F21BDE81040D0
:10508000FFF7E6BF10B5C0B20C460B21FCF71CFEC3
:10509000204010BD1F21FFF7F5BF0A46C0B20B210B
:1050A000FCF7FABD1F21FFF7F8BF38B5C4B20D46B3
:1050B00020461721FCF708FE20EA0502D2B220465E
:1050C0001721BDE83840FCF7E7BD70B5C4B206460D
:1050D00004212046FCF7F8FD042100F0FB02054600
:1050E0002046FCF7D9FD3046F021FFF7DEFF05F042
:1050F000F80220460421FCF7CFFD4922202120465A
:10510000FCF7CAFD0220FCF70FFE204601222121F8
:10511000FCF7C2FD20469A224121FCF7BDFD204646
:1051200001224A21FCF7B8FD204601224B21FCF761
:10513000B3FD204600224B21FCF7AEFD20460122A4
:105140005621FCF7A9FD204601225821FCF7A4FDB9
:10515000204601224021FCF79FFD2046FF220B2123
:10516000FCF79AFDBDE870400220FCF7DDBD0000B1
:10517000054BD3F8882042F47002C3F888204FF022
:1051800000629A60704700BF00ED00E008B50B4B6D
:105190001A6842F400721A601A6842F480621A6057
:1051A0001A6842F480721A60032000F061FA00204D
:1051B000FDF7D0F8FCF742FE002008BD003C02409D
:1051C000034A044B11681B780B441360704700BFFF
:1051D000382B002078000020014B1868704700BF72
:1051E000382B002038B50446FFF7F6FF631C1CBFC0
:1051F000054B1B78054618BFE418FFF7EDFF431B6E
:10520000A342FAD338BD00BF7800002038B5044669
:10521000002800F09B80056C25B9FCF72FFE656423
:1052200084F83C50236CDB0600F18E80236C23F461
:10523000885323F0020343F002032364444B5A686B
:1052400022F440325A605A6861680A435A602368FF
:1052500021695A6822F480725A605A6842EA01222F
:105260005A605A68A16822F040725A605A680A432C
:105270005A609A68E16822F400629A609A680A4368
:105280009A603449A26A8A4252D0996821F07061CA
:10529000996099680A439A609A68E16A22F04052DC
:1052A0009A609A680A439A609A6822F002029A60A9
:1052B0009A68217E42EA41029A6094F82020002AEE
:1052C0003ED05A68616A42F400625A605A6822F419
:1052D00060425A605A68013942EA41325A60DA6AD9
:1052E000E16922F47002DA62DA6A013942EA0152B3
:1052F000DA629A6822F400729A609A6894F8301020
:1053000042EA41229A609A68616922F480629A6056
:105310009A68002042EA81229A606064236C23F03C
:10532000030343F001032364002384F83C3038BDB9
:105330009A6822F070629A609A6822F04052B2E74E
:105340005A6822F40062C9E70120EDE70120EEE788
:10535000002301400100000F82B00023019390F868
:105360003C30012B69D0012380F83C3003689A68F7
:10537000D2070BD59A68D1071AD4036C43F01003F7
:105380000364436C43F0010343644CE09A682C4986
:1053900042F001029A602B4A1268B2FBF1F202EB72
:1053A00042020192019A002AE4D0019A013AF8E7F8
:1053B000026C22F4E06222F0010242F48072026484
:1053C0005A68520541BF026C22F4405242F48052A6
:1053D0000264026C12F480521CBF426C22F006027E
:1053E0004264002280F83C206FF022021A60164AC4
:1053F000516811F01F0F15491CD18B4207D001F5E0
:1054000080718B420CD1526812F01F0F0BD19A6839
:1054100012F0405F07D19A6842F080429A6002E041
:105420000B498B4202D0002002B07047526812F044
:10543000100FEBE78B42F6D1E9E70220F4E700BF5B
:1054400040420F0074000020002301400020014072
:105450000022014090F83C30012B14D003689A6878
:1054600022F001029A609B68DB0707D4036C23F4E7
:10547000885323F0010343F001030364002380F801
:105480003C30184670470220704703689A685205FE
:1054900070B504460D460BD59B68DE0508D5036C38
:1054A00043F020030364002380F83C30012070BDEA
:1054B000FFF792FE064623681A6891070CD56FF035
:1054C00012021A60226C42F4007222649A6812F08E
:1054D000405F17D00020EAE7681CEDD065B923686B
:1054E0001B6813F00203E6D1226C84F83C3042F0D2
:1054F000040222640320DAE7FFF76EFE801BA84255
:10550000EDD8D8E7227E002AE4D1DA6A12F4700FCF
:1055100002D09B685A05DDD4236C23F48073236486
:10552000236CDB04D6D4236C43F001032364D1E75E
:105530000368D86C70470000F7B50023019390F81A
:105540003C30012B054600F08680012380F83C307A
:1055500008682B688E68092884B233D904EB4402AA
:10556000DF681E3A4FF0070C0CFA02FC27EA0C0722
:10557000DF60DF6806FA02F23A43DA60496806291A
:1055800001EB81022DD8596B053A1F26964021EA7E
:1055900006015963596B04FA02F20A435A632F4A0F
:1055A00093420AD1122837D12D4B5A6822F40002B7
:1055B0005A605A6842F480025A60002085F83C0024
:1055C00003B0F0BD1A6900EB400C072707FA0CF78F
:1055D00022EA07021A611A6906FA0CF616431E61DE
:1055E000CCE70C294FF01F010BD81E6B233A9140DA
:1055F00026EA01011963196B04FA02F20A431A63DD
:10560000CDE7DE6A413A914026EA0101D962D96AC2
:1056100094400C43DC62C2E7124B984201D011283F
:10562000CBD10F4B5A6822F480025A605A6842F478
:1056300000025A600B4B9842BFD10B4B0B4A1B68C0
:10564000B3FBF2F30A2253430193019B002BB4D026
:10565000019B013BF8E70220B2E700BF00200140B8
:1056600000230140120000107400002040420F008F
:105670000749CA6822F4E0620302120403F4E063FB
:10568000120C134343F0BF6343F40033CB60704705
:1056900000ED00E0164B30B5DC68C4F30224C4F121
:1056A0000703251D042B28BF0423062D4FF0FF35CB
:1056B0008CBF033C002405FA03F321EA0303A54051
:1056C00022EA0502A340002843EA0203ACBF00F12E
:1056D0006040084A4FEA0313B8BF00F00F00DBB286
:1056E000AABF00F56140135480F8003330BD00BFFD
:1056F00000ED00E014ED00E0002807DB044A41095A
:10570000012300F01F00834042F82130704700BFA2
:1057100000E100E010B5044650B1437903F0FF0208
:1057200013B90271FCF702FC01236371002010BD64
:105730000120FCE710B5044620B390F8393003F09F
:10574000FF021BB980F83820FCF708FC022384F81C
:105750003930236861681A6822F440320A431A60BB
:105760005A6BA16822F007020A435A631A6CE16877
:105770006FF30D020A431A6400200123E06384F8EA
:10578000393010BD0120FCE770477047036870B5E1
:105790005E681D68F207044614D5E90512D51A683B
:1057A00022F480721A60C26B42F00102C2630122CD
:1057B0009A60042380F83930002380F83830436938
:1057C00003B19847B20616D5AB0414D523681A68FE
:1057D00022F400521A6020229A60E36B43F0020325
:1057E000E363042384F83930002384F83830636994
:1057F0000BB120469847300716D5290514D52368E4
:105800001A6822F400621A6008229A60E36B43F07F
:105810000403E363042384F83930002384F8383028
:1058200063690BB12046984772070BD56B0509D504
:1058300023681A6822F480621A6004229A60204663
:10584000FFF7A2FFB00714D5A90512D523681A687F
:1058500022F400721A6002229A60E36BE363012370
:1058600084F83930002384F8383023690BB120469E
:105870009847F20613D5EB0411D523681A6822F471
:1058800080521A6010229A60E36BE363012384F86C
:105890003930002384F838302046FFF776FF70BD9A
:1058A000F0B590F83820012A03464FF002002BD0C3
:1058B000012283F8382083F8390003EB0112D2E982
:1058C0000740556A174F44EA0040093C012C9CBF31
:1058D00005F07F4210434FEA01161A6888BF40EA7C
:1058E000056091B9516A394001435162012C9969AF
:1058F000916103D8596A21F07F4191620122002011
:1059000083F8392083F83800F0BDD169394001436C
:10591000D1619919012C896911619CBF25F07F45DE
:105920001562EBE7F0FFFC002DE9F74FDFF8BC91C3
:105930006C4A00230D6801249C4004EA0506AC4330
:1059400040F0B7804D68032705F003044FEA430891
:1059500007FA08FC671E012F6FEA0C0C34D8876821
:1059600007EA0C0ECF6807FA08F747EA0E078760C8
:10597000476827EA060EC5F300179F4047EA0E075F
:105980004760C76807EA0C0E8F6807FA08F747EA0E
:105990000E07022CC76019D14FEAD30A00EB8A0A1E
:1059A00003F0070BDAF820704FEA8B0B4FF00F0E65
:1059B0000EFA0BFE27EA0E0E0F6907FA0BF747EAFD
:1059C0000E07CAF8207001E0032CDAD1076804FA48
:1059D00008F407EA0C073C4315F4403F046068D024
:1059E00000240194D9F8444044F48044C9F8444068
:1059F000D9F8444023F0030707F1804704F48044BA
:105A000007F59C37019403F0030C019CD7F808E0DC
:105A10004FEA8C0C0F2404FA0CF42EEA040E324CDC
:105A2000A0424DD004F58064A0424BD004F58064C0
:105A3000A04249D004F58064A04247D004F58064B8
:105A4000A04245D004F58064A04243D004F58064B0
:105A5000A04241D004F58064A0423FD004F58064A8
:105A6000A0423DD004F58064A04214BF0A2409245A
:105A700004FA0CF444EA0E04BC609468F74315F48D
:105A8000801F0CBF3C4034439460D46815F4001F61
:105A90000CBF3C403443D460546815F4003F0CBF45
:105AA0003C40344354601468ED0354BF3C403443DD
:105AB00014600133102B7FF43DAF03B0BDE8F08FCD
:105AC0000024D5E70124D3E70224D1E70324CFE75C
:105AD0000424CDE70524CBE70624C9E70724C7E75C
