:020000040800F2
:10000000000003205D060008ED230008EF23000830
:10001000F1230008F3230008F52300080000000086
:10002000000000000000000000000000316900082E
:10003000F723000800000000C169000849620008B9
:10004000AD060008AD060008AD060008AD060008C4
:10005000AD060008AD060008AD060008AD060008B4
:10006000AD060008AD060008AD060008AD060008A4
:10007000AD060008AD060008AD060008AD06000894
:10008000AD060008AD060008AD060008AD06000884
:10009000AD060008AD060008AD060008AD06000874
:1000A000AD060008AD060008AD060008AD06000864
:1000B000AD060008AD060008AD060008AD06000854
:1000C000AD060008AD060008AD060008AD06000844
:1000D000AD060008AD060008AD060008AD06000834
:1000E000AD060008AD060008AD060008AD06000824
:1000F000AD060008AD060008AD060008AD06000814
:10010000AD060008AD060008AD060008AD06000803
:10011000AD060008AD060008F9230008AD0600088A
:10012000AD060008AD060008AD060008AD060008E3
:10013000AD060008AD060008AD060008AD060008D3
:10014000AD060008AD060008AD060008AD060008C3
:10015000AD060008AD060008AD060008AD060008B3
:10016000AD060008AD060008AD060008AD060008A3
:10017000AD060008AD060008AD060008000000004E
:10018000AD060008AD060008AD060008AD06000883
:10019000AD060008AD060008AD060008AD06000873
:0C01A00005240008AD060008112400082A
:1001B00010B5054C237833B9044B13B10448AFF3A1
:1001C00000800123237010BD800300200000000088
:1001D000F43D020808B5034B1BB103490348AFF3D4
:1001E000008008BD0000000084030020F43D0208E8
:1001F00001F0FF01102A2BDB10F0070F08D010F8D8
:10020000013B013A8B422DD010F0070F42B3F6D1DB
:10021000F0B441EA012141EA014122F007047FF0F4
:1002200000070023F0E80256083C85EA010586EA4B
:10023000010685FA47F5A3FA87F586FA47F6A5FA87
:1002400087F68EB9EED1F0BC01F0FF0102F0070293
:1002500032B110F8013B013A83EA010313B1F8D13E
:100260000020704701387047002D06BF354603381F
:10027000073815F0010F07D1013015F4807F02BF58
:10028000013015F4C03F0130F0BC0138704700BFA9
:100290007BB972B90029BEBF00204FF0004106E0D3
:1002A00008BF00281CBF6FF000414FF0FF3000F086
:1002B000D3B9ADF1080C6DE904CE002909DB002BA0
:1002C0001ADB00F04DF8DDF804E0DDE9022304B0AC
:1002D0007047404261EB4101002B1BDB00F040F80E
:1002E000DDF804E0DDE9022304B0404261EB4101A6
:1002F000524263EB43037047524263EB430300F007
:100300002FF8DDF804E0DDE9022304B0404261EBA0
:1003100041017047524263EB430300F021F8DDF8DE
:1003200004E0DDE9022304B0524263EB430370476B
:1003300053B94AB9002908BF00281CBF4FF0FF314C
:100340004FF0FF3000F088B9ADF1080C6DE904CE34
:1003500000F006F8DDF804E0DDE9022304B07047A0
:100360002DE9F047089D8E4604468846002B4AD169
:100370008A42174662D9B2FA82F64EB1C6F120031C
:1003800001FA06F820FA03F3B74043EA0808B4403C
:100390004FEA174E1FFA87FCB8FBFEF1230C0EFB49
:1003A000118843EA084301FB0CF29A4209D9FB1871
:1003B00001F1FF3080F0EA809A4240F2E780023992
:1003C0003B449A1AA3B2B2FBFEF00EFB102243EAA2
:1003D000024300FB0CFC9C4509D9FB1800F1FF32DD
:1003E00080F0D6809C4540F2D3803B44023840EAFE
:1003F0000140A3EB0C0300211DB1F3400022C5E92D
:100400000032BDE8F0878B4205D90DB1C5E9000186
:1004100000210846F5E7B3FA83F1002946D1734578
:1004200002D3824200F20581841A6EEB030201209E
:100430009046002DE5D0C5E90048E2E7002A00F02B
:100440009080B2FA82F6002E40F0A4808A1A030C43
:100450004FEA174E80B2BCB20121B2FBFEFC0EFB8C
:100460001C2243EA024304FB0CF29A4207D9FB1810
:100470000CF1FF3802D29A4200F2E080C4469B1A87
:10048000B3FBFEF20EFB123340EA034302FB04F41B
:100490009C4207D9FB1802F1FF3002D29C4200F2C5
:1004A000CA8002461B1B42EA0C40A5E7C1F12006A8
:1004B0008B4022FA06F71F430EFA01F420FA06F3E6
:1004C0002EFA06FE4FEA1749234300FA01F81FFAF5
:1004D00087FCBEFBF9F01C0C09FB10EE44EA0E444D
:1004E00000FB0CFEA64502FA01F209D93C1900F105
:1004F000FF3A80F09C80A64540F2998002383C4447
:10050000A4EB0E041FFA83FEB4FBF9F309FB1344BA
:100510004EEA044403FB0CFCA44508D93C1903F142
:10052000FF3E80F08280A4457FD9023B3C4443EAF1
:100530000040A4EB0C04A0FB02EC64457346E146CA
:1005400062D35FD05DB1B8EB030264EB090404FA37
:1005500006F622FA01F31E43CC40C5E900640021EF
:100560004FE7B1FBF2FC010C41EA0E4180B240EAD8
:1005700001423B4638463C46B846BE462026B1FBC3
:10058000F7F1A2EB080241EA0C4166E7014618E7E1
:1005900010462CE7C6F120022EFA02F3B740B14014
:1005A00020FA02F24FEA174E0A43B3FBFEF8BCB240
:1005B0000EFB1833110C41EA034108FB04F9B0406B
:1005C00089454FEA104380B23ED9791808F1FF3CC3
:1005D00001D289451FD8A1EB0901B1FBFEF909FB46
:1005E00004F80EFB191192B242EA0142424529D2A7
:1005F000BA1809F1FF31C4D24245C2D2A9F10201B1
:100600003A44BEE7F0459DD2BEEB02036CEB070C0B
:100610000138E14696E7A7EB09094944A8F1020C25
:10062000B1FBFEF909FB04F8DBE773467FE75046B0
:1006300066E70846FDE63B44023A33E7ACF1020CBC
:100640003B441CE749469CE7A1EB0901C446B1FBCA
:10065000FEF909FB04F8C4E7704700BFDFF834D0A7
:10066000002103E00C4B5B58435004310B480C4B0A
:1006700042189A42F6D30B4A02E0002342F8043BA8
:10068000094B9A42F9D303F053F922F045FE01F0E9
:1006900095F8704700000320FC5F0208000000206E
:1006A000640100208003002024440120FEE77047FD
:1006B00008B500F0BFFDBDE8084000F041BD00F006
:1006C000BBBD704710B50421044621F038FC20461C
:1006D00010BD000038B50C4B0C4C18800C4B822020
:1006E00019806368984740F6110398420AD1094D72
:1006F00023682C60822098472B688220DB6898470B
:10070000002038BD0120FCE7A60300204C0000209B
:10071000A4030020A80300204FF4A071F020FFF7ED
:10072000D9BF0000F7B5394D2B6804461B698220FC
:100730009847208000284ED02B680DF106025B6997
:1007400001A982209847324B1B78002B4BD0BDF873
:10075000062040F674639A423FD9ADF80630BDF8E2
:1007600006209B1A9BB20A2B42D90B22B3FBF2F351
:10077000284A1288934201D9013A93B2BDF8042065
:10078000254840F6B8318A4234D8C2F571620E323B
:10079000016892B20F25B2FBF5F2204D2D88AA42D6
:1007A00084BF05F1FF35AAB28A4215468EB22AD916
:1007B000921B91B21A4E3768BB42BAB28CBF9A1ADA
:1007C000D21A92B211440529C4BF05603360036890
:1007D00063803368A38003B0F0BDB32A9CBFB4220A
:1007E000ADF80620BBE7BDF80630A3F5B473B9E752
:1007F0000023C3E7C2F56D62083292B20E2A016887
:10080000C8D800252A46891A89B2D3E7A803002050
:1008100014260020A4030020A0030020A60300202B
:100820009C03002037B568460D461446FFF77AFF53
:10083000BDF8000030B1BDF802302B60BDF80430C7
:100840002360012003B030BD032821D8DFE800F089
:10085000020B12190F4B1A68B2FA82F252090421E4
:100860000D4803F02BBD0B4B5A68B2FA82F25209C5
:100870000821F5E7074B9A68B2FA82F25209102173
:10088000EEE7044BDA68B2FA82F252092021E7E778
:10089000704700BFAC03002000100240032821D89D
:1008A000DFE800F0020B12190F4B1A68003A18BF6C
:1008B000012204210D4803F001BD0B4B5A68003A98
:1008C00018BF01220821F5E7074B9A68003A18BFC4
:1008D00001221021EEE7044BDA68003A18BF01222A
:1008E0002021E7E7704700BFAC0300200010024062
:1008F00003280DD8DFE800F00206080A04210548A5
:1009000003F0E1BC0821FAE71021F8E72021F6E71F
:10091000704700BF0010024008B5032811D8DFE877
:1009200000F0020A0C0E0421074803F0C1FC431E2C
:100930005842584108BD0821F6E71021F4E720216C
:10094000F2E70020F3E700BF0010024070B5084D49
:1009500000240126E0B2FFF7DFFF18B12B68012B5E
:1009600018BF2E600134052C05F10405F2D170BDCD
:10097000AC030020012380F8781080F879307047AC
:100980007047002070470000034B4164003918BFD6
:1009900001211970704700BFE33601207047002025
:1009A0007047836B0BB10846184770474FF6FF70CE
:1009B0007047406803689B691847704770477047E5
:1009C0007047704710B5044600F04CFD236803499A
:1009D000D3F890302046BDE810401847000000D002
:1009E00008B503680446D3F8843098472368204646
:1009F000DB6F984700F0ECF8236820465B6F984760
:100A0000292001F0BBF900F0E3F8236820465B6F72
:100A10009847F8E710B5044608F082FD23682046A1
:100A2000D3F8BC30BDE81040184700F0FFBC00F020
:100A300003BD00F035BD00F0D5BC00F045BD00F0B1
:100A40004DBD00F0D9BC07F099BF10B58421044614
:100A500021F075FA204610BD10B590F8341090F8CA
:100A600078400C4B8C421A7809D03AB90A4A0B49A3
:100A70001488088810800C8001221A7010BD002A8A
:100A8000FCD0054A05491488088810800C80002293
:100A9000F3E700BFDC360120D8360120DA3601202A
:100AA00070B50D46194635B9094B0A4A0A4840F255
:100AB000FF2122F081F9C0E90F52084B003A18BF1C
:100AC00001221A700368BDE87040D3F890301847CF
:100AD000643E02089C3E0208EA3E0208E23601201B
:100AE00008B5094B1B888B4203D8084B1B889342DF
:100AF00005D9074B074A0848A32122F05DF9074BA7
:100B00001980074B1A8008BDD8360120DA3601203B
:100B10002F3F0208923F0208EA3E0208DE3601201B
:100B2000E0360120034690F87A0018B1586803684F
:100B30001B68184770470000012108B500220846CD
:100B400005F00CFC0A4B186028B90A4B0A4A282108
:100B50000A4822F031F900220421012005F09DFC11
:100B6000074B186018B9074B034A2C21F0E708BD62
:100B7000C0030020D53F02081E4002084D40020875
:100B8000BC0300209A400208024B4FF0FF31186866
:100B900005F02EBCC0030020014B186805F054BCC2
:100BA000C0030020024B0021186805F021BC00BFE3
:100BB000C0030020FFF7F0BF03480449006800238A
:100BC0001A4605F0A5BC00BFBC03002004000020AD
:100BD00013B5084C00231A4601A9206805F0C9FC8A
:100BE00020684FF0FF33002201A905F0C2FC02B0DB
:100BF00010BD00BFBC03002003685B6C18470120D8
:100C0000704703689B6A1847FEE740F2EF30704771
:100C1000054B0360054B4FF08062C3F88820BFF39B
:100C20004F8FBFF36F8F7047E44A020800E100E086
:100C300010B504464FF45A61FFF7EAFF204621F051
:100C40007EF9204610BD000082B0002301930E4BB8
:100C50001A6B42F400021A631A6B02F4000201924A
:100C6000019A1A6942F400021A611A6922F4000218
:100C70001A61064B064A1A61064A5A61064B4FF042
:100C800080629A6002B0704700380240A8270020B6
:100C9000E90E0008090C000800E100E008B50A2888
:100CA00009D8DFE800F006100E0808080810101038
:100CB0001000022008BD054B054A0648902122F08D
:100CC0007BF80020F6E70120F4E700BFDC400208D3
:100CD000F74002084241020838B50C46887FFFF70A
:100CE000DDFFA58AE28A164B2169586342EA054274
:100CF0005A64628BD963521B1A642568082D0ED181
:100D00009A611A615862207F0E4A42EA0062DA61F3
:100D1000E2681A620C4A5961D9601A6038BD002233
:100D2000D8611A61E1680A0A480902F4784200F4BD
:100D3000FC600243C1F3C4010A439A63034AECE72F
:100D400000B002400900010001230200012303005A
:100D500008B50B280BD8DFE800F00612100A0A0AC3
:100D60000A0808080808022008BD0520FCE7054B12
:100D7000054A06486F2122F01FF80020F4E7012001
:100D8000F2E700BFDC4002088D4102084241020840
:100D90002DE9F04191F81D800C464046FFF7D8FF41
:100DA000A77F05463846FFF7D3FF06463846FFF7CC
:100DB00075FFA18A628B444B521A1A649A61228B86
:100DC000521A1A61E28A586342EA01425A6421695E
:100DD0006268D963DA602068802828D0227F0FD823
:100DE000202867D0402865D004281AD0364B45EA21
:100DF000026545F40035B845DD6161D0334A44E011
:100E0000B0F5807F04D0B0F5007FEFD1304800E02E
:100E1000304840EA0262DA61E2681A625E62596151
:100E200032E045EA026242F40032DA61F6E7A06895
:100E3000021DDA62227F45EA026545F40035DD6174
:100E40005E625961017841B1012921D0224B234AC8
:100E500023484FF48D7121F0AFFFDA69418822F405
:100E60007F42013922F0100242EA0122DA610121B7
:100E7000154BDA6942F02002DA61DA699206FCD495
:100E800010229A600029B9D0164A1A60BDE8F08194
:100E9000B2F1FF01DA69408822F47F4200F1FF30AD
:100EA00022F0100242EA002242F0100218BF012193
:100EB000DA61DDE745EA0262034B42F40032B4E74F
:100EC00042F20132E1E700BF00B00240012301001D
:100ED000090002000A000200D7410208F14102089D
:100EE0004241020801230200024B1B685868036854
:100EF0005B691847E436012070B5044625460A4B65
:100F00000C30002660602672667245F8203B602235
:100F1000294608F05BFC04F55A63EE6024359D42D7
:100F2000FBD1204670BD00BFE44A0208034B1A689B
:100F3000D207FCD423229A60704700BF00B0024061
:100F40007047000030B50F4C2568ED07FCD4232511
:100F50000904A56041F001010225FF2B656361646E
:100F6000E0630AD00849656241EA0363E361074B25
:100F700022626061E060236030BDE561039BA36392
:100F8000034BF8E700B00240090001000100020035
:100F90000100030030B50E4C2568ED07FCD4232575
:100FA0001204A56042F001020225FF2B6563626412
:100FB000E063E16008D01B0643F00213E361054BD8
:100FC00065626061236030BD034BE3610123F9E793
:100FD00000B0024001000200020002FF30B50B4CDD
:100FE0002568ED07FCD4232512041B06A56043F4F5
:100FF0000033022542F0010265636264E063E16050
:10100000E361034B65626061236030BD00B0024064
:1010100001000200012070470C2070470C2303FBE5
:101020000100083070470C2303FB010008307047B3
:101030000120704741F20410704741F2041303FB92
:1010400001000830704741F2041303FB010008302F
:101050007047012070471020704700EB01100830E6
:10106000704700EB011008307047084601F0CEBB16
:1010700010B5034B0360044607F0D5F9204610BDB8
:101080009C4B020810B50446FFF7F2FF20461421DE
:1010900020F055FF204610BD10B5034B03600446F9
:1010A00007F0C1F9204610BD684B020810B5044690
:1010B000FFF7F2FF204641F20C1120F040FF2046DE
:1010C00010BD000010B5034B0360044607F0ABF9F8
:1010D000204610BD344B020810B50446FFF7F2FF5E
:1010E0002046182120F02BFF204610BD10B5094BDB
:1010F0000360044600F589501830FFF7B9FF04F18A
:101100002C00FFF7C9FF04F11400FFF7DBFF2046B6
:1011100010BD00BFD04B020808B50248FFF7E6FF3C
:1011200008BD00BF9C12002010B50446FFF7DEFF8B
:10113000204641F2AC2120F002FF204610BD000005
:101140002DE9F34101F0D8F9054601F0D9F9002461
:101150000146234628462246009411F05DFE274BA7
:10116000274A1A60204601F0F7FF264D264B274AF2
:1011700027489A6011F0B8FD2B68BFF35B8FDB073F
:1011800036D4284620F0DDFE90B3224C224F234B6C
:10119000236007F1180604F1140004F12C086060C4
:1011A000C4F80880E760266107F03EF91C4B6361D4
:1011B000404607F039F91B4BE362384607F034F933
:1011C00004F5805303F5A670174AC3F8382102F0DE
:1011D0000BF9224607F11401304602F037F8304689
:1011E00001F014FB114821F005FE284620F0B5FE61
:1011F0000F4802B0BDE8F041FFF7E4BB48370120DB
:101200004804002098120020680400204C040020AC
:10121000080000209C120020D4230020D04B02089C
:10122000344B0208684B02089C4B02081911000855
:10123000C4030020704700000148FFF7D1BB00BF86
:10124000C403002070B5264E264C274D274B236043
:101250003046FFF751FE284616F0E4FE24480FF012
:101260001DFA244B2448DC6000224FF48071C3E94E
:10127000121222491A86C3E91A12214983F858200A
:10128000C3E91E011F49C3F880101F491F480B60A6
:10129000F021C3E90422C3E90622C3E90822C3E915
:1012A0000A22C3E90E22C3E91022C3E91422C3E9CA
:1012B00017225A6683F870205A67C3E901650180D6
:1012C0001348018013484FF4A07101801248018037
:1012D00012490A70012283F83420114A1A6070BD45
:1012E000F40400209412002068040020543E0208F8
:1012F0004C040020C4030020000001010100000193
:10130000000450001A001400E4360120D8360120F1
:10131000DE360120DA360120E0360120DC360120FD
:10132000F84902080148FFF773BC00BFF40400202D
:101330000020704781807047C180704701817047ED
:10134000418170477047704770477047704710B4CD
:10135000C4880368121B84885B6D091B12B25DF898
:10136000044B09B218474FF6FF7383814FF0FF33E8
:1013700003621368C36110607047002070478B8858
:10138000838001207047704780F82610704790F8DE
:101390002600704710B50022B1F90840B1F90A10D3
:1013A000028042808480C18010BD00220280428081
:1013B0008280C28070470177704780ED080A7047CD
:1013C00080F82410704780F825107047012070477E
:1013D000983070478C307047843070477047704742
:1013E00070470000034B902283F85A2383F8582358
:1013F000704700BF00E100E0094A0A49D3680A4883
:10140000C3F30A03013B9BB20B801169C1F30A01CC
:10141000013901801364536B43F001035363704738
:10142000006801404A25002048250020014BD3F8E0
:10143000AC00704700680140024B0122C3F8AC10B9
:101440005A6270470068014010B52C21044620F014
:1014500076FD204610BD10B5BC21044620F06FFD7E
:10146000204610BD70B5044607F0DDFA23689D6E76
:101470000DF0ACFE01462046A8472368054AD3F884
:101480008C502046AC460023BDE87040A2F51631D2
:10149000604700BF00B004D007F0ACBA07F0B6BA9E
:1014A00007F072BA07F0E1BB90F8252012B103688B
:1014B0005B691847704790F825201AB190F82420EE
:1014C00002B1186070470000034B4FF080629A60D1
:1014D0004FF080729A60704700E100E0084B4FF0D7
:1014E0008062C3F88820BFF34F8FBFF36F8F4FF038
:1014F0008072C3F88820BFF34F8FBFF36F8F7047A0
:1015000000E100E070B50023124E8380124B0360AF
:10151000336893F8582005460AB1D86C00B998682A
:101520000368DB6A98473368B0FA80F4D86C6409C2
:1015300030B10368DB6A9847002808BF44F0010413
:101540002CB9064B064A07482C2121F035FC2846C9
:1015500070BD00BFE4360120E44B02082F420208B0
:101560008D420208C642020870B5254E3568BFF3A9
:101570005B8F15F0010540D1304620F0E2FC0028D9
:101580003BD0204C204B256104F13400C4E90035E8
:10159000C4E90255E584A562A5850FF064FB04F15A
:1015A00058000AF09DFA194BA3652046184B40F8E5
:1015B000843BFFF7A7FF174BC4F884302433C4F8EB
:1015C0008C304FF4C803C4E928350023C4F8AC308C
:1015D000C4F8B030C4F8B430C4F8B8300E480F4B7B
:1015E000C4F89050C4F89C50C4F8A850C4F898307F
:1015F00021F000FC304620F0B0FC024870BD00BF76
:101600004C2500205025002054510208044C0208AB
:101610007C4C020808510208E1130008E850020857
:1016200038B5184C23685BB3174B184A1B6C1188EC
:101630008B4216D1164B198803F02AFC236893F8C5
:101640006A200025013283F86A2083F87C50FFF776
:10165000B3FA206807F064FF2846BDE83840FFF77A
:10166000F3B803F015FC2468236820461B6A9847EA
:10167000012384F87C300020BDE83840FFF70EB924
:1016800038BD00BFE4360120006801404A25002033
:101690004825002007B5064BADF806001B68054835
:1016A00001220DF1060104F093F903B05DF804FB8B
:1016B0000C0000205426002007B5164D164C284675
:1016C00002F02AFA4FF0FF31284602F0BEFA28460F
:1016D00002F00EFBADF80400284602F09BFA20460B
:1016E00002F01AFA4FF0FF31204602F0AEFA20461F
:1016F00002F0FEFAADF80600204602F08BFA074829
:1017000000231A4601A9006804F002FF322004F009
:1017100019FED4E738280020F027002010260020EA
:1017200030B595B0102200210AA821F04CFD1422FA
:10173000002103A821F047FD00241E4B01941A6CE0
:1017400042F080521A641B6C03F080530193019B9A
:10175000194B02941A6842F440421A601B6803F461
:10176000404302930122029B4FF48033CDE90823CA
:1017700002254FF480030821CDE90E534FF4B473D2
:10178000CDE9101308A804231393129503F0D8FB96
:1017900003F09CFB0F23CDE903354FF4A0504FF429
:1017A0008053CDE90603052103A8059403F0A4FDA9
:1017B00015B030BD00380240007000402DE980486F
:1017C0009BB002F0C3F8FFF7ABFF142200210DA875
:1017D00021F0F9FC0024C94B00941A6BC84842F070
:1017E00010021A631A6B02F010020092009A019420
:1017F0001A6B42F020021A631A6B02F02002019267
:10180000019A02941A6B42F080021A631A6B02F07A
:1018100080020292029A03941A6B42F004021A6345
:101820001A6B02F004020392039A04941A6B42F0BA
:1018300001021A631A6B02F001020492049A0594E1
:101840001A6B42F002021A631A6B02F0020205924E
:10185000059A06941A6B42F040021A631A6B02F062
:1018600040020692069A07941A6B42F008021A6325
:101870001B6B03F00803224607933C21079B02F0F1
:101880001DFDA0480122022102F018FD22469D48BC
:10189000042102F013FD22469B484FF4405102F010
:1018A0000DFD01263C23032595480F940DA9022721
:1018B000CDE90D36109502F017FC92480DA9CDE93F
:1018C0000D76CDE90F4402F00FFC04238D480DA9DD
:1018D000CDE90D36CDE90F4702F006FC4FF4405339
:1018E00089480DA9CDE90D36CDE90F4702F0FCFB83
:1018F000082384480F940DA9CDE90D3502F0F4FBBF
:101900000DA9202381480F94CDE90D3502F0ECFBA1
:101910007F48804B804D036002F0DCFA7F48804BAB
:101920002C62C5E900034FF480432846C5E904341E
:10193000C5E90244C5E9064402F0CEFE102128465E
:1019400003F012F92146284603F02DF9754DDFF812
:10195000ECC1AC624FF48273C5E900C34FF4007E62
:101960001823C5E906E328460A23C5E90244C5E968
:101970000444C5E90844EB6203F0CEFF8F232246FE
:10198000394660488DF824308DF8344002F096FCDA
:1019900032464FF47A7309A9284604F019F84FF437
:1019A0007A7332460DA9284604F0BEF9324639460C
:1019B00054485D4D02F082FC9DF83430D32B04BFB7
:1019C0005A4B1E705A4B0126C5E900364FF01008DD
:1019D00040230024C5E904834FF4C073C5E90634ED
:1019E0004FF40063C5E908344FF400534FF0020A86
:1019F00004274FF0030BAB620DA907232846CDE95E
:101A00000DA3CDE90F734FF00809CDE911BAC5E96F
:101A10000247CDF84CA003F063FE4FF6FF7209A910
:101A20002846CDE90A96089409960C9403F078FEAE
:101A3000304601F0B7FF4FF6FF7209A92846CDE9FD
:101A400009A9CDE90B6403F06BFE4FF6FF7209A9FB
:101A50002846CDE909B9CDE90B7403F061FE4FF4D6
:101A60000C730893089B0C934FF6FF7209A9284644
:101A7000CDE909790B9603F053FE40F26A512846EE
:101A800003F06CFE342221460DEB020021F09BFB9B
:101A9000284D294B2C61C5E900340923C5E90536D9
:101AA0001D23C5E9073B40F20D1240F24313C5E97F
:101AB000092340F2171140F247132846C5E90B13DA
:101AC000C5E90244AC8685F8364003F0FFF8FF21F3
:101AD000F022CDE912144FF005094FF480614FF464
:101AE000A073CDE90E24CDE91419CDE916420DA954
:101AF00022462846CDE9103A22E000BF00380240D5
:101B00000010024000080240000C024000000240A9
:101B1000E82700200030024054270020005C0040ED
:101B2000A086010054260020202600201426002034
:101B3000400100A0AC260020006801400050014098
:101B4000414D18930D94ADF864408DF8664003F054
:101B500071F93E4B2B601B6898472B683C4DDB6846
:101B600098473C4B2846C5E90034C5E902A4C5E9BD
:101B70000A4AC5E90C4402F0BDF93146284602F094
:101B80006FFA354DDFF800A1424621460DA821F03D
:101B90001AFB324BAC604FF4803B2846C5E9003B52
:101BA0002C612C7685F82040EC62C5F828A0EC600A
:101BB000EE6185F830406E6101F008FF0D230DA93C
:101BC0002846CDE90D36264D0F9402F095F8424691
:101BD00021460DA821F0F7FA224BAC602846C5E952
:101BE000003BC5E90AA42C612C7685F82040EC6006
:101BF000EE6185F830406E6101F0E8FE0DA92846DF
:101C0000CDE90D960F9402F077F8FEF751FDFEF73F
:101C10004EFD04F027FB144A39460A2004F03DFC2F
:101C2000124B134A18602146124804F047FB124B2E
:101C3000124A18602146124804F040FB114B18600C
:101C400004F022FBFEE700BF0C2600201400002059
:101C5000A827002000B002403828002000200140C2
:101C6000F027002000210140C04C0208102600206F
:101C7000FC4C0208B91600081C260020D84C0208AB
:101C8000BF060008182600200100000F70477047AB
:101C90007FB5094B8DF817201B6802930DF11702D1
:101CA0000123009201930A460146044802F0BCFD5C
:101CB00007B05DF804FB00BF10000020542700208F
:101CC0007FB500238DF81730084B1B6802930A4636
:101CD00001230DF11701009101930146044802F020
:101CE00033FE9DF8170007B05DF804FB10000020DC
:101CF000542700201FB5084C24680092CDE9013418
:101D00000A4601230146054802F01EFE003818BFAE
:101D1000012004B010BD00BF100000205427002097
:101D200001F040BE10B5064C00222046042102F00E
:101D3000C5FA20460122BDE81040042102F0BEBAD7
:101D40000008024038B50B4D044601220A484FF402
:101D5000005102F0B3FA00220421284602F0AEFA44
:101D60002046FFF797FC28460122BDE838400421B1
:101D700002F0A4BA00080240000C024038B50B4D36
:101D8000044600220A484FF4005102F097FA00225C
:101D90000421284602F092FA2046FFF77BFC2846F1
:101DA0000122BDE83840042102F088BA0008024050
:101DB000000C0240F7B5144E144F05460C46304651
:101DC0000022042102F07AFA00224FF40051384632
:101DD00002F074FA2846FFF75DFC0D4B0D481B68B6
:101DE000224601A903F0A0FF384601224FF400511A
:101DF000019C02F063FA30460122042102F05EFAEF
:101E0000204603B0F0BD00BF00080240000C0240B5
:101E10000C0000205426002001F0C4BD0268034BD2
:101E20009A4201D101F0ACBD704700BF00100040E4
:101E30007047000082B00E4B00220092596C41F4B2
:101E400080415964596C01F48041009100990192DC
:101E5000196C41F0805119641B6C03F0805301939D
:101E6000019B0F216FF0010002B001F0F3BF00BF32
:101E70000038024010B514228AB0044600210DEB50
:101E8000020021F0A0F92368214A93421FD1214B7F
:101E90002148002101915A6C42F480725A645A6CB4
:101EA00002F480720192019A02911A6B42F00402CC
:101EB0001A631B6B03F0040302930821029B0323A4
:101EC000CDE9051305A902F00FF90AB010BD134AB8
:101ED0009342FAD10F4B1248002103915A6C42F4FD
:101EE00000725A645A6C02F400720392039A0491CD
:101EF0001A6B42F001021A631B6B03F00103049397
:101F0000049B20220323CDE9052305A9DBE700BFBD
:101F1000002001400038024000080240002101403A
:101F2000000002400268094B9A4282B00BD10023A4
:101F30000193074B1A6B42F480521A631B6B03F434
:101F400080530193019B02B0704700BF00300240F4
:101F50000038024007B50F4B02689A4216D10022A2
:101F6000A3F5F0430192196B41F4000119631B6B57
:101F700003F40003019305215A20019B01F06AFF3D
:101F80005A2003B05DF804EB01F096BF03B05DF892
:101F900004FB00BF00B002402DE9F043044689B0C5
:101FA0001422002103A821F00EF92268244B9A4242
:101FB00043D1244C244800250095236B43F00403AF
:101FC0002363236B03F004030093009B0195236BB1
:101FD00043F001032363236B03F001030193019B8F
:101FE0004FF012094FF400734FF001080327042645
:101FF00003A9CDE90339CDE90587079602F074F806
:102000004FF480731148079603A9CDE90339CDE950
:10201000058702F069F80295236C43F400032364FA
:10202000236C03F400030293029B236A43F400032E
:102030002362236A23F40003236209B0BDE8F0831E
:10204000005C0040003802400008024000000240EE
:10205000F0B599B004461422002107A821F0B3F886
:1020600030220DEB0200002121F0ADF822685E4B1A
:102070009A4240F0B78008230C93C02310930423A6
:1020800012930CA84FF40033159303F0FDF908B137
:10209000FFF7CEFE554B5648002400945A6C42F090
:1020A00080625A645A6C02F080620092009A019435
:1020B0001A6B42F020021A631A6B02F0200201929E
:1020C000019A02941A6B42F001021A631A6B02F031
:1020D00001020292029A03941A6B42F002021A63FE
:1020E0001A6B02F002020392039A04941A6B42F0F4
:1020F00040021A631A6B02F040020492049A05949B
:102100001A6B42F004021A631A6B02F00402059281
:10211000059A06941A6B42F008021A631B6B03F0CF
:102120000803069302250E26069B0B964FF4806348
:1021300007A9CDE90735CDE9094501F0D5FF41F6FD
:1021400058032C480B9607A9CDE907350927CDE997
:10215000094501F0C9FF032327480B9707A9CDE9DB
:102160000735CDE9094501F0BFFF4FF47063224800
:102170000B9607A9CDE90735CDE9094501F0B4FF74
:102180004FF40C631D480B9607A9CDE90735CDE93F
:10219000094501F0A9FFC02319480B9607A9CDE90D
:1021A0000735CDE9094501F09FFF082315480B9637
:1021B00007A9CDE90735CDE9094501F095FF4FF4B1
:1021C000A0530E480B9707A9CDE90735CDE909457E
:1021D00001F08AFF58202246052101F03BFE5820DD
:1021E00001F06AFE19B0F0BD0068014000380240FD
:1021F00000140240000002400004024000180240A7
:1022000000080240000C024010B5044688B01422B9
:10221000002103A820F0D7FF2268144B9A4223D153
:1022200003F56843002101915A6C114842F4801271
:102230005A645A6C02F480120192019A02911A6B4C
:1022400042F020021A631B6B03F020030293029BEF
:102250004FF4607202230321CDE903230523CDE966
:10226000061303A901F040FF08B010BD0050014063
:10227000001402402DE9F04186B0002303932B4B5C
:102280001C68002C4FD14FF00108C3F80080284B88
:1022900000949A6B274842EA08029A639B6B03EA10
:1022A00008030093022703260C25009B01A94FF683
:1022B0003F03CDE90137CDE9046501F015FF1E4864
:1022C000059501A9CDE90187CDE9034601F00CFF91
:1022D00048F233131948059501A9CDE90137CDE935
:1022E000034601F001FF4FF683731548059501A9D8
:1022F000CDE90137CDE9034601F0F6FE4CF2037358
:102300001048059501A9CDE90137CDE9034601F053
:10231000EBFE60230C48059501A9CDE90137CDE915
:10232000034601F0E1FE06B0BDE8F0818028002000
:102330000038024000140240000802400018024029
:1023400000100240000C02400004024070B588B04A
:1023500000230293204B1A6C42F010021A641B6C8B
:1023600003F010030293054601A903A8029B03F0A2
:102370006DF8069B4BBB03F059F8184E184B3360B1
:1023800040F2E733F360174BB0FBF3F3013B7360AC
:10239000304600233361B360B36103F08FFE04461F
:1023A00080B9304603F064FD044658B9362001F088
:1023B00083FD0F2D0DD822462946362001F04AFD17
:1023C000094B1D60204608B070BD03F02FF8400097
:1023D000D3E70124F6E700BF00380240842800203C
:1023E0000010004040420F007C0000207047FEE7D4
:1023F000FEE7FEE7FEE77047014803F077BD00BF48
:1024000084280020014802F0B8BC00BFAC260020A0
:10241000014801F09BBD00BFA827002001207047A4
:1024200008B520F073FF162303604FF0FF3008BD9E
:1024300008B520F06BFF16230360FEE770B50D466C
:1024400014460E46731B9C4201DC204670BDAFF360
:10245000008006F8010BF5E770B50D4614460E46F0
:10246000731B9C4201DC204670BD16F8010BAFF3D4
:102470000080F5E74FF0FF3070474FF400534B609A
:102480000020704701207047002070470A4A1168F9
:1024900008B5034609B90949116010686946034443
:1024A0008B4206D920F032FF0C2303604FF0FF303F
:1024B00008BD1360FCE700BFCC28002028440120A1
:1024C000704710B5042104461FF039FD204610BDA9
:1024D000012908B506D0022908D059B900F088FEB4
:1024E000006808BD00F084FE4068FAE700F080FE56
:1024F0008068F6E70020F4E700487047344D020892
:102500000120704713B5002451B1036801948DF880
:10251000034001AA9C680DF10303A04702B010BD5F
:102520000846FBE7C0897047008A7047C08870473B
:1025300080887047807A00F07F007047807AC009F9
:1025400070470020704700009FED010A704700BFF0
:1025500000000000704710B5082104461FF0EFFC92
:10256000204610BD7047704700F5987308684968A9
:1025700003C37047704770474160704770477047AA
:10258000064BC0F84C310023C0F8503100F5A2735F
:10259000C0F84801C0F84031704700BF412600082C
:1025A000012303727047704710B4C2684168541029
:1025B000034601EB6200D20748BF0A599B685DF8E9
:1025C000044B48BFD35818470346406830B19A6857
:1025D0001AB9D86800F0010070470120704710B5A3
:1025E0000C2104461FF0ABFC204610BD10B5102195
:1025F00004461FF0A4FC204610BD10B54FF4AE7188
:1026000004461FF09CFC204610BD10B50CF0DEFD0A
:102610000368BDE81040DB6B184710B50446D0F8DE
:10262000400158B10368DB68984738B1D4F84001DD
:1026300003689B6898470023C4F8403110BD000030
:102640002DE9F14FD0E9556A0746B06803681B6A67
:10265000984741F20313984205D8444B444AA321BA
:10266000444820F0A9FB706803681B6A98470F284C
:1026700003D8414B3E4AA421F2E7F06803681B6A85
:1026800098470B2803D83D4B394AA521E8E70CF0C1
:102690009DFDDFF8F09004300CF0BDFDD9F800008E
:1026A00010B10368DB689847D9F8000010B10368DF
:1026B0001B689847DFF8D080D8F8000010B1036895
:1026C0005B699847D7F83C0110B103685B6898478D
:1026D000D8F8000010B103681B689847D7F83C0190
:1026E00010B103689B689847F068036800215B6A33
:1026F00098474FF0000B224BC0F804B0044680F816
:1027000008B00360B068036859465B6A984705469D
:1027100000F0D6FD7068036859465B6A9847294601
:10272000064600F0ABFD331DC7F83C61C9F8004018
:10273000C8F80050CAF800302B68C6F808A0284630
:10274000DB68EE639847336830461B68984721463C
:1027500028460EF0B9FF236820461B699847236876
:102760005B69204601B0BDE8F04F18474B430208B3
:10277000D9430208B1440208F84402089B45020804
:10278000CC4D02082C37012028370120044B1B6850
:1027900093F858200AB1D86C00B99868704700BF08
:1027A000E4360120F8B5174604460E460CF0D0FD7D
:1027B000124B1C60124B2360124B0025C4E95135AB
:1027C000114BC4E953551868036801219B68C4E99B
:1027D0004F55C4E955769847284600F0BDFCFFF7F1
:1027E000D5FF17F0C8FAFFF7D1FF17F03FFBFFF74F
:1027F000CDFF17F047FB2046F8BD00BF383701205A
:10280000784D0208604D0208E4360120064BC0F8FE
:102810004C310023C0F8503100F5A273C0F84801D4
:10282000C0F84031704700BF41260008704770472C
:1028300070477047704730B5036885B06D460181B9
:10284000D3F88430014604462846984795E80700A7
:102850003C3484E8070005B030BD30B5036885B06E
:102860006D464181D3F88430014604462846984796
:1028700095E807003C3484E8070005B030BD00222D
:10288000028042808280C280704780F83610704794
:1028900070B5036804461B6B1546984723682946A4
:1028A00020465B6EBDE87040184700207047806C82
:1028B00070477047704770470368DB6A184710B568
:1028C0004C2104461FF03BFB204610BD10B5034BC6
:1028D000036004460AF080FF204610BD804E0208C7
:1028E00010B5064B036004460AF076FF20464FF40D
:1028F00088511FF024FB204610BD00BF804E020807
:1029000008B5FEF7D1FD08BD036870B55E6B124BCC
:102910001B6804468DB22BB9104B114A6C2111482B
:1029200020F04AFA1049828D0988914203D80F4B52
:102930000B4A6D21F3E713F812200D4B1B6853F877
:10294000220003681B6B9847291A3346204609B2B8
:10295000BDE87040184700BF3C3701203E460208E2
:1029600080460208BB4602084037012002470208A1
:102970004437012000224FF0FF31C0E9002182607E
:10298000704770B5036804461B6B1546984723686B
:10299000294620465B6BBDE87040184770B5044679
:1029A0001D46BDF91060FFF7ECFF2368294620465D
:1029B0009B6B9847236831462046DB6BBDE870402F
:1029C00018470000094A02604FF480710022818498
:1029D000FF21C0E90122C0E90322C0E90522C0E9C4
:1029E000072280F826108262704700BFAC540208AC
:1029F0004FF4807181840D4901600D4981624FF669
:102A0000FF7181854FF47F01002241634FF0FF3158
:102A1000C0E90122C0E90322C0E90522C0E907227A
:102A2000C0E9101202630287C26370471C54020897
:102A3000504D02082DE9F04F044691B0A046002504
:102A40000EF096FC8F4BE56348F8403B04F16C0AAE
:102A50004046FFF7B7FF04F198075046FFF7B2FF73
:102A6000DFF84892384609F0E3F904F5847309F178
:102A7000240B184604F58E760993FEF743FDC4F83F
:102A80000891C4F810B1C4F814513046FFF7B0FFF4
:102A900004F5B27318460393FFF7AAFF7A4BC4F804
:102AA000643104F5D8731846C4F8AC510493FFF7A9
:102AB0009FFF754BC4F8B03104F5FE731846C4F897
:102AC000F851069308F0FEFA04F5117318460893BE
:102AD000FEF718FD04F51673C4F84492C4F84CB21E
:102AE0001846C4F85052059309F0A2F904F5327360
:102AF00018460793FEF706FDC4F8C892C4F8D0B292
:102B00004FF4A0794FF4616104F53C70C4F8D452DD
:102B10000AF058FE2A46F02329464046CDF8009098
:102B2000FFF73CFF04F1040B4FF07F43A3664146DF
:102B3000584605F08DFC2A46F02329465046CDF82C
:102B40000090FFF72BFF4FF07F43C4F894305146BD
:102B5000584605F07DFC0A2200924623552138464E
:102B6000FFF71CFF494BC4F814314FF26103A02258
:102B7000A4F81831099BC4F8C0301146384609F052
:102B80006DFAA0224FF40261384609F072FAD4F8C7
:102B9000D4304B4504D0C4F8D490384609F068F9D5
:102BA0003846012109F070FA394658460AAD05F059
:102BB0004FFC00279C22304606214FF0FF3AFFF7DA
:102BC000E0FE31462846C4F84CA1A4F8507109F043
:102BD000FDFB95E8070006F13C084FF0010388E88B
:102BE0000700314684F85431284609F0EFFB95E898
:102BF0000700274B0E9388E80700042330460EA9F0
:102C0000ADF83C3009F08AFE3146584605F020FC0C
:102C1000862203983946FFF7B4FED4F8643103994D
:102C2000D3F88430C4F894A12846A4F89871984742
:102C300095E80700039B03F13C06D4F864314FF09C
:102C4000030986E80700D3F88430039984F89C913F
:102C50002846984795E8070086E807000D4E336838
:102C600004F537782BB90C4B0C4A60210C4820F046
:102C7000A3F80C4B1B88022B1AD80B4B074A612177
:102C8000F4E700BF804E0208F04D02080F0FF2FF7C
:102C9000504D02083C3701203E46020840470208DA
:102CA000BB460208403701200247020808510208CB
:102CB0005C4B0221186800F08BFA5B4A0346052141
:102CC000404610F003F80398C4F8AC8109F006FE02
:102CD000564A03980E920EA9ADF83C9009F01EFEDC
:102CE0000399584605F0B4FBAE2204983946FFF725
:102CF00048FED4F8B0310499D3F88430C4F8E0A188
:102D00002846A4F8E47198470499D4F8B03101F149
:102D10003C0895E80700D3F8843088E80700284687
:102D2000049984F8E891984795E80700336888E8A3
:102D3000070004F2E625002B95D03D490B88002BB7
:102D40009BD0384B3946186800F042FA364A0346A1
:102D5000052128460FF0BAFF0498C4F8F85109F08D
:102D6000BDFD324A04980E924FF001030EA9ADF852
:102D70003C3009F0D3FD0499584605F069FB162351
:102D80009522069800936D21FFF708FE4FF4345307
:102D90004FF4A075C4F83832089B0699C4F8243261
:102DA0005846C4E98A55C4F83052C4F83C72C4F895
:102DB0003472C4F850A2A4F854A205F049FB0A23C7
:102DC000059800934FF4967246235521FFF7E6FDD0
:102DD000184BC4F8D43243F64473A022A4F8D83276
:102DE000079BC4F880321146059809F037F9059819
:102DF000A0224FF4026109F03CF9D4F89432AB42BE
:102E000004D00598C4F8945209F032F805980121CD
:102E100009F03AF95846059905F01AFB204611B019
:102E2000BDE8F08F483701208B470208504D02085B
:102E30004037012023EB3EFF406A7047806A7047AD
:102E400070478A880B8810B5D20A4C88C1699BB23A
:102E500051F8220043EA0443184410BD10B504465B
:102E6000BAB1107B68B1537BD27A1B0203F4E063E2
:102E70001A43236A03EB82031A888A4202D193F928
:102E8000020010BD05D8013880B204330028F3D108
:102E9000F7E70020F5E710B52C2104461FF04FF8A6
:102EA000204610BD30B58BB00446BDF86050089583
:102EB000BDF85C5007959DF8505006959DF84C5014
:102EC00005959DF8485004959DF8445003959DF84C
:102ED000405002959DF83C500195BDF83850009542
:102EE0000DF07EFF064B2360159BE361169B23626A
:102EF000199B63621A9BA36220460BB030BD00BFD2
:102F0000B84E02087047000030B5164D2C6814F01A
:102F100001048FB0BFF35B8F20D128461FF011F85A
:102F2000E0B13F230993104B0893104B104911480F
:102F30000A940122CDE906430423CDE903320A2392
:102F40000093CDE90B44CDE901440594FFF7AAFFB6
:102F500009481FF04FFF28461EF0FFFF05480FB03D
:102F600030BD00BFD0280020905F02089C5F02089F
:102F7000445F0208D4280020052F00087047000095
:102F800030B5164D2C6814F001048FB0BFF35B8F81
:102F900021D128461EF0D5FFE8B13F230993104BFD
:102FA0000893104B104911480A94CDE906430122B9
:102FB0000423CDE90332142300930322CDE90B440B
:102FC000CDE901440594FFF76DFF09481FF012FF9A
:102FD00028461EF0C2FF05480FB030BD0029002072
:102FE000945F0208A05F0208545F020804290020D1
:102FF0007D2F00087047000030B5164D2C6814F086
:1030000001048FB0BFF35B8F20D128461EF099FFDB
:10301000E0B13F230993104B0893104B104911481E
:103020000A940122CDE906430423CDE90332282383
:103030000093CDE90B44CDE901440594FFF732FF3D
:1030400009481FF0D7FE28461EF087FF05480FB03D
:1030500030BD00BF30290020985F0208A45F02083D
:10306000805F020834290020F52F000800207047F7
:10307000002070470EB403B503AB002153F8042BB6
:1030800001930DF02BF902B05DF804EB03B070472B
:103090000CB407B504AB53F8042B01930DF01EF9E3
:1030A00003B05DF804EB02B070470000436C10B54C
:1030B000044673B3038F2BB9184B194AC52119481D
:1030C0001FF07AFEC38E00EB43035B8C0BB30FF053
:1030D00054F8238F012B03D8134B144ACB21EEE76E
:1030E000E28E531C9BB2092B194688BFA3F10A013B
:1030F00004EB410140F63F10498C814209D10A2B73
:1031000004EB420228BF002304EB4303508C588495
:1031100051842046BDE810400EF032BF8E470208B1
:1031200097470208424802088C4802089A48020859
:103130000EF0EDBE10B586B002AC84E806001A466B
:103140000AAB05930193099B00932146089B0BF062
:10315000DBFB06B010BD000038B518BB124B13489E
:103160001C681349B4B12268224402606268224498
:103170000A60A26814440F4B00221A8000F038F84D
:10318000054600F033F80C4B1C600C4B1D600C4BDB
:10319000188007E00B4B03600B4B0B600B4B1C685C
:1031A000002CE8D138BD00BF6C2900206429002024
:1031B00060290020682900203C3701204437012085
:1031C00040370120BC5F0208A85F0208C85F020800
:1031D000044B1B6853F82100034B1B6803EB4000B2
:1031E000704700BF60290020642900200520704737
:1031F000004870477029002010B5FFF7C1FE044C4D
:103200002060FFF7F9FE6060FFF77EFEA06010BD52
:103210007029002010B5002404600C6014601C604C
:1032200010BD704710B54FF4AE7104461EF087FE16
:10323000204610BD10B50446D0F8580100F0D7F86C
:103240002046BDE810400CF043B8000010B504461D
:10325000FFF7A8FA014B2360204610BD204F02085B
:10326000704704387047704710B5102104461EF0AF
:1032700066FE204610BDA0F10400F5E70022826042
:10328000024A026018324260C1607047744F0208FF
:103290007047000010B5034B03600446FFF716FBB0
:1032A000204610BD9C4F020810B50446FFF7F2FF00
:1032B000204641F204111EF042FE204610BD0000DF
:1032C00010B50446FFF7B6FB044B236004F58053AA
:1032D0000022C3F80021204610BD00BF9C4F020809
:1032E000FFF7E9BA2DE9FF4105463B480023006896
:1032F0001A4601A903F03DF9002855D1BDF8043064
:10330000B5F99C20B5F99E6040F6C8018B424ED9B4
:10331000A3F6C80307EE903ADFED306AB8EEE77A1D
:10332000C7EE267AB0EE087A67EE877AFDEEE77A86
:10333000174617EE903A1344AA2BA8BFAA2323EAF4
:10334000E3739A42A8BF1F469A42B8BF03F14602F0
:10335000A7F10207A8BF4632D21B141D27EAE77760
:103360003A19F02AD5F89820A5F89C3005F198086C
:10337000936B4FF046014046C8BFC7F1F004984731
:10338000D5F898300A21DB6B40469847023E0E2361
:1033900002A9281DADF80870ADF80A60ADF80C4020
:1033A000ADF80E300DF016F904B0BDE8F081B3F5BC
:1033B000E76F3DBFC3F5E76307EE903ADFED086ABC
:1033C000DFED087A3FBFB8EEE77AC7EE267AB0EEB7
:1033D000087A67EEC77AA9E71026002000E0E644E5
:1033E0000000E744000000000022026070477047C0
:1033F000F02070474FF4A07070472920FEF7BEBC44
:103400002820FEF7BBBC08B5FEF78CFCCA20FEF7EF
:10341000B5FCC320FEF796FC0820FEF793FC502075
:10342000FEF790FCCF20FEF7A9FC0020FEF78AFCF7
:10343000C120FEF787FC3020FEF784FCED20FEF76C
:103440009DFC6420FEF77EFC0320FEF77BFC12202F
:10345000FEF778FC8120FEF775FCE820FEF78EFC75
:103460008520FEF76FFC0020FEF76CFC7820FEF74D
:1034700069FCCB20FEF782FC3920FEF763FC2C2090
:10348000FEF760FC0020FEF75DFC3420FEF75AFCDE
:103490000220FEF757FCF720FEF770FC2020FEF715
:1034A00051FCEA20FEF76AFC0020FEF74BFC0020EE
:1034B000FEF748FCB120FEF761FC0020FEF742FC5D
:1034C0001B20FEF73FFCB620FEF758FC0A20FEF753
:1034D00039FCA220FEF736FCC020FEF74FFC10207E
:1034E000FEF730FCC120FEF749FC1020FEF72AFC55
:1034F000C520FEF743FC4520FEF724FC1520FEF70F
:1035000021FCC720FEF73AFC9020FEF71BFC36207A
:10351000FEF734FCC820FEF715FCF220FEF72EFC67
:103520000020FEF70FFCB020FEF728FCC220FEF7BB
:1035300009FCB620FEF722FC0A20FEF703FCA720B8
:10354000FEF700FC2720FEF7FDFB0420FEF7FAFB48
:103550002A20FEF713FC0020FEF7F4FB0020FEF704
:10356000F1FB0020FEF7EEFBEF20FEF7EBFB2B203C
:10357000FEF704FC0020FEF7E5FB0020FEF7E2FB6F
:103580000120FEF7DFFB3F20FEF7DCFBF620FEF715
:10359000F5FB0120FEF7D6FB0020FEF7D3FB06204B
:1035A000FEF7D0FB2C20FEF7E9FBC820FEF734FC29
:1035B0002620FEF7E3FB0120FEF7C4FBE020FEF728
:1035C000DDFB0F20FEF7BEFB2920FEF7BBFB24200E
:1035D000FEF7B8FB0C20FEF7B5FB0E20FEF7B2FBA2
:1035E0000920FEF7AFFB4E20FEF7ACFB7820FEF77C
:1035F000A9FB3C20FEF7A6FB0920FEF7A3FB132046
:10360000FEF7A0FB0520FEF79DFB1720FEF79AFBB7
:103610001120FEF797FB0020FEF794FBE120FEF758
:10362000ADFB0020FEF78EFB1620FEF78BFB1B2068
:10363000FEF788FB0420FEF785FB1120FEF782FBD6
:103640000720FEF77FFB3120FEF77CFB3320FEF7DF
:1036500079FB4220FEF776FB0520FEF773FB0C207A
:10366000FEF770FB0A20FEF76DFB2820FEF76AFBD1
:103670002F20FEF767FB0F20FEF764FB1120FEF7FB
:103680007DFBC820FEF7C8FB2920FEF777FBBDE8CD
:1036900008402C20FEF772BB08B5FEF743FB032160
:1036A000D320FEF787FB80B208BD10B5C4B202225A
:1036B00003212046FEF7ECFA0A20FEF731FB2046F4
:1036C00000220321FEF7E4FABDE810400220FEF7D5
:1036D00027BB38B50446E4B2FEF7D8FA00212046ED
:1036E000FEF7EEFA012105462046FEF7E9FA40EA28
:1036F000052080B238BD10B5C4B240212046FEF787
:10370000DFFA030607D54C212046FEF7D9FA003828
:1037100018BF012010BD01224B212046FEF7B8FA48
:10372000204600224B21FEF7B3FA0020F2E773B5E2
:103730000423C4B20E461546D7210DEB03022046E2
:10374000FEF7D8FA019B1BBA1A0DC3F30B23328084
:1037500020462B8001224B21FEF79AFA00224B21B2
:103760002046FEF795FA02B070BD000010B50A4A77
:103770001378984204460DD0517888420AD00BB194
:1037800041B90123D454FEF781FA2046BDE8104028
:10379000FFF78BBF10BD00BF7C29002010B5C4B25D
:1037A00009212046FEF78CFA40F00102D2B22046F1
:1037B0000921BDE81040FEF76BBA10B5C4B209216B
:1037C0002046FEF77DFA092100F0FE022046BDE802
:1037D0001040FEF75DBA38B5C4B20D4620460A2146
:1037E000FEF76EFA40EA0502D2B220460A21BDE891
:1037F0003840FEF74DBA10B50446FEF748FA2046A9
:103800001F21FFF7E8FF2046BDE81040FFF7C6BFC5
:1038100038B5C4B20D4620460A21FEF751FA20EA17
:103820000502D2B220460A21BDE83840FEF730BA80
:1038300010B50446FFF7C1FF20461F21BDE8104028
:10384000FFF7E6BF10B5C0B20C460B21FEF738FA01
:10385000204010BD1F21FFF7F5BF0A46C0B20B2163
:10386000FEF716BA1F21FFF7F8BF38B5C4B20D46F0
:1038700020461721FEF724FA20EA0502D2B220469C
:103880001721BDE83840FEF703BA70B5C4B206464A
:1038900004212046FEF714FA042100F0FB0205463D
:1038A0002046FEF7F5F93046F021FFF7DEFF05F080
:1038B000F80220460421FEF7EBF949222021204698
:1038C000FEF7E6F90220FEF72BFA2046012221211D
:1038D000FEF7DEF920469A224121FEF7D9F920466B
:1038E00001224A21FEF7D4F9204601224B21FEF79E
:1038F000CFF9204600224B21FEF7CAF920460122CB
:103900005621FEF7C5F9204601225821FEF7C0F9DD
:10391000204601224021FEF7BBF92046FF220B2161
:10392000FEF7B6F9BDE870400220FEF7F9B90000D5
:10393000054BD3F8882042F47002C3F888204FF07A
:1039400000629A60704700BF00ED00E008B50B4BC5
:103950001A6842F400721A601A6842F480621A60AF
:103960001A6842F480721A60032000F061FA0020A5
:10397000FEF7ECFCFEF75EFA002008BD003C0240BA
:10398000034A044B11681B780B441360704700BF57
:103990008029002078000020014B1868704700BF84
:1039A0008029002038B50446FFF7F6FF631C1CBFD2
:1039B000054B1B78054618BFE418FFF7EDFF431BC6
:1039C000A342FAD338BD00BF7800002038B50446C2
:1039D000002800F09B80056C25B9FEF74BFA656462
:1039E00084F83C50236CDB0600F18E80236C23F4BA
:1039F000885323F0020343F002032364444B5A68C4
:103A000022F440325A605A6861680A435A60236857
:103A100021695A6822F480725A605A6842EA012287
:103A20005A605A68A16822F040725A605A680A4384
:103A30005A609A68E16822F400629A609A680A43C0
:103A40009A603449A26A8A4252D0996821F0706122
:103A5000996099680A439A609A68E16A22F0405234
:103A60009A609A680A439A609A6822F002029A6001
:103A70009A68217E42EA41029A6094F82020002A46
:103A80003ED05A68616A42F400625A605A6822F471
:103A900060425A605A68013942EA41325A60DA6A31
:103AA000E16922F47002DA62DA6A013942EA01520B
:103AB000DA629A6822F400729A609A6894F8301078
:103AC00042EA41229A609A68616922F480629A60AF
:103AD0009A68002042EA81229A606064236C23F095
:103AE000030343F001032364002384F83C3038BD12
:103AF0009A6822F070629A609A6822F04052B2E7A7
:103B00005A6822F40062C9E70120EDE70120EEE7E0
:103B1000002301400100000F82B00023019390F8C0
:103B20003C30012B69D0012380F83C3003689A684F
:103B3000D2070BD59A68D1071AD4036C43F010034F
:103B40000364436C43F0010343644CE09A682C49DE
:103B500042F001029A602B4A1268B2FBF1F202EBCA
:103B600042020192019A002AE4D0019A013AF8E750
:103B7000026C22F4E06222F0010242F480720264DC
:103B80005A68520541BF026C22F4405242F48052FE
:103B90000264026C12F480521CBF426C22F00602D6
:103BA0004264002280F83C206FF022021A60164A1C
:103BB000516811F01F0F15491CD18B4207D001F538
:103BC00080718B420CD1526812F01F0F0BD19A6892
:103BD00012F0405F07D19A6842F080429A6002E09A
:103BE0000B498B4202D0002002B07047526812F09D
:103BF000100FEBE78B42F6D1E9E70220F4E700BFB4
:103C000040420F00740000200023014000200140CA
:103C10000022014090F83C30012B14D003689A68D0
:103C200022F001029A609B68DB0707D4036C23F43F
:103C3000885323F0010343F001030364002380F859
:103C40003C30184670470220704703689A68520556
:103C500070B504460D460BD59B68DE0508D5036C90
:103C600043F020030364002380F83C30012070BD42
:103C7000FFF792FE064623681A6891070CD56FF08D
:103C800012021A60226C42F4007222649A6812F0E6
:103C9000405F17D00020EAE7681CEDD065B92368C3
:103CA0001B6813F00203E6D1226C84F83C3042F02A
:103CB000040222640320DAE7FFF76EFE801BA842AD
:103CC000EDD8D8E7227E002AE4D1DA6A12F4700F28
:103CD00002D09B685A05DDD4236C23F480732364DF
:103CE000236CDB04D6D4236C43F001032364D1E7B7
:103CF0000368D86C70470000F7B50023019390F873
:103D00003C30012B054600F08680012380F83C30D2
:103D100008682B688E68092884B233D904EB440202
:103D2000DF681E3A4FF0070C0CFA02FC27EA0C077A
:103D3000DF60DF6806FA02F23A43DA604968062972
:103D400001EB81022DD8596B053A1F26964021EAD6
:103D500006015963596B04FA02F20A435A632F4A67
:103D600093420AD1122837D12D4B5A6822F400020F
:103D70005A605A6842F480025A60002085F83C007C
:103D800003B0F0BD1A6900EB400C072707FA0CF7E7
:103D900022EA07021A611A6906FA0CF616431E6136
:103DA000CCE70C294FF01F010BD81E6B233A914032
:103DB00026EA01011963196B04FA02F20A431A6335
:103DC000CDE7DE6A413A914026EA0101D962D96A1B
:103DD00094400C43DC62C2E7124B984201D0112898
:103DE000CBD10F4B5A6822F480025A605A6842F4D1
:103DF00000025A600B4B9842BFD10B4B0B4A1B6819
:103E0000B3FBF2F30A2253430193019B002BB4D07E
:103E1000019B013BF8E70220B2E700BF0020014010
:103E200000230140120000107400002040420F00E7
:103E30000749CA6822F4E0620302120403F4E06353
:103E4000120C134343F0BF6343F40033CB6070475D
:103E500000ED00E0164B30B5DC68C4F30224C4F179
:103E60000703251D042B28BF0423062D4FF0FF3523
:103E70008CBF033C002405FA03F321EA0303A540A9
:103E800022EA0502A340002843EA0203ACBF00F186
:103E90006040084A4FEA0313B8BF00F00F00DBB2DE
:103EA000AABF00F56140135480F8003330BD00BF55
:103EB00000ED00E014ED00E0002807DB044A4109B2
:103EC000012300F01F00834042F82130704700BFFB
:103ED00000E100E010B5044650B1437903F0FF0261
:103EE00013B90271FEF71EF801236371002010BDA3
:103EF0000120FCE710B5044620B390F8393003F0F8
:103F0000FF021BB980F83820FEF724F8022384F85A
:103F10003930236861681A6822F440320A431A6013
:103F20005A6BA16822F007020A435A631A6CE168CF
:103F30006FF30D020A431A6400200123E06384F842
:103F4000393010BD0120FCE770477047036870B539
:103F50005E681D68F207044614D5E90512D51A6893
:103F600022F480721A60C26B42F00102C263012225
:103F70009A60042380F83930002380F83830436990
:103F800003B19847B20616D5AB0414D523681A6856
:103F900022F400521A6020229A60E36B43F002037D
:103FA000E363042384F83930002384F838306369EC
:103FB0000BB120469847300716D5290514D523683C
:103FC0001A6822F400621A6008229A60E36B43F0D8
:103FD0000403E363042384F83930002384F8383081
:103FE00063690BB12046984772070BD56B0509D55D
:103FF00023681A6822F480621A6004229A602046BC
:10400000FFF7A2FFB00714D5A90512D523681A68D7
:1040100022F400721A6002229A60E36BE3630123C8
:1040200084F83930002384F8383023690BB12046F6
:104030009847F20613D5EB0411D523681A6822F4C9
:1040400080521A6010229A60E36BE363012384F8C4
:104050003930002384F838302046FFF776FF70BDF2
:10406000F0B590F83820012A03464FF002002BD01B
:10407000012283F8382083F8390003EB0112D2E9DA
:104080000740556A174F44EA0040093C012C9CBF89
:1040900005F07F4210434FEA01161A6888BF40EAD4
:1040A000056091B9516A394001435162012C996907
:1040B000916103D8596A21F07F4191620122002069
:1040C00083F8392083F83800F0BDD16939400143C5
:1040D000D1619919012C896911619CBF25F07F4537
:1040E0001562EBE7F0FFFC002DE9F74FDFF8BC911C
:1040F0006C4A00230D6801249C4004EA0506AC4389
:1041000040F0B7804D68032705F003044FEA4308E9
:1041100007FA08FC671E012F6FEA0C0C34D8876879
:1041200007EA0C0ECF6807FA08F747EA0E07876020
:10413000476827EA060EC5F300179F4047EA0E07B7
:104140004760C76807EA0C0E8F6807FA08F747EA66
:104150000E07022CC76019D14FEAD30A00EB8A0A76
:1041600003F0070BDAF820704FEA8B0B4FF00F0EBD
:104170000EFA0BFE27EA0E0E0F6907FA0BF747EA55
:104180000E07CAF8207001E0032CDAD1076804FAA0
:1041900008F407EA0C073C4315F4403F046068D07C
:1041A00000240194D9F8444044F48044C9F84440C0
:1041B000D9F8444023F0030707F1804704F4804412
:1041C00007F59C37019403F0030C019CD7F808E035
:1041D0004FEA8C0C0F2404FA0CF42EEA040E324C35
:1041E000A0424DD004F58064A0424BD004F5806419
:1041F000A04249D004F58064A04247D004F5806411
:10420000A04245D004F58064A04243D004F5806408
:10421000A04241D004F58064A0423FD004F5806400
:10422000A0423DD004F58064A04214BF0A240924B2
:1042300004FA0CF444EA0E04BC609468F74315F4E5
:10424000801F0CBF3C4034439460D46815F4001FB9
:104250000CBF3C403443D460546815F4003F0CBF9D
:104260003C40344354601468ED0354BF3C40344335
:1042700014600133102B7FF43DAF03B0BDE8F08F25
:104280000024D5E70124D3E70224D1E70324CFE7B4
:104290000424CDE70524CBE70624C9E70724C7E7B4
:1042A0000824C5E7003C01400000024000380240FD
:1042B0000369194214BF0120002070470AB18161CF
:1042C00070470904FBE7436901EA030221EA03019D
:1042D00041EA02418161704701684B6913F48063D0
:1042E0004FF0000210D06FF480634B612023026313
:1042F00080F83D3080F83E20036C80F83C2043F08D
:104300000403036401207047184670472DE9F846FE
:1043100006460F4691461D464FEA114A3368BAF1E8
:10432000010F0CBF5C699C6927EA0404A4B2B4FACB
:1043300084F46409A14501D0002025E06A1CEED078
:10434000FFF72AFB089BC01AA84201D8002DE5D12F
:104350003368BAF1010F0CBF5B699B6927EA03035D
:104360009BB2B3FA83F35B099945D7D1002320228E
:10437000336386F83D2086F83E30326C86F83C3058
:1043800042F0200232640120BDE8F8862DE9F041B8
:1043900004460F46164698462568686927EA0000D5
:1043A00080B2C0B16B695A0517D52B6843F400730E
:1043B0002B606FF480636B6120220023236384F8F9
:1043C0003D2084F83E30236C43F004032364002333
:1043D00084F83C300120BDE8F081731CDDD0FFF78C
:1043E000DBFAA0EB0800B04201D8002ED4D123683C
:1043F0005A6927EA020292B2002ACDD00023202275
:10440000236384F83D2084F83E30236C1343DDE7BA
:1044100070B504460D46164623685B691B0601D538
:1044200000201EE02046FFF757FFC8B96A1CF3D0F2
:10443000FFF7B2FA801BA84201D8002DECD1236807
:104440005B6913F08003E7D12022236384F83D20C9
:1044500084F83E30226C84F83C3042F02002226422
:10446000012070BD2DE9F0431546026885B0DDE9F5
:104470000C789946136843F4807313600E463B46EC
:10448000CDF8008000224FF001110446FFF73EFFF7
:10449000236838B11B68DB0502D54FF40073236431
:1044A000032620E006F0FE061E611A4943463A46FE
:1044B0002046FFF76BFFA8B9236803905A6903925F
:1044C0009B690393424639462046039BFFF7A0FFB2
:1044D000064660B1236C042B01BF2268136843F4C5
:1044E000007313600126304605B0BDE8F083B9F1D2
:1044F000010F236802D1EDB21D61F4E72A0A1A61A7
:10450000394642462046FFF783FF0028E2D1236860
:10451000F1E700BF020001002DE9FF479A4603685A
:1045200015461A6842F480621A601A68DDE90C7850
:1045300042F480721A600E463B46CDF8008000229D
:104540004FF001110446FFF7E1FE236838B11B6804
:10455000DB0544BF4FF400732364032021E05FFABE
:1045600086F906F0FE061E612B4943463A46204670
:10457000FFF70CFFA0B9236803905A6903929B6967
:104580000393424639462046039BFFF741FF58B14B
:10459000236C042B01BF2268136843F4007313607B
:1045A000012004B0BDE8F087BAF1010F23681AD1E9
:1045B000EDB242461D6139462046FFF729FF02460B
:1045C0000028E5D121680B6843F480730B60204616
:1045D000CDF800803B464FF00111FFF797FE2268AF
:1045E00060B11368B4E72A0A1A6139464246204688
:1045F000FFF70EFF0028CBD12368D9E749F001036C
:104600001361054943463A462046FFF7BFFE00388E
:1046100018BF0120C5E700BF0200010070B50446C5
:104620000D46164623685B695B0701D500201EE036
:104630002046FFF751FEC8B96A1CF3D0FFF7ACF96A
:10464000801BA84201D8002DECD123685B6913F0D0
:104650000403E7D12022236384F83D2084F83E3010
:10466000226C84F83C3042F020022264012070BDAC
:1046700070B504460D46164621684B6913F0400399
:1046800001D0002011E04A69D2060FD56FF0100268
:104690004A612022236384F83D2084F83E30236C55
:1046A0002364002384F83C30012070BDFFF774F9C7
:1046B000801BA84201D8002DDED123685B6913F06E
:1046C0004003D9D12022236384F83D2084F83E3072
:1046D000236C1343E4E7000070B5044608B90120D9
:1046E00070BD90F83D3003F0FF021BB980F83C200C
:1046F000FDF752FC242384F83D3023681A6822F029
:1047000001021A601A6842F400421A601A6822F420
:1047100000421A6000F08AFE3F4B65689D4294BFDC
:104720003E4B3F4B98428CBF00230123002BD6D138
:104730002268394E51683B4BB0FBF3F321F03F0147
:104740001943B542516088BF4FF49676116A88BF0D
:10475000734321F03F0184BF4FF47A76B3FBF6F345
:1047600001330B431362D169431E2B4821F44F419F
:10477000854221F0FF0132D86D0040F6FC70B3FB9A
:10478000F5F30133034242D0C3F30B031943D16164
:10479000D4E907301168034321F0C0010B431360D3
:1047A0009168D4E9030321F40341034321F0FF019D
:1047B0000B439360D4E90530D168034321F0FF0136
:1047C0000B43D360136843F00103136000202023E0
:1047D000206484F83D30206384F83E0080E7A068C0
:1047E00050B905EB4505B3FBF5F30133C3F30B03F8
:1047F0007BB143F40043C9E719206843B3FBF0F3EE
:104800000133C3F30B0323B143F44043BEE7042356
:10481000BCE70123BAE700BFA08601007F841E0029
:10482000FF083D0040420F002DE9F743044699463A
:104830000C9E0F469046FFF7AFF894F83D30202BC2
:10484000054603D0022003B0BDE8F08300903C4948
:10485000192301222046FFF759FD0028F2D194F8D0
:104860003C30012BEED02068012384F83C300368F3
:10487000D9075EBF036843F001030360036823F4B4
:1048800000630360212384F83D30402384F83E30E8
:10489000002323640A9B6362BDF82C306385638D1B
:1048A0002385284BE3624246CDE900654B463946F5
:1048B0002046FFF7D7FD00282AD00120C3E7FFF7E5
:1048C000A7FD40B1236C042B01BF2268136843F499
:1048D00000731360F1E7636A27681A4612F8011B38
:1048E00039616262628D218D013A92B262857A6984
:1048F000481E80B2520720850AD548B15A783A61DD
:1049000002336362638D013B02399BB2218563856B
:10491000238D2A4631462046002BD0D1FFF77EFE5C
:104920000028CFD12268136843F40073136020235A
:1049300084F83D3084F83C0084F83E0083E700BFF3
:10494000020010000000FFFF2DE9F043044687B08D
:104950009946109F0D469046FFF71EF894F83D309B
:10496000202B064604D00225284607B0BDE8F08378
:1049700000907A49192301222046FFF7C7FC00283E
:10498000F1D194F83C30012BEDD02068012384F85C
:104990003C300368DB075EBF036843F0010303603C
:1049A000036823F400630360222384F83D3040232E
:1049B00084F83E30002323640E9B6362BDF83C30D4
:1049C0006385638D2385664BE3622946CDE90076D6
:1049D0004B4642462046FFF79FFD054608B101259C
:1049E000C2E7228D2368B2B902905A6902929A698D
:1049F0000292029A1A6842F400721A60DFF8648127
:104A0000238D002B2CD1202284F83D2084F83C30CB
:104A100084F83E30A8E7012A0AD11A6822F480629D
:104A20001A6003905A6903929A690392039AE1E724
:104A3000022A0ED11A6822F480621A601A6842F4BF
:104A400000621A6004905A6904929B690493049B63
:104A5000D4E705905A6905929B690593059BCDE7BC
:104A6000032B56D8012B15D1324639462046FFF785
:104A7000FFFD0028B3D123681A69636A1A70636A5C
:104A800001336362238D013B2385638D013B9BB220
:104A90006385B5E7022B00963B464FF00002414686
:104AA000204619D1FFF732FC002898D123681A68F4
:104AB00042F400721A601A69636A1A70626A531CBF
:104AC0006362238D013B2385638D013B9BB263852C
:104AD00023681B695370D2E7FFF718FC02460028D1
:104AE0007FF47DAF2368196821F48061196019692A
:104AF000636A1970636A01336362238D013B238506
:104B0000638D013B9BB26385414600963B46204640
:104B1000C8E7324639462046FFF7AAFD00287FF451
:104B20005EAF23681A69636A1A70628D616A013A1E
:104B300092B24B1C628522686362238D5069013BEF
:104B40009BB2400723857FF55BAF032B02BF136841
:104B500023F48063136013694B7090E70200100028
:104B60000000FFFF0400010010B590F83D30202B3D
:104B7000DCB216D1242380F83D3003681A6822F095
:104B800001021A605A6A22F010025A625A6A1143EC
:104B900059621A6842F001021A6080F83D40002014
:104BA00010BD0220FCE730B590F83D30202BDCB280
:104BB00016D10268242380F83D30136823F00103E6
:104BC0001360556A4FF6F0732B400B439BB2536250
:104BD000136843F00103136080F83D40002030BDAE
:104BE0000220FCE70068D20184328318F0B5C76860
:104BF0005D684C680E6805F470455D60C56806F137
:104C0000010CC5F30B45C7F30B472744654445EA40
:104C100007455D60C768CD68C7F30A072F449D68E4
:104C200005F470459D60D0F80CC08D68CCF30A0C7B
:104C30000135654445EA07459D601D69D1F810C0FE
:104C40008F6925F007051D61C3F810C091F8305039
:104C500045EA076591F8317045EA072591F8327009
:104C600045EA07459D615D6925F0FF055D614D6978
:104C70005D61DD6925F4E06525F00705DD61D1E9B9
:104C800007573D43DD61BCF1070F4D6A9D629CBF34
:104C90000D4D15F80C70DD6A05F0E025DD6288BF6A
:104CA00001278D6AC96AA41B7C437D43033444EA0F
:104CB0000544DC621C6B6FF30A041C6319638358A0
:104CC00043F001038350F0BDE44F020838B50446B9
:104CD00000284ED090F8A13003F0FF021BB980F8F5
:104CE000A020FDF7B5F9022384F8A13023689A6962
:104CF00022F070429A61D4E901200243E068996988
:104D00000243206902430A439A61D4E9051242EA48
:104D100001429A60D4E9071242EA0142DA60D4E91A
:104D2000091242EA01421A61D4E90B1242EA014235
:104D30005A61DA6A94F8350094F8361002F07F422E
:104D4000DA62DD6A94F834202A4342EA002242EA19
:104D50000142DA625A6B42F006025A639A6942F0E3
:104D600001029A6100200123C4F8A40084F8A13054
:104D700038BD0120FCE770477047036870B59E6B33
:104D80005D6B7207044614D5690712D55A6B22F081
:104D900004025A630422DA63D0F8A43043F001031A
:104DA000C0F8A430002380F8A12080F8A030FFF7DD
:104DB000E2FFB20716D5AB0714D523685A6B22F071
:104DC00002025A630222DA63D4F8A4301343C4F80F
:104DD000A430042384F8A130002384F8A0302046B6
:104DE000FFF7C9FFF00710D5E9070ED523685A6B06
:104DF00022F001025A630122DA63002384F8A12021
:104E000084F8A0302046FCF70BFC320711D52B07A5
:104E10000FD523685A6B22F008025A630822DA631E
:104E2000012384F8A130002384F8A0302046FFF746
:104E3000A3FF70BD2DE9F04190F8A030012B06468C
:104E40000F4694464FF002001FD04FF0010886F83D
:104E5000A08086F8A10034240D4604FB02640FCD27
:104E600038340FC40FCD0FC40FCD0FC42B6823608F
:104E7000304662463946FFF7B5FE33680020C3F876
:104E8000248086F8A18086F8A000BDE8F0810000AB
:104E900090F8A020012A03464FF0020012D01A68B1
:104EA00083F8A100506B20F00100506306480164B4
:104EB000516B41F0010151630020012283F8A120D0
:104EC00083F8A000704700BF0068014037B5002399
:104ED0000193184B184D1A6C42F080521A641B6CE7
:104EE00003F080530193019B144B01221A64FEF7D7
:104EF00053FD04466B68DA030BD5104B0E4D0122AF
:104F00005A64FEF749FD04466B689B030AD50020EE
:104F100006E0FEF741FD001BB0F57A7FEAD90320D9
:104F200003B030BDFEF738FD001BB0F57A7FEBD93A
:104F3000F5E700BF003802400070004000000E425C
:104F40002DE9F341044640B30368DE0710D423681B
:104F50009D075BD42368190700F19D8023685A07D9
:104F600000F1BD80A369002B40F0248100202CE0DB
:104F70008D4B9A6802F00C02042A07D09A6802F05E
:104F80000C02082A0BD15B68590208D5864B1B68B6
:104F90009A03DCD56368002BD9D1012015E0636842
:104FA000814DB3F5803F13D12B6843F480332B60E0
:104FB000FEF7F2FC7C4E054633689B03C7D4FEF730
:104FC000EBFC401B6428F7D9032002B0BDE8F08158
:104FD000B3F5A02F04D12B6843F480232B60E3E7C3
:104FE0002A6822F480322A602A6822F480222A6009
:104FF000002BDDD1FEF7D0FC06462B689F03A6D51B
:10500000FEF7CAFC801B6428F7D9DDE7664B9A6877
:1050100012F00C0F07D09A6802F00C02082A11D186
:105020005B685D020ED4604A1368990702D5E36895
:10503000012BB2D11368216923F0F80343EAC103BD
:10504000136087E7E268594BB2B101221A60FEF79C
:10505000A3FC554D06462B689B0707D52B68226994
:1050600023F0F80343EAC2032B6073E7FEF794FCD6
:10507000801B0228EFD9A7E71A60FEF78DFC4A4E85
:10508000054633689F077FF565AFFEF785FC401B3B
:105090000228F6D998E76269444B82B10122C3F82D
:1050A000802EFEF779FC404E0546736F9B073FF557
:1050B00055AFFEF771FC401B0228F6D984E7C3F810
:1050C000802EFEF769FC384E0546736F9F077FF50B
:1050D00045AFFEF761FC401B0228F6D974E7324B5E
:1050E0001A6C12F0805228D101921A6C42F0805250
:1050F0001A641B6C03F080530193019B01272C4D14
:105100002B68D8051BD5A368274D012B27D12B6F02
:1051100043F001032B67FEF73FFC234E054641F2A7
:105120008838336F9A0739D5002F3FF41BAF1E4ADA
:10513000136C23F08053136414E70027DFE72B6818
:1051400043F480732B60FEF727FC06462B68D905D5
:10515000D9D4FEF721FC801B0228F7D934E7052BB0
:1051600004D12B6F43F004032B67D0E72A6F22F0A2
:1051700001022A672A6F22F004022A67002BCAD193
:10518000FEF70AFC41F2883806462B6F9B07CBD509
:10519000FEF702FC801B4045F7D915E7FEF7FCFB44
:1051A000401B4045BDD90FE7003802400000474290
:1051B00000700040374DAA6802F00C02082A3ED069
:1051C000022B354B4FF000021A662BD1FEF7E4FBA1
:1051D00006462B6899011FD4D4E907321343626A4B
:1051E00043EA8213E26A43EA0263A26A5208013A7E
:1051F00043EA02436B60284B264D01221A66FEF7F4
:10520000CBFB04462B689A013FF5B0AEFEF7C4FB1A
:10521000001B0228F6D9D7E6FEF7BEFB801B02284A
:10522000D7D9D1E6FEF7B8FB04462B689B017FF582
:105230009DAEFEF7B1FB001B0228F6D9C4E6012B98
:105240003FF4ABAE6B68E26903F4800191427FF4F6
:10525000A4AE216A03F03F028A427FF49EAE616AE7
:1052600047F6C0721A40B2EB811F7FF496AEA26A75
:10527000520803F44031013AB1EB024F7FF48DAE96
:10528000E26A03F07063B3EB026F14BF01200020E9
:105290009BE600BF0038024000004742134908B5B2
:1052A0008B6803F00C03042B1CD0082B1CD14A681C
:1052B0004B68496813F4800314BF0D480D48C1F3CF
:1052C000881118BF002302F03F02A1FB0001FBF789
:1052D0002FF8064B5B68C3F3014301335B00B0FB5F
:1052E000F3F008BD0248FCE70248FAE70038024044
:1052F00000127A000024F4002DE9F0410D46044626
:1053000010B90120BDE8F081434B1A6802F00F028A
:105310008A4228D321688F072DD4C80740D43E4B3A
:105320001A6802F00F02AA4265D8226851076BD4AE
:10533000130707D5394A2169936823F4604343EA88
:10534000C1039360FFF7AAFF344B354A9B68C3F350
:105350000313D35CD840334B1860334B1868FCF709
:10536000F5FF0020CEE7CAB21A701B6803F00F03E6
:105370008B42C6D1CEE7294B11F0040F1EBF9A68AD
:1053800042F4E0529A600E0742BF9A6842F46042CB
:105390009A609A68A06822F0F00202439A60BCE723
:1053A00062681E4B012A1CD11B6813F4003FA8D071
:1053B0001A4EB36823F003031343B360FEF7ECFA0D
:1053C00041F288380746B368626803F00C03B3EB18
:1053D000820FA4D0FEF7E0FAC01B4045F3D90320AA
:1053E00090E7911E01291B6802D813F0007FDEE7C9
:1053F00013F0020FDBE7EAB21A701B6803F00F0329
:10540000AB427FF47EAF90E70449E0688B6823F4F9
:10541000E05303438B608BE7003C024000380240BE
:10542000D44F0208740000207C000020044B054A81
:105430009B68C3F38223D35C034A1068D84070474B
:1054400000380240CC4F0208740000200F23036094
:105450000B4B9A6802F0030242609A6802F0F00275
:1054600082609A6802F4E052C2609B68DB0803F431
:10547000E0530361034B1B6803F00F030B6070479D
:1054800000380240003C0240036813F0430FF7B5B8
:10549000044640F08880236813F00C0F45D08C4BF5
:1054A0008C4D00221A67FEF777FA06462B689900A2
:1054B00000F1CB8021684A0715D5D4E90403D5F85B
:1054C00088201B0602F0E04243EA80131343C5F82C
:1054D0008830D5F88C30226A23F4F853013A43EA35
:1054E0000223C5F88C300B0714D57A4AA369D2F889
:1054F000881020691B0701F0706143EA80130B4399
:10550000C2F88830D2F88C30616A23F440330B4300
:10551000C2F88C306E4B6F4E01221A67FEF73CFAD0
:10552000054633689F0040F197802368980634D57C
:1055300000230193674B684D1A6C42F080521A6445
:105540001B6C03F080530193019B2B6843F4807321
:105550002B60FEF721FA06462B68D80540F18380C0
:105560005C4DA26A2B6F13F4407340F08380A36AF2
:1055700003F44072B2F5407F564A40F09E80916835
:1055800023F0704021F4F81120F440700143916041
:10559000116FC3F30B030B4313672368DB0600F1A2
:1055A000908000204FE04A4B4A4E00229A66FEF758
:1055B000F3F9054633681F013FD42168C80741BF8E
:1055C000D4E901231B0743EA8213C6F884308A0713
:1055D00015D5404AE368D2F8840065681B0600F0E0
:1055E000E04043EA85130343C2F88430D2F88C00CC
:1055F000E36920F01F00013B0343C2F88C304B06E7
:105600000AD5E36862681B0643EA8213A26843EA8C
:105610000273304AC2F884302D4B2E4E01229A6616
:10562000FEF7BAF9054633681F013FF534AFFEF7C0
:10563000B3F9401B0228F6D904E0FEF7ADF9401B90
:105640000228B7D9032003B0F0BDFEF7A5F9801BEF
:1056500002287FF62BAFF5E7FEF79EF9401B0228E4
:105660007FF65FAFEEE7FEF797F9801B02287FF623
:1056700073AFE7E702F4407293423FF478AF2B6FC9
:10568000134A0121C2F8401E23F440730021C2F8DE
:10569000401E2B672B6FD9077FF569AFFEF77CF9AA
:1056A00041F2883706462B6F9A073FF560AFFEF749
:1056B00073F9801BB842F6D9C4E7916821F4F81158
:1056C00065E7064B94F82C20C3F8E02169E700BF9A
:1056D000000047420038024000700040001047427E
:1056E00038B50D460446C8B190F82C3003F0FF02DF
:1056F0001BB980F82D20FCF7BDFD022384F82C3067
:10570000211D206800F008FD62682068294600F02D
:1057100039FD012384F82C30002038BD0120FCE73E
:1057200070B590F82C30022B05460E46D8B212D038
:1057300000F0FB04012C0FD1022385F82C302868DF
:1057400000F056FD3368022B06BF052385F82C3088
:1057500085F82C40002070BD0120FCE738B590F89A
:105760002C30022B0446D8B20DD094F82C30012BEB
:10577000DDB209D10223206884F82C3000F05CFDF2
:1057800084F82C50002038BD0120FCE72DE9F347B8
:105790001F46894690460446FEF7FEF80A9D3D44A2
:1057A0002D1AFEF7F9F8264B1E68C6F3CB366E436A
:1057B000824601962268936839EA03030CBF0123ED
:1057C0000023434501D100202EE07B1CF3D0FEF7DF
:1057D000E3F8A0EB0A00A84229D323685A6822F014
:1057E000E0025A606268B2F5827F0AD1A268B2F51F
:1057F000004F02D0B2F5806F03D11A6822F0400248
:105800001A60A26AB2F5005F07D11A6822F400524A
:105810001A601A6842F400521A60012384F8513069
:10582000002384F85030032002B0BDE8F087019BCC
:105830001BB1019B013B0193BCE71D46BAE700BFCA
:1058400074000020F0B585B00B4600920E46174656
:10585000022101220446FFF799FF054628B1636D36
:1058600043F020036365032515E0124B1868124BC3
:10587000B0FBF3F04FF47A73584363680390B3F5C9
:10588000827F0BD1009733462A4680212046FFF7BE
:105890007DFF0028E3D1284605B0F0BD039B002B17
:1058A000F9D0039B013B039323689B681B06F5D447
:1058B000F1E700BF7400002000366E0137B50B46DB
:1058C0004168B1F5827F044608D000920121002290
:1058D000FFF75CFFD0B9002003B030BD8168B1F59F
:1058E000004F02D0B1F5806F07D125682868B1F567
:1058F000806F20F04000286004D0009280210022B8
:105900002046E5E7009201210022F9E7636D43F0AC
:10591000200363650320DFE710B50446002855D057
:10592000436A002B4ED14268B2F5827F00D0C3613A
:105930000023A36294F8513003F0FF0223B984F8E6
:1059400050202046FCF760FC2168A068A269022371
:1059500084F851300B6823F040030B60636800F457
:10596000044003F482730343E06800F400600343DF
:10597000206900F002000343606900F00100034366
:1059800002F400700343E06900F038000343206A2A
:1059900000F080000343A06A00F4005003430B6052
:1059A000636A120C03F0100302F004021A434A6007
:1059B000CB6923F40063CB6100200123606584F888
:1059C000513010BD0023C0E90433B1E70120F8E7EE
:1059D0002DE9F74304461F460D469046FDF7DCFFD0
:1059E00094F85130012B8146D8B240F09F80002DB1
:1059F00074D0B8F1000F71D094F85030012B00F042
:105A00009580032384F8513000236365C4E9103383
:105A1000A4F83680A363A387E387A368266884F885
:105A20005000B3F5004F2563A4F8348007D13368E4
:105A300023F040033360336843F4804333603368BA
:105A4000E2685B065EBF336843F040033360B2F543
:105A5000006F636845D113B1B8F1010F07D135F874
:105A6000023BF3602563E38E013B9BB2E386E38E4A
:105A70009BB2D3B94A4639462046FFF7E3FE0028D9
:105A800051D1A36833B901932368DA6801929B6806
:105A90000193019B012384F85130606D0023C01AEB
:105AA00084F8503018BF012018E0226893689807E6
:105AB00005D5236B33F8021BD1602363D3E7FDF7D1
:105AC0006BFFA0EB0900B842D1D3791CCFD00123E2
:105AD00084F85130002384F85030032003B0BDE82F
