:020000040800F2
:1000000000000320F9A400088F4D0008914D00085E
:10001000934D0008954D0008974D00080000000022
:10002000000000000000000000000000019D00082A
:10003000994D000800000000919D0008A19600085D
:1000400049A5000849A5000849A5000849A50008D8
:1000500049A5000849A5000849A5000849A50008C8
:1000600049A5000849A5000849A5000849A50008B8
:1000700049A5000849A5000849A5000849A50008A8
:1000800049A5000849A5000849A5000849A5000898
:1000900049A5000849A5000849A5000849A5000888
:1000A00049A5000849A5000849A5000849A5000878
:1000B00049A5000849A5000849A5000849A5000868
:1000C00049A5000849A5000849A5000849A5000858
:1000D00049A5000849A5000849A5000849A5000848
:1000E00049A5000849A5000849A5000849A5000838
:1000F00049A5000849A5000849A5000849A5000828
:1001000049A5000849A5000849A5000849A5000817
:1001100049A5000849A500089D4D000849A500080B
:1001200049A5000849A5000849A5000849A50008F7
:1001300049A5000849A5000849A5000849A50008E7
:1001400049A5000849A5000849A5000849A50008D7
:1001500049A5000849A5000849A5000849A50008C7
:1001600049A5000849A5000849A5000849A50008B7
:1001700049A5000849A5000849A50008000000009D
:1001800049A5000849A5000849A5000849A5000897
:1001900049A5000849A5000849A5000849A5000887
:0C01A000A94D000849A50008B54D000855
:1001B00010B5054C237833B9044B13B10448AFF3A1
:1001C00000800123237010BD800300200000000088
:1001D000A880020808B5034B1BB103490348AFF3DD
:1001E000008008BD0000000084030020A8800208F1
:1001F00081F0004102E000BF83F0004330B54FEAD8
:1002000041044FEA430594EA050F08BF90EA020F44
:100210001FBF54EA000C55EA020C7FEA645C7FEAD7
:10022000655C00F0E2804FEA5454D4EB5555B8BFFA
:100230006D420CDD2C4480EA020281EA030382EA6B
:10024000000083EA010180EA020281EA0303362DFD
:1002500088BF30BD11F0004F4FEA01314FF4801CD0
:100260004CEA113102D0404261EB410113F0004FE2
:100270004FEA03334CEA133302D0524263EB430399
:1002800094EA050F00F0A780A4F10104D5F1200E37
:100290000DDB02FA0EFC22FA05F2801841F1000192
:1002A00003FA0EF2801843FA05F359410EE0A5F166
:1002B00020050EF1200E012A03FA0EFC28BF4CF097
:1002C000020C43FA05F3C01851EBE37101F000454D
:1002D00007D54FF0000EDCF1000C7EEB00006EEB5A
:1002E0000101B1F5801F1BD3B1F5001F0CD34908E4
:1002F0005FEA30004FEA3C0C04F101044FEA44523B
:1003000012F5800F80F09A80BCF1004F08BF5FEAC1
:10031000500C50F1000041EB045141EA050130BDA1
:100320005FEA4C0C404141EB010111F4801FA4F144
:100330000104E9D191F0000F04BF01460020B1FA99
:1003400081F308BF2033A3F10B03B3F120020CDAD1
:100350000C3208DD02F1140CC2F10C0201FA0CF0AF
:1003600021FA02F10CE002F11402D8BFC2F1200C14
:1003700001FA02F120FA0CFCDCBF41EA0C019040CA
:10038000E41AA2BF01EB0451294330BD6FEA040413
:100390001F3C1CDA0C340EDC04F11404C4F12002FE
:1003A00020FA04F001FA02F340EA030021FA04F310
:1003B00045EA030130BDC4F10C04C4F1200220FA67
:1003C00002F001FA04F340EA0300294630BD21FAA5
:1003D00004F0294630BD94F0000F83F4801306BF6B
:1003E00081F480110134013D4EE77FEA645C18BF5F
:1003F0007FEA655C29D094EA050F08BF90EA020FF6
:1004000005D054EA000C04BF1946104630BD91EAED
:10041000030F1EBF0021002030BD5FEA545C05D1F0
:100420004000494128BF41F0004130BD14F580042F
:100430003CBF01F5801130BD01F0004545F0FE41A3
:1004400041F470014FF0000030BD7FEA645C1ABFD8
:10045000194610467FEA655C1CBF0B46024650EA0F
:10046000013406BF52EA033591EA030F41F400213B
:1004700030BD00BF90F0000F04BF0021704730B5C1
:100480004FF4806404F132044FF000054FF0000196
:1004900050E700BF90F0000F04BF0021704730B557
:1004A0004FF4806404F1320410F0004548BF40422C
:1004B0004FF000013EE700BF42004FEAE2014FEA81
:1004C00031014FEA02701FBF12F07F4393F07F4F5C
:1004D00081F06051704732F07F4208BF704793F05F
:1004E0007F4F04BF41F40021704730B54FF4607472
:1004F00001F0004521F000411CE700BF50EA010275
:1005000008BF704730B54FF000050AE050EA01021D
:1005100008BF704730B511F0004502D5404261EB8D
:1005200041014FF4806404F132045FEA915C3FF4CE
:10053000D8AE4FF003025FEADC0C18BF03325FEA6B
:10054000DC0C18BF033202EBDC02C2F1200300FA1C
:1005500003FC20FA02F001FA03FE40EA0E0021FA41
:1005600002F11444BDE600BF70B54FF0FF0C4CF42F
:10057000E06C1CEA11541DBF1CEA135594EA0C0FE1
:1005800095EA0C0F00F0DEF82C4481EA030621EA1C
:100590004C5123EA4C5350EA013518BF52EA033557
:1005A00041F4801143F4801338D0A0FB02CE4FF009
:1005B0000005E1FB02E506F00042E0FB03E54FF039
:1005C0000006E1FB03569CF0000F18BF4EF0010E31
:1005D000A4F1FF04B6F5007F64F5407404D25FEA2D
:1005E0004E0E6D4146EB060642EAC62141EA5551E0
:1005F0004FEAC52040EA5E504FEACE2EB4F1FD0C22
:1006000088BFBCF5E06F1ED8BEF1004F08BF5FEA9F
:10061000500E50F1000041EB045170BD06F0004651
:1006200046EA010140EA020081EA0301B4EB5C04FE
:10063000C2BFD4EB0C0541EA045170BD41F48011F6
:100640004FF0000E013C00F3AB8014F1360FDEBF1B
:10065000002001F0004170BDC4F10004203C35DAF7
:100660000C341BDC04F11404C4F1200500FA05F37A
:1006700020FA04F001FA05F240EA020001F000421B
:1006800021F0004110EBD37021FA04F642EB060191
:100690005EEA430E08BF20EAD37070BDC4F10C04BB
:1006A000C4F1200500FA04F320FA05F001FA04F27F
:1006B00040EA020001F0004110EBD37041F100016B
:1006C0005EEA430E08BF20EAD37070BDC4F1200576
:1006D00000FA05F24EEA020E20FA04F301FA05F2DE
:1006E00043EA020321FA04F001F0004121FA04F286
:1006F00020EA020000EBD3705EEA430E08BF20EA56
:10070000D37070BD94F0000F0FD101F0004640008F
:1007100041EB010111F4801F08BF013CF7D041EA11
:10072000060195F0000F18BF704703F00046520015
:1007300043EB030313F4801F08BF013DF7D043EAE6
:100740000603704794EA0C0F0CEA135518BF95EA9C
:100750000C0F0CD050EA410618BF52EA4306D1D123
:1007600081EA030101F000414FF0000070BD50EA42
:10077000410606BF1046194652EA430619D094EACC
:100780000C0F02D150EA013613D195EA0C0F05D1B6
:1007900052EA03361CBF104619460AD181EA03010A
:1007A00001F0004141F0FE4141F470014FF00000C2
:1007B00070BD41F0FE4141F4780170BD70B54FF05D
:1007C000FF0C4CF4E06C1CEA11541DBF1CEA1355DD
:1007D00094EA0C0F95EA0C0F00F0A7F8A4EB0504BF
:1007E00081EA030E52EA03354FEA013100F08880B6
:1007F0004FEA03334FF0805545EA131343EA12637F
:100800004FEA022245EA111545EA10654FEA002633
:100810000EF000419D4208BF964244F1FD0404F5EC
:10082000407402D25B084FEA3202B61A65EB030548
:100830005B084FEA32024FF480104FF4002CB6EB05
:10084000020E75EB030E22BFB61A754640EA0C0085
:100850005B084FEA3202B6EB020E75EB030E22BFC5
:10086000B61A754640EA5C005B084FEA3202B6EB06
:10087000020E75EB030E22BFB61A754640EA9C00C5
:100880005B084FEA3202B6EB020E75EB030E22BF95
:10089000B61A754640EADC0055EA060E18D04FEA53
:1008A000051545EA16754FEA06164FEAC30343EAF3
:1008B00052734FEAC2025FEA1C1CC0D111F4801FC0
:1008C0000BD141EA00014FF000004FF0004CB6E7B9
:1008D00011F4801F04BF01430020B4F1FD0C88BF58
:1008E000BCF5E06F3FF6AFAEB5EB030C04BFB6EB63
:1008F000020C5FEA500C50F1000041EB045170BD56
:100900000EF0004E4EEA113114EB5C04C2BFD4EB82
:100910000C0541EA045170BD41F480114FF0000E06
:10092000013C90E645EA060E8DE60CEA135594EA82
:100930000C0F08BF95EA0C0F3FF43BAF94EA0C0F85
:100940000AD150EA01347FF434AF95EA0C0F7FF4FA
:1009500025AF104619462CE795EA0C0F06D152EA4E
:1009600003353FF4FDAE1046194622E750EA410632
:1009700018BF52EA43067FF4C5AE50EA41047FF443
:100980000DAF52EA43057FF4EBAE12E74FEA4102A6
:10099000B2F1E04324BFB3F5001CDCF1FE5C0DD9DD
:1009A00001F0004C4FEAC0024CEA5070B2F1004F27
:1009B00040EB830008BF20F00100704711F0804F2A
:1009C00021D113F13872BCBF01F00040704741F4EF
:1009D00080114FEA5252C2F11802C2F1200C10FAF3
:1009E0000CF320FA02F018BF40F001004FEAC123D7
:1009F0004FEAD32303FA0CFC40EA0C0023FA02F37B
:100A00004FEA4303CCE77FEA625307D150EA013350
:100A10001EBF4FF0FE4040F44000704701F0004020
:100A200040F0FE4040F40000704700BF7BB972B94F
:100A30000029BEBF00204FF0004106E008BF00289B
:100A40001CBF6FF000414FF0FF3000F0BDB9ADF1B9
:100A5000080C6DE904CE002909DB002B1ADB00F03D
:100A60004DF8DDF804E0DDE9022304B070474042B0
:100A700061EB4101002B1BDB00F040F8DDF804E0E6
:100A8000DDE9022304B0404261EB4101524263EBD5
:100A900043037047524263EB430300F02FF8DDF845
:100AA00004E0DDE9022304B0404261EB41017047FC
:100AB000524263EB430300F021F8DDF804E0DDE986
:100AC000022304B0524263EB4303704753B94AB95F
:100AD000002908BF00281CBF4FF0FF314FF0FF3046
:100AE00000F072B9ADF1080C6DE904CE00F006F823
:100AF000DDF804E0DDE9022304B070472DE9F0479A
:100B0000089E04468846002B4BD18A42154667D979
:100B1000B2FA82F24AB1C2F1200701FA02F320FAD6
:100B200007F7954047EA030894404FEA154E230C17
:100B3000B8FBFEF71FFA85FC0EFB178843EA084353
:100B400007FB0CF1994209D9EB1807F1FF3080F04F
:100B50001B81994240F21881023F2B445B1AA4B2D8
:100B6000B3FBFEF00EFB103344EA034400FB0CFC25
:100B7000A44509D92C1900F1FF3380F00781A44561
:100B800040F2048102382C4440EA0740A4EB0C04F4
:100B900000271EB1D4400023C6E900433946BDE812
:100BA000F0878B4209D9002E00F0EB800027C6E9C0
:100BB000000138463946BDE8F087B3FA83F7002FC5
:100BC00047D18B4202D3824200F2FA80841A61EB51
:100BD000030301209846002EE0D0C6E90048DDE777
:100BE00002B9FFDEB2FA82F2002A40F08F80491B80
:100BF0004FEA154E1FFA85F80127B1FBFEFC230CC6
:100C00000EFB1C1143EA014308FB0CF1994207D982
:100C1000EB180CF1FF3002D2994200F2CD808446ED
:100C2000591AA3B2B1FBFEF00EFB101443EA0444C0
:100C300008FB00F8A04507D92C1900F1FF3302D2B8
:100C4000A04500F2B6801846A4EB080440EA0C4028
:100C50009FE7C7F1200CBB4022FA0CFE4EEA030EC0
:100C600001FA07F420FA0CF521FA0CF34FEA1E48BA
:100C70002543B3FBF8F92C0C08FB19331FFA8EFA45
:100C800044EA034309FB0AF49C4202FA07F200FA21
:100C900007F10BD91EEB030309F1FF3080F08780C9
:100CA0009C4240F28480A9F1020973441B1BADB23F
:100CB000B3FBF8F008FB103345EA034400FB0AFAE3
:100CC000A24508D91EEB040400F1FF336BD2A24504
:100CD00069D90238744440EA0940A0FB0289A4EBB8
:100CE0000A044C45C2464B4654D351D0002E69D01D
:100CF000B1EB0A0564EB030404FA0CFCFD40FC4074
:100D00004CEA0505C6E90054002747E7C2F1200375
:100D100020FA03F7954001FA02F021FA03F34FEAB3
:100D2000154E3843010CB3FBFEF71FFA85F80EFB96
:100D3000173341EA034107FB08F38B4204FA02F43C
:100D400007D9691807F1FF3C2FD28B422DD9023FFA
:100D50002944CB1A81B2B3FBFEF00EFB103341EAFB
:100D6000034100FB08F38B4207D9691800F1FF3CEF
:100D700017D28B4215D902382944C91A40EA0747CD
:100D80003BE73746304609E70746E7E61846FBE605
:100D90004145ABD2B8EB020A69EB0E0201381346AB
:100DA000A4E76046E9E7184695E76746D1E781463C
:100DB0007CE702382C4447E7ACF1020C2B442FE7C8
:100DC000384608E73746E9E6704700BF00000000F4
:100DD00001F0FF01102A2BDB10F0070F08D010F8EC
:100DE000013B013A8B422DD010F0070F42B3F6D1F0
:100DF000F0B441EA012141EA014122F007047FF009
:100E000000070023F0E80256083C85EA010586EA5F
:100E1000010685FA47F5A3FA87F586FA47F6A5FA9B
:100E200087F68EB9EED1F0BC01F0FF0102F00702A7
:100E300032B110F8013B013A83EA010313B1F8D152
:100E40000020704701387047002D06BF3546033833
:100E5000073815F0010F07D1013015F4807F02BF6C
:100E6000013015F4C03F0130F0BC0138704700BFBD
:100E7000704770477047000010B5034B036004468D
:100E800000F0D4FC204610BDDC81020810B50446F9
:100E9000FFF7F2FF204641F2442125F095F8204665
:100EA00010BD2DE9F0411E460368BDF918501B6BBB
:100EB0000446174698472368394620465B6B984797
:100EC0002368314620469A6B90472368294620467E
:100ED000DB6BBDE8F0411847C38810B4D21A838891
:100EE0005DF8044BC91A036812B25B6D09B218476A
:100EF00070B5044600F0B8FD0F4B236041F22C237F
:100F00000126E6540D4B0FCB04F59155103585E8BD
:100F10000F0004F5925341F21C221E600023A350DF
:100F200004F591522046136041F22422A35441F269
:100F30002822A35070BD00BFDC810208C0800208D7
:100F400000F0F0BB38B541F2242301252DED028BD2
:100F5000C554044608F0DEFB41F22823224AE05043
:100F600004F59053DA6004F59053204A1A6104F5B1
:100F700092521368AB4227D104F5915393ED058A41
:100F800002231360B0EE480A25F022F830EE000A82
:100F900004F5905383ED050AB0EE480A25F060F899
:100FA00030EE000A04F5905304F54674204683EDB4
:100FB000060A96226E21FFF78FFFBDEC028B2046BA
:100FC000BDE838400CF024BE022B05D104F5915346
:100FD00093ED068A0323D4E703F28C4304EB8303E7
:100FE00093ED008A1560CDE70000DC420000164357
:100FF00010B541F21C230446C358064A052100F5EA
:10100000767015F06FFE04F5D070BDE8104012F058
:10101000F6BD00BFD081020810B500F5915304461B
:101020001B68064A052100F2E23015F05BFE04F56C
:10103000F670BDE8104012F0E2BD00BFD08102089A
:101040002DE9F04F41F22C2589B0435D04461BB1D8
:10105000FFF778FF0023635541F22425635D3BB31E
:1010600008F058FB41F22823E358C01AB0F57A7F04
:101070001BD30023635504F5905393ED047A04F5D4
:10108000467504F59054BDEEC77AD4ED037A17EE99
:10109000103AFDEEE77A1AB217EE903A284619B2E6
:1010A000FFF71AFF28460CF0B3FD09B0BDE8F08F3A
:1010B000B4F91E3306EE903AB4F91C3304F590529D
:1010C00007EE903A143292ED007AF8EEE77A04F5E2
:1010D000905877EE877A04F5905308F10C08C8ED24
:1010E000007A183393ED005AF8EEE66A04F590554D
:1010F00076EE856A1035C5ED006AB4F92071B4F951
:1011000022B1B4F99C60B4F99EA005EE907AB3EEDA
:10111000046A77EE864AF8EEE55AF4EEE54AF1EE17
:1011200010FA24DB07F1460105EE901AF8EEE55AB5
:10113000F4EEE57AF1EE10FA19D805EE90BAF8EE71
:10114000E55AF4EEE56AF1EE10FA10DB0BF10A0154
:1011500005EE901AF8EEE55AF4EEE56AF1EE10FAB3
:101160009EBFB1EE455A83ED005AC5ED005A06EE1A
:10117000906AF8EEE66AF4EEE64AF1EE10FA30DB39
:1011800006F1460106EE901AF8EEE66AF4EEE67A0B
:10119000F1EE10FA25D8D5ED006A05EE90AA76EEAC
:1011A000866AF8EEE55AF4EEE56AF1EE10FA18DB1D
:1011B0000AF10A0105EE901AF8EEE55AF4EEE56A36
:1011C000F1EE10FA0DD8D3ED006AAAF11401F1EE98
:1011D000666AC3ED006A06EE901AF8EEE66AC5ED9F
:1011E000006AF5EEC07AF1EE10FA4FF0000127D850
:1011F000C8F80010B1EE477A82ED007AD5ED007A9A
:10120000F5EEC07AF1EE10FA00F2EF802960D3ED2E
:10121000007A04F59159F1EE677AC3ED007AD9F8B6
:1012200000300133C9F800302046FFF7F5FED9F849
:101230000030092B0FDD11F02BFB01F05BFB34E7D5
:10124000DFED867AF4EEE74AF1EE10FAD6DB844859
:10125000C8F80000CEE72046FFF774FE95ED007A4F
:10126000D8ED007ABDEEC77AFDEEE77A17EE103AB8
:101270001AB217EE903A04F5467019B2FFF72CFE39
:10128000784800231A4602A9006808F0ADFB002840
:101290007FF40BAFBDF80830DFED736ADFED737AD2
:1012A000A3F5006307EE103AB8EEC77AF0EE665A7F
:1012B00027EE267AB0EE676AB4EEE77AF1EE10FA1E
:1012C00040F3B28037EE677AF0EE086A67EE266A7E
:1012D000BDF80C30A3F5006307EE903AB8EEE77A5C
:1012E00067EE257AF4EEC67AF1EE10FA40F3A980A3
:1012F00077EEC67AB0EE087A67EE877ABDEEE67AC8
:10130000FDEEE77A17EE101A17EE905A394421EAEB
:10131000E171354425EAE575AA29A8BFAA21AA2DBD
:10132000A8BFAA258F42B946A8BF8946AE42B0469B
:1013300001F14603A8BFA846A9F1020946379F421A
:10134000ACBFC9EB0707C9EB0307A8F1020805F119
:101350004603463604379E42ACBFC8EB0606C8EBD0
:10136000030629EAE979043607EB090328EAE87855
:10137000F02B08EB0603C8BFC9F1F007F02B4FF0C4
:101380000A0300935A4604F58E704FF0460309B2E3
:10139000C8BFC8F1F006FFF784FD0A235246009348
:1013A00029B204F1980046230434FFF77AFDABF12B
:1013B000020B0E2304A92046AAF1020AADF81090F0
:1013C000ADF812B0ADF81470ADF81630ADF8188065
:1013D000ADF81AA0ADF81C60ADF81E3012F060FC3C
:1013E00006A9204612F05CFC5FE637EE866ADFED68
:1013F000207AB4EEE76AF1EE10FAFFF62FAF1D4A3D
:101400002A60D3ED007A41F21C29F1EE677AC3ED30
:10141000007A54F80930013344F809302046FFF7C8
:10142000E7FD54F8093004E7DFED137AB4EEE77A0C
:10143000F1EE10FA02D537EE067A45E7DFED0F6AD6
:1014400046E79FED0D7AF4EEC77AF1EE10FA02D579
:1014500077EE867A4EE7DFED097A4FE700007043BA
:1014600000005C43D83F01200000003A0000C83D66
:101470000000A043000096430000C8BD000000002B
:10148000704704387047704710B51021044624F0A7
:101490009BFD204610BDA0F10400F5E710B5002229
:1014A0008260044AC16002F1080420320460426094
:1014B00010BD00BF108202087047043870477047A3
:1014C00010B51021044624F07FFD204610BDA0F188
:1014D0000400F5E710B500228260044AC16002F101
:1014E000080420320460426010BD00BF3882020848
:1014F0007047704710B5034B0360044600F04AFD87
:10150000204610BD6882020810B50446FFF7F2FFBE
:1015100020464FF48E7124F057FD204610BD000088
:1015200010B5044600F0CCFD014B2360204610BDF1
:101530006882020800F02FBD7047000010B5034B11
:101540000360044600F05EFE204610BD9C82020847
:1015500010B50446FFF7F2FF20464FF4CE7124F099
:1015600033FD204610BD000010B5044600F04CFFCE
:10157000014B2360204610BD9C82020800F043BE50
:10158000704704387047704710B51021044624F0A6
:101590001BFD204610BDA0F10400F5E710B50022A8
:1015A0008260044AC16002F1080420320460426093
:1015B00010BD00BFC8820208002202607047704759
:1015C000704700F598730868496803C3704770470F
:1015D00001F0A0B910B54FF4AE71044624F0F4FC4C
:1015E000204610BD10B50446D0F85801FFF7E7FFBC
:1015F0002046BDE8104011F0F5B910B50446D0F80A
:10160000400158B10368DB68984738B1D4F840010D
:1016100003689B6898470023C4F8403110BD000060
:1016200010B5044601F00AF9014B2360204610BDB5
:10163000F882020890F8252012B103685B69184708
:1016400070470020704781807047C18070470181DA
:1016500070474181704770477047704770477047C7
:101660004FF6FF7383814FF0FF3303621368C3614A
:101670001060704790F825201AB190F8242002B12C
:1016800018607047806A7047704770470020704745
:10169000B1F904308380012070477047704730B53E
:1016A00085B0036801816D4601460446D3F8843055
:1016B0002846984795E807003C3484E8070005B0C1
:1016C00030BD30B585B0036841816D4601460446A2
:1016D000D3F884302846984795E807003C3484E8DE
:1016E000070005B030BD0022028042808280C280A7
:1016F000704780F83610704770B5036804461B6B5E
:10170000154698472368294620465B6EBDE8704021
:1017100018470020704708B5FFF78CFF08BD806CA4
:1017200070477047704703681B6B184770477047D6
:10173000704730B4C56844686A100346ED0704EB8F
:1017400002009B6848BFA25830BC48BFD358184716
:1017500043682BB183682BB9C06800F00100704763
:10176000184670470120704790F82D3080F860309F
:10177000704710B50821044624F026FC204610BD11
:1017800010B54C21044624F01FFC204610BD10B5B6
:101790006421044624F018FC204610BD10B5102129
:1017A000044624F011FC204610BD000070B503680B
:1017B0005E6B124B1B6804468DB22BB9104B114A5D
:1017C0006C21114825F08CFC1049828D09889142CA
:1017D00003D80F4B0B4A6D21F3E713F812200D4B82
:1017E0001B6853F8220003681B6B9847291A33467D
:1017F000204609B2BDE87040184700BF803501207F
:1018000079850208B1860208BB850208843501206B
:10181000FC850208883501200146383091F82C30CB
:1018200013B136310DF024BF3431FBE710B5034B53
:10183000036004460EF01AFF204610BD44860208DD
:1018400010B5064B036004460EF010FF204641F22F
:101850000C2124F0B9FB204610BD00BF44860208CD
:1018600008B511F015F8BDE8084001F043B810B50F
:101870000446006B50B10368DB68984730B1206BB9
:10188000036821469B68BDE81040184710BD70B53D
:101890000B7990F82C5004460E4653B955B1337964
:1018A000012B17D123682046D3F88830BDE870405B
:1018B00018477DB1B3FA83F35B0984F82C302368B1
:1018C0002046D3F88C309847236820465B699847B8
:1018D000002DE4D170BD00F55D70884208B505D1DA
:1018E00010F0D6FFBDE8084001F024B808BD002282
:1018F0004FF0FF31C0E90021826070472DE9F047C9
:101900000B8883861388C3860446B0F908601046A6
:10191000914615F0A1FA80464846B4F90A5015F0F0
:10192000CFFA022796FBF7F695FBF7F5B6B2ADB204
:1019300090FBF7F098FBF7F82D1AA6EB0806236842
:10194000A687E5872046D3F88C30BDE8F0471847D6
:101950000A4A026000228280C28002814281828122
:10196000C28102824282C0E90522C26102844284AD
:1019700080F82420012280F82520704748A302081F
:1019800010B526220446002125F025FC2046FFF74D
:10199000DFFF044B2360FF2384F826300023A3627B
:1019A000204610BDB0A0020870B500238380114D01
:1019B000114B03602A6892F85810064609B1D06CA2
:1019C00000B990680368DB6A98472B68B0FA80F426
:1019D000D86C640928B10368DB6A9847002808BFFF
:1019E00001242CB9054B064A06482C2125F078FB2A
:1019F000304670BD283501204C830208BF840208A0
:101A0000788602081D85020810B5262204460021AA
:101A100025F0E1FB2046FFF79BFF4FF6FF720C4BD2
:101A2000A362A28500234FF47F01A4F84020A4F80C
:101A30004220084A84F83830C4E90C3184F839303F
:101A4000A387E38763642260A364204610BD00BFC0
:101A50006C8302087C830208C26B4901914202D068
:101A6000C1630CF0B9BA70472DE9F04F044699B044
:101A7000A146002512F0FCFFB84BE56349F8403B56
:101A80004846FFF77DFF04F16C0304F198081846FF
:101A9000B34F0793FFF774FF40460CF07DFA04F54F
:101AA000847304F58E7607F1240A18460A93FFF72B
:101AB0007BFFC4F80871C4F810A13046C4F8145173
:101AC0000CF06AFA04F5C67318460B93FFF76CFF27
:101AD00004F5D073C4F88C71C4F894A11846C4F806
:101AE00098510393FFF790FF04F5F673184604F539
:101AF0000E7B0493FFF788FF58460CF04DFA04F56F
:101B00002A7318460C93FFF74FFF04F52F73C4F8A0
:101B1000A872C4F8B0A21846C4F8B45208930BF0E7
:101B200085FB04F5417318460D93FFF73DFF04F55F
:101B30004673C4F80473C4F80CA31846C4F81053D1
:101B400009930BF073FB04F5587318460E93FFF7D7
:101B50002BFF04F55D73C4F86073C4F868A31846DE
:101B6000C4F86C530693FFF7F3FEFF2384F8A13308
:101B70004FF0010304F56B774FF0FF3A84F8983388
:101B8000784BC4F87433262229463846C4F89C534F
:101B900084F8A053C4F8A453C4F8A8A3ADF858A07F
:101BA00025F019FB3846FFF7D3FE6F4BC4F8AC3372
:101BB00018AB1A46384632F8083DA4F8D23311461D
:101BC00084F8D4A305920DF053FD3946069808F029
:101BD000F3FC41F2FC13E2180F92644AE2500F9BAF
:101BE000634A5C6041F204234FF46161E25041F2C8
:101BF000082304F57B70E5500EF02EFD4FF4A07322
:101C00002A46484600932946F023FFF74AF9271D44
:101C10004FF07F434946A366384608F0CDFC4FF4A9
:101C2000A0732A4600932946F0230798FFF739F955
:101C3000504BC4F894300799384608F0BDFC0A238D
:101C4000404600934FF4967246235821FFF729F936
:101C5000494BC4F8143143F64473A022A4F8183158
:101C60000A9BC4F8C030114640460CF0ABFAA022E3
:101C700040464FF402610CF0B0FA40460A21FFF7EB
:101C8000EBFE404601210CF0B3FA4146384608F01D
:101C900093FC0A23304600930A2246235521FFF77E
:101CA00000F9364BC4F898314FF26103A022A4F832
:101CB0009C310B9BC4F84431114630460CF082FA3B
:101CC000A02230464FF402610CF087FA30460A2118
:101CD000FFF7C2FE304601210CF08AFA3146384641
:101CE00008F06AFC1E236E220093294614230398F1
:101CF000FFF7D7F8D4F8A031C4F8D0A110AEA4F8FB
:101D0000D451D3F8843003993046984796E80700B9
:101D100004F5EE7989E807004FF00308D4F8A03104
:101D200084F8D881D3F8843003993046984796E8F0
:101D30000700134B1B6889E8070004F576792BB977
:101D4000104B114A6021114825F0CAF9104B1B882D
:101D5000022B21D80F4B0C4A6121F4E7448602087C
:101D6000989C02080C84020804A20208AC840208B1
:101D7000D7180008613E02FF23EB3EFF0F0FF2FF72
:101D80008035012079850208EC860208BB850208AF
:101D900084350120FC850208794B0221186801F086
:101DA000D7FB784A03460521484614F09BFFC4F848
:101DB000E89105990398DFF8D891CDF85890ADF8DF
:101DC0005C800DF065F80399384608F0F5FB1E229B
:101DD00000921423A52229460498FFF762F8D4F84C
:101DE000EC31C4F81CA2A4F820523046D3F8843059
:101DF0000499984796E8070004F50A7383E80700FA
:101E0000D4F8EC2184F8248230460393D2F884205D
:101E10000499904796E80700039B83E807005A4A15
:101E2000136804F2E236002B8AD0584A1388042B38
:101E300090D9534B0421186801F08AFB514A03469C
:101E40000521304614F04EFFDDE90401C4F8346288
:101E50000526CDF858904FF00408ADF85C600DF001
:101E600017F80499384608F0A7FB29465846CDF8DC
:101E70000080F0239E22FFF714F80C9BC4F8603218
:101E8000A02211465846C4F8B4A2A4F8B8A20CF097
:101E900099F9A02258464FF4EB510CF09EF95846A0
:101EA0000A21FFF7D9FD584602210CF0A1F9594645
:101EB000384608F081FB082300939C22089874217F
:101EC000FEF7EFFF8023C4F8E832C4F8EC32C4F820
:101ED000F0324FF6FF734FF43459A4F814330D9BCE
:101EE000C4F8E4320899C4F8FC523846C4F8F452F5
:101EF000C4F8F892C4F810A308F05EFB1423009312
:101F0000962209986E21FEF7CCFF4FF4A073C4F817
:101F10004433C4F84833C4F84C336FF0FF03C4F8BB
:101F20006C334FF6E073A4F870330E9BC4F8403363
:101F30000999C4F858533846C4F85053C4F8549318
:101F400008F03AFB059A0698ADF8546015A9ADF86B
:101F50005880FFF7D3FC0F9BC4F8A43323230093CE
:101F60007D220698C4F8B053CD21FEF79AFF38467B
:101F7000069908F021FB204619B0BDE8F08F00BF9C
:101F80008C350120BC840208803501208435012075
:101F90006C83020870477047704730B4C568446866
:101FA0006A100346ED0704EB02009B6848BFA25885
:101FB00030BC48BFD358184743682BB183682BB94E
:101FC000C06800F001007047184670470120704754
:101FD00010B51021044623F0F7FF204610BD10B5C0
:101FE0004FF48E71044623F0EFFF204610BDC4303D
:101FF000884208B505D110F04BFCBDE8084000F060
:1020000059BC08BD70B5036804461B6B154698475C
:102010002368294620465B6BBDE87040184770B5C1
:10202000036804469B6B154698472368294620465B
:10203000DB6BBDE870401847F8B51A4B018F1B8861
:102040008B42064629D9184B1B682BB9174B184AE7
:1020500018486C2125F044F813F81120164B1B6822
:1020600053F82250154B186801F072FA2B68074696
:102070009B6B284698472B6804469B6C394628463C
:1020800098472B6814FB00F45B6A3946284698474A
:10209000A4B22044A6F84600F8BD0023A0F84630BC
:1020A000FAE700BF843501208035012079850208D8
:1020B00070870208BB850208883501208C35012015
:1020C0002DE9F74F04462746002512F0D1FC484B76
:1020D000E56347F8403B04F16C0B3846FFF750FCD2
:1020E0000DF108095846FFF74BFC4FF6FF7329F82E
:1020F000043D04F1980604F1C408494630460CF04A
:1021000083F940460DF0ECFB3A4BC4F80C313A4BE6
:10211000C4F81431C4F818512A4629463846C4F880
:102120001041FFF76FFF4FF4A0723846F021FFF720
:1021300076FF04F1040A4FF07F43A3663946504608
:1021400008F03AFA2A4629465846FFF75BFF4FF453
:10215000A0725846F021FFF762FF284BC4F8943074
:102160005946504608F028FA032349463046ADF850
:1021700004300DF07DFA294630466FF02502FFF756
:1021800041FF4FF483723046F021FFF748FF2946A4
:1021900030460CF0F4F83146504608F00DFA294666
:1021A0004046F122FFF72EFF012502234A466946E9
:1021B0004046ADF80430ADF800500DF092F84046BE
:1021C000A4F8FC50FFF738FF0D4BC4F800314FF076
:1021D000FF33C4F8043104F586735046C4F8EC307C
:1021E000414608F0E9F9204603B0BDE8F08F00BF92
:1021F000448702082C870208EF1F00080B0B4CFFD6
:10220000B205AAFF70477047704790F82C302BB189
:10221000C26EC26523B1436F03667047826EF8E7F2
:10222000036FF9E77047704730B4C56844686A10B7
:102230000346ED0704EB02009B6848BFA25830BC80
:1022400048BFD358184743682BB183682BB9C0687F
:1022500000F001007047184670470120704790F861
:102260002D3080F8A43080F85A30704790F82D3027
:1022700080F85A30704710B57821044623F0A4FE48
:10228000204610BD10B5A821044623F09DFE20462F
:1022900010BD10B51021044623F096FE204610BD57
:1022A00010B54FF4CE71044623F08EFE204610BDCB
:1022B00010B504467C3094F82C303BB104F17A011F
:1022C0000DF0D6F92046FFF7A0FF10BD04F178010C
:1022D000F6E7E430884208B505D110F0D9FABDE838
:1022E000084000F0F7BA08BD2DE9F0470B88A0F8C8
:1022F00078301388A0F87A300446B0F908501046B8
:10230000914614F0A9FD80464846B4F90A6014F0DD
:10231000D7FD022795FBF7F596FBF7F6ADB2B6B2FF
:1023200090FBF7F098FBF7F1321A691A04F17C0080
:1023300012B209B2FFF766FE23682046D3F88C304C
:10234000BDE8F0471847000038B5262204460D4680
:10235000002124F040FF2046FFF7FAFA064B2360E5
:102360002B88E384FF23204684F8283029460DF08B
:102370007FF9204638BD00BF04A2020873B50446A9
:10238000FFF7E6FAFF23264684F82D3001230025C7
:1023900084F82430194BA56284F82C50256346F844
:1023A000343B3046FFF7ECFA154B63632A4625664B
:1023B000A4F86450C4E91A55C4E91C5529463046AE
:1023C000FFF720FE3146204608F0F6F802A90D4B33
:1023D000236004F17C054FF6FF7321F8043DA4F857
:1023E0007830A4F87A302846FFF7AEFF2046294619
:1023F00008F0E2F8204602B070BD00BFB4870208C2
:102400009CA10208508802082DE9F04F04468BB0C9
:10241000A246002512F02CFB6E4BE5634AF8403BC8
:102420000AAE4FF6FF785046FFF7AAFA26F8088D55
:1024300004F16C0931464846FFF786FF04F19C071A
:10244000654BE36629462622A4F89650A4F89850D6
:10245000384624F0C0FE3846FFF77AFA5F4BC4F8DE
:102460009C305F4BC4F8C430A4F8C8804FF47F039D
:10247000A4F8DC80A4F8DE8004F1E408C4F8D030CD
:10248000C4F8CC5084F8D45084F8D550A4F8D8506F
:10249000A4F8DA50C4F8E0504046FFF76FFF514B04
:1024A000C4F88C314FF4A0724F4BC4F894310092B1
:1024B00029462A465046C4F89041C4F89851F02362
:1024C000FEF7EFFC04F1040B4FF07F43A366514687
:1024D000584608F071F831464846ADF820500CF0E7
:1024E00053FD4FF4A072F023009229462A46484635
:1024F000FEF7D7FC2A46294648460CF023FD4946FC
:10250000584608F059F8602300932D222946384692
:10251000E823FEF7C6FC0DF10809344BC4F8CC30B3
:1025200039464846A4F8D0500CF018FA99E807004C
:1025300004F1D80383E80700294B08933146384655
:10254000ADF824500CF0A4FC39465846322708F068
:1025500033F82A4629463B4604F58C700097FEF76F
:10256000A0FC0523A4F84831214BC4F84C31214B81
:10257000C4F850314FF0FF33C4F854311E4BC4F847
:102580005831D4F8E4304046D3F88C3098470623CD
:10259000ADF81C303246072307A94046ADF820307D
:1025A000FFF7A2FE4FF00113C4F8643104F5C673BF
:1025B000C4F81431DA223B46404600975F21FEF70B
:1025C00070FC5846414607F0F7FF20460BB0BDE8C7
:1025D000F08F00BF0889020818A1020820A0020895
:1025E0006C830208F0880208D32200081363EDFF11
:1025F0001F5BC2FFCC9900FF996633FF704770479D
:1026000070474160704770470123037270477047FD
:1026100070477047704770477047704738B5054638
:1026200040680368DB69984704464CB1A188AB89D0
:10263000C91A236820461B6B09B29847A469F4E7BE
:1026400038BD10B4C468416862100346E40701EB6A
:1026500002009B6848BF8A585DF8044B48BFD358B6
:10266000184743682BB183682BB9C06800F001009C
:102670007047184670470120704710B51421044672
:1026800023F0A2FC204610BD10B50C21044623F017
:102690009BFC204610BD10B51021044623F094FC8D
:1026A000204610BD10B54FF4AE71044623F08CFCEB
:1026B000204610BD10B51021044623F085FC2046AD
:1026C00010BD10B510F0E4F80368BDE81040DB6BF6
:1026D000184710B510F0DCF80368BDE810405B6BDC
:1026E0001847000070B50446B2B0C0221C4902A8C9
:1026F00024F066FD237C2F2B03D90123237232B0F3
:1027000070BD33B9174B1B781BB110F0C1F810F036
:10271000C5F80325013DF2D0237C302BEFD832AA37
:1027200002EB8303608953F8C06CE389A18996FBAF
:10273000F3F203FB126313FB00F312FB01F2ADF89B
:1027400004006068ADF80610ADF80030ADF8022066
:10275000036869461B699847237C01332374D9E7D2
:10276000D08002082435012073B50446807A637A4C
:102770000130C0B29842A07205D901232372002310
:10278000A37202B070BDB4F90C20B4F90E60002140
:1027900012F020FB83B213F0010235D1E081E5890C
:1027A000A37AAD1B012BADB206D11B4B1B781BB11D
:1027B00010F06EF810F072F8184A0023ADF80230ED
:1027C0001288E3891A445B42ADF80430144BADF82B
:1027D00000201B88ADF8063010F05AF8036802AAF2
:1027E0001B6C12E90600984760680368DB6998472C
:1027F0000446002CC5D0A1882368294420461B6BC1
:1028000009B29847A469F4E74FF6FF710028D8BFD2
:102810000A461344E381C2E7243501201A3501201A
:102820001C350120044B1B6893F858200AB1D86C62
:1028300000B99868704700BF28350120F8B50446F4
:1028400017460E4610F00EF9164BC4F854711C6072
:10285000154B2360154BC4F84431154BC4F858612F
:1028600000251868C4F83C51C4F84051C4F84851D8
:10287000C4F84C51C4F85051036801219B68984733
:10288000284600F02BFEFFF7CDFF1BF076FAFFF78E
:10289000C9FF1BF0EDFAFFF7C5FF1BF0F5FA204664
:1028A000F8BD00BF7C350120548902083C8902082C
:1028B00028350120064BC0F84C310023C0F85031B8
:1028C00000F5A273C0F84801C0F84031704700BF5E
:1028D000AD2A0008064BC0F84C310023C0F8503137
:1028E00000F5A273C0F84801C0F84031704700BF3E
:1028F000192C0008064BC0F84C310023C0F85031A9
:1029000000F5A273C0F84801C0F84031704700BF1D
:10291000952D0008064BC0F84C310023C0F850310B
:1029200000F5A273C0F84801C0F84031704700BFFD
:10293000FD2E0008064BC0F84C310023C0F8503182
:1029400000F5A273C0F84801C0F84031704700BFDD
:10295000A53000082DE9F04707469068DDF820A073
:10296000994603681B6A88461546984741F24323F7
:10297000984205D8464B474AA321474824F0B0FB6C
:10298000686803681B6A98470F2803D8434B414A7D
:10299000A421F2E7E86803681B6A98470F2803D868
:1029A0003F4B3C4AA521E8E70FF072FF04300FF0DF
:1029B000BCFFD9F8000010B10368DB689847D9F86C
:1029C000000010B103681B689847386810B10368AD
:1029D0005B699847D8F8000010B103685B689847B6
:1029E000386810B103681B689847D8F8000010B128
:1029F00003689B689847E868036800215B6A98470A
:102A0000044660B10023274A436003728372C38186
:102A1000254B02601B8814225B4242728381A868A6
:102A2000036800215B6A9847064608B1FEF760FA22
:102A30006868036800215B6A9847054610B1314613
:102A4000FEF72CFDC9F80040C8F800503E60E5B123
:102A50002B1DCAF80030C5F808A03368F56330466E
:102A6000DB6898472B6828461B6898472146304604
:102A700012F0AAF9236820461B699847236820466C
:102A80005B6998472846BDE8F0872B46E1E700BF21
:102A90000C8A02082B8D02089A8A0208DB8A020837
:102AA0007E8B0208F08902081A35012007B5D0F89C
:102AB00058310093D0F85421044B00F59E7104481E
:102AC000FFF748FF03B05DF804FB00BF703501203D
:102AD0006C3501202DE9F04707469068DDF820A00D
:102AE000994603681B6A88461546984741F2432376
:102AF000984205D8424B434AA321434824F0F0FAB8
:102B0000686803681B6A98470F2803D83F4B3D4A03
:102B1000A421F2E7E86803681B6A98470B2803D8EA
:102B20003B4B384AA521E8E70FF0B2FE04300FF026
:102B3000FCFED9F8000010B10368DB689847D9F8AB
:102B4000000010B103681B689847386810B103682B
:102B50005B699847D8F8000010B103685B68984734
:102B6000386810B103681B689847D8F8000010B1A6
:102B700003689B689847E868036800215B6A984788
:102B8000044620B1002343600372224B0360A8680F
:102B9000036800215B6A9847064608B1FEF7A8F96A
:102BA0006868036800215B6A9847054610B13146A2
:102BB000FEF774FCC9F80040C8F800503E60E5B16B
:102BC0002B1DCAF80030C5F808A03368F5633046FD
:102BD000DB6898472B6828461B6898472146304693
:102BE00012F0F2F8236820461B69984723682046B4
:102BF0005B6998472846BDE8F0872B46E1E700BFB0
:102C00000C8A0208218C02089A8A0208DB8A0208D0
:102C10007E8B0208A889020807B5D0F858310093C6
:102C2000D0F85421044B00F59E710448FFF752FF81
:102C300003B05DF804FB00BF703501206C35012046
:102C40002DE9F04707469068DDF820A09946036813
:102C50001B6A884615469847B0F58E7F05D2464BCD
:102C6000464AA321464824F03BFA686803681B6A79
:102C700098470F2803D8434B404AA421F2E7E8685D
:102C800003681B6A98470F2803D83F4B3B4AA5218E
:102C9000E8E70FF0FDFD04300FF047FED9F8000023
:102CA00010B10368DB689847D9F8000010B10368D9
:102CB0001B689847386810B103685B699847D8F873
:102CC000000010B103685B689847386810B103686A
:102CD0001B689847D8F8000010B103689B689847B4
:102CE000E868036800215B6A9847044660B10023E6
:102CF000264A436003728372C381254B02601B889E
:102D000014225B4242728381A868036800215B6AD7
:102D10009847064608B1FEF703FC6868036800217F
:102D20005B6A9847054610B13146FEF7D3FBC9F8F8
:102D30000040C8F800503E60E5B12B1DCAF80030D5
:102D4000C5F808A03368F5633046DB6898472B6800
:102D500028461B6898472146304612F035F823680C
:102D600020461B699847236820465B699847284698
:102D7000BDE8F0872B46E1E70C8A0208508E020876
:102D80009A8A0208DB8A02087E8B0208F089020810
:102D90001A35012007B5D0F858310093D0F85421E6
:102DA000044B00F59E710448FFF74AFF03B05DF83D
:102DB00004FB00BF703501206C3501202DE9F04780
:102DC00007469068DDF820A0994603681B6A88468C
:102DD00015469847B0F5CE7F05D2424B424AA32113
:102DE000424824F07DF9686803681B6A98470F28F9
:102DF00003D83F4B3C4AA421F2E7E86803681B6A0A
:102E000098470B2803D83B4B374AA521E8E70FF03A
:102E10003FFD04300FF089FDD9F8000010B10368C0
:102E2000DB689847D9F8000010B103681B68984721
:102E3000386810B103685B699847D8F8000010B192
:102E400003685B689847386810B103681B68984747
:102E5000D8F8000010B103689B689847E8680368D9
:102E600000215B6A9847044620B100234360037247
:102E7000214B0360A868036800215B6A98470646F7
:102E800008B1FEF771FB6868036800215B6A984728
:102E9000054610B13146FEF781FBC9F80040C8F87D
:102EA00000503E60E5B12B1DCAF80030C5F808A0FF
:102EB0003368F5633046DB6898472B6828461B6803
:102EC00098472146304611F07FFF236820461B6952
:102ED0009847236820465B6998472846BDE8F087F5
:102EE0002B46E1E70C8A0208758F02089A8A0208CD
:102EF000DB8A02087E8B0208A889020807B5D0F891
:102F000058310093D0F85421044B00F59E710448C9
:102F1000FFF754FF03B05DF804FB00BF70350120DC
:102F20006C3501202DE9F04706469068DDF82090C9
:102F3000984603681B6A0F4615469847B0F5CE7F42
:102F400005D2504B504AA321504824F0C9F8686874
:102F500003681B6A98470F2803D84D4B4A4AA4219F
:102F6000F2E7E86803681B6A9847132803D8494BBF
:102F7000454AA521E8E70FF08BFC04300FF0D5FCA3
:102F8000D8F8000010B10368DB689847D8F8000053
:102F900010B103681B689847306810B103685B691B
:102FA0009847386810B103685B689847306810B17B
:102FB00003681B689847386810B103689B68984796
:102FC000E868036800215B6A98470446A8B10023BB
:102FD000314A436003720374304B02601A88304BED
:102FE0001B889A4241D90732D2104281053306220A
:102FF00093FBF2F383810823C381A868036800214F
:103000005B6A9847824608B1FEF7AEFA68680368C3
:1030100000215B6A9847054610B15146FEF7BEFA9B
:10302000C8F800403D60C6F800A045B32B1DC9F8A4
:103030000030C5F80890DAF80030CAF83C50504625
:10304000DB6898472B6828461B68984721465046FE
:1030500011F0BAFE236820461B6998472368204672
:103060005B6998472846BDE8F08707330621DB10E7
:103070000532838192FBF1F2C1814281BDE72B468B
:10308000D5E700BF0C8A0208819002089A8A0208DC
:10309000DB8A02087E8B0208CC8902081A350120DF
:1030A0001C35012007B5D0F858310093D0F85421D1
:1030B000044B00F59E710448FFF734FF03B05DF840
:1030C00004FB00BF703501206C35012013B50022D0
:1030D00049B102AB019203F8052D0268946801AA78
:1030E000A04702B010BD0846FBE7C0897047008AC0
:1030F0007047C088704780887047807A00F07F00F2
:103100007047807AC0097047002070479FED010A20
:10311000704700BF00000000406A7047806A704737
:10312000704710B58A880B884C88C169D20A43EA77
:10313000044351F82200184410BD10B5C2B1137BEE
:10314000B3B1547BD27A240204F4E0641443026ADB
:1031500098B202EB840213888B4202D192F90200EA
:1031600010BD05D8013880B204320028F3D1F7E74A
:103170000020F5E710B52C21044622F025FF20465B
:1031800010BD000030B58BB00446BDF86050089506
:10319000BDF85C5007959DF8505006959DF84C5031
:1031A00005959DF8485004959DF8445003959DF869
:1031B000405002959DF83C500195BDF8385000955F
:1031C00011F06CF9064B2360159BE361169B23629B
:1031D000199B63621A9BA36220460BB030BD00BFEF
:1031E0009891020830B5174D2C78BFF35B8F14F01F
:1031F00001048FB022D1284622F0BDFEF0B13F235A
:103200000993114B0893114B11490A940122CDE9FE
:1032100006430423CDE903320A230093CDE90B448E
:103220000594CDE901440B48FFF7ACFF284622F096
:10323000AEFE094A0949074822F0C1FE05480FB011
:1032400030BD00BF9C03002068AC02086CAC0208D3
:10325000E8C10208A003002000000020213100087E
:1032600010B5002404600C6014601C6010BD0000E8
:1032700030B5184D2C78BFF35B8F14F001048FB07C
:1032800025D1284622F077FE08B33F230993124B3D
:103290000893124B079302220423CDE90523012250
:1032A000CDE90332232312220D490093CDE90B44CB
:1032B0002A230A94CDE901440A48FFF763FF284610
:1032C00022F065FE084A0949064822F078FE0548C2
:1032D0000FB030BDCC03002074AC0208BCAC0208B7
:1032E00010C20208D0030020000000202131000895
:1032F00030B5174D2C78BFF35B8F14F001048FB0FD
:1033000023D1284622F037FEF8B13F230993114B11
:103310000893114B11490A94CDE906430122042375
:10332000CDE9033214230B220093CDE90B4405941D
:10333000CDE901440A48FFF725FF284622F027FE81
:10334000084A0949064822F03AFE05480FB030BD48
:10335000FC03002070AC0208C0AC02080CC30208D9
:10336000000400200000002021310008704710B543
:103370000421044622F028FE204610BD08B5042989
:1033800010D8DFE801F00B03070B0B0000F014F876
:10339000406808BD00F010F88068FAE700F00CF80B
:1033A0000068F6E70020F4E7004870470C92020836
:1033B0000820704706207047004870472C04002002
:1033C00010B5FFF795FF044C2060FFF751FF6060D8
:1033D000FFF708FFA06010BD2C04002000207047FC
:1033E000002070470EB403B503AB002153F8042B43
:1033F000019310F0FDFA02B05DF804EB03B07047E2
:103400000CB407B504AB53F8042B019310F0F0FA99
:1034100003B05DF804EB02B07047000010B504463D
:1034200011F090FDE38E04EB43035884636C5BB3AF
:10343000238F2BB9174B184AC521184823F050FE8B
:1034400010B3204612F0A5FE238F012B03D8144B96
:10345000144ACB21F1E7E28E531C9BB2092B19468B
:1034600088BFA3F10A0104EB410140F63F10498CEB
:10347000814209D10A2B04EB420228BF002304EB4E
:103480004303508C588451842046BDE8104012F00C
:1034900083BD00BFAC920208D9930208B59202081E
:1034A000F99202080793020810B5044612F03BFD9A
:1034B0002046BDE8104011F041BD10B586B002AC09
:1034C00084E806001A460AAB05930193099B009312
:1034D0002146089B0EF046FD06B010BD38B5D8B9A0
:1034E000114B12481B681249BBB11A689C681A44F8
:1034F00002605A681A440A601C446CB10D4B0022E9
:103500001A80FFF759FF0546FFF754FF0A4B1C606E
:103510000A4B1D600A4B188038BD0A4B03600A4BEA
:103520000B600A4B1C68E8E7380400203C040020CC
:10353000400400204404002080350120883501200B
:103540008435012038B70B0810B70B0834B70B08C7
:10355000044B1B6853F82100034B1B6803EB40002E
:10356000704700BF400400203C040020012380F885
:10357000781080F87930704770470020704700005D
:103580004164034B003118BF01211970704700BF1F
:1035900025350120704700207047836B0BB108462A
:1035A000184770474FF6FF707047406803689B6983
:1035B0001847704770477047704780F8261070476B
:1035C00090F82600704710B50022B1F90840B1F913
:1035D0000A10028042808480C18010BD00220280D7
:1035E00042808280C28070470177704780ED080A70
:1035F000704780F82410704780F82510704701202C
:103600007047983070478C307047843070470000A6
:10361000034B902283F85A2383F85823704700BF46
:1036200000E100E0094A0A49D3680A48C3F30A03E3
:10363000013B9BB20B801169C1F30A010139018082
:103640001364536B43F001035363704700680140F8
:103650004E0400204C040020014B986A704700BFC4
:1036600084680140024B0122996243F8602C704744
:10367000846801407047704710B52C21044622F041
:10368000A3FC204610BD10B5BC21044622F09CFCD2
:10369000204610BD10B531B90A4B0B4A0B4840F219
:1036A000FF2123F01DFDC0E90F120032084918BFA9
:1036B00001220A7002681946D2F89020BDE8104035
:1036C000104700BFAB95020865960208E395020813
:1036D0002435012008B5094B1B888B4203D8084BC1
:1036E0001B88934205D9074B074A0848A32123F0BA
:1036F000F7FC074B1980074B1A8008BD1A350120CB
:103700001C3501204895020822960208E39502081C
:10371000203501202235012070B5044607F037FA24
:1037200023689D6E0FF0B4F801462046A847236831
:10373000054AD3F88C502046AC460023A2F516313A
:10374000BDE87040604700BF005802D007F006BADD
:1037500007F010BA07F0CCB907F03BBB10B5044630
:1037600007F092FF23682046D3F8BC30BDE8104034
:10377000184790F87A301BB1406803681B681847F7
:103780001846704710B590F8784090F834100C4BFC
:103790008C421A7809D03AB90A4A0B491488088829
:1037A00010800C8001221A7010BD002AFCD0054A3E
:1037B00005491488088810800C800022F3E700BFB8
:1037C0001E3501201A3501201C350120034B4FF016
:1037D00080629A604FF080729A60704700E100E06A
:1037E000084B4FF08062C3F88820BFF34F8FBFF3C0
:1037F0006F8F4FF08072C3F88820BFF34F8FBFF3F5
:103800006F8F704700E100E070B5284E3578BFF348
:103810005B8F15F0010547D1304622F0ACFB002844
:1038200042D0234C234B256104F13400C4E9003518
:10383000C4E90255E58425856585A58510F071FDEF
:1038400004F158000AF000FA1B4BA36520461B4BFD
:1038500040F8843BFEF7A8F8194BC4F884302433B1
:10386000C4F88C304FF4C803C4E928350023C4F8E9
:10387000AC30C4F8B030C4F8B430C4F8B830304616
:10388000104BC4F89050A4F89C5084F8A85084F8C9
:10389000A95084F8AA50C4F8983022F078FB0A4A5C
:1038A0000A49204622F08BFB014870BD48040020E5
:1038B00050040020E49C02088C940208049502083D
:1038C000989C0208789C02080000002075360008C9
:1038D00038B5184C23685BB3174B184A1B6C11881A
:1038E0008B4216D1164B198804F0B4F8236893F86C
:1038F0006A200025013283F86A2083F87C5000F0AA
:1039000083FA206807F0C0FE2846BDE8384000F082
:10391000BFBC04F09FF82468236820461B6A9847C0
:10392000012384F87C300020BDE8384000F0DABC88
:1039300038BD00BF28350120006801404E0400203A
:103940004C04002003685B6C184701207047036833
:103950009B6A1847FEE7000082B0002301930E4BDC
:103960001A6B42F400021A631A6B02F4000201920D
:10397000019A1A6942F400021A611A6922F40002DB
:103980001A61064B064A1A61064A5A61064B4FF005
:1039900080629A6002B0704700380240D041012036
:1039A000B53900085539000800E100E040F2EF3079
:1039B00070470000024B1B68586803685B69184732
:1039C0002835012008B50B280BD8DFE800F01206D7
:1039D000100A0A0A0A0808080808012008BD05207C
:1039E000FCE7054B054A06486F2123F079FB0020D0
:1039F000F4E70220F2E700BFCD9602089E97020886
:103A0000E896020808B50A2809D8DFE800F0100691
:103A10000E080808080606060600012008BD054B2A
:103A2000054A0648902123F05BFB0020F6E70220C0
:103A3000F4E700BFCD960208E8970208E89602086E
:103A4000F8B50C46487FFFF7BDFFA77F054638460F
:103A5000FFF7B8FF06463846FFF7D4FFA38A628B0C
:103A6000D21A494B1A64A18A628B521A9A61A18AAE
:103A7000228B521A1A615863A18AE28A42EA0142F1
:103A80005A642269DA636268DA602268402A70D078
:103A900010D8042A3BD0202A6BD0237F45EA036547
:103AA000394B45F40035DD61617FA27F914267D0DB
:103AB000364A4BE0B2F5807F1BD0B2F5007F23D0B1
:103AC000802AEAD1A068021DDA62227F45EA0265F7
:103AD00045F40035DD615E6222695A610278EAB11F
:103AE000012A35D02A4B2B4A2B484FF48D7123F0F5
:103AF000F7FA217F294A42EA0162DA61E2681A6232
:103B00005E6222695A6120E0217F254AF3E7227F25
:103B100045EA026545F40035DD61F1E7D96942887F
:103B2000501E21F47F4222F0100242EA0022DA61A4
:103B30000121154BDA6942F02002DA61DA69920656
:103B4000FCD410229A600029B2D0164A1A60F8BD3F
:103B5000DA694088217F22F47F4222F01002013886
:103B600042F01002FF3942EA002218BF0121DA6157
:103B7000DFE7237F45EA036545F40035024BCBE7D9
:103B800042F20132E2E700BF00B00240012301002F
:103B9000B396020860970208E89602080A0002003D
:103BA000090002000123020010B5887F0C46FFF7D0
:103BB00029FF1C4B5863A18AE28A42EA01425A64F7
:103BC0002269DA63628BA18A521A1A642268082A6F
:103BD00016D1A18A628B521A9A61A18A628B521AFB
:103BE0001A615862217F104A42EA0162DA61E26892
:103BF0001A6222695A612269DA600C4A1A6010BDA1
:103C00000022D8611A61E1680A0A480902F4784280
:103C100000F4FC600243C1F3C4010A439A63044AFE
:103C2000ECE700BF00B002400900010001230200E0
:103C300001230300054B0360054B4FF08062C3F87E
:103C40008820BFF34F8FBFF36F8F7047189702081C
:103C500000E100E010B50446FFF7ECFF20464FF40A
:103C60005A6122F0B1F9204610BD000070B505463A
:103C70002C460A4B0C30002668602E726E7244F897
:103C8000203B6022214607F055FE05F55A63E660A9
:103C90002434A342FBD1284670BD00BF1897020808
:103CA000034B1A68D207FCD423229A60704700BFE6
:103CB00000B002407047000030B50F4C2568ED079A
:103CC000FCD423250904A56041F001010225FF2B46
:103CD00065636164E0630AD00849656241EA036391
:103CE000E361074B22626061E060236030BDE56103
:103CF000039BA363034BF8E700B0024009000100F7
:103D0000010002000100030030B50E4C2568ED07EC
:103D1000FCD423251204A56042F001020225FF2BEA
:103D200065636264E063E16008D01B0643F0021340
:103D3000E361054B65626061236030BD034BE36165
:103D40000123F9E700B0024001000200020002FF77
:103D500030B50B4C2568ED07FCD4232512041B0657
:103D6000A56043F40033022542F0010265636264FA
:103D7000E063E160E361034B65626061236030BD35
:103D800000B0024001000200012108B500220846EF
:103D900005F01CFD0A4B186028B90A4B0A4A282175
:103DA0000A4823F09DF900220421012005F0AEFD10
:103DB000074B186018B9074B034A2C21F0E708BDE0
:103DC0001005002033980208E79802087C98020842
:103DD0000C050020A5980208024B4FF0FF3118682F
:103DE00005F03EBD10050020014B186805F064BDCC
:103DF00010050020024B0021186805F031BD00BFFE
:103E000010050020FFF7F0BF0348044900680023B5
:103E10001A4605F0B7BD00BF0C05002004000020C5
:103E200013B5084C00231A4601A9206805F0DCFDF3
:103E30004FF0FF33002201A9206805F0D5FD02B044
:103E400010BD00BF0C0500207047704770477047D9
:103E50000120704714207047142303FB0100083031
:103E60007047142303FB010008307047012070479E
:103E700041F24420704741F2442303FB0100083023
:103E8000704741F2442303FB0100083070470120D2
:103E900070471020704700EB01100830704700EBAE
:103EA0000110083070470846FEF734BD10B5034BCB
:103EB0000360044606F06CFB204610BD889902089A
:103EC00010B50446FFF7F2FF20461C2122F07CF8D3
:103ED000204610BD10B5034B0360044606F058FBA6
:103EE000204610BD5499020810B50446FFF7F2FFB2
:103EF000204641F24C2122F067F8204610BD000018
:103F000010B5034B0360044606F042FB204610BD8B
:103F10002099020810B50446FFF7F2FF2046182149
:103F200022F052F8204610BD10B5094B036004463C
:103F300000F593501830FFF7B9FF04F12C00FFF79C
:103F4000C9FF04F11400FFF7DBFF204610BD00BFDE
:103F5000BC99020810B50446FFF7E6FF204641F27F
:103F6000F43122F031F8204610BD00002DE9F34174
:103F7000FFF71AFA0546FFF71BFA0024014623460D
:103F800028462246009412F053FF274B274A1A6016
:103F90002046FFF7A3FA264B264A274D9A6027486A
:103FA00012F0AEFE2B78BFF35B8FDB0736D42846CA
:103FB00021F0E1FF002831D0214C224F224BE76055
:103FC00007F1200604F1140004F12C086060C4F825
:103FD00008802661236006F0DDFA1C4B63614046D1
:103FE00006F0D8FA1A4BE362384606F0D3FA194BBA
:103FF0003B6007F11C00FDF7DFFA224607F11C01C8
:104000003046FDF70DFB3046FEF784FC284621F0D4
:10401000BEFF114A1149204621F0D1FF104802B0DD
:10402000BDE8F04100F0FCB88C350120502700209D
:10403000542700200C19002014050020080000203F
:104040001805002090170020BC990208209902084A
:10405000549902088899020800000020293F0008AE
:10406000CC26002070470000014800F0E7B800BFF0
:10407000CC26002010B50421044621F0A5FF2046DF
:1040800010BD10B58C21044621F09EFF204610BDC6
:1040900010B51C21044621F097FF204610BD10B535
:1040A0008421044621F090FF204610BD2DE9F04107
:1040B000454C464D464F474B47492B6022462846C4
:1040C00021F07DFF454EDFF854813846FFF7CEFDE5
:1040D00022464349384621F072FF304617F0A4FFCC
:1040E00022464049304621F06AFF40460FF034FE38
:1040F00022463D49404621F062FF22463B493C486A
:1041000021F05DFF3B483C498166002301220421E8
:10411000C0E90176C560C0E90433C0E90633C0E9EF
:104120000833038580F82A30C3620386C0E90E3362
:10413000C0E9103380F8483080F8492080F84A30D0
:1041400080F84B30C0E91333436580F85830C0E93C
:104150001733436680F86C3080F86D3080F86E302D
:1041600080F86F3080F87D105021A0F87E101A2161
:10417000A0F880101421A0F882102049204D08607A
:10418000F02129801F4D80F8703029801E4D436733
:104190004FF4A07129801D4D80F8783029801C498A
:1041A00080F879300B7080F87C301A4B80F87A20D8
:1041B00080F87B2080F83420036022461649BDE851
:1041C000F04121F0FCBE00BF0000002028190020B3
:1041D0002C190020BC9A0208493E000854270020F0
:1041E000353C00084B3E00084D3E00086D3300088A
:1041F00008000020CC260020010000012835012005
:104200001A350120203501201C35012022350120DE
:104210001E350120D09902084F3E00080C190020DD
:1042200010B50446FFF778FA23680349D3F89030B5
:104230002046BDE81040184700B004D008B5036818
:104240000446D3F88430984723682046DB6F9847AC
:10425000FFF7E6FD236820465B6F9847292000F0B2
:104260003BFDFFF7DDFD236820465B6F9847F8E7CD
:10427000FFF7F2B9FFF7F6B9FFF76CBAFFF7C8B965
:10428000FFF7A4BAFFF7ACBAFFF7CCB906F02ABC27
:10429000032821D8DFE800F0020B12190F4B1A682F
:1042A000B2FA82F2520904210D4802F047BC0B4BCE
:1042B0005A68B2FA82F252090821F5E7074B9A6868
:1042C000B2FA82F252091021EEE7044BDA68B2FA30
:1042D00082F252092021E7E7704700BFE027002063
:1042E00000100240032821D8DFE800F0020B121969
:1042F0000F4B1A68003218BF012204210D4802F04A
:104300001DBC0B4B5A68003218BF01220821F5E78B
:10431000074B9A68003218BF01221021EEE7044BC8
:10432000DA68003218BF01222021E7E7704700BF9A
:10433000E02700200010024003280DD8DFE800F03D
:104340000206080A0421054802F0FDBB0821FAE72D
:104350001021F8E72021F6E7704700BF0010024067
:1043600008B5032811D8DFE800F0020A0C0E04217A
:10437000074802F0DDFB431E5842584108BD0821A2
:10438000F6E71021F4E72021F2E70020F3E700BF71
:104390000010024070B5084D00240126E0B2FFF77E
:1043A000DFFF28B155F82430012B18BF45F82460F1
:1043B0000134052CF2D170BDE027002038B50C4B3C
:1043C0000C4C18800C4B822019806368984740F68B
:1043D000110398420AD1094D23682C608220984726
:1043E0002B688220DB689847002038BD0120FCE75D
:1043F000F027002024000020F2270020F4270020CE
:104400004FF4A071F020FFF7D9BF0000F7B5394D88
:104410002B6804461B698220984780B220800028C0
:104420005AD02B680DF106025B6901A982209847DA
:10443000314B1B78002B57D0BDF8062040F6746333
:104440009A424BD9ADF80630BDF806209B1AADF85C
:104450000630BDF806200B23B2FBF3F232B1274B36
:104460001B8893423CBF03F1FF3292B2BDF8043087
:1044700040F6B8318B4295BFC3F57163C3F56D63E8
:104480000E330833ADF80430BDF804100F23B1FB30
:10449000F3F131B11A4B1B888B423CBF03F1FF3162
:1044A00089B2184E184D30682F6883B2814288BF98
:1044B000CB1AB8B298BF5B1ABA428CBF101A801AD6
:1044C0009BB280B20344052BC8BF31603368C8BFBC
:1044D0002A6063802B68A38003B0F0BDB32A9CBF21
:1044E000B422ADF80620AFE7BDF80630A3F5B473EB
:1044F000ADE700BFF427002004280020F2270020A9
:10450000F0270020F8270020FC27002037B5684658
:104510000D461446FFF77AFFBDF8000030B1BDF834
:1045200002302B60BDF804302360012003B030BDA1
:10453000054BD3F8882042F47002C3F888204FF06E
:1045400000629A60704700BF00ED00E070B588B06F
:1045500000230293204B1A6C42F010021A641B6C69
:1045600003F010030293064601A903A8029B01F081
:10457000D1F9069B4BBB01F0BDF9184C184B2360D9
:1045800040F2E733E360174BB0FBF3F00138002350
:10459000606020462361A360A36101F01BFB054618
:1045A00080B9204601F0D6F9054658B9362002F008
:1045B00015F80F2E0DD82A463146362001F0DAFFC5
:1045C000094B1E60284608B070BD01F093F9400009
:1045D000D3E70125F6E700BF00380240903F0120F5
:1045E0000010004040420F001C00002007B5064BA1
:1045F00002A91B6821F8020D0122044802F0D5FB34
:1046000003B05DF804FB00BF14000020344001201B
:1046100007B5184D184C284602F0D8FE4FF0FF3170
:10462000284602F078FF284602F0CAFFADF80000E5
:10463000284602F051FF012005F0BCF8204602F0A8
:10464000C5FE4FF0FF31204602F065FF204602F024
:10465000B7FFADF80400204602F03EFF07480023F4
:104660001A466946006805F08DF9322005F0A2F877
:10467000D1E700BF844101208C400120D83F0120B8
:1046800030B595B03022002108A822F0A4FD1422F4
:10469000002103A822F09FFD00241E4B01941A6CF8
:1046A00042F080521A641B6C03F080530193019B0B
:1046B000194B02941A6842F440421A601B6803F4D2
:1046C000404302930122029B4FF48033CDE908233B
:1046D00002254FF480030821CDE90E534FF4B47343
:1046E000CDE9101308A804231393129500F08AFE55
:1046F00000F0F6FD0F23CDE903354FF4A0504FF441
:104700008053CDE90603052103A8059401F054F870
:1047100015B030BD00380240007000402DE98048DF
:104720009BB003F0B7F9FFF7ABFF142200210DA8EF
:1047300022F051FD0024C94B00941A6BC84842F086
:1047400010021A631A6B02F010020092009A019490
:104750001A6B42F020021A631A6B02F020020192D7
:10476000019A02941A6B42F080021A631A6B02F0EB
:1047700080020292029A03941A6B42F004021A63B6
:104780001A6B02F004020392039A04941A6B42F02B
:1047900001021A631A6B02F001020492049A059452
:1047A0001A6B42F002021A631A6B02F002020592BF
:1047B000059A06941A6B42F040021A631A6B02F0D3
:1047C00040020692069A07941A6B42F008021A6396
:1047D0001B6B03F00803224607933C21079B02F062
:1047E000ADF9012202219F4802F0A8F922460421D6
:1047F0009C4802F0A3F922464FF440519A4802F037
:104800009DF901263C2303250DA995480F94022705
:10481000CDE90D36109502F09DF80DA99148CDE92E
:104820000D76CDE90F4402F095F804230DA98D48CB
:10483000CDE90D36CDE90F4702F08CF84FF4405327
:104840000DA98948CDE90D36CDE90F4702F082F870
:1048500008230DA983480F94CDE90D3502F07AF8AD
:104860000DA9202381480F94CDE90D3502F072F88F
:104870007F48804B804D036003F07AFA7F48804B7D
:104880002C62C5E900034FF480432846C5E904348F
:10489000C5E90244C5E9064401F0BCFB10212846E5
:1048A00001F010FE2146284601F02EFE754DDFF87E
:1048B000ECC1AC624FF48273C5E900C34FF4007ED3
:1048C0001823C5E906E328460A23C5E90244C5E9D9
:1048D0000444C5E90844EB6202F008FA8F2322463B
:1048E000394660488DF824308DF8344002F026F9BE
:1048F00032464FF47A7309A9284602F056FA4FF46B
:104900007A7332460DA9284602F001FC3246394638
:1049100054485D4D02F012F99DF83430D32B04BF9A
:104920005A4B1E705A4B0126C5E900364FF010084D
:1049300040230024C5E904834FF4C073C5E906345D
:104940004FF40063C5E908344FF400534FF0020AF6
:104950004FF004094FF0030BAB620DA90723284663
:10496000CDE90DA3CDE90F930827C5E90249CDE9AB
:1049700011BACDF84CA000F0EFFC4FF6FF7209A978
:10498000284608940996CDE90A760C9400F004FDB7
:10499000304603F0ABF84FF6FF7209A92846CDE97F
:1049A00009A7CDE90B6400F0F7FC4FF6FF7209A9E7
:1049B0002846CDE909B7CDE90B9400F0EDFC4FF4A2
:1049C0000C730893089B0C934FF6FF7209A92846B5
:1049D000CDE909970B9600F0DFFC40F26A512846BA
:1049E00000F0F8FC342221460DEB020022F0F3FB2C
:1049F000284D294B2C61C5E900340923C5E905364A
:104A00001D23C5E9073B40F20D1240F24313C5E9EF
:104A1000092340F2171140F24713C5E90B13C5E90A
:104A20000244AC8685F83640284602F029FFFF2173
:104A3000F022CDE912144FF005094FF480614FF4D4
:104A4000A073CDE90E24CDE91419CDE916420DA9C4
:104A500022462846CDE9103A22E000BF0038024045
:104A60000010024000080240000C0240000002401A
:104A7000D440012000300240E03F0120005C0040B3
:104A8000A0860100344001201042012004280020AB
:104A9000400100A0DC4001200068014000500140BE
:104AA000414D18930D94ADF864408DF8664002F0C6
:104AB000A8FF3E4B2B601B6898472B683C4DDB687A
:104AC00098473C4BC5E90A4AC5E90C442846C5E964
:104AD0000034C5E902A401F033FE3146284601F056
:104AE000EFFE354DDFF800A1424621460DA822F029
:104AF00072FB324BAC604FF4803B2846C5E9003B6B
:104B00002C612C7685F82040EC62C5F828A0EC607A
:104B1000EE6185F830406E6102F0A0FB0D230DA917
:104B20002846CDE90D36264D0F9402F04DFD424644
:104B300021460DA822F04FFB224BAC602846C5E968
:104B4000003B2C612C7685F82040C5E90AA4EC6076
:104B5000EE6185F830406E6102F080FB0DA92846B9
:104B6000CDE90D960F9402F02FFD03F012F903F03A
:104B70000FF904F0A3FD144A39460A2004F0C6FEDA
:104B8000124B134A18602146124804F0CAFD124B1A
:104B9000124A18602146124804F0C3FD114B1860F8
:104BA00004F09EFDFEE700BF002800204C0000201E
:104BB000D041012000B0024084410120002001408A
:104BC0008C400120002101402C9B0208D83F01208D
:104BD000089B020811460008DC3F0120E49A020805
:104BE000A17D0008CC4101200100000F70477047F3
:104BF00010B586B006AC074B04F8012D1B68029374
:104C000001230A46CDE900430146034801F0B2FA08
:104C100006B010BD10000020E03F01207FB506AABD
:104C2000002302F8013D084B1B6802930123CDE9E4
:104C300000230A460146054801F030FB9DF81700A5
:104C400007B05DF804FB00BF10000020E03F01202A
:104C50001FB5084C24680092CDE901340A460123AF
:104C60000146054801F01AFB003018BF012004B0CE
:104C700010BD00BF10000020E03F012002F036BF51
:104C800010B5064C00222046042101F057FF2046B3
:104C900001220421BDE8104001F050BF000802408D
:104CA00038B50B4C054601224FF40051094801F07C
:104CB00045FF00220421204601F040FF2846FFF76F
:104CC00095FC204601220421BDE8384001F036BFA2
:104CD00000080240000C024038B50B4C054600228B
:104CE0004FF40051094801F029FF00220421204619
:104CF00001F024FF2846FFF779FC20460122042119
:104D0000BDE8384001F01ABF00080240000C024024
:104D1000F7B5144C144D07460E46204600220421D8
:104D200001F00CFF00224FF40051284601F006FF6D
:104D30003846FFF75BFC0D4B0D481B68324601A956
:104D400002F0E5F9284601224FF40051019E01F0DE
:104D5000F5FE20460122042101F0F0FE304603B0AA
:104D6000F0BD00BF00080240000C0240140000200B
:104D70003440012002F0BABE0268034B9A4201D1CE
:104D800002F0A2BE704700BF00100040704770479D
:104D9000FEE7FEE7FEE7FEE770470000014800F08F
:104DA00017BE00BF903F0120014802F0C9BD00BFFF
:104DB000DC400120014801F0F3BC00BFD0410120DC
:104DC00082B00E4B00220092596C41F4804159642C
:104DD000596C01F48041009100990192196C41F0E5
:104DE000805119641B6C03F080530193019B0F21C8
:104DF0006FF0010002B001F0BDBB00BF00380240FF
:104E000010B514228AB0044600210DEB020022F0F6
:104E1000E2F92368214A93421FD1214B2148002106
:104E200001915A6C42F480725A645A6C02F4807296
:104E30000192019A02911A6B42F004021A631B6BF1
:104E400003F0040302930821029B0323CDE9051319
:104E500005A901F07FFD0AB010BD134A9342FAD1B3
:104E60000F4B1248002103915A6C42F400725A64AD
:104E70005A6C02F400720392039A04911A6B42F086
:104E800001021A631B6B03F001030493049B2022AD
:104E90000323CDE9052305A9DBE700BF002001407E
:104EA000003802400008024000210140000002409A
:104EB0000268094B9A4282B00BD100230193074B41
:104EC0001A6B42F480521A631B6B03F480530193F4
:104ED000019B02B0704700BF003002400038024022
:104EE00007B50F4B02689A4216D10022A3F5F04392
:104EF0000192196B41F4000119631B6B03F4000369
:104F0000019305215A20019B01F034FB5A2003B084
:104F10005DF804EB01F062BB03B05DF804FB00BF79
:104F200000B002402DE9F043044689B0142200216C
:104F300003A822F050F92268244B9A4243D1244C12
:104F4000244800250095236B43F004032363236B5F
:104F500003F004030093009B0195236B43F00103CE
:104F60002363236B03F001030193019B4FF01209AC
:104F70004FF400734FF001080327042603A9CDE97D
:104F80000339CDE90587079601F0E4FC4FF48073FF
:104F900003A911480796CDE90339CDE9058701F04A
:104FA000D9FC0295236C43F400032364236C03F4BF
:104FB00000030293029B236A43F400032362236AE3
:104FC00023F40003236209B0BDE8F083005C0040D5
:104FD000003802400008024000000240F0B599B0DD
:104FE00004461422002107A822F0F5F830220DEB28
:104FF0000200002122F0EFF822685E4B9A4240F056
:10500000B78008230C93C0231093042312930CA899
:105010004FF40033159302F07DFD08B1FFF7B6FEA3
:10502000554B5648002400945A6C42F080625A64F2
:105030005A6C02F080620092009A01941A6B42F05E
:1050400020021A631A6B02F020020192019A029464
:105050001A6B42F001021A631A6B02F0010202920B
:10506000029A03941A6B42F002021A631A6B02F05E
:1050700002020392039A04941A6B42F040021A63EC
:105080001A6B02F040020492049A05941A6B42F0E3
:1050900004021A631A6B02F004020592059A069440
:1050A0001A6B42F008021A631B6B03F008030693A5
:1050B00002250E26069B0B964FF4806307A9CDE9C7
:1050C0000735CDE9094501F045FC41F6580307A92C
:1050D0002B480B96CDE907350927CDE9094501F0A5
:1050E00039FC032307A927480B97CDE90735CDE9FC
:1050F000094501F02FFC4FF4706307A921480B9676
:10510000CDE90735CDE9094501F024FC4FF40C63E6
:1051100007A91D480B96CDE90735CDE9094501F0F2
:1051200019FCC02307A919480B96CDE90735CDE92D
:10513000094501F00FFC082307A915480B96CDE996
:105140000735CDE9094501F005FC4FF4A05307A947
:105150000D480B97CDE90735CDE9094501F0FAFB7C
:1051600058202246052101F005FA582001F036FAB0
:1051700019B0F0BD00680140003802400014024040
:1051800000000240000402400018024000080240F3
:10519000000C024010B5044688B01422002103A878
:1051A00022F019F82268144B9A4223D103F5684380
:1051B000002101915A6C114842F480125A645A6CD1
:1051C00002F480120192019A02911A6B42F02002BD
:1051D0001A631B6B03F020030293029B4FF460726F
:1051E00002230321CDE903230523CDE9061303A9F7
:1051F00001F0B0FB08B010BD0050014000140240A7
:105200002DE9F04186B01422002101A821F0E3FF2E
:105210002B4B1C68002C4FD14FF00108C3F80080C5
:10522000284B00949A6B284842EA08029A639B6BC9
:1052300003EA08030093022703260C25009B01A91B
:105240004FF63F03CDE90137CDE9046501F082FB5C
:1052500001A91E480595CDE90187CDE9034601F076
:1052600079FB48F2331301A919480595CDE90137B7
:10527000CDE9034601F06EFB4FF6837301A9154893
:105280000595CDE90137CDE9034601F063FB4CF20A
:10529000037301A910480595CDE90137CDE903460F
:1052A00001F058FB602301A90C480595CDE90137B1
:1052B000CDE9034601F04EFB06B0BDE8F08100BF2A
:1052C0000828002000380240001402400008024074
:1052D0000018024000100240000C0240000402408E
:1052E00037B500230193184B184C1A6C42F08052CA
:1052F0001A641B6C03F080530193019B144B012231
:105300001A6002F0EDFB05466368DA030BD5114B1A
:105310000E4C01221A6002F0E3FB054663689B0312
:105320000AD5002006E002F0DBFB401BB0F57A7FD7
:10533000EAD9032003B030BD02F0D2FB401BB0F528
:105340007A7FEBD9F5E700BF0038024000700040DB
:1053500040000E4244000E4238B50D460446C8B126
:1053600090F82C3003F0FF021BB980F82D20FFF7D6
:1053700047FF022384F82C30211D206801F03CF9FE
:1053800062682068294601F06BF9012384F82C300B
:10539000002038BD0120FCE770B5054690F82C00D0
:1053A000C0B202280E4612D000F0FB04012C0FD12F
:1053B000022385F82C30286801F094F93368022B19
:1053C00006BF052385F82C3085F82C40002070BDE1
:1053D0000120FCE738B5044690F82C00C0B2022842
:1053E0000DD094F82C50EDB2012D09D1022384F890
:1053F0002C30206801F09AF984F82C50002038BD38
:105400000120FCE72DE9F341044608B9012041E001
:105410000368DD0710D4236898075AD423681A0755
:1054200000F19C8023685B0700F1BA80A069002826
:1054300040F01C8100202DE0A44B9A6802F00C0281
:10544000042A07D09A6802F00C02082A0AD15B6885
:10545000590207D59D4B1B689A03DCD56368002B66
:10546000D9D1D3E76268994BB2F5803F15D11A685C
:1054700042F480321A606368F3B102F031FB934D5D
:1054800006462B689B03C6D402F02AFB801B6428C7
:10549000F7D9032002B0BDE8F081B2F5A02F1A6859
:1054A00003D142F480221A60E1E722F480321A60CC
:1054B0001A6822F48022DDE702F012FB834D0646D3
:1054C0002B689F03A7D502F00BFB801B6428F7D93C
:1054D000DFE77E4B9A6812F00C0F07D09A6802F053
:1054E0000C02082A11D15B685E020ED4774B1A6851
:1054F000950702D5E268012A88D11A68216922F04D
:10550000F80242EAC1021A6088E7E268704BB2B161
:1055100001221A6002F0E4FA6C4D06462B689807E7
:1055200007D52B68226923F0F80343EAC2032B60F6
:1055300074E702F0D5FA801B0228EFD9A9E71A60B8
:1055400002F0CEFA614D06462B6899077FF566AFEB
:1055500002F0C6FA801B0228F6D99AE762695D4B11
:105560007AB101221A6002F0BBFA584D06466B6F01
:105570009F073FF557AF02F0B3FA801B0228F6D918
:1055800087E71A6002F0ACFA504D06466B6F980739
:105590007FF548AF02F0A4FA801B0228F6D978E71D
:1055A0004A4B1A6C12F080522BD101921A6C42F0C5
:1055B00080521A641B6C03F080530193019B0126F7
:1055C000454D2B68D9051ED5A268404B012A2AD12A
:1055D0001A6F42F001021A67A368002B37D002F05D
:1055E0007FFA3A4D074641F288382B6F9B0728D542
:1055F000002E3FF41BAF354A136C23F08053136425
:1056000014E70026DCE72B6843F480732B6002F07C
:1056100067FA07462B68DA05D6D402F061FAC01B98
:105620000228F7D935E7052A1A6F03D142F00402A0
:105630001A67CDE722F001021A671A6F22F00402FE
:10564000C9E702F04DFAC01B4045CED921E702F070
:1056500047FA1E4D074641F288382B6F9807C7D589
:1056600002F03EFAC01B4045F7D912E7174DAB6870
:1056700003F00C03082B46D0184E00230228336099
:1056800034D102F02DFA07462B68990128D4D4E9C9
:1056900007321343626A43EA8213E26A43EA02630F
:1056A000A26A0A4C5208013A43EA02436B600123A2
:1056B000336002F015FA054623689A013FF5BAAE49
:1056C00002F00EFA401B0228F6D9E2E6003802404A
:1056D00000004742800E4742007000406000474291
:1056E00002F0FEF9C01B0228CED9D2E602F0F8F98A
:1056F00004462B689B017FF59DAE02F0F1F9001B7B
:105700000228F6D9C5E601283FF4C4AE6B68E26909
:1057100003F4800191427FF479AE216A03F03F02E5
:105720008A427FF473AE616A47F6C0721A40B2EBE8
:10573000811F7FF46BAEA26A520803F44031013A34
:10574000B1EB024F7FF462AEE26A03F07063B3EB39
:10575000026F14BF012000209CE600BF08B513496A
:105760008B6803F00C03042B03D0082B03D01048E4
:1057700000E0104808BD4A684B68496813F480038C
:1057800014BF0C480A48C1F3881118BF002302F067
:105790003F02A1FB0001FBF799F9044B5B68C3F3DF
:1057A000014301335B00B0FBF3F0E3E70038024054
:1057B0000024F40000127A002DE9F0410D46044661
:1057C00010B90120BDE8F081454B1A6802F00F02C4
:1057D0008A422AD323689E072FD42368D90743D44B
:1057E0003F4B1A6802F00F02AA4268D823685A0792
:1057F0006ED423681B0707D53A4A2169936823F4BE
:10580000604343EAC1039360FFF7A8FF354B364A74
:105810009B68C3F30313D35CD840344B1860344BFC
:105820001868FEF793FE0020CCE7CAB21A701B6816
:1058300003F00F038B42C4D1CCE7580741BF294A7C
:10584000936843F4E05393602368264A13F0080FEB
:105850001EBF936843F4604393609368A16823F08C
:10586000F0030B439360B8E762681E4B012A1CD11A
:105870001B6813F4003FA4D01A4EB36823F003034F
:105880001343B36002F02CF941F288380746B3683D
:10589000626803F00C03B3EB820FA1D002F020F991
:1058A000C01B4045F3D903208CE7911E01291B68DA
:1058B00002D813F0007FDEE713F0020FDBE7EAB255
:1058C0001A701B6803F00F03AB427FF47AAF8DE7C9
:1058D000044AE168936823F4E0530B43936088E73C
:1058E000003C024000380240CC9A02080C00002024
:1058F0001C000020044B054A9B68C3F38223D35C41
:10590000034A1068D840704700380240DC9A020809
:105910000C0000200F2303600B4B9A6802F0030277
:1059200042609A6802F0F00282609A6802F4E052E3
:10593000C2609B68DB0803F4E0530361034B1B6800
:1059400003F00F030B60704700380240003C024038
:105950007047000090F83D30012B31D102680223DE
:1059600080F83D30D36843F00103D3600368154AE3
:1059700093421AD0B3F1804F17D0A2F57C429342E4
:1059800013D002F5806293420FD002F580629342F9
:105990000BD002F57842934207D002F57052934241
:1059A00003D0A2F59432934204D19A6802F0070220
:1059B000062A03D01A6842F001021A6000207047DC
:1059C00001207047000001407047704770477047E2
:1059D00070B50368DD681E69B10704460ED5AA07D5
:1059E0000CD56FF002021A610123037703689B69EB
:1059F0009B076CD0FFF7E9FF00232377710711D5D0
:105A00006A070FD523686FF004021A610223237717
:105A100023689B6913F4407F20465ED0FFF7D5FFD3
:105A200000232377330710D528070ED523686FF09E
:105A300008021A61042323772368DB69990720464B
:105A400051D0FFF7C2FF00232377F20611D5EB06F2
:105A50000FD523686FF010021A610823237723689B
:105A6000DB6913F4407F204643D0FFF7AEFF0023ED
:105A70002377F00708D5E90706D523686FF0010200
:105A80001A612046FFF778F9320608D52B0606D5AD
:105A900023686FF080021A61204600F057FD7006FF
:105AA00008D5690606D523686FF040021A612046C2
:105AB000FFF78DFFB20622D5AB0620D523686FF025
:105AC00020021A612046BDE8704000F03EBDFFF79D
:105AD0007BFF2046FFF77AFF8EE7FFF775FF204632
